:0400000080313028F3
:1000060008007E14803120007F08F9000B1F152898
:100016002100111E15282000111E15288E31B2262A
:1000260080312B280B1F21282100911E212820001A
:10003600911E21288E31972680312B280B1F2B28C5
:100046002100911D2B282000911D2B288F31AC27D4
:1000560079082000FF007E100900803132288731A0
:10006600FE278031FD00963084008D3085006C308F
:1000760086000030870004308D31AB258031CE30CC
:1000860084008D308500E830860000308700083017
:100096008D31AB258031FA01FB01FC015230840021
:1000A600003085001A308D31A5258031A0308400BE
:1000B6000030850040308D31A52580312030840008
:1000C6000130850030308D31A5258031A030840087
:1000D6000130850030308D31A5257E102000873116
:1000E600BA2F30302000B2003208B90020002F08A5
:1000F600B3002E08B200AE0A0319AF0A3208840014
:10010600330885000008B4003408C100410803190B
:100116000800253041060319952841088D319F2591
:10012600803179282000BF01C001BE019F283E15FD
:100136000130AE070030AF3D2E0884002F08850041
:100146000008303A03199A28A8282E0884002F0898
:10015600850000088E3146268031031C492920007F
:10016600BF01C0010A302000A0000030A1004008F5
:10017600A3003F08A2008E31CD2680312000210841
:10018600C0002008BF002E0884002F088500000844
:10019600D03EB200FF3003180030B3003208BF076C
:1001A6003308C03D0130AE070030AF3D2E08840055
:1001B6002F08850000088E3146268031031C492908
:1001C600B5282000390886008701403FB700413F27
:1001D600B8000230B2003208B90737083804031DE8
:1001E600F8285A30B7008430B800BC01BD01370882
:1001F6003C07840038083D3D850012000319082994
:100206000130BC070030BD3DFA2840083D02031D01
:100216000E293F083C02031815293C08BF023D0879
:10022600C03B1729BF01C001FF302000BF07FF30C8
:10023600C03D3F0A0319400A0319332920308D3186
:100246009F25803117293708840038088500000863
:100256008D319F25803101302000B7070030B83D31
:100266000130BC020030BD3B3C0A031D26293D0A75
:100276000319792826294130B7000030B80001302B
:10028600BC000030BD0008293E17672920002F0852
:10029600B3002E08B200AE0A0319AF0A3208840072
:1002A600330885000008C100003A0319482A643A59
:1002B600031967290D3A031967291A3A0319E4281D
:1002C600063A031947293E2920003E1B8129390891
:1002D60086008701403FBA00413FBB000230B200B2
:1002E6003208B907BB1F8C290330B2003208BE049E
:1002F600BA09BB09BA0A0319BB0A8C293908860050
:100306008701403FBA00413FBB000230B2003208CD
:10031600B907C101C10A053041060319B1294108CF
:10032600B200B301B235B30DD23032078400833048
:10033600333D8500003FB400013FB50035083B0260
:10034600031DA72934083A02031CB1290130B20063
:100356003208C10705304106031D92293F084004B3
:100366000319BD293E0803390319BD29FF30BF070C
:10037600FF30C03D4108B200B301B21BB3033308DE
:10038600803AB4004008803A3402031DCC293F0865
:1003960032020318D92920004108B200B301B21B6A
:1003A600B3033208BF023308C03BDC292000BF017B
:1003B600C0013E1DF5293E0803390319E6292D30F3
:1003C6008D319F25803120003F08400403190E2AF5
:1003D60030308D319F258031FF302000BF07FF3040
:1003E600C03DE7293F0840040319062A20308D3115
:1003F6009F258031FF302000BF07FF30C03D3F08FA
:100406004004031DF9293E08033903190E2A2D302D
:100416008D319F25803120004108B2003208B60098
:10042600FF302000B2003208B607360A03197928D1
:100436000A30A8000030A9003608B200B301B23570
:10044600B30DD230320784008330333D8500003F40
:10045600A000013FA1003B08A3003A08A200873193
:100466008527803120002108AB002008AA008F31A3
:10047600D327803120002808303EB4003408C1005C
:1004860041088D319F258031132A08008D318E2534
:1004960082312000CE004E08D600560803196F2A76
:1004A6000B115208530403196F2A0130CE004E086F
:1004B600D7075C085702031C6F2AD7010130CE000C
:1004C6004E08D8076C085802031C6F2A5A080319ED
:1004D6006E2AD901D90AD801590803197D2A52086A
:1004E600530403197D2A53088A0052080A008231F0
:1004F6002000D90121003C083D040319872A3D0844
:100506008A003C080A008231200060080319492A43
:100516008F31252782312000CE004E08D0005008AA
:10052600CE005D08203E8600013087004E0881001F
:100536000130CE004E08DD070A305006031D492A59
:100546000130DD025D08203E860001308700810112
:10055600DD016730AE008430AF002030B0000130DE
:10056600B10080317420823120006E030319C02A45
:1005760020308731FF278231492A88302000A000A9
:100586008430A1002030CE004E08A2000330A30024
:100596000030A4008731072782312000200821047B
:1005A600031DE52A1930AE008430AF002100610832
:1005B6002000B100210060082000B00080317420C6
:1005C6008231492A98302000A0008430A1002030D2
:1005D600CE004E08A2000330A3000030A4008731ED
:1005E60007278231200020082104031DFE2A8D31B1
:1005F600DF258231492A80302000A0008430A10006
:100606002030CE004E08A2000330A3000030A40024
:10061600873107278231200020082104031D172B6C
:100626008D318A258231492A8C302000A000843001
:10063600A1002030CE004E08A2000330A3000030F7
:10064600A400873107278231200020082104031DDA
:100656003C2B8D317825823123302000AE0084304A
:10066600AF008430B0008430B10080317420823114
:10067600492A94302000A0008430A1002030CE000A
:100686004E08A2000330A3000030A40087310727DC
:100696008231200020082104031D5B2B2430863183
:1006A60007268231200026088D31B8258231492A55
:1006B60090302000A0008430A1002030CE004E08EB
:1006C600A2000330A3000030A4008731072782313F
:1006D600200020082104031D7F2B0530AE00843046
:1006E600AF005C08CE00CF014E08B0004F08B10045
:1006F600803174208231492A7C302000A000843069
:10070600A1002030CE004E08A2000330A300003026
:10071600A400873107278231200020082104031D09
:10072600A22B243086310726823120002608CE00EF
:100736004E08D10051088E3137268231492A783049
:100746002000A0008430A1002030CE004E08A20078
:100756000330A3000030A400873107278231200030
:1007660020082104031DCD2B8D31752582312000F3
:10077600CE004E08D100FB30AE008330AF005108EA
:10078600CE00CF014E08B0004F08B1008031742072
:100796008231492A20308731FF278231492A0134A4
:1007A60000340A34003464340034E834033410343A
:1007B60027344D3455344C34543449345F34413441
:1007C60031343334323434344C34553441345F3478
:1007D6005434003449344C344C3445344734413471
:1007E6004C345F3454345934503445340A3400346C
:1007F60024343A345234443441343A34253464345B
:100806000A34003424343A344734453454343A34C0
:10081600253464340A3400342D34253464342E34BB
:1008260025343034323464340A34003424343A34CF
:10083600573448344F343A34253473340A34003448
:100846002A343A345334543450343A3425347334D5
:100856000A3400342D34253464342E3425343034AF
:10086600323464342C340034553449344E345434E0
:10087600313436345F3454343A3400344E344F34E1
:100886005F3444344134543441340A3400345534EA
:1008960049344E34543438345F3454343A340034A2
:1008A60046344C344F34413454343A3400342834CA
:1008B6006E3475346C346C34293400342534253464
:1008C600253464343A3400342334253473340A34FA
:1008D6000034253475340A340034253464342C3419
:1008E6000034253475342C340034523444344134C5
:1008F600003457344434413400345334543441348E
:100906000034413443344B340034573448344F3484
:10091600003453345434503400344734453454345A
:10092600003453344534543400345334413456344B
:100936000034F500552D2000E601E60A08000230D5
:10094600F40074082000E60008007D088D31B1250A
:100956008431172D8D3186258431302D8D317225C8
:100966008431302D8D31D6258431302D8D3182253F
:100976008431302D8D31FA258431302DE501E50A9B
:10098600302D0230F82C7D08033A0319B52C073AAE
:100996000319AD2C013A0319B12C033A0319B92CEA
:1009A6000E3A0319C12C023A0319C42C063A03194C
:1009B600BD2C302D302D6508003A0319C62C013A9E
:1009C6000319A82C302D302D02307D06031D302D45
:1009D600240096138D317E258431302D7D08F40058
:1009E60074082000E400E3010330F4007408E50015
:1009F600302D7D08F4006308A03E86000130870094
:100A0600740881000130F4007408E3076408630287
:100A1600031C302D8D316F258431003A031D172DAF
:100A2600A0308031032084312000E501302D2000E4
:100A36006508023A0319F12C013A0319FC2C302DF2
:100A4600302D20006608003A03191A2D013A0319C1
:100A5600DE2C033A0319E72C302D2000E6010800AE
:100A66008D316C2524009100080087314927F40058
:100A76007408F600760886008701010824009100B4
:100A860008008D3169252400910008007D08013A8F
:100A96000319332D063A0319382D0E3A0319442D3E
:100AA6005F2D08007508840005300402031808004D
:100AB60088310435003E820008002000CA01CD01BD
:100AC6006D084D020318F72D4D08E83E8600870194
:100AD60001088731EE2785318D317B2585318D31B2
:100AE600BF258531003A0319722D8D31E8258531F0
:100AF60020002108C9002008C8004808013EA000BF
:100B0600FE30493DA1008E31552685312000210851
:100B1600CC002008CB00E62D00304C023230031901
:100B26004B02031C9F2D0130C7004D08B03E8600C6
:100B3600870147088107A42D4D08B03E860087012E
:100B460081014D08B03E8600870103300102031C77
:100B5600F22D4D08B03E8600870181014D08D13E39
:100B6600860087018101810ADF2D00304C02323078
:100B760003194B020318C82D0130C7004D08B03EBB
:100B86008600870147088107CD2D4D08B03E8600B7
:100B9600870181014D08B03E8600870103300102BE
:100BA600031CF22D4D08B03E8600870181014D08D9
:100BB600D13E8600870181018E311B2685312000BA
:100BC600CA01CA0AF22D4D08D13E860087010108E6
:100BD600003A03198F2D013A0319B82DF22D013071
:100BE600C7004708CD07632D4A080319022ED130E6
:100BF600C7004708C20006308631C026853110304E
:100C0600890B032E003208002000AD002D08860057
:100C16000130870020300106031D162E0130A80082
:100C26002808AD07092E2D088600013087000930F7
:100C360001060319112EAB01AC01AA012D0886008D
:100C4600013087002D300106031D2E2E0130A8002D
:100C56002808AA07362E2D088600013087002B307B
:100C66000106031D3A2E0130A8002808AD072D08FD
:100C760086000130870001088E3146268631031C26
:100C8600632E20002C08A1002B08A0000A30A20029
:100C96000030A3008E31CD26863120002D08860037
:100CA6000130870001082007A80021080318210A3F
:100CB600A9002808D03EAB00FF30293DAC00362EF7
:100CC60020002A080319732E2B09A8002C09A90055
:100CD600A80A0319A90A2808A6002908A7000800D7
:100CE6002C08A7002B08A6000800200022082100D7
:100CF600E100200021082100E00020002308A900CF
:100D06000030AA0029082100E60020002A08210058
:100D1600E70020002408A9000030AA0029082100C5
:100D2600E40020002A082100E50020002508A9008B
:100D36000030AA0029082100E20020002A0821002C
:100D4600E30001308E310E2686312000A9002908E5
:100D5600DC0000308E310E262000A9002908DE00B6
:100D66000330A9002908EA002708D3002608D20084
:100D76002808A9002908EC0008002000C60055082C
:100D86000319D12E4608C3004308A0004208C40038
:100D96004408A10001308E3164260800013020008D
:100DA600C602D401460854020318F32E7030AE0072
:100DB6008430AF0054084207C30043088600870109
:100DC6000108C400C5014408B0004508B1008031DF
:100DD6007420863101302000C3004308D407D52E85
:100DE6000130AE008430AF0054084207C300430808
:100DF600860087010108C400C5014408B000450803
:100E0600B10080317420080001302000A3020030B8
:100E1600A43B230A0319240A0319462F200020089D
:100E260084002108850012000319252F2208860058
:100E3600013087002008840021088500000801068B
:100E460003193D2F22088600013087000108A500FE
:100E5600A601A509A609A50A0319A60A2008840061
:100E66002108850000082507A00026080318260A81
:100E7600A10008000130A0070030A13D0130A50007
:100E86002508A207072FA001A1010800742F6730CB
:100E9600F0007008F1002000EA01EA0A832F6830AA
:100EA600F0007008F10002306B2F68086B0203181F
:100EB600652F69086B07F0007008F1000130F0003B
:100EC6007008EB076B086806031D832FEB010330E0
:100ED600F0007008EA00832F6F30F0007008F10010
:100EE600832F20006A08003A03194A2F013A031992
:100EF600522F033A0319582F013A03196F2F832FE4
:100F0600710808002000A501A60120082104031984
:100F1600B52FA701A70AA11B9A2F0130A035A10D55
:100F2600890B912F0130A4002408A7078E2F0130CA
:100F3600A535A60D890B9B2F21082302031DA52F7E
:100F460020082202031CAC2F2008A2022108A33B82
:100F560025140130A136A00C890BAD2F0130A70254
:100F6600031D9A2F2608A1002508A0000800DC30E2
:100F76002000A1008330A200A301A401A501043032
:100F8600A6000E30A700A801A80A86317826873168
:100F960060302000A0000530A1008D31F125873199
:100FA6008F31062787318D319A2587318D319225EC
:100FB60087318D31C62587318E31292687318B17AA
:100FC6000B178E317D2687318F3144278731823149
:100FD6004922803130282000A1002108A000A00D60
:100FE600A00D21001D0820002006833920062100BF
:100FF6009D001D1408005534080084319E2C85314F
:0E100600492D8531242D85315F2D8431A22C9A
:101AD20020005C08080020005E08080020005B0867
:101AE20008002000DA01080020005E08080020003B
:101AF200DA01080021009D1408002000D501D50A52
:101B020008002000D901D90A08002000DA01DA0A07
:101B120008002000DA01DA0A08000B0C890C0139EE
:101B22000800163021009700080001340134013406
:101B32000634683021009900980108002000A200B4
:101B420022088F3188270800640080010131890B47
:101B5200A62D0034FE0012001E00FE0BAC2D003438
:101B6200F1007108F00070082000DC00080020007D
:101B7200A1002108A0002008DC00080003102100B9
:101B82009D1C03140030093D0800013021009D0016
:101B9200F0309E009B019C01080004340534063499
:101BA200073408340B340334323420005C08F30069
:101BB2007308F00001308E31E926080020005C082D
:101BC200A3002308A00001308F31652708002100FF
:101BD2001C082000A10021001B082000A000080012
:101BE200200021082100BD00200020082100BC00A7
:101BF200080020006A0803190800EB010330F00016
:101C02007008EA00080007302000200203180800CC
:101C12002008A1002108ED0008002000A0002008F3
:101C220023009100151395131514000000002300E2
:101C32001308080022008E1304302000A000E430B4
:101C4200890B212EA00B212E000022008E170800E6
:101C520021001508C039143895000630200095007F
:101C62000630A0002008DF000B1108002000A400AD
:101C72002408A3002308A00000308F31652720002C
:101C82002408A3002308DE0008002000A100A00110
:101C92003A3021020318532E30302102031C532EF6
:101CA200A001A00A200C08002000A11F08002009A2
:101CB200A2002109A300A20A0319A30A2208A00074
:101CC2002308A10008002000A3006A08A20022083D
:101CD200A40003302406031D08002308A2002208E2
:101CE200E7002008A2002208E8002108A20022083A
:101CF200E900EB01EA0108002100911211120830FB
:101D020023009F0090309D0024309E0067309B008E
:101D12009C01FC01FB0108302000A0002008FA0011
:101D2200E201E101E00121009116080023009D1C5F
:101D32009C2E1D121D161908F00020006208A03EFC
:101D420086008701700881000130F0007008E20708
:101D5200083062020318E2010130F0007008E00767
:101D6200080008307A020318CA2E7B08A83E8600B3
:101D72008701010823009A000130F0007008FB0778
:101D820008307B020318FB010130F0007008FA07EB
:101D920008002100111208002000A401A501201C46
:101DA200D62E2208A4072308A53D0130A235A30D93
:101DB200890BD72E0130A136A00C890BDC2E20080E
:101DC2002104031DD02E2508A1002408A00008002C
:101DD200F100F2017108230091007008930095133D
:101DE2001513151500308B1B0130F2008B13553083
:101DF2009600AA30960095149518FD2E1511720CB6
:101E0200031C8B1303188B17080022008C018D0111
:101E12008E013F3021008C00F0308D007F308E002B
:101E22004F3023008E0020308D0017308C002400AC
:101E32008D013F308C0030308E002100951322003E
:101E42009E0184309D0008002000A1016008031952
:101E5200272F6108A03E860087010108A000200804
:101E6200A1000130A0002008E10708306102031838
:101E7200E1012100911201302000E00221009116BF
:101E82002000210808000B302000A1002630A0000D
:101E92005D30890B4A2FA00B4A2FA10B4A2F00322B
:101EA20080302400940026309500813096009701FE
:101EB200FE3093008D317525090724009200200021
:101EC20091112100911508002000A100A201210812
:101ED200230091002000200823009300951315137E
:101EE200151500308B1B01302000A2008B135530DA
:101EF20023009600AA309600951495187E2F15118E
:101F02002000220C031C8B1303188B1708002000DF
:101F1200A1007A0803198A2F2100111A952F200097
:101F2200210823009A00A92F111220002108A000E5
:101F32007C08A83E86008701200881000130A000AD
:101F42002008FC0708307C020318FC010130FA0269
:101F52002100111608005530F7007708F80020001C
:101F6200911124001108F7007708F800141DC02F02
:101F7200941A161FBE2F0330CE2F0130CE2F941A83
:101F8200C92F7808031DC72F0430CE2F0030CE2F63
:101F92007808F7007708FD00023084319C24240081
:101FA200151608002000280829040319FB2FAD018B
:101FB200AD0AA91BE62F0130A835A90D890BDD2F2B
:101FC2000130AC002C08AD07DA2F29082B02031DC3
:101FD200EC2F28082A02031CF22F2808AA0229083B
:101FE200AB3B0130A936A80C890BF32F0130AD02AF
:0E1FF200031DE62F2B08A9002A08A8000800EE
:020000040001F9
:04000E00E4FFFFFF0D
:00000001FF
