:1000000080313028080055347E14803120007F086C
:10001000A0000B1F15282100111E15282000111EFD
:1000200015288E31372680312B280B1F21282100DF
:10003000911E21282000911E21288E31002680311A
:100040002B280B1F2B282100911D2B282000911DF0
:100050002B288F31162720002008FF007E10090072
:1000600080313228803103208031FD00F03084005F
:100070008C3085001200EA001200EB001200EC0048
:100080001200ED001200EE00FC015130840000303F
:10009000850019308C31FB248031A0308400003081
:1000A000850042308C31FB248031203084000130C7
:1000B000850040308C31FB248031A0308400013039
:1000C000850030308C31FB247E1020008731A62F34
:1000D00031302000B3003308BA0020003008B400EB
:1000E0002F08B300AF0A0319B00A3308840034089C
:1000F00085000008B5003508C20042080319080051
:10010000253042060319892842088C31F5248031B4
:100110006D282000C001C101BF0193283F150130A7
:10012000AF070030B03D2F0884003008850000087C
:10013000303A03198E289C282F0884003008850047
:1001400000088D3176258031031C3D292000C00137
:10015000C1010A302000A1000030A2004108A40023
:100160004008A3008E311B26803120002208C100E8
:100170002108C0002F088400300885000008D03E08
:10018000B300FF3003180030B4003308C007340850
:10019000C13D0130AF070030B03D2F08840030086A
:1001A000850000088D3176258031031C3D29A92862
:1001B00020003A0886008701403FB800413FB9005F
:1001C0000230B3003308BA0738083904031DEC289D
:1001D0005C30B8008430B900BD01BE0138083D076D
:1001E000840039083E3D850012000319FC280130C7
:1001F000BD070030BE3DEE2841083E02031D022926
:1002000040083D02031809293D08C0023E08C13BD1
:100210000B29C001C101FF302000C007FF30C13DE4
:10022000400A0319410A0319272920308C31F5248B
:1002300080310B29380884003908850000088C318A
:10024000F524803101302000B8070030B93D01307D
:10025000BD020030BE3B3D0A031D1A293E0A0319A8
:100260006D281A294230B8000030B9000130BD00B5
:100270000030BE00FC283F175B2920003008B40086
:100280002F08B300AF0A0319B00A330884003408FA
:1002900085000008C200003A03193C2A643A031999
:1002A0005B290D3A03195B291A3A0319D828063A33
:1002B00003193B29322920003F1B75293A08860083
:1002C0008701403FBB00413FBC000230B300330810
:1002D000BA07BC1F80290330B3003308BF04BB0931
:1002E000BC09BB0A0319BC0A80293A0886008701A9
:1002F000403FBB00413FBC000230B3003308BA07A7
:10030000C201C20A053042060319A5294208B300FA
:10031000B401B335B40DCE30330784008330343D9F
:100320008500003FB500013FB60036083C02031DC2
:100330009B2935083B02031CA5290130B300330873
:10034000C20705304206031D8629400841040319EF
:10035000B1293F0803390319B129FF30C007FF3025
:10036000C13D4208B300B401B31BB4033408803A62
:10037000B5004108803A3502031DC0294008330208
:100380000318CD2920004208B300B401B31BB40305
:100390003308C0023408C13BD0292000C001C1018C
:1003A0003F1DE9293F0803390319DA292D308C3123
:1003B000F52480312000400841040319022A30301E
:1003C0008C31F5248031FF302000C007FF30C13D63
:1003D000DB29400841040319FA2920308C31F52427
:1003E0008031FF302000C007FF30C13D400841048C
:1003F000031DED293F0803390319022A2D308C31E2
:10040000F524803120004208B3003308B700FF30E4
:100410002000B3003308B707370A03196D280A30E4
:10042000A9000030AA003708B300B401B335B40DF9
:10043000CE30330784008330343D8500003FA10077
:10044000013FA2003C08A4003B08A3008F31CB274A
:10045000803120002208AC002108AB008F313D27FD
:10046000803120002908303EB5003508C20042081E
:100470008C31F5248031072A08008C31E324823145
:100480002000CF004F08D70057080319652A0B1129
:100490002100420843040319652A01302000CF00DF
:1004A0004F08D8075D085802031C652AD80101309F
:1004B000CF004F08D9076A085902031C652A5B0858
:1004C0000319642ADA01DA0AD90120005A0803194B
:1004D000702A2100420843040319702A2000DA011F
:1004E00021004608470403197A2A47088A0046086B
:1004F0000A0082312000610803193D2A8E319026BE
:1005000082312000CF004F082100E2006208200065
:10051000CF005E08203E8600013087004F08810032
:100520000130CF004F08DE070A3021006206031DAC
:100530003D2A01302000DE025E08203E86000130A8
:1005400087008101DE016930AF008430B0002030C7
:10055000B1000130B20080316820823120006D038B
:100560000319B72A20308031022082313D2A8A3097
:100570002000A1008430A2002030CF004F08A3004B
:100580000330A4000030A5008731642782312000A9
:1005900021082204031DDC2A1B30AF008430B00088
:1005A00021003F082000B20021003E082000B100D9
:1005B0008031682082313D2A9A302000A1008430A9
:1005C000A2002030CF004F08A3000330A400003069
:1005D000A500873164278231200021082204031DF1
:1005E000F52A8D31192582313D2A82302000A10063
:1005F0008430A2002030CF004F08A3000330A400B5
:100600000030A500873164278231200021082204B0
:10061000031D0E2B8C31DF2482313D2A8E302000C9
:10062000A1008430A2002030CF004F08A300033087
:10063000A4000030A5008731642782312000210802
:100640002204031D332B8C31CD2482312530200030
:10065000AF008430B0008630B1008430B200803109
:10066000682082313D2A96302000A1008430A2000B
:100670002030CF004F08A3000330A4000030A500B5
:10068000873164278231200021082204031D522B68
:100690002430863115268231200027088D31B82577
:1006A00082313D2A92302000A1008430A200203007
:1006B000CF004F08A3000330A4000030A50087310D
:1006C00064278231200021082204031D762B073085
:1006D000AF008430B0005D08CF00D0014F08B100FA
:1006E0005008B2008031682082313D2A7E302000DF
:1006F000A1008430A2002030CF004F08A3000330B7
:10070000A4000030A5008731642782312000210831
:100710002204031D9A2B24308631152682312000B5
:100720002708CF004F082100E30063088D316725BB
:1007300082313D2A7A302000A1008430A20020308E
:10074000CF004F08A3000330A4000030A50087317C
:1007500064278231200021082204031DC92B8C311B
:10076000CA2482312000CF004F082100E300FD3071
:100770002000AF008330B000210063082000CF00CC
:10078000D0014F08B1005008B2008031682082319A
:100790003D2A20308031022082313D2A013400344C
:1007A0000A34003464340034E83403341034273419
:1007B000043405340634073408340B344D345534CE
:1007C0004C34543449345F3441343134333432346A
:1007D00034344C34553441345F3454340034493467
:1007E0004C344C344534473441344C345F34543405
:1007F0005934503445340A34003424343A345234B1
:10080000443441343A34253464340A3400342434D2
:100810003A344734453454343A34253464340A3451
:1008200000342D34253464342E34253430343234BD
:1008300064340A34003424343A34573448344F345E
:100840003A34253473340A3400342A343A34533475
:10085000543450343A34253473340A3400342D344B
:10086000253464342E3425343034323464342C341A
:100870000034553449344E345434313436345F34D2
:1008800054343A3400344E344F345F3444344134B9
:10089000543441340A340034553449344E345434D9
:1008A00038345F3454343A34003446344C344F34A2
:1008B000413454343A34003428346E3475346C3452
:1008C0006C342934003425342534253464343A34E6
:1008D00000342334253473340A3400342534753419
:1008E0000A340034253464342C340034253475340F
:1008F0002C340034523444344134003457344434BA
:10090000413400345334543441340034413443349A
:100910004B340034573448344F3400345334543457
:10092000503400344734453454340034533445345F
:10093000543400345334413456340034F700592DC4
:100940002000E901E90A08000230F60076082000DC
:10095000E90008007D088D31A4258431192D8C31E2
:10096000DB248431322D8C31C7248431322D8D31FA
:1009700010258431322D8C31D7248431322D8D31A4
:1009800034258431322DE801E80A322D0230FA2C68
:100990007D08033A0319B72C073A0319AF2C013A23
:1009A0000319B32C033A0319BB2C0E3A0319C32CB9
:1009B000023A0319C62C063A0319BF2C322D322DE8
:1009C0006808003A0319C82C013A0319AA2C322DE1
:1009D000322D02307D06031D322D240096138C31FA
:1009E000D3248431322D7D08F60076082000E700FC
:1009F000E6010330F6007608E800322D7D08F600A7
:100A00006608A03E8600013087007608810001302C
:100A1000F6007608E60767086602031C322D8C3163
:100A2000C4248431003A031D192DA0308C31BD241B
:100A300084312000E801322D20006808023A0319B1
:100A4000F32C013A0319FE2C322D322D20006908B7
:100A5000003A03191C2D013A0319E02C033A03193B
:100A6000E92C322D2000E90108008C31C12424003A
:100A700091000800873121277108F9007008F800FB
:100A80007808860079088700010824009100080092
:100A90008C31BE242400910008007D08013A03191E
:100AA000352D063A03193A2D0E3A0319482D632DB8
:100AB0000800770884000530040203180800883114
:100AC0000435003E820008002000CB01CE01063034
:100AD0004E020318052E4E08B63E86008701010817
:100AE0000319FD2D4E08B63E8600870101088D31A1
:100AF000942585318C31D02485318D310125853186
:100B0000003A03197D2D8D312225853120002208E0
:100B1000CA002108C9004908013EA100FE304A3D33
:100B2000A2008D318525853120002208CD002108C5
:100B3000CC00F12D00304D02323003194C02031C61
:100B4000AA2D0130C8004E08B03E86008701480833
:100B50008107AF2D4E08B03E8600870181014E0807
:100B6000B03E86008701FA300102031CFD2D4E08BD
:100B7000B03E8600870181014E08D33E8600870182
:100B80008101810AEA2D00304D02323003194C02F6
:100B90000318D32D0130C8004E08B03E86008701EF
:100BA00048088107D82D4E08B03E86008701810194
:100BB0004E08B03E86008701FA300102031CFD2D6D
:100BC0004E08B03E8600870181014E08D33E860064
:100BD000870181018D314B2585312000CB01CB0A66
:100BE000FD2D4E08D33E860087010108003A031907
:100BF0009A2D013A0319C32DFD2D0130C800480874
:100C0000CE0706304E02031C6B2D4B080319102E25
:100C1000D330C8004808C30006308631DA26853153
:100C2000C8300032890B112E08002000AE002E08BB
:100C300086000130870020300106031D242E01307C
:100C4000A9002908AE07172E2E088600013087005C
:100C50000930010603191F2EAC01AD01AB012E08AE
:100C60008600013087002D300106031D3C2E013027
:100C7000A9002908AB07442E2E0886000130870002
:100C80002B300106031D482E0130A9002908AE07AC
:100C90002E0886000130870001088D3176258631C7
:100CA000031C712E20002D08A2002C08A1000A3080
:100CB000A3000030A4008E311B26863120002E08B0
:100CC00086000130870001082107A90022080318C7
:100CD000220AAA002908D03EAC00FF302A3DAD0010
:100CE000442E20002B080319812E2C09A9002D0960
:100CF000AA00A90A0319AA0A2908A7002A08A80015
:100D000008002D08A8002C08A700080020002608CD
:100D10002100BF00200025082100BE002000270878
:100D2000AD000030AE002D082100C80020002E08C4
:100D30002100C90020002808AD000030AE002D08B9
:100D4000D3002E08D4002A08D2002908D10001308F
:100D50008D313E2586312000AD002D08DD00510883
:100D600052040319BC2E5D08AD002D08A1005208E5
:100D70008A0051080A00863100308D313E2520005E
:100D8000AD002D08DF000330AD002D082100D1009B
:100D900020002B08AD000030AE002D082100C2005D
:100DA00020002E082100C30020002C08AD002D08D3
:100DB000EA0008002000C70056080319EB2E470878
:100DC000C4004408A1004308A2000030A300013081
:100DD0008E31D026080001302000C702D501470817
:100DE000550203180D2F7230AF008430B000550843
:100DF0004307C4004408860087010108C500C601F6
:100E00004508B1004608B2008031682086310130C3
:100E10002000C4004408D507EF2E0330AF00843013
:100E2000B00055084307C400440886008701010844
:100E3000C500C6014508B1004608B20080316820EF
:100E40000800502FCD30F2000030F3002100D10116
:100E5000D10A5F2FCE30F2000030F3000230472F6E
:100E60004E0852020318412F5208F000F101700899
:100E70004F07F2007108503DF3000130F000700898
:100E8000D20752084E06031D5F2FD2010330F00037
:100E90007008D1005F2F6E30F2000030F3005F2F3A
:100EA00021005108003A0319222F013A03192A2F71
:100EB000033A0319302F013A03194B2F5F2F7308A0
:100EC000F1007208F000080001302000A402003098
:100ED000A53B240A0319250A0319A32F2000210882
:100EE00084002208850012000319822F230886003F
:100EF00001308700210884002208850000080106CF
:100F000003199A2F23088600013087000108A600E4
:100F1000A701A609A709A60A0319A70A21088400A0
:100F20002208850000082607A10027080318270AC1
:100F3000A20008000130A1070030A23D0130A60048
:100F40002608A307642FA101A20108008D31E62520
:100F50008731DE302000A5008330A600A701A8015C
:100F60009830A9000F30AA00AB01AC01AC0A863161
:100F70008626873164302000A1000530A2008D3123
:100F80002B2587318E31712687318C31EB248731C7
:100F90008C31E72487318D31082587318D315925F2
:100FA00087318B170B178D31CC2587318E31AF26CA
:100FB000873182313D22803130282000A200A301F8
:100FC000220823009100200021082300930095139C
:100FD0001513151500308B1B01302000A3008B1357
:100FE000553023009600AA30960095149518F62FD8
:100FF00015112000230C031C8B1303188B170800FA
:101000008431A02C85314D2D8531262D8531632DE0
:041010008431A42C57
:10197A00080020005D08080020005F080800200019
:10198A005C0808002000DB01080020005F0808004E
:10199A002000DB01080021009D1408002000D60168
:1019AA00D60A08002000DA01DA0A08002000DB0162
:1019BA00DB0A08002000DB01DB0A08000B0C890C9B
:1019CA00013908001630210097000800683021000C
:1019DA009900980108000134FA343234013406348B
:1019EA002000A30023088E31F2260800640080013B
:1019FA000131890BFC2C0034031021009D1C0314B7
:101A0A000030093D0800013021009D00F0309E00A1
:101A1A009B019C01080020005D08F3007308F00098
:101A2A0001308E315426080020005D08A4002408E5
:101A3A00A10001308731DD27080021001C082000A1
:101A4A00A20021001B082000A10008002000220893
:101A5A002100C700200021082100C600080021003B
:101A6A00510803190800D2010330F0007008D100B0
:101A7A0008002000A10021082300910015139513E6
:101A8A0015140000000023001308080022008E131A
:101A9A0004302000A100E430890B512DA10B512DF7
:101AAA00000022008E17080021001508C0391438DA
:101ABA0095000630200095000630A1002108E000BC
:101ACA000B1108002000A5002508A4002408A10085
:101ADA0000308731DD2720002508A4002408DF0014
:101AEA0008002000A200A1013A3022020318832D27
:101AFA0030302202031C832DA101A10A210C080007
:101B0A002000A21F08002109A3002209A400A30A99
:101B1A000319A40A2308A1002408A200080020002F
:101B2A00A2002208A100A10DA10D21001D0820007C
:101B3A0021068339210621009D001D140800F500A5
:101B4A007508F40074082000DD00510852040319D6
:101B5A0008005D08F4007408F00052088A00510871
:101B6A000A008D3108002000A6002608A5002508D5
:101B7A00DD0051085204031908005D08A500250874
:101B8A00A10052088A0051080A008D31080021007C
:101B9A0091121112083023009F0090309D002430CA
:101BAA009E0067309B009C01FC012000E501083083
:101BBA00A1002108E400E301E201E10121009116FC
:101BCA0008002000A2010630220203180800220899
:101BDA00D33E8600870181012208B03E8600870134
:101BEA0081012208B63E8600870181010130A100E9
:101BFA002108A207E82D23009D1C052E1D121D1683
:101C0A001908F00020006308A03E860087017008CA
:101C1A0081000130F0007008E307083063020318FE
:101C2A00E3010130F0007008E10708002000A50177
:101C3A00A601211C242E2308A5072408A63D01304D
:101C4A00A335A40D890B252E0130A236A10C890BD0
:101C5A002A2E21082204031D1E2E2608A20025086A
:101C6A00A10008000830200064020318512E6508FC
:101C7A00A83E86008701010823009A000130F0007F
:101C8A0070082000E507083065020318E5010130F5
:101C9A00F0007008E4070800210011120800F100A2
:101CAA00F20171082300910070089300951315132F
:101CBA00151500308B1B0130F2008B13553096003E
:101CCA00AA30960095149518682E1511720C031CEB
:101CDA008B1303188B17080022008C018D018E01CB
:101CEA003F3021008C00F0308D007F308E004F3065
:101CFA0023008E0020308D0017308C0024008D01C7
:101D0A003F308C0030308E002100951322009E0156
:101D1A0084309D0008002000A20161080319922E58
:101D2A006208A03E860087010108A1002108A200DE
:101D3A000130A1002108E207083062020318E2011B
:101D4A002100911201302000E102210091162000A9
:101D5A00220808000B302000A2002630A1005D30C6
:101D6A00890BB52EA10BB52EA20BB52E00328030F1
:101D7A002400940026309500813096009701FE30A9
:101D8A0093008C31CA240907240092002000911183
:101D9A002100911508002000A5002100510820000B
:101DAA00A4002408A60003302606031D08002508FF
:101DBA00A40024082100CD0020002108A400240842
:101DCA002100CE00200023082100D0002000220894
:101DDA002100CF00D201D10108002000A20064082E
:101DEA000319F42E2100111AFF2E200022082300C5
:101DFA009A00132F111220002208A1007C08A83E85
:101E0A0086008701210881000130A1002108FC0712
:101E1A0008307C020318FC010130E402210011168B
:101E2A0008005530FA007A08FB00200091112400BE
:101E3A001108FA007A08FB00141D2A2F941A161F9B
:101E4A00282F0330382F0130382F941A332F7B086C
:101E5A00031D312F0430382F0030382F7B08FA0049
:101E6A007A08FD00023084319E24240015160800E9
:101E7A00200029082A040319652FAE01AE0AAA1BFD
:101E8A00502F0130A935AA0D890B472F0130AD001B
:101E9A002D08AE07442F2A082C02031D562F2908A5
:101EAA002B02031C5C2F2908AB022A08AC3B013029
:101EBA00AA36A90C890B5D2F0130AE02031D502FE3
:101ECA002C08AA002B08A9000800F201F20AF30163
:101EDA00063073020318080070087205031D802F6C
:101EEA007308B63E8600870181017308D33E8600D7
:101EFA00870181018F2F7308D83E8400833003182D
:101F0A00013E85000008F1007308B63E860087018D
:101F1A00710881007235F1007108F2000130F10098
:101F2A007108F3076D2F7E1C9C2F8F316A2F2000BA
:101F3A00A301A30AA40106302402031808002108F9
:101F4A002305031DB32F2408B63E860087018101AD
:101F5A002408D33E860087018101C22F2408D83E77
:101F6A00840083300318013E85000008A20024087B
:101F7A00B63E86008701220881002335A200220886
:101F8A00A3000130A2002208A407A02F2000A70165
:101F9A00A801210822040319FB2FA601A60AA21BE5
:101FAA00E02F0130A135A20D890BD72F0130A500F2
:101FBA002508A607D42F0130A735A80D890BE12FD4
:101FCA0022082402031DEB2F21082302031CF22FEF
:101FDA002108A3022208A43B27140130A236A10C2F
:101FEA00890BF32F0130A602031DE02F2808A20057
:061FFA002708A100080009
:020000040001F9
:04000E00E4FFFFFF0D
:00000001FF
