:1000000080313028013401347E14803120007F0893
:10001000F9000B1F15282100111E15282000111EA4
:1000200015288931B62180312B280B1F212821006A
:10003000911E21282000911E212889319B21803189
:100040002B280B1F2B282100911D2B282000911DF0
:100050002B288A31EB2279082000FF007E1009004E
:1000600080313228883199208031FD008031022092
:100070008031EE00803103208031EF002100883193
:1000800098208031E400FA01FB01FC015C3084001F
:100090000030850012308831CD208031A0308400BE
:1000A000003085003C308831CD2080312030840004
:1000B0000130850030308831CD208031A03084007F
:1000C0000130850030308831CD207E1020008B310A
:1000D0003F2B30302000B4003408BB0020002F0834
:1000E000B5002E08B400AE0A0319AF0A3408840024
:1000F000350885000008B6003608C3004308031918
:1001000008002530430603198A2843088831C72090
:1001100080316E282000C101C201C0019428401521
:100120000130AE070030AF3D2E0884002F08850057
:100130000008303A03198F289D282E0884002F08C4
:1001400085000008893146218031031C3E292000AA
:10015000C101C2010A302000A0000030A100420805
:10016000A3004108A2008931EC2180312000210840
:10017000C2002008C1002E0884002F088500000856
:10018000D03EB400FF3003180030B5003408C1077A
:100190003508C23D0130AE070030AF3D2E08840067
:1001A0002F0885000008893146218031031C3E2933
:1001B000AA2820003B0886008701403FB900413F44
:1001C000BA000230B4003408BB0739083A04031DF2
:1001D000ED28B830B9008630BA00BE01BF01390839
:1001E0003E0784003A083F3D850012000319FD28B0
:1001F0000130BE070030BF3DEF2842083F02031D1B
:10020000032941083E0203180A293E08C1023F089B
:10021000C23B0C29C101C201FF302000C107FF30E1
:10022000C23D410A0319420A0319282920308831A6
:10023000C72080310C29390884003A08850000085D
:100240008831C720803101302000B9070030BA3D25
:100250000130BE020030BF3B3E0A031D1B293F0A8E
:1002600003196E281B294330B9000030BA00013051
:10027000BE000030BF00FD2840175C2920002F0879
:10028000B5002E08B400AE0A0319AF0A3408840082
:10029000350885000008C300003A03193D2A643A76
:1002A00003195C290D3A03195C291A3A0319D92854
:1002B000063A03193C2933292000401B76293B08C4
:1002C00086008701403FBC00413FBD000230B400C2
:1002D0003408BB07BD1F81290330B4003408C004B3
:1002E000BC09BD09BC0A0319BD0A81293B08860067
:1002F0008701403FBC00413FBD000230B4003408DC
:10030000BB07C301C30A053043060319A6294308E6
:10031000B400B501B435B50D3630340784008630ED
:10032000353D8500003FB600013FB70037083D026C
:10033000031D9C2936083C02031CA6290130B40089
:100340003408C30705304306031D872941084204CA
:100350000319B229400803390319B229FF30C10734
:10036000FF30C23D4308B400B501B41BB5033508E6
:10037000803AB6004208803A3602031DC12941087E
:1003800034020318CE2920004308B400B501B41B81
:10039000B5033408C1023508C23BD1292000C10190
:1003A000C201401DEA29400803390319DB292D3019
:1003B0008831C72080312000410842040319032AF4
:1003C00030308831C7208031FF302000C107FF3036
:1003D000C23DDC29410842040319FB292030883141
:1003E000C7208031FF302000C107FF30C23D4108E7
:1003F0004204031DEE29400803390319032A2D3056
:100400008831C720803120004308B4003408B80088
:10041000FF302000B4003408B807380A03196E28EA
:100420000A30A8000030A9003808B400B501B4357E
:10043000B50D3630340784008630353D8500003FE9
:10044000A000013FA1003D08A3003C08A2008B31A1
:100450006D23803120002108AB002008AA008B31D9
:100460001223803120002808303EB6003608C30031
:1004700043088831C7208031082A08008831BF200E
:1004800082312000D70057082100BD003D08031924
:10049000662A0B11340835040319662A013020003E
:1004A000D7005708DE0763085E02031C662ADE01D8
:1004B0000130D7005708DF076E085F02031C662A69
:1004C00061080319652AE001E00ADF0120006008E5
:1004D0000319762A2100340835040319762A3508D1
:1004E0008A0034080A0082312000E00120006708F9
:1004F00003193E2A8A31442282312000D70057084E
:10050000D9005908D7006408203E860001308700D2
:10051000570881000130D7005708E4070A30590610
:10052000031D3E2A0130E4026408203E86000130AB
:1005300087008101E401C530AE008630AF00203075
:10054000B0000130B10080316920823120006F039A
:100550000319AF2A20308831972082313E2AE630B5
:100560002000A0008630A1002030D7005708A2004C
:100570000330A3000030A4008731BE278231200061
:1005800020082104031DD42A7730AE008630AF0046
:1005900021005D082000B10021005C082000B000AF
:1005A0008031692082313E2AF6302000A00086305A
:1005B000A1002030D7005708A2000330A30000306C
:1005C000A4008731BE278231200020082104031DAA
:1005D000ED2A8931002182313E2ADE302000A00040
:1005E0008630A1002030D7005708A2000330A300B6
:1005F0000030A4008731BE2782312000200821046A
:10060000031D062B8831BB2082313E2AEA302000B0
:10061000A0008630A1002030D7005708A200033088
:10062000A3000030A4008731BE27823120002008BB
:100630002104031D2B2B8831A92082318130200019
:10064000AE008630AF00E230B0008630B1008031BD
:10065000692082313E2AF2302000A0008630A100BD
:100660002030D7005708A2000330A3000030A400B8
:100670008731BE278231200020082104031D4A2B28
:1006800024308D31AB258231200026088831E120CD
:1006900082313E2AEE302000A0008630A1002030BA
:1006A000D7005708A2000330A3000030A400873110
:1006B000BE278231200020082104031D6E2B6330E9
:1006C000AE008630AF006308D700D8015708B000ED
:1006D0005808B1008031692082313E2ADA3020008A
:1006E000A0008630A1002030D7005708A2000330B8
:1006F000A3000030A4008731BE27823120002008EB
:100700002104031D912B24308D31AB258231200033
:100710002608D7005708DA005A0889313721823174
:100720003E2AD6302000A0008630A1002030D7001D
:100730005708A2000330A3000030A4008731BE2771
:100740008231200020082104031DBC2B8831A62003
:1007500082312000D7005708DA005930AE008630C9
:10076000AF005A08D700D8015708B0005808B100A8
:100770008031692082313E2A2030883197208231B1
:100780003E2A2000C90021003B080319292C200023
:10079000DC01DD0149085D0203181D2C0330C70090
:1007A0004708A0005D088931742183312000460785
:1007B000C800480886008701403FAB00413FAC00BD
:1007C000423FAD000030A800C830A9004230AA0066
:1007D0008F314C27833120002808B8002908B90040
:1007E0002A08BA008E311C268331200039082100E6
:1007F000B100200038082100B00031082000C700F7
:100800005C08BE3E86008701470881000130C700B2
:100810004708DC07210030082000C7005C08BE3E06
:1008200086008701470881000130C7004708DC07C0
:100830000130C7004708DD07CA2B4935C700470804
:10084000A000BE30C8004808A10005308A316322EC
:10085000080001302000C902DD0149085D020318CB
:10086000A62C0330C7004708A0005D088931742119
:10087000833120004607C800480886008701403FB2
:10088000AB00413FAC00423FAD000030A800C83093
:10089000A9004230AA008F314C278331200028085C
:1008A000B8002908B9002A08BA008E311C26833105
:1008B00020003908CB003808CA004B08803AC7002E
:1008C0007F304702031D662C9D304A02031C6B2CAF
:1008D0002000CB1B702C8C302000AE008630742C96
:1008E0008B302000AE008630AF006430A0000030B6
:1008F000A1004B08A3004A08A2008C31F4248331E4
:1009000020002108B1002008B0006430A0000030B1
:10091000A1004B08A3004A08A2008C31192483319E
:1009200020002108A8002008A70089315521833123
:1009300020002808B3002708B200803169208331E5
:1009400001302000C7004708DD072D2C0330C70009
:100950004708A0005D0889317421833120004607D3
:10096000C800480886008701403FAB00413FAC000B
:10097000423FAD000030A800C830A9004230AA00B4
:100980008F314C27833120002808B8002908B9008E
:100990002A08BA008E311C26833120003908CB008A
:1009A0003808CA004B08803AC7007F304702031D51
:1009B000DB2C9D304A02031CE02C2000CB1B102DA9
:1009C0006E302000AE008630AF006430A0000030F2
:1009D000A1004B08A3004A08A2008C31F424833103
:1009E00020002108B1002008B0006430A0000030D1
:1009F000A1004B08A3004A08A2008C3119248331BE
:100A000020002108A8002008A70089315521833142
:100A100020002808B3002708B200803169200800B0
:100A20006D302000AE008630AF006430A000003092
:100A3000A1004B08A3004A08A2008C31F4248331A2
:100A400020002108B1002008B0006430A000003070
:100A5000A1004B08A3004A08A2008C31192483315D
:100A600020002108A8002008A700893155218331E2
:100A700020002808B3002708B20080316920080050
:100A800020002808AE002908AF002A08B000031093
:100A90002F0D300DB1003108B4002B08AE002C082A
:100AA000AF002D08B00003102F0D300DB10031083C
:100AB000B30034080319682D3308340203186F2D6E
:100AC0003403FF3A3307AE0019302E02031C6F2D9A
:100AD0002B08A8002C08A9002D08AA00080033083C
:100AE000031908003408330203187E2D3303FF3A3C
:100AF0003407AE0019302E02031808000630AE008D
:100B00002E08B200AA1BB217AD1B3217A917FF306F
:100B1000A805FF30A9050030AA05AC17FF30AB05CA
:100B2000FF30AC050030AD05330834020318BA2D90
:100B30000130AB35AC0DAD0D890B992D0130B302F1
:100B4000330834060319B52D0130B20232080739D3
:100B50000319B52D982D0130AA36A90CA80C890BC4
:100B6000AC2D0130AE002E08B4073408330603194B
:100B7000DF2DAB2D340833020318DF2D0130A835EB
:100B8000A90DAA0D890BBF2D0130B402330834061C
:100B90000319DB2D0130B202320807390319DB2DAE
:100BA000BE2D0130AD36AC0CAB0C890BD22D013013
:100BB000AE002E08B30734083306031DD12DB21F33
:100BC000F12DFF30A806FF30A906FF30AA0601303C
:100BD000A807003003180130A907003003180130BE
:100BE000AA07321F032EFF30AB06FF30AC06FF30E2
:100BF000AD060130AB07003003180130AC07003000
:100C000003180130AD07B2012808AB072908AC3D35
:100C10002A08AD3DAD1F1E2EFF30AB06FF30AC06DF
:100C2000FF30AD060130AB07003003180130AC07D0
:100C3000003003180130AD07B201B20A2B08A00042
:100C40002C08A1002D08A2003408AE002E08A30035
:100C50003208AF002F08A4008D314625200020085F
:100C6000A8002108A9002208AA00080001340034C5
:100C70000A34003464340034E83403341034273444
:100C800049344C344C344534473441344C345F346B
:100C900054345934503445340A3400344B345834C5
:100CA0005234393434342D343234303435343034F1
:100CB000003424343A345234443441343A34253400
:100CC00064340A34003424343A34473445345434D8
:100CD0003A34253464340A3400342D3425346434F1
:100CE0002E3425343034323464340A34003424341D
:100CF0003A34573448344F343A34253473340A3450
:100D000000342A343A345334543450343A34253489
:100D100073340A3400342D34253464342E342534AD
:100D20003034323464342C340034553449344E3445
:100D30005434313436345F3454343A3400344E341D
:100D40004F345F3444344134543441340A34003431
:100D5000553449344E34543438345F3454343A348E
:100D6000003446344C344F34413454343A34003433
:100D700028346E3475346C346C34293400342534A2
:100D80002534253464343A34003423342534733420
:100D90000A340034253475340A340034253464347C
:100DA0002C340034253475342C340034523444341B
:100DB00041340034573444344134003453345434CF
:100DC00041340034413443344B34003457344834D4
:100DD0004F340034533454345034003447344534A1
:100DE000543400345334453454340034533441348F
:100DF00056340034F500B32F2000ED01ED0A080051
:100E00000230F40074082000ED0008007D088831ED
:100E1000D3208631752F8831B72086318E2F8831C7
:100E2000A32086318E2F8831F72086318E2F88318E
:100E3000B32086318E2F8931122186318E2FEC011D
:100E4000EC0A8E2F0230562F7D08033A0319132F18
:100E5000073A03190B2F013A03190F2F033A03190D
:100E6000172F0E3A03191F2F023A0319222F063AA1
:100E700003191B2F8E2F8E2F6C08003A0319242F75
:100E8000013A0319062F8E2F8E2F02307D06031D87
:100E90008E2F240096138831AF2086318E2F7D0847
:100EA000F40074082000EB00EA010330F400740839
:100EB000EC008E2F7D08F4006A08A03E8600013009
:100EC0008700740881000130F4007408EA076B0899
:100ED0006A02031C8E2F8831A0208631003A031D40
:100EE000752FA0308831962086312000EC018E2F9E
:100EF00020006C08023A03194F2F013A03195A2FA8
:100F00008E2F8E2F20006D08003A0319782F013A9A
:100F100003193C2F033A0319452F8E2F2000ED01B2
:100F2000080088319D202400910008008B31DD23CA
:100F3000F4007408F6007608860087010108240092
:100F40009100080088319A202400910008007D0853
:100F5000013A0319912F063A0319962F0E3A0319F5
:100F6000A22FBD2F08007508840005300402031865
:100F7000080088310435003E82000800013020005E
:100F8000A3020030A43B230A0319240A0319FD2FEE
:100F90002000200884002108850012000319DC2F9E
:100FA000220886000130870020088400210885007F
:100FB000000801060319F42F22088600013087007B
:100FC0000108A500A601A509A609A50A0319A60AF4
:100FD000200884002108850000082507A0002608B5
:100FE0000318260AA10008000130A0070030A13D27
:100FF0000130A5002508A207BE2FA001A10108000D
:101000008631FC2E8731A72F8731822F8731BD2F64
:041010008731002FF5
:10112C00080008000634553420006308080020002D
:10113C00650808002000620808002000E101080092
:10114C002000650808002000E101080021009D1422
:10115C0008002100BB01BB0A08002000E001E00AE6
:10116C0008002000E101E10A08002000E101E10A89
:10117C0008000B0C890C013908001630210097006F
:10118C0008002000A20022088A31C722080064004F
:10119C0080010131890BCE280034F1007108F00078
:1011AC0070082000E30008007030210099009801BD
:1011BC001A1B0800DE282000A1002108A00020082E
:1011CC00E3000800031021009D1C03140030093DAE
:1011DC000800013021009D00F0309E009B019C0115
:1011EC00080020006308F3007308F00001308A3116
:1011FC000822080020006308A3002308A000013087
:10120C008A31A422080021001C082000A100210022
:10121C001B082000A0000800210051080319080039
:10122C00D2010330F0007008D10008002000A000AB
:10123C0020082300910015139513151400000000CD
:10124C0023001308080021001508C0391738950031
:10125C000630200095000630A0002008E6000B1197
:10126C0008002000A4002408A3002308A0000030DC
:10127C008A31A42220002408A3002308E5000800DA
:10128C002000A100A0013A3021020318532930306C
:10129C002102031C5329A001A00A200C08002000E5
:1012AC00A81F08002709A9002809AA00A90A0319E0
:1012BC00AA0A2908A7002A08A80008002000A100F3
:1012CC002108A000A00DA00D21001D082000200663
:1012DC008339200621009D001D1408002000A30066
:1012EC00A201231C7D292008A1002108A2070310BC
:1012FC00A00D0310A30C2308031D77292208080056
:10130C0020002808A0002908A100A2018E30AB0003
:10131C002B08A300A4018D31462520002008A8002D
:10132C002108A9002208AA00080023009D1CA0295E
:10133C001D121D161908F00020006908A03E860039
:10134C008701700881000130F0007008E90708304F
:10135C0069020318E9010130F0007008E707080082
:10136C0008307A020318CE297B08A83E8600870134
:10137C00010823009A000130F0007008FB070830C8
:10138C007B020318FB010130F0007008FA0708001B
:10139C0021001112080021009112111208302300B3
:1013AC009F0090309D0024309E0040309B00033005
:1013BC009C00FC01FB0108302000A0002008FA0072
:1013CC00E901E801E7012100911608002000A401C1
:1013DC00A501201CF5292208A4072308A53D0130EE
:1013EC00A235A30D890BF6290130A136A00C890B6F
:1013FC00FB2920082104031DEF292508A10024083E
:10140C00A0000800F100F20171082300910070089F
:10141C00930095131513151500308B1B0130F2003A
:10142C008B1355309600AA309600951495181C2AEB
:10143C001511720C031C8B1303188B170800220058
:10144C008C018D018E013F3021008C00F0308D001D
:10145C007F308E004F3023008E0020308D001730EF
:10146C008C0024008D012F308C0037308E00210031
:10147C00951322009E0184309D0008002000A101DC
:10148C0067080319462A6808A03E860087010108F0
:10149C00A0002008A1000130A0002008E8070830B7
:1014AC0068020318E8012100911201302000E702C4
:1014BC00210091162000210808002000A300210023
:1014CC0051082000A2002208A40003302406031DAA
:1014DC0008002308A20022082100CE0020002008CA
:1014EC00A20022082100CF0020002108A20022081F
:1014FC002100D000D201D101080052302000A100FF
:10150C002B30A0000030890B892AA00B892AA10B53
:10151C00892A000080302400940026309500813008
:10152C0096009701FE3093008831A620090724000D
:10153C009200200091112100911508002000A100BB
:10154C00A201210823009100200020082300930011
:10155C0095131513151500308B1B01302000A200BC
:10156C008B13553023009600AA30960095149518CD
:10157C00BD2A15112000220C031C8B1303188B178A
:10158C0008002000A1007A080319C92A2100111AA9
:10159C00D42A2000210823009A00E82A11122000E6
:1015AC002108A0007C08A83E860087012008810045
:1015BC000130A0002008FC0708307C020318FC0155
:1015CC000130FA022100111608005530F700770897
:1015DC00F8002000911124001108F7007708F8009A
:1015EC00141DFF2A941A161FFD2A03300D2B0130EF
:1015FC000D2B941A082B7808031D062B04300D2B89
:10160C0000300D2B7808F7007708FD00023086318A
:10161C00FA262400151608002000280829040319AE
:10162C003A2BAD01AD0AA91B252B0130A835A90D0C
:10163C00890B1C2B0130AC002C08AD07192B290889
:10164C002B02031D2B2B28082A02031C312B2808E4
:10165C00AA022908AB3B0130A936A80C890B322B06
:10166C000130AD02031D252B2B08A9002A08A80068
:10167C0008004E302000A1008630A200A301A40176
:10168C00A501A230A6000B30A700FA30DB005B08E6
:10169C00A8008C31A6248B318A3125228B318831DC
:1016AC00DA208B318831C3208B318831EF208B319C
:1016BC00893129218B318931D1218B318A31832296
:1016CC008B318B170B1782313E2280313028200052
:1016DC00A501A6012008210403199D2BA701A70A27
:1016EC00A11B822B0130A035A10D890B792B013068
:1016FC00A4002408A707762B0130A535A60D890B6D
:10170C00832B21082302031D8D2B20082202031C8E
:10171C00942B2008A2022108A33B25140130A136EA
:10172C00A00C890B952B0130A702031D822B2608D8
:10173C00A1002508A000080022000E0D0E0D013995
:10174C002000CD000130CD06CD0CCD0C22000E08B2
:10175C0020004D067F394D0622008E0003308C315F
:10176C005F248B3120004508CE004608CF00470887
:10177C00D00007308C315F248B3120004508D1001C
:10178C004608D2004708D30008308C315F248B31D7
:10179C0020004508D4004608D5004708D6004E3036
:1017AC00CD004D08C60003308331C1230800082C3E
:1017BC00CE30F0007008F1002100D101D10A172CB5
:1017CC00CF30F0007008F1000230FF2B4F085202AE
:1017DC000318F92B50085207F0007008F100013083
:1017EC00F0007008D20752084F06031D172CD201C7
:1017FC000330F0007008D100172CE430F0007008B2
:10180C00F100172C21005108003A0319DE2B013A84
:10181C000319E62B033A0319EC2B013A0319032C99
:10182C00172C710808002000A601A31F242CA20964
:10183C00A309A20A0319A30AA601A60AA11F2B2C0D
:10184C00A009A109A00A0319A10A2008210403195F
:10185C00522CA501A50AA11B3D2C0130A035A10DD0
:10186C00890B342C0130A4002408A507312C210845
:10187C002302031D432C20082202031C492C2008A0
:10188C00A2022108A33B0130A136A00C890B4A2CE3
:10189C000130A502031D3D2C260803195A2CA20960
:1018AC00A309A20A0319A30A2308A1002208A00075
:1018BC0008002000CC004C08893164218C3188311F
:1018CC00AC208C318831E8208C31003A0319682C1B
:1018DC00893109218C3120002108A9002008A80099
:1018EC00893186218C3120002808C9002908CA00BA
:1018FC002A08CB00CD30B5004C30B6004330B700D1
:10190C000030A8000030A900C430AA004908AB0080
:10191C004A08AC004B08AD00853140258C312000C5
:10192C002808B8002908B9002A08BA008E31A32665
:10193C0020003508C5003608C6003708C700080067
:10194C00200022082100DD00200021082100DC00FD
:10195C0020002308A9000030AA0029082100E20079
:10196C0020002A082100E30020002408A9000030F0
:10197C00AA0029082100E00020002A082100E1002B
:10198C0020002508A9000030AA0029082100DE004B
:10199C0020002A082100DF00013089311C218C3104
:1019AC002000A9002908E300003089311C21200007
:1019BC00A9002908E5000330A90029082100D1005D
:1019CC00200027082100B500200026082100B400C3
:1019DC0020002808A9002908EE0008002000A60114
:1019EC00A11FFF2CA009A109A00A0319A10AA60195
:1019FC00A60AA31F0A2DA209A309A20A0319A30A66
:101A0C000130A4002408A606A701A801200821047F
:101A1C000319392DA501A50AA11B1E2D0130A035D6
:101A2C00A10D890B152D0130A4002408A507122D3A
:101A3C000130A735A80D890B1F2D21082302031D8A
:101A4C00292D20082202031C302D2008A202210877
:101A5C00A33B27140130A136A00C890B312D01308A
:101A6C00A502031D1E2D26080319412DA709A8093F
:101A7C00A70A0319A80A2808A1002708A000080033
:101A8C002000230803194F2D220821042004031DD4
:101A9C00602D0030A0000030A1000030A200080032
:101AAC000130A5002508A3070130A236A10CA00C1B
:101ABC00890B5B2DFE3022050319792D562D013033
:101ACC00A5002508A3070130A0070030031801303A
:101ADC00A107003003180130A2070130A236A10C77
:101AEC00A00C890B742DFF3022050319862D652D52
:101AFC000130A3020130A035A10DA20D890B812D5F
:101B0C00A11B8C2D0230230203187E2D2318942D3B
:101B1C00FF30A0057F30A105FF30A2050310A30CF8
:101B2C002308A500A601A7011030A535A60DA70D09
:101B3C00890B9B2D2508A0042608A1042708A204C4
:101B4C00240803190800A21708002000AD002D0876
:101B5C0086000130870020300106031DBA2D0130AC
:101B6C00A8002808AD07AD2D2D0886000130870090
:101B7C00093001060319B52DAB01AC01AA012D08E2
:101B8C008600013087002D300106031DD22D013057
:101B9C00A8002808AA07DA2D2D0886000130870036
:101BAC002B300106031DDE2D0130A8002808AD07DF
:101BBC002D088600013087000108893146218D31BE
:101BCC00031C072E20002C08A1002B08A0000A30B3
:101BDC00A2000030A3008931EC218D3120002D08AA
:101BEC0086000130870001082007A800210803188F
:101BFC00210AA9002808D03EAB00FF30293DAC00DB
:101C0C00DA2D20002A080319172E2B09A8002C09FD
:101C1C00A900A80A0319A90A2808A6002908A700E0
:101C2C0008002C08A7002B08A60008002000380884
:101C3C00BC003908BD003A08BE0003103D0D3E0D36
:101C4C00BF003F08C5004508031D352E0030BB0002
:101C5C000030BA000030B9000030B8000800380875
:101C6C00BC003908BD003A08BE001730BE36BD0CAA
:101C7C00BC0C890B3C2E3C08BF003F08C000B917B8
:101C8C00FF30B805FF30B9050030BA053808C1007F
:101C9C003908C2003A08C300C4018E30C502C51F02
:101CAC00732E4508803A8F3E0318652E0030BB001A
:101CBC000030BA000030B9000030B8000800013024
:101CCC00C436C30CC20CC10C890B662E0130BC008F
:101CDC003C08C50703198C2E652E18304502031CD1
:101CEC00892E0030BB000030BA000030B900003043
:101CFC00B80008000130C135C20DC30DC40D890BED
:101D0C00812E0130C5024508031D802E40080319A1
:101D1C009A2EC109C209C309C409C10A0319C20A0E
:101D2C000319C30A0319C40A4408BB004308BA00C8
:101D3C004208B9004108B800080020003808BB0070
:101D4C003908BC003A08BD0003103C0D3D0DBE0027
:101D5C003E08C3004308031DBA2E0030B500003006
:101D6C00B6000030B70008003508BB003608BC00D0
:101D7C003708BD0003103C0D3D0DBE003E08C400ED
:101D8C004408031DD02E0030B5000030B6000030E2
:101D9C00B70008000030C0000030C1000030C200A5
:101DAC0089304407BB003B08C3023808BB00390824
:101DBC00BC003A08BD001030BD36BC0CBB0C890B06
:101DCC00E22E3B08BE003E08C4003508BB003608B6
:101DDC00BC003708BD001030BD36BC0CBB0C890BE9
:101DEC00F22E3B08BE003E08C4068030BB003B0808
:101DFC00C405B917FF30B805FF30B9050030BA0576
:101E0C00B617FF30B505FF30B6050030B7051830F2
:101E1C00BB003B08BF000130C035C10DC20D890BA2
:101E2C00122F37083A02031D212F36083902031DE1
:101E3C00212F35083802031C2A2F3508B802360822
:101E4C00B93B3708BA3B40140130B835B90DBA0D5F
:101E5C00890B2B2F0130BF02031D112F4008A0004E
:101E6C004108A1004208A2004308BB003B08A300A4
:101E7C004408BC003C08A4008D31462520002008F5
:101E8C00B5002108B6002208B70008002000280879
:101E9C00AE002908AF002A08B00003102F0D300D3A
:101EAC00B1003108B2003208031D632F0030A800C6
:101EBC000030A9000030AA0008002B08AE002C0846
:101ECC00AF002D08B00003102F0D300DB1003108FC
:101EDC00B7003708031D792F0030A8000030A90087
:101EEC000030AA00080037087B3EAE002E08B2076F
:101EFC002808AE002908AF002A08B0001030B03610
:101F0C00AF0CAE0C890B852F2E08B1003108B70031
:101F1C002B08AE002C08AF002D08B0001030B036E6
:101F2C00AF0CAE0C890B952F2E08B1003108B706FB
:101F3C008030AE002E08B705A917AC17FF30AB05E3
:101F4C00FF30AC050030AD050030B3000030B400FC
:101F5C000030B5000730AE002E08B600281CBC2F90
:101F6C002B08B3072C08B43D2D08B53D0130AA361B
:101F7C00A90CA80C890BBD2F0130AB35AC0DAD0DE8
:101F8C00890BC32F0130B602031DB42F0930AE00EC
:101F9C002E08B600281CD82F2B08B3072C08B43DEC
:101FAC002D08B53D0130AA36A90CA80C890BD92FE8
:101FBC000130B536B40CB30C890BDF2F0130B602EF
:101FCC00031DD02F3308A0003408A1003508A2004F
:101FDC003208AE002E08A3003708AF002F08A4006B
:101FEC008D31462520002008A8002108A9002208D0
:041FFC00AA0008002F
:020000040001F9
:04000E00E4FFFFFF0D
:00000001FF
