:1000000080314828080055347E14803120007F0854
:10001000A0000B1F15282100111E15282000111EFD
:1000200015288A31BF22803143280B1F2128210047
:10003000911E21282000911E21288A31A42280317E
:1000400043280B1F2D282100911D2D282000911DD4
:100050002D288C312024803143280B1F3928210082
:10006000941C39282000941C39288931A921803119
:1000700043280B1F43282100141C43282000141C74
:1000800043288331E72320002008FF007E10090069
:1000900080314A28803103208031FD0021008931E0
:1000A000BC218031EA008931BD218031EB008931EA
:1000B000BE218031EC00FA01FB01FC015A308400C2
:1000C0000030850015308931DE218031A030840078
:1000D0000030850042308931DE21803120308400BB
:1000E0000130850040308931DE218031A03084002C
:1000F0000130850030308931DE217E1020008D31C5
:10010000462D31302000B3003308BA0020003008FB
:10011000B4002F08B300AF0A0319B00A33088400F3
:10012000340885000008B5003508C20042080319EC
:100130000800253042060319A22842088931D82137
:10014000803186282000C001C101BF01AC283F15C5
:100150000130AF070030B03D2F0884003008850023
:100160000008303A0319A728B5282F088400300862
:10017000850000088A311B228031031C562920008B
:10018000C001C1010A302000A1000030A2004108D6
:10019000A4004008A3008A31DA228031200022081E
:1001A000C1002108C0002F08840030088500000825
:1001B000D03EB300FF3003180030B4003308C0074E
:1001C0003408C13D0130AF070030B03D2F08840036
:1001D0003008850000088A311B228031031C562913
:1001E000C22820003A0886008701403FB800413FFE
:1001F000B9000230B3003308BA0738083904031DC8
:1002000005297530B8008730B900BD01BE01380836
:100210003D07840039083E3D850012000319152969
:100220000130BD070030BE3D072941083E02031DD5
:100230001B2940083D02031822293D08C0023E0840
:10024000C13B2429C001C101FF302000C007FF309D
:10025000C13D400A0319410A031940292030893160
:10026000D821803124293808840039088500000805
:100270008931D821803101302000B8070030B93DE4
:100280000130BD020030BE3B3D0A031D33293E0A4A
:100290000319862833294230B8000030B9000130F4
:1002A000BD000030BE0015293F177429200030081A
:1002B000B4002F08B300AF0A0319B00A3308840052
:1002C000340885000008C200003A0319552A643A30
:1002D000031974290D3A031974291A3A0319F128DC
:1002E000063A031954294B2920003F1B8E293A084E
:1002F00086008701403FBB00413FBC000230B30095
:100300003308BA07BC1F99290330B3003308BF0470
:10031000BB09BC09BB0A0319BC0A99293A08860023
:100320008701403FBB00413FBC000230B3003308AF
:10033000BA07C201C20A053042060319BE294208A3
:10034000B300B401B335B40DF63033078400863002
:10035000343D8500003FB500013FB60036083C0241
:10036000031DB42935083B02031CBE290130B3002C
:100370003308C20705304206031D9F294008410487
:100380000319CA293F0803390319CA29FF30C007D6
:10039000FF30C13D4208B300B401B31BB4033408BD
:1003A000803AB5004108803A3502031DD92940083A
:1003B00033020318E62920004208B300B401B31B3E
:1003C000B4033308C0023408C13BE9292000C0014E
:1003D000C1013F1D022A3F0803390319F3292D30BB
:1003E0008931D821803120004008410403191B2A9B
:1003F00030308931D8218031FF302000C007FF30F4
:10040000C13DF429400841040319132A20308931E1
:10041000D8218031FF302000C007FF30C13D4008A7
:100420004104031D062A3F08033903191B2A2D30F6
:100430008931D821803120004208B3003308B70049
:10044000FF302000B3003308B707370A03198628A6
:100450000A30A9000030AA003708B300B401B33550
:10046000B40DF630330784008630343D8500003FFC
:10047000A100013FA2003C08A4003B08A3008D316D
:10048000A425803120002208AC002108AB008C316B
:10049000EB24803120002908303EB5003508C20029
:1004A00042088931D8218031202A08008931CF21A2
:1004B00082312000D70057082100BC003C080319F6
:1004C000832A0B11320833040319832A01302000D8
:1004D000D70057082100BD072000600821003D0219
:1004E000031C832ABD0101302000D70057082100DA
:1004F000BE076A083E02031C832A40080319822AA9
:10050000BF01BF0ABE013F080319912A3208330414
:100510000319912A33088A0032080A008231210027
:10052000BF01200061080319562A8B313123823123
:100530002000D70057082100ED006D082000D700EB
:1005400021004208203E8600013087002000570825
:1005500081000130D70057082100C2070A306D061C
:10056000031D562A0130C2024208203E8600013097
:1005700087008101C20182302000AF008730B000C7
:100580002030B1000130B200803181208231210061
:100590006B030319D02A2030803102208231562A81
:1005A000A3302000A1008730A2002030D7005708D8
:1005B000A3000330A4000030A5008D31D92582317D
:1005C000200021082204031DF52A2C30AF008730BB
:1005D000B000210063082000B20021006208200062
:1005E000B100803181208231562AB3302000A10031
:1005F0008730A2002030D7005708A3000330A400A2
:100600000030A5008D31D925823120002108220437
:10061000031D0E2B8931FB218231562A9B3020008D
:10062000A1008730A2002030D7005708A300033074
:10063000A4000030A5008D31D92582312000210889
:100640002204031D272B8931CB218231562AA73062
:100650002000A1008730A2002030D7005708A30057
:100660000330A4000030A5008D31D925823120004F
:1006700021082204031D4C2B8931B92182313630E7
:100680002000AF008730B0009F30B1008730B2004B
:10069000803181208231562AAF302000A10087307E
:1006A000A2002030D7005708A3000330A400003078
:1006B000A5008D31D9258231200021082204031D97
:1006C0006B2B24308F310D27823120002708893190
:1006D000EB218231562AAB302000A1008730A200E6
:1006E0002030D7005708A3000330A4000030A50035
:1006F0008D31D9258231200021082204031D8F2B42
:100700001830AF008730B0006008D700D801570814
:10071000B1005808B200803181208231562A9730CA
:100720002000A1008730A2002030D7005708A30086
:100730000330A4000030A5008D31D925823120007E
:1007400021082204031DB32B24308F310D27823161
:1007500020002708D70057082100EE006E088A31D4
:1007600039228231562A93302000A1008730A2001E
:100770002030D7005708A3000330A4000030A500A4
:100780008D31D9258231200021082204031DE22B5E
:100790008931B62182312000D70057082100EE00B0
:1007A0000E302000AF008730B00021006E0820001E
:1007B000D700D8015708B1005808B2008031812015
:1007C0008231562A2030803102208231562A200080
:1007D000141024009D1F1A2D9D132000EA016708A4
:1007E000023E860087010108860087018101810A97
:1007F000E7010800DC1808005B08F2007208E70057
:100800005B08860087010108F2007208E9005B08B6
:1008100086008701413FE8000330F2007208DB07E1
:100820005B08DC3A031D182CD930F2007208DB009B
:100830005C105B085A060319DC1424001E140230F5
:10084000F20072082000EA00080024009E14023022
:10085000F20072082000EA00080024001E1F392C54
:100860000130F20072082000DE0704308A315A227B
:10087000080020006E08F3006D08F200F336F20C59
:1008800072082400990020006D1C4B2C0B30F200E4
:100890007208EA0008000330F2007208EA0008005B
:1008A00024001E1F5C2C0130F20072082000DE07BD
:1008B00004308A315A2208009E1420006E08F3008A
:1008C0006D08F2007308F200F30106307205F400BF
:1008D00000307305F500F0307404ED00003075044D
:1008E000EE006D14E401E40A0230F2007208EA003E
:1008F0000800640303198D2C680886008701403FB7
:10090000ED00413FEE00680886008701433FE600A6
:10091000680886008701423FE5006D0824009900C1
:1009200020006D1C982C0530F2007208EA000800C7
:100930000330F2007208EA00080024001E1FAB2CEE
:100940000130F20072082000DE0724001E1305307B
:100950008A315A22080001302000E502650A031D91
:10096000C52C0430F2007208E8070130E902031DCB
:10097000BD2C00308A315A22080024009E14023017
:10098000F20072082000EA0008006608860087016D
:100990000108240099000130F20072082000E607E7
:1009A000080024001E1FDF2C0130F2007208200016
:1009B000DE0704308A315A2224001E1308009E15D7
:1009C0000830F20072082000EA0008000830F20047
:1009D0007208EA0024009E15080024001908F2009D
:1009E0002000660886008701720881000130F2004D
:1009F0007208E6070130E5020319062D24009E1255
:100A00000630F20072082000EA000A2D24009E162B
:100A10008A31492224001E16080000308A315A22E9
:100A200008000130F20072082000DE0706308A312B
:100A30005A22080020006A0884000C3004020318BF
:100A4000112D88310435003E8200080022000E0D71
:100A50000E0D01392000C7000130C706C70CC70CB6
:100A600022000E08200047067F39470622008E002C
:100A700021004408031D4C2D40302000AF00003001
:100A8000B0000230C7004708B100B2018B31FA2331
:100A900085312100C401C40A40302000AF0000307D
:100AA000B000B1018D31182585312000C7004708FD
:100AB000CC000D302000C700FB30890B5D2DC70B2B
:100AC0005D2D003240302000AF000030B0004D30CE
:100AD000C7004708B1000230C8004808B2008C3196
:100AE000BF2485312000C9004908CC004E08C7004A
:100AF000C8014D08C900CA014908CA00C901470810
:100B00004907D30048084A3DD400D501D60100303A
:100B1000B0000130AF000030AE000030AD0056082C
:100B2000A4005508A3005408A2005308A1000030F7
:100B3000A8000030A7000030A600A530A5008D3128
:100B40007425853120002408B4002308B30022084E
:100B5000B2002108B1008F317E27853120002D0899
:100B6000D83EC7004708D10007302000C7007D30BD
:100B7000890BB82DC70BB82D40302000AF000030D6
:100B8000B000B101B10A8D31182585312000C700B0
:100B90004708CC000D302000C700FB30890BCE2D5C
:100BA000C70BCE2D003240302000AF000030B00027
:100BB0004F30C7004708B1000230C8004808B200F3
:100BC0008C31BF2485312000C9004908CC00500871
:100BD000C700C8014F08C900CA014908CA00C901B5
:100BE00047084907D30048084A3DD400D501D6013B
:100BF0000030B0000130AF000030AE000030AD007A
:100C00005608A4005508A3005408A2005308A100E8
:100C10000030A8000030A7000030A6006430A50016
:100C20008D317425853120002408B4002308B300D9
:100C30002208B2002108B1008F317E2785312000C3
:100C40002D08C7004708D2005130C7004708C3002D
:100C500002308E31AF260800F700EB2E2100C701CD
:100C6000C70A08000230F40074082100C700080019
:100C70007D088931E4218631AB2E8931C721863147
:100C8000C42E8931B3218631C42E8931F2218631B7
:100C9000C42E8931C3218631C42E8A310422863183
:100CA000C42EEC01EC0AC42E02308A2E7D08033AD1
:100CB0000319452E073A03193D2E013A0319412E17
:100CC000033A0319492E0E3A0319512E023A031919
:100CD000542E063A03194D2EC42EC42E20006C0843
:100CE000003A0319562E013A0319382EC42EC42E89
:100CF00002307D06031DC42E240096138931BF21C6
:100D00008631C42E7D08F40074082100C60020003E
:100D1000EB010330F4007408EC00C42E7D08F400ED
:100D20006B08A03E86000130870074088100013006
:100D3000F4007408EB072100460820006B02031C36
:100D4000C42E8931B0218631003A031DAB2EA0306C
:100D50008931A82186312000EC01C42E20006C08C6
:100D6000023A0319822E013A03198E2EC42EC42E84
:100D700021004708003A0319AE2E013A03196E2EDE
:100D8000033A0319782EC42E2100C70108008931C7
:100D9000AD212400910008008E311B267108F60059
:100DA0007008F500750886007608870001082400A1
:100DB000910008008931AA212400910008007D08D3
:100DC000013A0319C72E063A0319CC2E0E3A03191D
:100DD000DA2EF52E08007708840005300402031887
:100DE000080088310435183E8200080001340034C0
:100DF0000A34003464340034E834033410342734C3
:100E000049344C344C344534473441344C345F34E9
:100E100054345934503445340A34003424343A3488
:100E20005234443441343A34253464340A3400347E
:100E300024343A344734453454343A342534643411
:100E40000A3400342D34253464342E3425343034BF
:100E5000323464340A34003424343A345734483455
:100E60004F343A34253473340A3400342A343A3453
:100E70005334543450343A34253473340A340034FF
:100E80002D34253464342E342534303432346434F3
:100E90002C340034553449344E34543431343634DF
:100EA0005F3454343A3400344E344F345F34443475
:100EB0004134543441340A340034553449344E34C6
:100EC000543438345F3454343A340034483444347D
:100ED00043343134303430343034003446344C34DC
:100EE0004F34413454343A34003428346E34753439
:100EF0006C346C342934003425342534253464347E
:100F00003A3400342334253473340A34003425341D
:100F100075340A340034253464342C3400342534D8
:100F200075342C3400345234443441340034573452
:100F30004434413400345334543441340034413463
:100F400043344B340034573448344F340034533432
:100F5000543450340034473445345434003453341A
:100F60004534543400345334413456340034200072
:100F7000A4005C18EB2F0230A30022088600870132
:100F8000230881002108A3005A0A8600870123084C
:100F900081002408A3005A088600870123088100E5
:100FA0002208A3005A08023E860087012308810018
:100FB0000330A3002308DA075A08DC3A031DE42FA4
:100FC000D930A3002308DA00DC105B085A06031DA1
:100FD000F02F5C14F02F2208860087018101810A1E
:100FE00022088600870102300106031D08006A08F6
:100FF000031DF72F14140800163021009700080075
:101000008331FA2B8431252C8431792C84319D2C29
:1010100085310D2D8431D12C8431E62C85310D2D77
:101020008431ED2C8531112D84312D2C8431502CBF
:1010300086312E2E8631DF2E8631B82E8631F52E62
:041040008631322E95
:101350000800080020006008080021004308080079
:101360002100410808002100C001080021004308B5
:1013700008002100C00108000134013406342100B6
:10138000BA01BA0A08002100BF01BF0A0800210003
:10139000C001C00A08002100C001C00A08000B0CEF
:1013A000890C013908006830210099009801080073
:1013B0002000A30023088B31D6230800640080019D
:1013C0000131890BDF290034F1007108F000700849
:1013D0002000E00008002000A2002208A10021084F
:1013E000E000080020006008F3007308F0000130FE
:1013F0008A31F622080020006008A4002408A10019
:1014000001308B31B323080021004C080319080078
:10141000CD010330F0007008CC0008002000A100CE
:1014200021082300910015139513151400000000E6
:101430002300130808002000A200A1013A30220274
:101440000318282A30302202031C282AA101A10AED
:10145000210C080021001508C03914389500063009
:10146000200095000630A10021082100C5000B11C5
:1014700008002000A5002508A4002408A1000030D1
:101480008B31B32320002508A40024082100C300C9
:1014900008000430F00070082000E8070130E9027D
:1014A000031D572A0430F0007008EA000800EA0122
:1014B000EA0A0800F10024001E1520006708023E19
:1014C0008600870101080319702A7108F000670877
:1014D000023E8600870101088600870170088100AE
:1014E000EA010800D9302000A1002108DB00D93032
:1014F000A1002108DA00DC145C10DE0124009C014C
:1015000028309D009F0109309A002000141021000E
:1015100014140800210091121112083023009F00BA
:1015200090309D0024309E0067309B009C01FC01A0
:10153000FB0108302000A1002108FA00E301E201CC
:10154000E10121009116080023009D1CA92A1D120B
:101550001D161908F00020006308A03E86008701D0
:10156000700881000130F0007008E3070830630262
:101570000318E3010130F0007008E10708000830AB
:101580007A020318D72A7B08A83E86008701010843
:1015900023009A000130F0007008FB0708307B023E
:1015A0000318FB010130F0007008FA070800210061
:1015B000111208002000A501A601211CE32A23081E
:1015C000A5072408A63D0130A335A40D890BE42A04
:1015D0000130A236A10C890BE92A21082204031D3F
:1015E000DD2A2608A2002508A1000800F100F2016A
:1015F00071082300910070089300951315131515B9
:1016000000308B1B0130F2008B1355309600AA304E
:101610009600951495180A2B1511720C031C8B1348
:1016200003188B17080022008C018D018E013F30BA
:1016300021008C00F0308D007F308E004F30230071
:101640008E008D0117308C0024008D013F308C00FE
:101650007F308E002100951322009E0184309D0072
:1016600008002000A20161080319332B6208A03E84
:10167000860087010108A1002108A2000130A10015
:101680002108E207083062020318E20121009112EA
:1016900001302000E10221009116200022080800FC
:1016A0002000A7002408A6002308A500A535A60D44
:1016B0002708860087012508C03F2608C13F220869
:1016C000A5002708023E8600870125088100210821
:1016D000A5002708033E8600870125088100080031
:1016E0000B302000A2002630A1005D30890B762B44
:1016F000A10B762BA20B762B0032803024009400B5
:1017000026309500813096009701FE309300893194
:10171000B6210907240092002000911121009115A3
:1017200008002000A50021004C082000A400240887
:10173000A60003302606031D08002508A40024087F
:101740002100C80020002108A40024082100C900AD
:10175000200023082100CB00200022082100CA001D
:10176000CD01CC0108002000A200A3012208230023
:1017700091002000210823009300951315131515DF
:1017800000308B1B01302000A3008B135530230049
:101790009600AA30960095149518CC2B15112000B0
:1017A000230C031C8B1303188B1708002000A200C6
:1017B0007A080319D82B2100111AE32B20002208E4
:1017C00023009A00F72B111220002208A1007C08A8
:1017D000A83E86008701210881000130A100210870
:1017E000FC0708307C020318FC010130FA022100DA
:1017F0001116080020003108B3003308B600320883
:10180000B3003308B7000230B3003308A800300833
:10181000AA002F08A9003830B4003408AB003630D5
:101820008C3197248B310230200038060319132C99
:101830003808031D1D2CB5010800B501B50A0800C4
:101840005530F8007808F9002000911124001108A3
:10185000F8007808F900141D342C941A161F322C45
:101860000330422C0130422C941A3D2C7908031D80
:101870003B2C0430422C0030422C7908F8007808C8
:10188000FD00023086312C262400151608002000A9
:10189000A7002408A6002308A500A535A60D270843
:1018A000860087012508C03F2608C13F270886001B
:1018B0008701013081044131003081042208A500F4
:1018C0002708023E86008701250881002108A5001F
:1018D0002708033E860087012508810008002000B4
:1018E000AE005C18902C2E08AC002C08A100280833
:1018F000AD002D08A2002A08A4002908A300CE30BC
:101900008C3147248C31CE302000AC002C08A10053
:101910002B08AD002D08A20001308731B727080041
:1019200020002B08860087018101810A0800200021
:10193000AE005C18B82C2E08AC002C08A1002808BA
:10194000AD002D08A2002A08A4002908A300D23067
:101950008B3150238C31D2302000AC002C08A100F8
:101960002B08AD002D08A20001308731B7270800F1
:1019700020002B08860087018101810A08000230BF
:101980002000B3003308B600B501B50A37030319C8
:10199000E92C3208B3003308A8003008AA002F0849
:1019A000A9003730B4003408AB0031088C316F2403
:1019B0008C310230200037060319D92C3708031D5B
:1019C000E32CB601E92C0130B502031DC62CB6018B
:1019D000B60A36080800200029082A040319132D26
:1019E000AE01AE0AAA1BFE2C0130A935AA0D890B47
:1019F000F52C0130AD002D08AE07F22C2A082C0280
:101A0000031D042D29082B02031C0A2D2908AB02F3
:101A10002A08AC3B0130AA36A90C890B0B2D0130EA
:101A2000AE02031DFE2C2C08AA002B08A9000800FA
:101A300002302000B2003208B5003108B20032088E
:101A4000B400B301B30A36030319442DA801A80A50
:101A50003008AA002F08A9003630B2003208AB00C7
:101A600034308C3197248D31023020003606031932
:101A7000342D3608031D3E2DB501442D0130B3022F
:101A8000031D232DB501B50A350808006630200076
:101A9000A2008730A300A401A501A6012630A7005B
:101AA0000530A800FA30D9005908A9008E315E2609
:101AB0008D318B3113238D318931D3218D31873194
:101AC000FC278D318A312A228D318B170B178A31F1
:101AD0008A228D318A3172228D318B3170238D3182
:101AE000823156228031482800302000AC0000307E
:101AF000AB000030AA000030A900211C872D25086A
:101B0000A9072608AA3D2708AB3D2808AC3D0130AF
:101B1000A535A60DA70DA80D890B882D0130A4367B
:101B2000A30CA20CA10C890B8F2D240823042204E2
:101B30002104031D7D2D2C08A4002B08A3002A08D6
:101B4000A2002908A10008002000A701A80121087F
:101B500022040319D42DA601A60AA21BB92D013017
:101B6000A135A20D890BB02D0130A5002508A607CF
:101B7000AD2D0130A735A80D890BBA2D22082402FE
:101B8000031DC42D21082302031CCB2D2108A30211
:101B90002208A43B27140130A236A10C890BCC2DBE
:101BA0000130A602031DB92D2808A2002708A100B4
:101BB000080001302000A4020030A53B240A0319CC
:101BC000250A0319182E2000210884002208850008
:101BD00012000319F72D2308860001308700210821
:101BE0008400220885000008010603190F2E23082F
:101BF0008600013087000108A600A701A609A709F1
:101C0000A60A0319A70A21088400220885000008F3
:101C10002607A10027080318270AA20008000130A0
:101C2000A1070030A23D0130A6002608A307D92D48
:101C3000A101A20108004A2EC830F2000030F300D2
:101C40002100CC01CC0A592EC930F2000030F3003B
:101C50000230412E49084D0203183B2E4D08F0007A
:101C6000F10170084A07F20071084B3DF3000130A2
:101C7000F0007008CD074D084906031D592ECD010F
:101C80000330F0007008CC00592EEC30F200003028
:101C9000F300592E21004C08003A03191C2E013A7A
:101CA0000319242E033A03192A2E013A0319452E4B
:101CB000592E7308F1007208F00008002000230874
:101CC0002100E300200022082100E2002000240877
:101CD000AA000030AB002A082100E80020002B08F1
:101CE0002100E90020002508AA000030AB002A08E6
:101CF0002100E60020002B082100E7002000260834
:101D0000AA000030AB002A082100E40020002B08C4
:101D10002100E50001308A310E228E312000AA0018
:101D20002A08E00000308A310E222000AA002A088A
:101D30002100C30003302000AA002A082100CC00A3
:101D4000200028082100B300200027082100B2004D
:101D500020002908AA002A082100EA000800200023
:101D6000C60021003A080319DB2E2000DF014608D7
:101D70005F020318CF2E5F084307C40044088600A3
:101D800087010108C5005F08503E860001308700CA
:101D9000450881000130C4004408DF07B72E46081B
:101DA000C4004408A1005030A2000130A30002305A
:101DB0008B319123080001302000C602DF01460864
:101DC0005F020318FB2E8B30AF008730B0005F0836
:101DD0004307C4004408860087010108B100B2012E
:101DE000B11BB203803181208E3101302000C4004C
:101DF0004408DF07DF2E1430AF008730B0005F08E3
:101E00004307C4004408860087010108B100B201FD
:101E1000B11BB2038031812008002000AE002E08E3
:101E200086000130870020300106031D1C2F013081
:101E3000A9002908AE070F2F2E0886000130870061
:101E4000093001060319172FAC01AD01AB012E08B3
:101E50008600013087002D300106031D342F01302C
:101E6000A9002908AB073C2F2E0886000130870007
:101E70002B300106031D402F0130A9002908AE07B1
:101E80002E0886000130870001088A311B228F311D
:101E9000031C692F20002D08A2002C08A1000A3085
:101EA000A3000030A4008A31DA228F3120002E08EE
:101EB00086000130870001082107A90022080318C5
:101EC000220AAA002908D03EAC00FF302A3DAD000E
:101ED0003C2F20002B080319792F2C09A9002D096C
:101EE000AA00A90A0319AA0A2908A7002A08A80013
:101EF00008002D08A8002C08A70008002000B70142
:101F0000B01F8F2FAD09AE09AF09B009AD0A031993
:101F1000AE0A0319AF0A0319B00AB701B70AB41F12
:101F2000A02FB109B209B309B409B10A0319B20A61
:101F30000319B30A0319B40A0130B5003508B7060E
:101F40000030BB000030BA000030B9000030B800EB
:101F500030082F042E042D040319E92FB601B60A08
:101F6000B01BBE2F0130AD35AE0DAF0DB00D890BDE
:101F7000B32F0130B5003508B607B02F0130B835A2
:101F8000B90DBA0DBB0D890BBF2F30083402031DEC
:101F9000D32F2F083302031DD32F2E083202031D27
:101FA000D32F2D083102031CDE2F2D08B1022E087D
:101FB000B23B2F08B33B3008B43B38140130B03685
:101FC000AF0CAE0CAD0C890BDF2F0130B602031D38
:101FD000BE2F37080319F72FB809B909BA09BB0989
:101FE000B80A0319B90A0319BA0A0319BB0A3B084C
:101FF000B0003A08AF003908AE003808AD0008005C
:020000040001F9
:04000E00E4FFFFFF0D
:00000001FF
