:1000000080313028033455347E14803120007F083D
:10001000F9000B1F15282100111E15282000111EA4
:1000200015288E31B22680312B280B1F2128210064
:10003000911E21282000911E21288E319726803183
:100040002B280B1F2B282100911D2B282000911DF0
:100050002B288F31AC2779082000FF007E10090083
:1000600080313228803103208031FD008D31A3257D
:100070008031EC008D31A4258031ED008D31A52536
:100080008031EE008D31A6258031EF0021008031D6
:1000900002208031DF00FA01FB01FC0150308400B6
:1000A000003085001C308D31AD258031A0308400BA
:1000B0000030850037308D31AD258031203084000F
:1000C0000130850030308D31AD258031A030840085
:1000D0000130850030308D31AD257E102000873114
:1000E0007F2F30302000B2003208B90020002F08E6
:1000F000B3002E08B200AE0A0319AF0A320884001A
:10010000330885000008B4003408C1004108031911
:100110000800253041060319922841088D31A72592
:10012000803176282000BF01C001BE019C283E1509
:100130000130AE070030AF3D2E0884002F08850047
:100140000008303A03199728A5282E0884002F08A4
:10015000850000088E3136268031031C4629200098
:10016000BF01C0010A302000A0000030A1004008FB
:10017000A3003F08A2008E31CD2680312000210847
:10018000C0002008BF002E0884002F08850000084A
:10019000D03EB200FF3003180030B3003208BF0772
:1001A0003308C03D0130AE070030AF3D2E0884005B
:1001B0002F08850000088E3136268031031C462921
:1001C000B2282000390886008701403FB700413F30
:1001D000B8000230B2003208B90737083804031DEE
:1001E000F5285130B7008430B800BC01BD01370894
:1001F0003C07840038083D3D85001200031905299D
:100200000130BC070030BD3DF72840083D02031D0A
:100210000B293F083C02031812293C08BF023D0885
:10022000C03B1429BF01C001FF302000BF07FF30D1
:10023000C03D3F0A0319400A0319302920308D318F
:10024000A725803114293708840038088500000864
:100250008D31A725803101302000B7070030B83D2F
:100260000130BC020030BD3B3C0A031D23293D0A7E
:100270000319762823294130B7000030B800013037
:10028000BC000030BD0005293E17642920002F085E
:10029000B3002E08B200AE0A0319AF0A3208840078
:1002A000330885000008C100003A0319452A643A62
:1002B000031964290D3A031964291A3A0319E1282C
:1002C000063A031944293B2920003E1B7E293908A0
:1002D00086008701403FBA00413FBB000230B200B8
:1002E0003208B907BB1F89290330B2003208BE04A7
:1002F000BA09BB09BA0A0319BB0A89293908860059
:100300008701403FBA00413FBB000230B2003208D3
:10031000B907C101C10A053041060319AE294108D8
:10032000B200B301B235B30DCF3032078400833051
:10033000333D8500003FB400013FB50035083B0266
:10034000031DA42934083A02031CAE290130B2006F
:100350003208C10705304106031D8F293F084004BC
:100360000319BA293E0803390319BA29FF30BF0718
:10037000FF30C03D4108B200B301B21BB3033308E4
:10038000803AB4004008803A3402031DC9293F086E
:1003900032020318D62920004108B200B301B21B73
:1003A000B3033208BF023308C03BD9292000BF0184
:1003B000C0013E1DF2293E0803390319E3292D30FF
:1003C0008D31A725803120003F08400403190B2AF6
:1003D00030308D31A7258031FF302000BF07FF303E
:1003E000C03DE4293F0840040319032A20308D3121
:1003F000A7258031FF302000BF07FF30C03D3F08F8
:100400004004031DF6293E08033903190B2A2D3039
:100410008D31A725803120004108B2003208B60096
:10042000FF302000B2003208B607360A03197628DA
:100430000A30A8000030A9003608B200B301B23576
:10044000B30DCF30320784008330333D8500003F49
:10045000A000013FA1003B08A3003A08A200873199
:10046000B527803120002108AB002008AA008F3179
:10047000D327803120002808303EB4003408C10062
:1004800041088D31A7258031102A08008D319B2528
:1004900082312000CB004B08D500550803196C2A87
:1004A0000B115008510403196C2A0130CB004B0882
:1004B000D6075B085602031C6C2AD6010130CB001C
:1004C0004B08D7076C085702031C6C2A59080319FC
:1004D0006B2AD801D80AD701580803197A2A50087C
:1004E000510403197A2A51088A0050080A008231FF
:1004F0002000D8012100360837040319842A370860
:100500008A0036080A008231200060080319462A52
:100510008F31252782312000CB004B08CD004D08BC
:10052000CB005C08203E8600013087004B0881002C
:100530000130CB004B08DC070A304D06031D462A6C
:100540000130DC025C08203E86000130870081011A
:10055000DC015E30AE008430AF002030B0000130EE
:10056000B10080317120823120006E030319BD2A51
:1005700020308D3175258231462A7F302000A00041
:100580008430A1002030CB004B08A2000330A30030
:100590000030A40087310127823120002008210487
:1005A000031DE22A1030AE008430AF00210058084D
:1005B0002000B100210057082000B00080317120D8
:1005C0008231462A8F302000A0008430A1002030E4
:1005D000CB004B08A2000330A3000030A4008731F9
:1005E00001278231200020082104031DFB2A8D31C0
:1005F000D9258231462A77302000A0008430A1001E
:100600002030CB004B08A2000330A3000030A40030
:10061000873101278231200020082104031D142B7B
:100620008D3197258231462A83302000A000843006
:10063000A1002030CB004B08A2000330A300003003
:10064000A400873101278231200020082104031DE6
:10065000392B8D31852582311A302000AE0084304F
:10066000AF007B30B0008430B10080317120823126
:10067000462A8B302000A0008430A1002030CB001F
:100680004B08A2000330A3000030A40087310127EB
:100690008231200020082104031D582B243086318C
:1006A00048268231200026088D31BA258231462A1B
:1006B00087302000A0008430A1002030CB004B0800
:1006C000A2000330A3000030A4008731012782314B
:1006D000200020082104031D7C2BFC30AE00833059
:1006E000AF005B08CB00CC014B08B0004C08B10058
:1006F000803171208231462A73302000A00084307E
:10070000A1002030CB004B08A2000330A300003032
:10071000A400873101278231200020082104031D15
:100720009F2B243086314826823120002608CB00BA
:100730004B08CE004E088E3127268231462A6F3074
:100740002000A0008430A1002030CB004B08A20084
:100750000330A3000030A40087310127823120003C
:1007600020082104031DCA2B8D31822582312000EF
:10077000CB004B08CE00F230AE008330AF004E0805
:10078000CB00CC014B08B0004C08B1008031712087
:100790008231462A20308D3175258231462A013436
:1007A00000340A34003464340034E8340334103440
:1007B000273449344C344C344534473441344C3478
:1007C0005F3454345934503445340A34003441349D
:1007D00031343334323434344C34553441345F346E
:1007E0005434003424343A345234443441343A34A6
:1007F000253464340A34003424343A3447344534DC
:1008000054343A34253464340A3400342D342534D5
:1008100064342E3425343034323464340A340034B1
:1008200024343A34573448344F343A34253473340A
:100830000A3400342A343A345334543450343A3479
:10084000253473340A3400342D34253464342E3482
:1008500025343034323464342C3400345534493443
:100860004E345434313436345F3454343A340034F2
:100870004E344F345F3444344134543441340A34B8
:100880000034553449344E34543438345F3454349D
:100890003A34003446344C344F34413454343A34CE
:1008A000003428346E3475346C346C34293400349C
:1008B00025342534253464343A3400342334253443
:1008C00073340A340034253475340A340034253442
:1008D00064342C340034253475342C3400345234D0
:1008E00044344134003457344434413400345334B4
:1008F000543441340034413443344B34003457349D
:1009000048344F3400345334543450340034473472
:10091000453454340034533445345434003453345F
:10092000413456340034F5004C2D2000E601E60A2F
:1009300008000230F40074082000E60008007D087A
:100940008D31B32584310E2D8D3193258431272DA2
:100950008D317F258431272D8D31D0258431272D70
:100960008D318F258431272D8D31F4258431272D2C
:10097000E501E50A272D0230EF2C7D08033A031923
:10098000AC2C073A0319A42C013A0319A82C033AFA
:100990000319B02C0E3A0319B82C023A0319BB2CD8
:1009A000063A0319B42C272D272D6508003A0319A0
:1009B000BD2C013A03199F2C272D272D02307D06CF
:1009C000031D272D240096138D318B258431272D6F
:1009D0007D08F40074082000E400E3010330F40013
:1009E0007408E500272D7D08F4006308A03E86000A
:1009F00001308700740881000130F4007408E307B7
:100A000064086302031C272D8D317C258431003A54
:100A1000031D0E2DA0308D31742584312000E50199
:100A2000272D20006508023A0319E82C013A031922
:100A3000F32C272D272D20006608003A0319112DCD
:100A4000013A0319D52C033A0319DE2C272D200077
:100A5000E60108008D3179252400910008008731D6
:100A60004327F4007408F600760886008701010821
:100A70002400910008008D317625240091000800A3
:100A80007D08013A03192A2D063A03192F2D0E3A33
:100A900003193B2D562D080075088400053004020B
:100AA0000318080088310435003E82000800083031
:100AB0008E31542685318D31882585318D31C12582
:100AC0008531003A03195E2D8D31E22585312000F4
:100AD0002108A6002008A5002508013EA000FE3040
:100AE000263DA1008E314526853120002108A80031
:100AF0002008A700C62D0030280232300319270233
:100B0000031C882D01302100B8070030B93D8B2D22
:100B10002100B801B901003039020330031938024D
:100B2000031CCF2DB801B9012000DE01DE0ACF2D54
:100B3000003028023230031927020318A52D013096
:100B40002100B8070030B93DA82D2100B801B90136
:100B500000303902033003193802031CCF2DB801CD
:100B6000B9012000DE0122008E1304302000A40011
:100B7000E430890BB92DA40BB92D000022008E178B
:100B800001302100BA070030BB3DCF2D20005E08A8
:100B9000003A03197B2D013A0319982DCF2DA63069
:100BA000890BD02D003208002000C700540803191B
:100BB000182ED201D3014708530203180C2E5335C7
:100BC0004207C300430886008701403FC400413FFD
:100BD000C5004508C6005208BE3E8600870146088B
:100BE00081000130C3004308D20753354207C300D8
:100BF0004308860087010108C4005208BE3E8600F3
:100C00008701440881000130C3004308D207013046
:100C1000C3004308D307DB2D4735C3004308A000BA
:100C2000BE30C4004408A10003308E3164260800A1
:100C300001302000C702D301470853020318372EA2
:100C40006B30AE008430AF0053354207C300430819
:100C500086008701403FB000413FB10080317120E4
:100C6000853101302000C3004308D3071C2E6330B8
:100C7000AE008430AF0053354207C30043088600FE
:100C80008701403FB000413FB10080317120080032
:100C90002000AD002D0886000130870020300106BD
:100CA000031D572E0130A8002808AD074A2E2D0835
:100CB000860001308700093001060319522EAB016E
:100CC000AC01AA012D088600013087002D300106F5
:100CD000031D6F2E0130A8002808AA07772E2D08C3
:100CE0008600013087002B300106031D7B2E01306A
:100CF000A8002808AD072D088600013087000108EC
:100D00008E3136268631031CA42E20002C08A1002B
:100D10002B08A0000A30A2000030A3008E31CD269F
:100D2000863120002D088600013087000108200749
:100D3000A80021080318210AA9002808D03EAB000A
:100D4000FF30293DAC00772E20002A080319B42E6D
:100D50002B09A8002C09A900A80A0319A90A280828
:100D6000A6002908A70008002C08A7002B08A60049
:100D70000800200022082100D800200021082100BE
:100D8000D70020002308A9000030AA00290821006C
:100D9000DD0020002A082100DE0020002408A90030
:100DA0000030AA0029082100DB0020002A082100C9
:100DB000DC0020002508A9000030AA002908210035
:100DC000D90020002A082100DA0001308D31FE25EB
:100DD00086312000A9002908DB0000308D31FE2576
:100DE0002000A9002908DD000330A9002908EA0035
:100DF0002708D1002608D0002808A9002908EC00FF
:100E0000080001302000A3020030A43B230A03198C
:100E1000240A0319402F200020088400210885009F
:100E2000120003191F2F22088600013087002008B6
:100E3000840021088500000801060319372F2208C5
:100E40008600013087000108A500A601A509A609B2
:100E5000A50A0319A60A20088400210885000008B5
:100E60002507A00026080318260AA1000800013063
:100E7000A0070030A13D0130A5002508A207012FE1
:100E8000A001A10108006E2F6730F0007008F1008A
:100E90002000EA01EA0A7D2F6830F0007008F100B6
:100EA0000230652F68086B0203185F2F69086B0713
:100EB000F0007008F1000130F0007008EB076B08DB
:100EC0006806031D7D2FEB010330F0007008EA0077
:100ED0007D2F6F30F0007008F1007D2F20006A0830
:100EE000003A0319442F013A03194C2F033A03190E
:100EF000522F013A0319692F7D2F71080800E7303E
:100F00002000A1008330A200A301A401A5010B30A1
:100F1000A6000E30A7007D30CF004F08A800863114
:100F2000B926873157302000A0000530A1008D314F
:100F3000EB2587318F31062787318731FB278731B2
:100F40008D319F2587318D31C82587318E31192606
:100F500087318B170B178E317D2687318F314427D0
:100F6000873182314622803130282000A501A60138
:100F7000200821040319E52FA701A70AA11BCA2FE6
:100F80000130A035A10D890BC12F0130A400240828
:100F9000A707BE2F0130A535A60D890BCB2F210841
:100FA0002302031DD52F20082202031CDC2F20085A
:100FB000A2022108A33B25140130A136A00C890B05
:100FC000DD2F0130A702031DCA2F2608A100250826
:100FD000A0000800200049082100D4002000480893
:100FE0002100D300D3302000CA004A08C2000130DB
:100FF0008531D42508006830210099009801080047
:101000008431952C8531402D85311B2D8531562D10
:041010008431992C62
:101AE8000800080020005B08080020005D080800C6
:101AF80020005A0808002000D901080020005D08CD
:101B080008002000D901080021009D1408002000C9
:101B1800D401D40A08002000D801D80A08002000FF
:101B2800D901D90A08002000D901D90A08000B0CEC
:101B3800890C01390800163021009700080001348B
:101B48003234013406342000A20022088F3188275D
:101B58000800640080010131890BAE2D0034F100CA
:101B68007108F00070082000DB0008002000A100C8
:101B78002108A0002008DB000800031021009D1C9C
:101B880003140030093D0800013021009D00F030A9
:101B98009E009B019C01080020005B08F30073086D
:101BA800F00001308E31E926080020005B08A30010
:101BB8002308A00001308F316527080021001C0888
:101BC8002000A10021001B082000A0000800200020
:101BD80021082100B700200020082100B6000800D5
:101BE80020006A0803190800EB010330F0007008B0
:101BF800EA0008002000A000200823009100151327
:101C08009513151400000000230013080800210094
:101C18003B082000C90021003A082000C80087318D
:101C2800EA272100BA01BB01080021001508C039C4
:101C3800143895000630200095000630A0002008D2
:101C4800DF000B1108002000A4002408A3002308CB
:101C5800A00000308F31652720002408A300230846
:101C6800DD0008002000A100A0013A30210203187D
:101C7800432E30302102031C432EA001A00A200C61
:101C880008002000A11F08002009A2002109A300C4
:101C9800A20A0319A30A2208A0002308A100080029
:101CA8002000A1002108A000A00DA00D21001D0802
:101CB800200020068339200621009D001D140800FD
:101CC8002000A3006A08A2002208A400033024060A
:101CD800031D08002308A2002208E7002008A2002C
:101CE8002208E8002108A2002208E900EB01EA0125
:101CF8000800210091121112083023009F00903033
:101D08009D0024309E0067309B009C01FC01FB0174
:101D180008302000A0002008FA00E201E101E001FB
:101D280021009116080023009D1C9C2E1D121D16D3
:101D38001908F00020006208A03E8600870170089C
:101D480081000130F0007008E207083062020318D1
:101D5800E2010130F0007008E007080008307A025C
:101D68000318CA2E7B08A83E8600870101082300B5
:101D78009A000130F0007008FB0708307B02031856
:101D8800FB010130F0007008FA0708002100111269
:101D980008002000A401A501201CD62E2208A407B3
:101DA8002308A53D0130A235A30D890BD72E01309C
:101DB800A136A00C890BDC2E20082104031DD02E8F
:101DC8002508A1002408A0000800F100F20171080C
:101DD8002300910070089300951315131515003012
:101DE8008B1B0130F2008B1355309600AA309600F9
:101DF80095149518FD2E1511720C031C8B130318DE
:101E08008B17080022008C018D018E013F302100C4
:101E18008C00F0308D007F308E004F3023008E0014
:101E280020308D0017308C0024008D013F308C004D
:101E38003F308E002100951322009E0184309D00C2
:101E480008002000A10160080319272F6108A03E9F
:101E5800860087010108A0002008A1000130A00029
:101E68002008E107083061020318E10121009112FE
:101E780001302000E002210091162000210808000E
:101E88000B302000A1002630A0005D30890B4A2FBE
:101E9800A00B4A2FA10B4A2F003280302400940057
:101EA80026309500813096009701FE3093008D31E1
:101EB8008225090724009200200091112100911524
:101EC80008002000A100A2012108230091002000A1
:101ED80020082300930095131513151500308B1B4C
:101EE80001302000A2008B13553023009600AA3041
:101EF8009600951495187E2F15112000220C031CAE
:101F08008B1303188B1708002000A1007A08031907
:101F18008A2F2100111A952F2000210823009A00EA
:101F2800A92F111220002108A0007C08A83E8600D5
:101F38008701200881000130A0002008FC07083034
:101F48007C020318FC010130FA0221001116080076
:101F58005530F7007708F800200091112400110887
:101F6800F7007708F800141DC02F941A161FBE2F0B
:101F78000330CE2F0130CE2F941AC92F7808031DB5
:101F8800C72F0430CE2F0030CE2F7808F7007708FF
:101F9800FD00023084319324240015160800200027
:101FA800280829040319FB2FAD01AD0AA91BE62F48
:101FB8000130A835A90D890BDD2F0130AC002C08A4
:101FC800AD07DA2F29082B02031DEC2F28082A0257
:101FD800031CF22F2808AA022908AB3B0130A936B6
:101FE800A80C890BF32F0130AD02031DE62F2B0837
:081FF800A9002A08A800080056
:020000040001F9
:04000E00E4FFFFFF0D
:00000001FF
