:1000000080313028080055347E14803120007F086C
:10001000FB000B1F15282100111E15282000111EA2
:1000200015288E31742680312B280B1F21282100A2
:10003000911E21282000911E21288E313D268031DD
:100040002B280B1F2B282100911D2B282000911DF0
:100050002B288F317A277B082000FF007E100900B3
:1000600080313228803103208031FD001C30840033
:100070008D3085001200EB001200EC001200ED0044
:100080001200EE001200EF00FC015230840000303C
:10009000850019308D3127258031A0308400003053
:1000A00085004B308D312725803120308400013090
:1000B000850030308D3127258031A030840001301B
:1000C000850030308D3127257E1020008731952F17
:1000D00030302000B2003208B90020002F08B300F1
:1000E0002E08B200AE0A0319AF0A320884003308A2
:1000F00085000008B4003408C10041080319080055
:10010000253041060319892841088D312125803188
:100110006D282000BF01C001BE0193283E150130AB
:10012000AE070030AF3D2E0884002F088500000880
:10013000303A03198E289C282E0884002F08850049
:1001400000088D319B258031031C3D292000BF0113
:10015000C0010A302000A0000030A1004008A30028
:100160003F08A2008E315826803120002108C000AF
:100170002008BF002E0884002F0885000008D03E0C
:10018000B200FF3003180030B3003208BF07330855
:10019000C03D0130AE070030AF3D2E0884002F086F
:1001A000850000088D319B258031031C3D29A9283D
:1001B0002000390886008701403FB700413FB80062
:1001C0000230B2003208B90737083804031DEC28A2
:1001D0005130B7008430B800BC01BD0137083C077E
:1001E000840038083D3D850012000319FC280130C9
:1001F000BC070030BD3DEE2840083D02031D02292A
:100200003F083C02031809293C08BF023D08C03BD7
:100210000B29BF01C001FF302000BF07FF30C03DE8
:100220003F0A0319400A0319272920308D3121255F
:1002300080310B29370884003808850000088D318B
:100240002125803101302000B7070030B83D013052
:10025000BC020030BD3B3C0A031D1A293D0A0319AC
:100260006D281A294130B7000030B8000130BC00B9
:100270000030BD00FC283E175B2920002F08B3008A
:100280002E08B200AE0A0319AF0A32088400330800
:1002900085000008C100003A03193C2A643A03199A
:1002A0005B290D3A03195B291A3A0319D828063A33
:1002B00003193B29322920003E1B75293908860085
:1002C0008701403FBA00413FBB000230B200320814
:1002D000B907BB1F80290330B2003208BE04BA0937
:1002E000BB09BA0A0319BB0A8029390886008701AD
:1002F000403FBA00413FBB000230B2003208B907AC
:10030000C101C10A053041060319A5294108B200FF
:10031000B301B235B30DC530320784008330333DAD
:100320008500003FB400013FB50035083B02031DC6
:100330009B2934083A02031CA5290130B200320877
:10034000C10705304106031D86293F0840040319F3
:10035000B1293E0803390319B129FF30BF07FF3027
:10036000C03D4108B200B301B21BB3033308803A69
:10037000B4004008803A3402031DC0293F0832020D
:100380000318CD2920004108B200B301B21BB3030A
:100390003208BF023308C03BD0292000BF01C00192
:1003A0003E1DE9293E0803390319DA292D308D3124
:1003B0002125803120003F0840040319022A3030F3
:1003C0008D3121258031FF302000BF07FF30C03D37
:1003D000DB293F0840040319FA2920308D312125FB
:1003E0008031FF302000BF07FF30C03D3F08400490
:1003F000031DED293E0803390319022A2D308D31E2
:100400002125803120004108B2003208B600FF30BB
:100410002000B2003208B607360A03196D280A30E8
:10042000A8000030A9003608B200B301B235B30D00
:10043000C530320784008330333D8500003FA00083
:10044000013FA1003B08A3003A08A2008F31CB274F
:10045000803120002108AB002008AA008731CC277A
:10046000803120002808303EB4003408C100410823
:100470008D3121258031072A08008D310F258231E9
:100480002000CE004E08D80058080319652A0B1129
:1004900021003E083F040319652A01302000CE00E8
:1004A0004E08D9075E085902031C652AD90101309C
:1004B000CE004E08DA076B085A02031C652A5C0856
:1004C0000319642ADB01DB0ADA0120005B08031947
:1004D000702A21003E083F040319702A2000DB0126
:1004E00021004208430403197A2A43088A0042087B
:1004F0000A0082312000610803193D2A8E31AE26A0
:1005000082312000CE004E08D0005008CE005F0897
:10051000203E8600013087004E0881000130CE0069
:100520004E08DF070A305006031D3D2A0130DF0266
:100530005F08203E8600013087008101DF015E30C8
:10054000AE008430AF002030B0000130B100803107
:100550006820823120006E030319B32A20308031D5
:10056000022082313D2A7F302000A0008430A1008B
:100570002030CE004E08A2000330A3000030A400BB
:10058000873117278231200020082104031DD82A33
:100590001030AE008430AF0021003B082000B100D5
:1005A00021003A082000B0008031682082313D2AC5
:1005B0008F302000A0008430A1002030CE004E08F3
:1005C000A2000330A3000030A40087311727823136
:1005D000200020082104031DF12A8D313E2582319F
:1005E0003D2A77302000A0008430A1002030CE00CA
:1005F0004E08A2000330A3000030A4008731172763
:100600008231200020082104031D0A2B8D310B2587
:1006100082313D2A83302000A0008430A1002030A8
:10062000CE004E08A2000330A3000030A4008731A2
:1006300017278231200020082104031D2F2B8C3125
:10064000F92482311A302000AE008430AF007B30B4
:10065000B0008430B1008031682082313D2A8B3077
:100660002000A0008430A1002030CE004E08A2005F
:100670000330A3000030A400873117278231200007
:1006800020082104031D4E2B243086310B26823195
:10069000200026088D31DD2582313D2A873020005B
:1006A000A0008430A1002030CE004E08A20003300C
:1006B000A3000030A40087311727823120002008D2
:1006C0002104031D722BFC30AE008330AF005E08A6
:1006D000CE00CF014E08B0004F08B1008031682035
:1006E00082313D2A73302000A0008430A1002030E8
:1006F000CE004E08A2000330A3000030A4008731D2
:1007000017278231200020082104031D952B243057
:1007100086310B26823120002608CE004E08D100FB
:1007200051088D318C2582313D2A6F302000A00088
:100730008430A1002030CE004E08A2000330A30078
:100740000030A400873117278231200020082104BF
:10075000031DC02B8C31F62482312000CE004E08C0
:10076000D100F230AE008330AF005108CE00CF018F
:100770004E08B0004F08B1008031682082313D2A18
:1007800020308031022082313D2A013400340A3485
:10079000003464340034E834033410342734023431
:1007A0000134003407344D3455344C345434493416
:1007B0005F34413431343334323434344C3455348E
:1007C00041345F345434003449344C344C3445346F
:1007D000473441344C345F34543459345034453404
:1007E0000A34003424343A345234443441343A34F0
:1007F000253464340A34003424343A3447344534DC
:1008000054343A34253464340A3400342D342534D5
:1008100064342E3425343034323464340A340034B1
:1008200024343A34573448344F343A34253473340A
:100830000A3400342A343A345334543450343A3479
:10084000253473340A3400342D34253464342E3482
:1008500025343034323464342C3400345534493443
:100860004E345434313436345F3454343A340034F2
:100870004E344F345F3444344134543441340A34B8
:100880000034553449344E34543438345F3454349D
:100890003A34003446344C344F34413454343A34CE
:1008A000003428346E3475346C346C34293400349C
:1008B00025342534253464343A3400342334253443
:1008C00073340A340034253475340A340034253442
:1008D00064342C340034253475342C3400345234D0
:1008E00044344134003457344434413400345334B4
:1008F000543441340034413443344B34003457349D
:1009000048344F3400345334543450340034473472
:10091000453454340034533445345434003453345F
:10092000413456340034F7004C2D2000EA01EA0A25
:1009300008000230F60076082000EA0008007D0872
:100940008D31C92584310E2D8D3107258431272D18
:100950008C31F3248431272D8D3135258431272D99
:100960008D3103258431272D8D3159258431272D53
:10097000E901E90A272D0230EF2C7D08033A03191B
:10098000AC2C073A0319A42C013A0319A82C033AFA
:100990000319B02C0E3A0319B82C023A0319BB2CD8
:1009A000063A0319B42C272D272D6908003A03199C
:1009B000BD2C013A03199F2C272D272D02307D06CF
:1009C000031D272D240096138C31FF248431272DFD
:1009D0007D08F60076082000E800E7010330F60005
:1009E0007608E900272D7D08F6006708A03E8600FE
:1009F00001308700760881000130F6007608E707AD
:100A000068086702031C272D8C31F0248431003ADA
:100A1000031D0E2DA0308C31E92484312000E90122
:100A2000272D20006908023A0319E82C013A03191E
:100A3000F32C272D272D20006A08003A0319112DC9
:100A4000013A0319D52C033A0319DE2C272D200077
:100A5000EA0108008C31ED24240091000800873160
:100A60005927F6007608F800780886008701010803
:100A70002400910008008C31EA2424009100080031
:100A80007D08013A03192A2D063A03192F2D0E3A33
:100A900003193B2D562D0800770884000530040209
:100AA0000318080088310435003E82000800200049
:100AB000CA01CD0104304D020318FB2D4D08B43E90
:100AC0008600870101080319F32D4D08CF3E8400ED
:100AD00083300318013E850000088D31B92585312A
:100AE0008C31FC2485318731F9278531003A03198F
:100AF000732D8D314725853120002108C90020083C
:100B0000C8004808013EA000FE30493DA1008D31DB
:100B1000AA25853120002108CC002008CB00E72D34
:100B200000304C02323003194B02031CA02D01305F
:100B3000C7004D08B03E8600870147088107A52DF4
:100B40004D08B03E8600870181014D08B03E860009
:100B50008701FA300102031CF32D4D08B03E8600D8
:100B6000870181014D08DE3E860087018101810AEF
:100B7000E02D00304C02323003194B020318C92D0E
:100B80000130C7004D08B03E860087014708810745
:100B9000CE2D4D08B03E8600870181014D08B03E44
:100BA00086008701FA300102031CF32D4D08B03E88
:100BB0008600870181014D08DE3E860087018101A4
:100BC0008D31702585312000CA01CA0AF32D4D08E8
:100BD000DE3E860087010108003A0319902D013A94
:100BE0000319B92DF32D0130C7004708CD07043094
:100BF0004D02031C5E2D4A080319062EDE30C70085
:100C00004708C20004308631D0268531C830003212
:100C1000890B072E08002000AD002D08860001304A
:100C2000870020300106031D1A2E0130A800280875
:100C3000AD070D2E2D088600013087000930010612
:100C40000319152EAB01AC01AA012D088600013055
:100C500087002D300106031D322E0130A800280820
:100C6000AA073A2E2D088600013087002B30010696
:100C7000031D3E2E0130A8002808AD072D08860070
:100C80000130870001088D319B258631031C672EBA
:100C900020002C08A1002B08A0000A30A200003080
:100CA000A3008E315826863120002D0886000130A1
:100CB000870001082007A80021080318210AA900BD
:100CC0002808D03EAB00FF30293DAC003A2E200072
:100CD0002A080319772E2B09A8002C09A900A80AB5
:100CE0000319A90A2808A6002908A70008002C084B
:100CF000A7002B08A6000800200025082100BB0043
:100D0000200024082100BA0020002608AC00003092
:100D1000AD002C082100C40020002D082100C500D2
:100D200020002708AC000030AD002C08D4002D08AE
:100D3000D5002908D3002808D20001308D31632561
:100D400086312000AC002C08DE0052085304031941
:100D5000B22E5E08AC002C08A00053088A0052088E
:100D60000A00863100308D3163252000AC002C084C
:100D7000E0000330AC002C082100DC0020002A0831
:100D8000AC000030AD002C082100BE0020002D0872
:100D90002100BF0020002B08AC002C08EB0008004D
:100DA0002000C60057080319E12E4608C300430877
:100DB000A0004208C4004408A10001308E31CD26B5
:100DC000080001302000C602D6014608560203186A
:100DD000032F6730AE008430AF0056084207C300CF
:100DE0004308860087010108C400C5014408B0001B
:100DF0004508B10080316820863101302000C300F1
:100E00004308D607E52EF830AE008330AF00560811
:100E10004207C3004308860087010108C400C501DA
:100E20004408B0004508B100803168200800013056
:100E30002000A3020030A43B230A0319240A03194B
:100E4000562F200020088400210885001200031975
:100E5000352F2208860001308700200884002108F1
:100E600085000008010603194D2F22088600013075
:100E700087000108A500A601A509A609A50A03196E
:100E8000A60A200884002108850000082507A00084
:100E900026080318260AA10008000130A007003028
:100EA000A13D0130A5002508A207172FA001A1012F
:100EB0000800842FD930F0007008F1002100DC0117
:100EC000DC0A932FDA30F0007008F10002307B2F3B
:100ED0005A085D020318752F5B085D07F000700863
:100EE000F1000130F0007008DD075D085A06031DAF
:100EF000932FDD010330F0007008DC00932F6F307A
:100F0000F0007008F100932F21005C08003A0319EB
:100F10005A2F013A0319622F033A0319682F013A35
:100F200003197F2F932F710808008E3123268731F4
:100F3000D3302000A4008330A500A601A701A13072
:100F4000A8000F30A900AA01AB01AB0A86317C26AC
:100F5000873157302000A0000530A1008D31502589
:100F600087318D31F12587318D31172587318D31CD
:100F7000132587318D312D2587318D317E258731A0
:100F80008B170B178E31092687318E31ED2687316D
:100F900082313D228031302820002808290403199D
:100FA000F42FAD01AD0AA91BDF2F0130A835A90D23
:100FB000890BD62F0130AC002C08AD07D32F2908A0
:100FC0002B02031DE52F28082A02031CEB2F2808FB
:100FD000AA022908AB3B0130A936A80C890BEC2FDB
:100FE0000130AD02031DDF2F2B08A9002A08A8003D
:100FF0000800031021009D1C03140030093D080067
:101000008431952C8531402D85311B2D8531562D10
:041010008431992C62
:1019D200080020005E0808002000600808002000BF
:1019E2005D0808002000DC010800200060080800F3
:1019F2002000DC01080021009D1408002000D7010E
:101A0200D70A08002000DB01DB0A08002000DC0105
:101A1200DC0A08002000DC01DC0A08000B0C890C3F
:101A220001390800163021009700080068302100B3
:101A32009900980108000134FA3432340134063432
:101A42002000A20022088F313127080064008001A3
:101A52000131890B282D0034013021009D00C03056
:101A62009E009B019C01080020005E08F3007308A1
:101A7200F00001308E319126080020005E08A3009C
:101A82002308A00001308F310E27080021001C0816
:101A92002000A10021001B082000A0000800200057
:101AA20021082100C300200020082100C2000800F4
:101AB20021005C0803190800DD010330F000700802
:101AC200DC0008002000A00020082300910015136C
:101AD20095131514000000002300130808002200CB
:101AE2000E1104302000A000E430890B762DA00BEB
:101AF200762D000022000E15080021001508C039BD
:101B0200143895000630200095000630A000200809
:101B1200E6000B1108002000A4002408A3002308FB
:101B2200A00000308F310E2720002408A3002308D4
:101B3200E00008002000A100A0013A3021020318B1
:101B4200A82D30302102031CA82DA001A00A200CD0
:101B520008002000A11F08002009A2002109A300FB
:101B6200A20A0319A30A2208A0002308A100080060
:101B72002000A1002108A000A00DA00D21001D0839
:101B8200200020068339200621009D001D14080034
:101B9200F5007508F40074082000DE0052085304B2
:101BA200031908005E08F4007408F00053088A0064
:101BB20052080A008D3108002000A5002508A40063
:101BC2002408DE0052085304031908005E08A4002A
:101BD2002408A00053088A0052080A008D31080028
:101BE20022008C018E013F3021008C003B308E00A0
:101BF200083023008E0017308C00383024008C000F
:101C020030308E002100951322009E019D010800B4
:101C1200210091121112083023009F0090309D0084
:101C220024309E0067309B009C01FC012000E501EE
:101C32000830A0002008E400E301E201E1012100F4
:101C4200911608002000A1010430210203180800A7
:101C52002108DE3E8600870181012108B03E860010
:101C6200870181012108B43E86008701810101308C
:101C7200A0002008A107252E23009D1C422E1D1224
:101C82001D161908F00020006308A03E8600870197
:101C9200700881000130F0007008E3070830630229
:101CA2000318E3010130F0007008E107080020008A
:101CB200A401A501201C612E2208A4072308A53D2A
:101CC2000130A235A30D890B622E0130A136A00C82
:101CD200890B672E20082104031D5B2E2508A10015
:101CE2002408A000080008302000640203188E2E89
:101CF2006508A83E86008701010823009A0001308A
:101D0200F00070082000E507083065020318E501BD
:101D12000130F0007008E4070800210011120800E9
:101D2200F100F201710823009100700893009513ED
:101D32001513151500308B1B0130F2008B13553033
:101D42009600AA30960095149518A52E1511720CBE
:101D5200031C8B1303188B1708002000A1016108D4
:101D62000319B02E6208A03E860087010108A00078
:101D72002008A1000130A0002008E207083062021A
:101D82000318E2012100911201302000E10221003A
:101D920091162000210808002000A30021005C0801
:101DA2002000A2002208A40003302406031D08001C
:101DB2002308A20022082100D90020002008A20046
:101DC20022082100DA0020002108A20022082100B6
:101DD200DB00DD01DC0108000B302000A100263011
:101DE200A0005D30890BF32EA00BF32EA10BF32E76
:101DF2000032803024009400263095008130960015
:101E02009701FE3093008C31F624090724009200DA
:101E1200200091112100911508002000A100A201CB
:101E2200210823009100200020082300930095132D
:101E32001513151500308B1B01302000A2008B13E7
:101E4200553023009600AA30960095149518272F36
:101E520015112000220C031C8B1303188B1708008A
:101E62002000A10064080319332F2100111A3E2F0C
:101E72002000210823009A00522F1112200021086D
:101E8200A0007C08A83E860087012008810001305E
:101E9200A0002008FC0708307C020318FC01013076
:101EA200E402210011160800F201F20AF3010430E3
:101EB20073020318080070087205031D6B2F730864
:101EC200B43E8600870181017308DE3E86008701E9
:101ED2008101712F7308B43E860087018101810A56
:101EE2007235F1007108F2000130F1007108F30758
:101EF200582F5530F9007908FA002000911124007A
:101F02001108F9007908FA00141D8E2F941A161F71
:101F12008C2F03309C2F01309C2F941A972F7A0814
:101F2200031D952F04309C2F00309C2F7A08F90056
:101F32007908FD000230843193242400151608002C
:101F42007E1CA52F8F31552F2000A201A20AA301CA
:101F5200043023020318080020082205031DBC2FA9
:101F62002308B43E8600870181012308DE3E8600F5
:101F720087018101C22F2308B43E860087018101B7
:101F8200810A2235A1002108A2000130A100210806
:101F9200A307A92F2000A501A601200821040319E7
:101FA200FB2FA701A70AA11BE02F0130A035A10D2D
:101FB200890BD72F0130A4002408A707D42F0130A2
:101FC200A535A60D890BE12F21082302031DEB2F56
:101FD20020082202031CF22F2008A2022108A33BA0
:101FE20025140130A136A00C890BF32F0130A70272
:0E1FF200031DE02F2608A1002508A00008000E
:020000040001F9
:04000E00E4FFFFFF0D
:00000001FF
