:0400000080313C28E7
:100008007E14803120007F08FD000B1F1528210079
:10001800111E15282000111E152893314623803102
:1000280037280B1F21282100911E21282000911E0E
:10003800212893312A23803137280B1F2D282100AE
:10004800921D2D282000921D2D288731FF278031F1
:1000580037280B1F37282100911D37282000911DB4
:1000680037288B313E237D082000FF007E100900D1
:1000780080313E2821009131E3218031EC0091311B
:10008800E4218031ED009131E5218031EE0022003C
:100098009131E0218031DE009131E1218031DF00B2
:1000A8009131E2218031E000303084002330850036
:1000B800C030FE000030FF0092311C228031F00178
:1000C800F101F201F301F401F501F6012000EB0161
:1000D800EC01ED01EE01D9308400003085001330C9
:1000E800FE000030FF0092311C2280312030840055
:1000F800013085003E30FE000030FF0092311C22A6
:100108008031A0308400013085002C30FE000030A2
:10011800FF0092311C22803120308400023085009B
:100128004030FE000030FF0092311C228031A030A8
:100138008400023085004030FE000030FF0092311C
:100148001C22803120308400033085004030FE00BE
:100158000030FF0092311C227E1020009431E92CDF
:100168002000CA004A080319172B5230AE009130FC
:10017800AF004A08C700C8014708B0004808B100E6
:100188008E312B268031172B01302000C5022D30EF
:10019800AE009130AF008E312B2680312000EB016C
:1001A80045086B020318F3286130AE009130AF00A8
:1001B8006B084607C700470886000130870001081A
:1001C800C800C9014808B0004908B1008E312B2683
:1001D800803101302000C7004708EB07D4285D3084
:1001E800AE009130AF006B084607C700470886008D
:1001F800013087000108C800C9014808B000490853
:10020800B1008E312B26080001302000C5022E30A7
:10021800AE009130AF008E312B2680312000EB01EB
:1002280045086B02031831297130AE009130AF00D8
:100238006B084607C7004708860001308700010899
:10024800B000B101B01BB1038E312B2680310130D3
:100258002000C7004708EB071429DA30AE009030B9
:10026800AF006B084607C7004708860001308700C3
:100278000108B000B101B01BB1038E312B26080074
:1002880006302000AE009130AF008E312B26803131
:1002980020004508FE3EC7004708C500EB01450899
:1002A8006B02031881296130AE009130AF006B08F2
:1002B800013E4607C700470886000130870001084D
:1002C800C8004808A0006B084607C900490886000E
:1002D80001308700010892318F22803120002108E7
:1002E800B1002008B0008E312B26803120006B0829
:1002F800023EC7004708EB0053295D30AE0091303D
:10030800AF006B08013E4607C7004708860001306A
:1003180087000108C8004808A0006B084607C90004
:100328004908860001308700010892318F22803108
:1003380020002108B1002008B0008E312B260800CB
:1003480007302000AE009130AF008E312B2680316F
:1003580020004508FE3EC7004708C500EB014508D8
:100368006B020318E1297130AE009130AF006B08C1
:10037800013E4607C700470886000130870001088C
:10038800C8004808A0006B084607C900490886004D
:1003980001308700010892318F2280312000210826
:1003A800B1002008B0008E312B26803120006B0868
:1003B800023EC7004708EB00B329DA30AE009030A0
:1003C800AF006B08013E4607C700470886000130AA
:1003D80087000108C8004808A0006B084607C90044
:1003E8004908860001308700010892318F22803148
:1003F80020002108B1002008B0008E312B2608000B
:1004080036302000AE009130AF008E312B2680317F
:1004180020004508FE3EC7004708C500EB01450817
:100428006B0203187D2A6B08013E4607C700470880
:100438008600013087000108C8004808A0006B0842
:100448004607C90049088600013087000108923133
:100458008F22803120002108CC002008CB004C08D6
:10046800803AC7007F304702031D3C2A9D304B026B
:10047800031C412A2000CC1B462AFD302000AE0078
:1004880090304A2AFC302000AE009030AF00643033
:10049800A0000030A1004C08A3004B08A20088313E
:1004A8005820803120002108B1002008B0006430B5
:1004B800A0000030A1004C08A3004B08A200963110
:1004C8008C26803120002108A8002008A70092313E
:1004D8005F22803120002808B3002708B2008E313F
:1004E8002B26803120006B08023EC7004708EB002E
:1004F800132A6B08013E4607C700470886000130EB
:1005080087000108C8004808A0006B084607C90012
:100518004908860001308700010892318F22803116
:1005280020002108CC002008CB004C08803AC700E6
:100538007F304702031DA22A9D304B02031CA72AC5
:100548002000CC1BD72ADF302000AE009030AF004F
:100558006430A0000030A1004C08A3004B08A200A2
:1005680088315820803120002108B1002008B000CF
:100578006430A0000030A1004C08A3004B08A20082
:1005880096318C26803120002108A8002008A70079
:1005980092315F22803120002808B3002708B2007A
:1005A8008E312B260800DE302000AE009030AF00E0
:1005B8006430A0000030A1004C08A3004B08A20042
:1005C80088315820803120002108B1002008B0006F
:1005D8006430A0000030A1004C08A3004B08A20022
:1005E80096318C26803120002108A8002008A70019
:1005F80092315F22803120002808B3002708B2001A
:100608008E312B26080024302000AE009130AF0038
:100618008E312B260800AF302000AE009030AF009E
:100628008E312B26080020004408013A0319C828F7
:10063800033A03190829013A03194429073A031907
:10064800A429013A0319042A033A0319072B0F2B8B
:1006580008002100D20052082000C400C501440847
:10066800A0004508A1003030A2000030A30093315B
:100678006223833130302000C6002330C7002008B1
:1006880046072100D70020002108473D2100D80057
:100698005708860058088700010803190800913098
:1006A8002000A0009130A100210058082000A300DC
:1006B800210057082000A2000330A4000030A50044
:1006C80096314A268331200020082104031D922BED
:1006D80021006E082000C400C5014408B000450888
:1006E800B100B201B20AD630B3000030B400B5018F
:1006F800B50A8831FD2083312000C6004608210054
:10070800D5005508031D8D2B10302000AE00913008
:10071800A52CB1302000AE009130132DA930200057
:10072800A0009130A100210058082000A30021005A
:1007380057082000A2000330A4000030A50096311D
:100748004A268331200020082104031DB62B2100EE
:100758006E082000C400C5014408AE004508AF007B
:100768000330D92B75302000A0009130A100210062
:1007780058082000A300210057082000A2000330D9
:10078800A4000030A50096314A26833120002008B5
:100798002104031DE52B21006E082000C400C501BB
:1007A8004408AE004508AF000430C6004608B00053
:1007B8009431BE2483312000C70047082100D500AA
:1007C800162D99302000A0009130A1002100580872
:1007D8002000A300210057082000A2000330A40035
:1007E8000030A50096314A268331200020082104D4
:1007F800031D202C21006E082000C400C5014408F8
:10080800AE004508AF000530C6004608B000943178
:10081800BE2483312000C70047082100D5005508B1
:10082800031D1B2CC9302000AE009030132DBD30A5
:100838002000AE009030132DA5302000A00091308C
:10084800A100210058082000A3002100570820001B
:10085800A2000330A4000030A50096314A26833157
:10086800200020082104031D722C21005708043E93
:100878002000C40000302100583D2000C500440875
:10088800A6004508A7008931AC218331200026083D
:10089800C60046082100D6006E082000C400C50125
:1008A8004408AE004508AF000830C6004608B0004E
:1008B8009431BE24833121006E082000C400C50194
:1008C8004408AE004508AF00210056082000C600C5
:1008D8004608B0009431BE248331162DA130200083
:1008E800A0009130A100210058082000A300210099
:1008F80057082000A2000330A4000030A50096315C
:100908004A268331200020082104031DB02C210031
:100918006E082000C400C5014408B0004508B100B5
:100928000930C6004608B200D630B3000030B40023
:10093800B501B50A8831FD2083311A302000AE0098
:100948009130AF00210056082000C400C5014408BA
:10095800B0004508B100142D2100D4010230200058
:10096800C40044082100D30054082000C400C50175
:100978004408210057078600200045082100583DFB
:10098800870001082000C60021005308A03E860009
:1009980087012000460881000130C4004408210076
:1009A800D3075408D40A2000C400C5014408210014
:1009B80057078600200045082100583D8700010898
:1009C800031DB82C0A302000C40044082100A000F0
:1009D80054082000C40044082100A1006E0820002B
:1009E800C400C5014408AE004508AF00A030C600E9
:1009F8004608B000210053082000C7004708B1008E
:100A080094316C2483312000C80048082100D500A7
:100A180055080319162D59302000AE009030AF004C
:100A28008E312B262100570886005808870081013F
:100A3800080079302000A0009130A1005B08A200D6
:100A48000230A3000330A4000030A50096314A26E6
:100A58008531200020082104031D402D5B08043E39
:100A6800A6000230A7008931AC2120002608DC004E
:100A78005C082100EE00080095302000A0009130AD
:100A8800A1005B08A2000230A3000330A4000030DC
:100A9800A50096314A268531200020082104031D2F
:100AA800582D9631D226080089302000A0009130B8
:100AB800A1005B08A2000230A3000330A4000030AC
:100AC800A50096314A268531200020082104031DFF
:100AD800702D9231C62208009D302000A000913070
:100AE800A1005B08A2000230A3000330A40000307C
:100AF800A50096314A268531200020082104031DCF
:100B08009D2D5B08043EA6000230A7008931AC2168
:100B1800853120002608DC005C08EC001C306C02E3
:100B2800031C08002530AE009030AF008E312B2614
:100B3800080085302000A0009130A1005B08A200C9
:100B48000230A3000330A4000030A50096314A26E5
:100B58008531200020082104031DF92D1C306C026A
:100B68000318F22D5B08043EA6000230A700893165
:100B7800AC21853120002608DC005C08E30063080E
:100B8800DC005C08A0006C08023E9331D923853153
:100B980020006308DC000430A0000030A1006C08CD
:100BA800DD00DE015D08A2005E08A3008831582040
:100BB800853120002008DF000230DF35890BE12D68
:100BC800A0305F07E0006C0803396007E1006108A6
:100BD8008600013087005C08810008000B30AE00F9
:100BE8009030AF008E312B26080081302000A00005
:100BF8009130A1005B08A2000230A3000330A400DA
:100C08000030A50096314A268531200020082104AD
:100C1800031D822E4430AE009130AF008E312B265A
:100C280085312000E4011B3064020318722E640829
:100C3800013E0339031D3A2EAD30AE009130AF00AE
:100C48000430A0000030A1006408DC00DD015C086D
:100C5800A2005D08A30088315820853120002008B3
:100C6800DE000230DE35890B362E542E713020001E
:100C7800AE009130AF000430A0000030A10064083D
:100C8800DC00DD015C08A2005D08A3008831582063
:100C9800853120002008DE000230DE35890B512E18
:100CA800A0305E07DF00640803395F07E0006008D2
:100CB8008600013087000108E100E2016108B00008
:100CC8006208B1008E312B26853101302000DC000E
:100CD8005C08E4071B306402031C1B2EDA30AE00EC
:100CE8009030AF0023003B082000DC00DD015C08E9
:100CF800B0005D08B1008E312B2608007D30200041
:100D0800A0009130A1005B08A2000230A3000330CC
:100D1800A4000030A50096314A268531200020081D
:100D28002104031DC92EE4011C30640203180800C5
:100D3800A0016408023E9331D92385310430200094
:100D4800A0000030A1006408DC00DD015C08A200FE
:100D58005D08A30088315820853120002008DE0076
:100D68000230DE35890BB52EA0305E07DF0064083F
:100D780003395F07E00060088600013087008101C1
:100D88000130DC005C08E407982E8D30A00091301B
:100D9800A1005B08A2000230A3000330A4000030C9
:100DA800A50096314A268531200020082104031D1C
:100DB800EE2E5B08043EA6000230A7008931AC2164
:100DC800853120002608DC005C08E30063089631C2
:100DD8000926080021006E030319080020005B089B
:100DE80097311A2708002000D50022000E0D0E0D9D
:100DF80001392000CD000130CD06CD0CCD0C2200EC
:100E08000E0820004D067F394D0622008E00A030C6
:100E18000032890B0C2F20005508CD00CE014D085B
:100E2800AE004E08AF000630CF004F08B000943136
:100E3800BE24863110302000CD009430890B222F3B
:100E4800CD0B222F000020005508CD00CE014D0803
:100E5800B0004E08B1000730CF004F08B200523042
:100E6800B3000030B400B501B50A8831FD208631E1
:100E78002000D0005008D400A0300032890B412F48
:100E880020005408031DA52F06305206031D532FBA
:100E98000630CD004D08C400C501C601A22F2000B0
:100EA8005508CD00CE014D08B0004E08B1000730FE
:100EB800CF004F08B2005330B3000030B400B50182
:100EC800B50A8831FD2086312000D0005008D400B2
:100ED800A0300032890B6D2F20005408031DA52F68
:100EE8005508CD00CE014D08B0004E08B1000730BE
:100EF800CF004F08B200BC30B3000130B400530833
:100F0800D0005008B5008831FD2086312000D1007E
:100F18005108D400A0300032890B8F2F20005408CC
:100F2800031DA52F5208CD004D08C4005308CE005C
:100F38004E08C500BC30CF004F08C60055088031A8
:100F4800B4202000540808002000A30021005B18EA
:100F5800EA2F02302000A20021088600870122081B
:100F680081002008A2002100590A8600013087006C
:100F78002000220881002308A200210059088600C9
:100F8800013087002000220881002108A2002100EA
:100F98005908023E8600013087002000220881009F
:100FA8000330A20022082100D9075908583A031D26
:100FB800E32F55302000A20022082100D900DB10C1
:100FC8005A085906031DF02F5B14F02F2000210842
:100FD800860087018101810A200021088600870197
:100FE80002300106031D080021006B08031DF82FBD
:100FF8002000911508000800200021082200AB00FD
:10100800200020082200AA0008002000DA00DB01E6
:1010180004305B02031808005B085A07D60056081C
:101028008600013087000108D7005708DC005C08FB
:101038000319080021305C02031808005C08953188
:101048006D258831003A0319522820005C08863142
:10105800F72688312000D6005608D9005908031908
:1010680052288830AE009030AF005C08D600D70117
:101078005608B0005708B1008E312B268831200061
:101088005C08D600D7015608AE005708AF000C30F0
:10109800D8005808B0009431BE24883101302000AF
:1010A800D6005608DB070C282000A601A11F6328DC
:1010B800A009A109A00A0319A10AA601A60AA31F4B
:1010C8006E28A209A309A20A0319A30A0130A400E1
:1010D8002408A606A701A8012008210403199D28B1
:1010E800A501A50AA11B82280130A035A10D890BF5
:1010F80079280130A4002408A50776280130A735EF
:10110800A80D890B832821082302031D8D28200898
:101118002202031C94282008A2022108A33B2714BA
:101128000130A136A00C890B95280130A502031DBA
:10113800822826080319A528A709A809A70A0319B8
:10114800A80A2808A1002708A000080020002208F3
:101158002200A700200021082200A6002000240861
:101168002200B300200023082200B2002000260835
:101178002200B100200025082200B0002000270826
:10118800AB000030AC002B082200AE0020002C0879
:101198002200AF00300831040319D72831088A002B
:1011A80030080A0088310130923128228831200025
:1011B800AB002B082100E0000030923128222000EB
:1011C800AB002B082200BF0003302000AB002B0827
:1011D8002200C600200029082200A90020002808B3
:1011E8002200A80020002A08AB002B082200DE00FD
:1011F800080020003208B6003608B900A0300032D6
:10120800890B03292000A701A70A3108A900300883
:10121800A8003A30B6003608AA0039309431942430
:101228008831023020003A06031D1F29A030003201
:10123800890B1B2915293A08031D4E29A0300032B5
:10124800890B232920003408A9003308A800350891
:10125800B6003608AA003108AC003008AB003A30B6
:10126800B7003708AD00943144248831023020009B
:101278003A06031D4429A0300032890B40293A2937
:101288003A08031D4929B80150290230B60036082A
:10129800B8005029B801B80A380808002000A6018B
:1012A800210064080319A92908306302031C632973
:1012B800E30101302000A00020082100E2070A30E5
:1012C80084009030850000086202031C6D29E30148
:1012D800E2016208203E86000130870001082000F4
:1012E800A000A1010130A2000030A3002100630A80
:1012F80020008029A235A30D890B7E29200822050C
:10130800A40021082305A500240825040319A229FF
:10131800210062082000A0000230A035FF3E031D16
:1013280091292035210063072000A1002108A7008A
:101338000130A00020082100E307A929013020007E
:10134800A00020082100E3075829200027080800EA
:101358002000260886002708870020300106031D84
:10136800BB2901302000A6070030A73DAC2926087C
:10137800860027088700093001060319B529AB0143
:10138800AC01AA0126088600270887002D3001062F
:10139800031DD3290130A8002808AA07DB2926083D
:1013A8008600270887002B300106031DDF2901303E
:1013B800A6070030A73D26088600270887000108F1
:1013C800923150228931031C082A20002C08A100E0
:1013D8002B08A0000A30A2000030A300933162233A
:1013E8008931200026088600270887000108200781
:1013F800A80021080318210AA9002808D03EAB003C
:10140800FF30293DAC00DB2920002A080319182ADF
:101418002B09A8002C09A900A80A0319A90A280859
:10142800A6002908A70008002C08A7002B08A6007A
:1014380008002000B0010A308400903085000008C0
:1014480030020318392A3008203E86000130870010
:1014580081010130A9002908B0070A3084009030C2
:10146800850000083002031C272AB101043031022C
:101478000318602A3108A900AA012908A0002A082F
:10148800A1003030A2000030A300933162238A31DA
:1014980030302000AB002330AC0020082B0786003A
:1014A80021082C3D870081010130A9002908B107D6
:1014B80004303102031C3E2AB1011C3031020318EA
:1014C80008003108023E923128228A312000A90002
:1014D8002908AF002F08A9000430A0000030A1009F
:1014E8003108AA00AB012A08A2002B08A300883102
:1014F80058208A3120002008AC000230AC35890B16
:10150800822AA0302C07AD00310803392D07AE0020
:101518002E08860001308700290881000130A900C3
:101528002908B107612AA030883109208A312100B1
:101538005E18A22AA430883109208A31063020009A
:10154800A8000030A90021005F082000AB0021009E
:101558005E082000AA00953140258A31200028081D
:101568002904031DBB2AA830883109208A310C3090
:101578002000A8000030A90021005F082000AB006F
:1015880021005E082000AA00953140258A312000FC
:1015980028082904031DE32AAC30883109208A3140
:1015A80001302000DD005D082100ED076D08803A5C
:1015B8007C3E0318ED016D0883312D238A313C30C0
:1015C8002000A8000030A90021005F082000AB001F
:1015D80021005E082000AA00953140258A312000AC
:1015E80028082904031DFC2AB030883109208A31D3
:1015F80078302000A8000030A90021005F082000F2
:10160800AB0021005E082000AA00953140258A31F0
:10161800200028082904031D182BB430883109201C
:101628008A319231C6228A3158302000A80002300F
:10163800A90021005F082000AB0021005E082000FF
:10164800AA00953140258A31200028082904031D65
:10165800382BB830883109208A319531D1250130AD
:101668002100DE000030DF0001302100DE070030FD
:10167800DF3D0800200091112400951F882C951348
:101688002100EB017508023E860001308700010841
:10169800860087018101810AF5010800DB1808002E
:1016A8005A08F9007908F5005A08860001308700C1
:1016B8000108F9007908EA005A0886000130870015
:1016C8000130413FF6000330F9007908DA075A087B
:1016D800583A031D732B5530F9007908DA005B106E
:1016E8005A0859060319DB14240016140230F900AD
:1016F80079082100EB000800240096140230F90054
:1017080079082100EB0008002400161F942B0130F3
:10171800F90079082100DD0704309231DB22080046
:1017280020006E08FA006D08F900FA36F90C7908FD
:101738002400910020006D1CA72B0B30F9007908BC
:101748002100EB0008000330F90079082100EB00C4
:1017580008002400161FB92B0130F9007908210070
:10176800DD0704309231DB220800961420006E0851
:10177800FA006D08F9007A08F900FA0106307905CF
:10178800FB0000307A05FC00F0307B04ED000030EF
:101798007C04EE006D142100E801E80A0230F9002B
:1017A8007908EB00080068030319F52B7608860012
:1017B80001308700403F2000ED00413FEE007608F1
:1017C800033E860001308700403F2200B400413FBD
:1017D800B50076088600013087000130423F2100BD
:1017E800E90020006D082400910020006D1C022CE7
:1017F8000530F90079082100EB0008000330F900F2
:1018080079082100EB0008002400161F162C01306F
:10181800F90079082100DD072400161305309231FC
:10182800DB22080001302100E902690A031D302C7F
:101838000530F9007908F6070130EA02031D282C63
:1018480000309231DB220800240096140230F9009F
:1018580079082100EB0008002200340886003508CA
:10186800870001082400910001302200B4070030ED
:10187800B53D08002400161F4C2C0130F9007908EA
:101888002100DD0704309231DB2224001613080002
:1018980096150830F90079082100EB000800083097
:1018A800F9007908EB002400961508002200340896
:1018B80086003508870024001108810001302200C5
:1018C800B4070030B53D01302100E9020319742C3A
:1018D800240096120630F90079082100EB00782CD4
:1018E8002400961692317E22240016160800003035
:1018F8009231DB2208000130F90079082100DD0768
:1019080006309231DB22080021006B0884000C307D
:10191800040203187F2C91310435B43E820008007C
:101928009131EA218C312000E70067082200BA00D3
:101938003A080319C42C0B11280829040319C42CCC
:1019480001302000E70067082200BB07210060087B
:1019580022003B02031CC42CBB0101302000E7001D
:1019680067082200BC075E083C02031CC42C210047
:1019780065080319C22C2200BD01BD0A2200BC0162
:101988003D080319D22C280829040319D22C290848
:101998008A0028080A008C312200BD01210067084E
:1019A8000319942C9331B9238C312000E700670880
:1019B800E9006908E70021006108203E860002303E
:1019C80087002000670881000130E70067082100D0
:1019D800E1070A3020006906031D942C013021001C
:1019E800E1026108203E8600023087008101E101A2
:1019F80058302000AE009130AF002030B0000230E7
:101A0800B1008E312B268C3121006E030319112D64
:101A180020309231B3228C31942C91302000A000D8
:101A28009130A1002030A2000230A3000330A400AE
:101A38000030A50096314A268C3120002008210468
:101A4800031D362DE830AE009030AF002200270885
:101A58002000B100220026082000B0008E312B267D
:101A68008C31942CA9302000A0009130A1002030A6
:101A7800A2000230A3000330A4000030A500963174
:101A88004A268C31200020082104031D4F2D923155
:101A980007228C31942C75302000A0009130A100D1
:101AA8002030A2000230A3000330A4000030A500BB
:101AB80096314A268C31200020082104031D682D08
:101AC800923142228C31942C99302000A000913020
:101AD800A1002030A2000230A3000330A40000308F
:101AE800A50096314A268C31200020082104031DC8
:101AF8008D2D923135228C31F2302000AE0090309D
:101B0800AF006D30B0009130B1008E312B268C3192
:101B1800942CA5302000A0009130A1002030A20014
:101B28000230A3000330A4000030A50096314A26F5
:101B38008C31200020082104031DAF2D2430A6007D
:101B48000230A7008931AC218C3120002608913160
:101B5800FF218C31942CA1302000A0009130A100ED
:101B68002030A2000230A3000330A4000030A500FA
:101B780096314A268C31200020082104031DD52DDA
:101B88001A30AE009130AF00210060082000E70055
:101B9800E8016708B0006808B1008E312B268C3147
:101BA800942C69302000A0009130A1002030A200C0
:101BB8000230A3000330A4000030A50096314A2665
:101BC8008C31200020082104031DFB2D2430A600A1
:101BD8000230A7008931AC218C3120002608E700AB
:101BE8006708EA006A0892316E228C31942C6530BD
:101BF8002000A0009130A1002030A2000230A300F4
:101C08000330A4000030A50096314A268C3120000C
:101C180020082104031D262E9131DD218C3120005E
:101C2800E7006708EA00D430AE009030AF006A08D9
:101C3800E700E8016708B0006808B1008E312B267C
:101C48008C31942C20309231B3228C31942C30304A
:101C58002000B4003408BB0020002F08B5002E086F
:101C6800B400AE0A0319AF0A3408840035088500A9
:101C78000008B6003608C3004308031908002530D9
:101C8800430603194C2E43089131F2218E31302E30
:101C98002000C101C201C001562E40150130AE0717
:101CA8000030AF3D2E0884002F0885000008303A28
:101CB8000319512E5F2E2E0884002F088500000876
:101CC800923150228E31031C002F2000C101C20125
:101CD8000A302000A0000030A1004208A3004108FB
:101CE800A200933162238E3120002108C20020080F
:101CF800C1002E0884002F0885000008D03EB400DB
:101D0800FF3003180030B5003408C1073508C23D5C
:101D18000130AE070030AF3D2E0884002F08850043
:101D28000008923150228E31031C002F6C2E2000A7
:101D38003B0886008701403FB900413FBA000230A6
:101D4800B4003408BB0739083A04031DAF2E3D30F0
:101D5800B9009130BA00BE01BF0139083E078400BE
:101D68003A083F3D850012000319BF2E0130BE0717
:101D78000030BF3DB12E42083F02031DC52E410869
:101D88003E020318CC2E3E08C1023F08C23BCE2EAD
:101D9800C101C201FF302000C107FF30C23D410A26
:101DA8000319420A0319EA2E20309131F2218E31AB
:101DB800CE2E390884003A08850000089131F221B6
:101DC8008E3101302000B9070030BA3D0130BE0223
:101DD8000030BF3B3E0A031DDD2E3F0A0319302E9B
:101DE800DD2E4330B9000030BA000130BE000030AB
:101DF800BF00BF2E40171E2F20002F08B5002E0849
:101E0800B400AE0A0319AF0A340884003508850007
:101E18000008C300003A0319FF2F643A03191E2F64
:101E28000D3A03191E2F1A3A03199B2E063A031965
:101E3800FE2EF52E2000401B382F3B088600870118
:101E4800403FBC00413FBD000230B4003408BB072E
:101E5800BD1F432F0330B4003408C004BC09BD09BA
:101E6800BC0A0319BD0A432F3B0886008701403F7F
:101E7800BC00413FBD000230B4003408BB07C301B9
:101E8800C30A053043060319682F4308B400B50197
:101E9800B435B50D0030340784009030353D8500E9
:101EA800003FB600013FB70037083D02031D5E2F13
:101EB80036083C02031C682F0130B4003408C307FD
:101EC80005304306031D492F410842040319742FA6
:101ED800400803390319742FFF30C107FF30C23D92
:101EE8004308B400B501B41BB5033508803AB60001
:101EF8004208803A3602031D832F41083402031832
:101F0800902F20004308B400B501B41BB503340872
:101F1800C1023508C23B932F2000C101C201401DF8
:101F2800AC2F4008033903199D2F2D309131F22130
:101F38008E312000410842040319C52F30309131F9
:101F4800F2218E31FF302000C107FF30C23D9E2FA5
:101F5800410842040319BD2F20309131F2218E31FE
:101F6800FF302000C107FF30C23D41084204031D75
:101F7800B02F400803390319C52F2D309131F221B4
:101F88008E3120004308B4003408B800FF30200028
:101F9800B4003408B807380A0319302E0A30A800EC
:101FA8000030A9003808B400B501B435B50D0030CB
:101FB800340784009030353D8500003FA000013F84
:101FC800A1003D08A3003C08A20095319C258E3154
:101FD80020002108AB002008AA00953140258E3149
:101FE80020002808303EB6003608C3004308913167
:101FF800F2218E31CA2F0800013400340A3400342B
:1020080064340034E834033410342734043421347D
:102018003A345734533443343A3450344F345334C5
:1020280020344C344134523447344534523420340B
:102038005434483441344E342034323437340A343A
:10204800003421343A3450344F3453343A34503411
:102058004F34533420344C344134523447344534AB
:10206800523420345434483441344E3420343234D9
:1020780037340A34003421343A34253425342534AD
:1020880064343A3455344E34443445345434453445
:1020980043345434453444345F344434453456343A
:1020A8004934433445340A34003421343A344E3404
:1020B8004F342034413443344B3420344634523482
:1020C8004F344D342034493432344334203453347B
:1020D8004C344134563445340A34003421343A34CB
:1020E8004D34413450343A344E344F342034533420
:1020F8004C34413456344534203446344F34553406
:102108004E3444340A34003421343A3425342534E6
:10211800253464343A344E344534543457344F34C7
:1021280052344B345F344534523452344F34523481
:102138000A3400344234413443344B3450344C3440
:1021480041344E3445342D344D34413453345434B1
:1021580045345234003449344C344C3445344734D3
:1021680041344C345F3454345934503445340A348F
:10217800003421343A345334543450343A344E34DD
:10218800413443344B340A3400342A343A34533417
:10219800543450343A34413443344B340A340034E0
:1021A80024343A345234443441343A34253464348F
:1021B8000A3400342D34253464342E342534303434
:1021C800323464340A34003424343A3457344834CA
:1021D8004F343A34253473340A3400342A343A34C8
:1021E8005334543450343A34253473340A34003474
:1021F8002D34253464342E34253430343234643468
:102208002C340034553449344E3454343134363453
:102218005F3454343A34003424343A34573448342C
:102228004F343A34253464340A34003424343A348C
:102238004734453454343A34253464340A34003449
:102248004E344F345F3444344134543441340A34C6
:102258000034553449344E34543438345F345434AB
:102268003A34003446344C344F34413454343A34DC
:10227800003428346E3475346C346C3429340034AA
:1022880024343A345234533443343A340034243402
:102298003A344D34413450343A34003425342534FA
:1022A800253464343A3400342334253473340A34FE
:1022B8000034253475340A340034253475342C340C
:1022C80000345234443441340034573444344134B3
:1022D8000034413443344B340034253464342C34D2
:1022E80000345334543441340034493432344334A0
:1022F8000034433453344334003452345334433475
:1023080000345734533443340034533443344E3454
:102318000034533445344E340034573448344F3441
:1023280000344D3441345034003453345434503430
:10233800003450344F345334003447344534543423
:10234800003453344534543400345334413456340F
:102358000034253464347C34003421340A340034A5
:102368008B31522B8B31802B8B31D72B8C31082C16
:102378008C317B2C8C313E2C8C31532C8C317B2C2A
:102388008C315A2C8C317F2C8B31882B8B31AD2B97
:1023B4002100E501080022003F080800013401342F
:1023C4000634FF34FF3401342100E501E50A080036
:1023D4000B0C890C01390800163021009700080005
:1023E4002000A200220894311F240800703021002C
:1023F400990098011A1B0800FC292000A10021085B
:10240400A00020082100E00008002100600820004E
:10241400A3002308A00001309331D9230800210030
:102424001508C03917389500200095012100E601F0
:102434000B1108006400800101310130FE020030FC
:10244400FF3B7F087E04031900341D2A2000A000EE
:1024540020082300910015139513151400000000A3
:1024640023001308080022003008310403193F2A0E
:1024740031088A0030080A0092312100E501080081
:1024840022003208330403194C2A33088A00320824
:102494000A0092312100E501E50A08002000A100AC
:1024A400A0013A30210203185D2A30302102031CB6
:1024B4005D2AA001A00A200C08002000A81F080023
:1024C4002709A9002809AA00A90A0319AA0A2908A0
:1024D400A7002A08A80008002000A4002408A300DC
:1024E4002308A00000309331D92320002408A3003E
:1024F40023082200BF0008000530F7007708F6071C
:1025040001302100EA02031D8C2A0430F700770809
:10251400EB000800EB01EB0A08002000A7002008EC
:10252400A200A3012708A400A5012408A500A40172
:1025340022082407A0002308253DA10008009331A8
:102544009A2392319131F82192319131EE219231D5
:1025540093317E2392319231112292319231F522BC
:1025640008002000E60022002A082B0403190800B2
:1025740020006608E5006508DB0022002B088A00BD
:102584002A080A009231080000302000AE00AF0093
:102594000230C0004008B0009431BE2492312000C3
:1025A400C1004108C2004208031D08009531D1252D
:1025B4000800F800240016157508023E8600013054
:1025C400870001080319F22A7808F7007508023E0B
:1025D40086000130870001088600870177088100A2
:1025E4002100EB0108002100911211120830230090
:1025F4009F0090309D0024309E0044309B009C013D
:10260400F401F30140302000A0002008F200F101A1
:10261400F0012100E7019116080020002708AB0013
:102624002608AA002A0886002B08870028088400A8
:10263400023085000008C03F8908031908000130F2
:10264400AA070030AB3D0130A9002908A807142BC4
:1026540023009D1C2F2B1D121D161908F70071084D
:10266400203E860003308700770881000130F700A0
:102674007708F107403071020318F1010130F700C7
:1026840077082100E70708004030720203185F2B27
:102694007308A03E860002308700010823009A00D8
:1026A4000130F7007708F307403073020318F30191
:1026B4000130F7007708F207080021001112080022
:1026C4002000A401A501201C6B2B2208A4072308C9
:1026D400A53D0130A235A30D890B6C2B0130A13629
:1026E400A00C890B712B20082104031D652B2508E0
:1026F400A1002408A000080055302000A0002008F4
:102704002100DA0055302000A00020082100D90063
:10271400DB145B10DD018030240094002830950028
:1027240097014F309200200091112100911508006B
:1027340022008C018D018E013F3021008C00F0308D
:102744008D007F308E004F3023008E0020308D00AE
:1027540017308C0024008D013F308C00BF308E0078
:102764002100951322009E0184309D000800200062
:10277400A101210067080319BB2B7008203E8600C5
:102784000330870001082000A0002008A1000130C8
:10279400A0002008F007403070020318F001210067
:1027A40091120130E7029116200021080800200050
:1027B400A100A20121082300910020002008230089
:1027C400930095131513151500308B1B0130200051
:1027D400A2008B13553023009600AA30960095145E
:1027E4009518F22B15112000220C031C8B130318CF
:1027F4008B1708002000A6002308A5002208A400C7
:10280400A435A50D26088600013087002408C03FA2
:102814002508C13F2108A4002608023E8600013095
:102824008700240881002608033E860001308700C3
:102834002008C03F0030C13F08002000A1007208FA
:102844000319212C2100111A2C2C2000210823000B
:102854009A00412C111220002108A0007408A03E07
:10286400860002308700200881000130A000200883
:10287400F407403074020318F4010130F20221001D
:102884001116080021005B18652C20002908A100FE
:102894002808A0002A08AE002E08A2002C08A400D4
:1028A4002B08A3004830953114259431483020007A
:1028B400AE002E08A0002D08AF002F08A1000130A3
:1028C4008731A827080020002D0886008701810190
:1028D400810A0800A0300032890B6D2C20003108D9
:1028E400B2003208A7002F08A9002E08A80035302E
:1028F400B3003308AA003008943194249431023090
:1029040020003506031D8B2CA0300032890B872C48
:10291400812C3508031D902CB401922CB401B40A07
:10292400340808002000AD0021005B18B72C2000FB
:102934002D08AB002B08A0002708AC002C08A10030
:102944002908A3002808A2004D309331FC239431B8
:102954004D302000AB002B08A0002A08AC002C0846
:10296400A10001308731A827080020002A0886002A
:1029740087018101810A080020003008B100310874
:10298400B300A0300032890BC42C2000A701A70A91
:102994002F08A9002E08A8003430B1003108AA007D
:1029A4003330943194249431023020003406031DD2
:1029B400E02CA0300032890BDC2CD62C3408031D0B
:1029C400E52CB201E72CB201B20A320808008A31C0
:1029D4001D2294319231A12294318B170B179E3012
:1029E4002000A1009030A200E630A3001130A40022
:1029F400DA30A5001130A600A7019730A8000A30EC
:102A0400A900AA01AA0A8831AA2094311D30200005
:102A1400A0000530A1008831002094318C31942429
:102A240080313C282000A7002408A6002308A50024
:102A3400A535A60D27088600013087002508C03F6C
:102A44002608C13F27088600013087000130810431
:102A54004131003081042208A5002708023E860087
:102A640001308700250881002708033E86000130D5
:102A740087002008C03F2108C13F08002000280823
:102A840029040319682DAD01AD0AA91B532D01308A
:102A9400A835A90D890B4A2D0130AC002C08AD07CF
:102AA400472D29082B02031D592D28082A02031C2F
:102AB4005F2D2808AA022908AB3B0130A936A80CCF
:102AC400890B602D0130AD02031D532D2B08A90085
:102AD4002A08A80008002000AF000830A000003039
:102AE400A1002F08A900AA012908A2002A08A3000E
:102AF40088315820953120002008AB002B08AC0009
:102B04002F080739A9002908AD00AE012C08203E82
:102B14008600013087000130A9002D0A922DA935C5
:102B2400890B912D2908010503199A2DAE01AE0ACE
:102B34002E0808002000A601A7012008210403197B
:102B4400CC2DA501A50AA11BB12D0130A035A10DE5
:102B5400890BA82D0130A4002408A507A52D013058
:102B6400A635A70D890BB22D21082302031DBC2D08
:102B740020082202031CC32D2008A2022108A33B23
:102B840026140130A136A00C890BC42D0130A502F6
:102B9400031DB12D2708A1002608A000080010304D
:102BA4002000BB003B08BF0021303F02031808008F
:102BB4003F08BB00BC013B08B0003C08B100B201B7
:102BC400B20ABC30B3000130B400B501B50A883193
:102BD400FD2095312000BD003D08BE003E08031DC8
:102BE400FE2D23003C0820003F06031DFE2D3F0858
:102BF4009731B2279531032E20003F08973165277E
:102C0400953101302000BB003B08BF07D62D2000C2
:102C1400DA005A0895316D259631003A031D212EAC
:102C24003F302000AE009030AF005A08D600D701E4
:102C34005608B0005708B1008E312B26080020003A
:102C44005A088631F72696312000D6005608D90056
:102C54005908031908008830AE009030AF005A08B4
:102C6400D600D7015608B0005708B1008E312B2684
:102C7400963120005A08D600D7015608AE005708EE
:102C8400AF000C30D8005808B0009431BE240800BE
:102C940001302000A4020030A53B240A0319250AB0
:102CA4000319892E200020088400210885001200C1
:102CB4000319682E22088600230887002008840050
:102CC40021088500000801060319802E22088600C9
:102CD400230887000108A600A701A609A709A60AD8
:102CE4000319A70A20088400210885000008260784
:102CF400A00027080318270AA10008000130A00734
:102D04000030A13D0130A2070030A33D4A2EA001AE
:102D1400A10108002000A601A31F972EA209A30960
:102D2400A20A0319A30AA601A60AA11F9E2EA0099E
:102D3400A109A00A0319A10A200821040319C52E18
:102D4400A501A50AA11BB02E0130A035A10D890B48
:102D5400A72E0130A4002408A507A42E21082302CD
:102D6400031DB62E20082202031CBC2E2008A2023A
:102D74002108A33B0130A136A00C890BBD2E0130E4
:102D8400A502031DB02E26080319CD2EA209A309FE
:102D9400A20A0319A30A2308A1002208A00008001C
:102DA400210064082000C4004408C7004708031930
:102DB400122F0130C7024B30AE009130AF008E317C
:102DC4002B2696312000C601470846020318012F1E
:102DD4007130AE009130AF0089315221963120001C
:102DE400C400C5014408B0004508B1008E312B264B
:102DF400963101302000C4004408C607E62EDA30BC
:102E0400AE009030AF008931522196312000C400C9
:102E1400C5014408B0004508B1008E312B260800D6
:102E240072302000AE009030AF008E312B260800A7
:102E34002000B1000130AC002C082100EC076C0824
:102E4400803A7C3E0318EC016C082000AC00AD0114
:102E54002C08A0002D08A1003030A2000030A300EF
:102E640093316223973130302000AE002330AF001D
:102E740020082E07860021082F3D87000108031D26
:102E8400080021006C082000AC00AD012C08A00053
:102E94002D08A1003030A2000030A300933162233A
:102EA400973130302000AE002330AF0020082E07C9
:102EB400A60021082F3DA7003108B0003008A80063
:102EC40093310F2308002000B000300803190800D4
:102ED40021303002031808000830A0000030A1009F
:102EE4003008A900AA012908A2002A08A3008831F1
:102EF4005820973120002008AB002B08AF00300881
:102F04000739A9002908AC002F08203E86000130AB
:102F140087000108A9002908AD002F08203E86007B
:102F2400013087000130A9002C0A992FA935890B9B
:102F3400982F2908FF3A0105AA002A08AE002D0897
:102F44002E06031908002E08A9002F08203E86002B
:102F5400013087002908810001302100E4020800C3
:102F64002000B00030080319080021303002031893
:102F740008000830A0000030A1003008A900AA0110
:102F84002908A2002A08A30088315820973120007C
:102F94002008AB002B08AF0030080739A900290826
:102FA400AC002F08203E8600013087000108A900EC
:102FB4002908AD002F08203E86000130870001302B
:102FC400A9002C0AE62FA935890BE52F290801044D
:102FD400AA002A08AE002D082E06031908002E08A0
:102FE400A9002F08203E86000130870029088100AF
:0C2FF4000130A90029082100E4070800B2
:020000040001F9
:04000E00E4FFFFFF0D
:00000001FF
