:0400000080313C28E7
:1000060008007E14803120007F08F7000B1F15289A
:100016002100111E15282000111E15289B31C3230F
:10002600803137280B1F21282100911E212820000E
:10003600911E21289B316F23803137280B1F2D28D5
:100046002100921D2D282000921D2D28803103208D
:10005600803137280B1F37282100911D37282000B3
:10006600911D372888313F2077082000FF007E1039
:10007600090080313E281D3084009A308500220018
:100086001200E4001200E5001200E6001200E7008C
:100096001200E8001200E9003030840023308500A9
:1000A600C030FE000030FF009A3149228031F8014D
:1000B600F901FA01FB01FC01FD0120308400013049
:1000C60085004430FE000030FF009A31492280311D
:1000D600A0308400013085004330FE000030FF0070
:1000E6009A31492280312030840002308500403028
:1000F600FE000030FF009A3149228031A030840092
:10010600023085004030FE000030FF009A3149225F
:10011600803120308400033085004030FE000030FE
:10012600FF009A3149227E1020009D31532D200078
:10013600C00020002F08B2002E08B100AE0A031935
:10014600AF0A31088400320885000008B30033087E
:10015600BF003F080319842B25303F060319DA2810
:10016600400A86008701160001040319C7283F08C4
:10017600B1003108A200400A86008701413F8A008B
:10018600403F0A0080319C2820003F08B10040080B
:100196008600870101088600870131088100013049
:1001A600B100400886008701310881079C28BD01FF
:1001B600BE01BC01E3283C150130AE070030AF3D5F
:1001C6002E0884002F0885000008303A0319DE281F
:1001D600EC282E0884002F08850000089A317D221D
:1001E6008031031CD9292000BD01BE010A30200040
:1001F600A0000030A1003E08A3003D08A2009B31EC
:100206008B23803120002108BE002008BD002E0867
:1002160084002F0885000008D03EB100FF30031887
:100226000030B2003108BD073208BE3D0130AE07CE
:100236000030AF3D2E0884002F08850000089A3153
:100246007D228031031CD929F92820003008860038
:10025600870101088400850102308107003FBA004A
:10026600013FBB003A083B04031D3D299A30BA0002
:100276009130BB00B801B9013A08380784003B0841
:10028600393D8500120003194D290130B8070030A9
:10029600B93D3F293E083902031D53293D0838025E
:1002A60003185A293808BD023908BE3B5C29BD012E
:1002B600BE01FF302000BD07FF30BE3D3D0A0319D9
:1002C6003E0A0319C329400A860087011600010465
:1002D60003197A292030B1003108A200400A8600AD
:1002E6008701413F8A00403F0A0081315C29203066
:1002F6002000B100400886008701010886008701BA
:10030600310881000130B1004008860087013108BC
:1003160081075C29400A860087011600010403193B
:10032600AA293A0884003B0885000008B100310874
:10033600A200400A86008701413F8A00403F0A002A
:10034600813101302000BA070030BB3DC3293A088D
:1003560084003B0885000008B1004008860087013C
:10036600010886008701310881000130BA07003094
:10037600BB3D0130B1004008860087013108810786
:100386000130B8020030B93B380A031D8D29390AFD
:1003960003199C288D293F30BA000030BB0001307C
:1003A600B8000030B9004D293C17F72920002F0866
:1003B600B2002E08B100AE0A0319AF0A3108840054
:1003C600320885000008BF00003A0319842B643AFE
:1003D6000319F7290D3A0319F7291A3A0319282997
:1003E600063A0319D729CE2920003C1B122A3008C9
:1003F6008600870101088400850102308107003FDD
:10040600B600013FB700B71F1E2A0330B1003108FE
:10041600BC04B609B709B60A0319B70A1E2A30087A
:100426008600870101088400850102308107003FAC
:10043600B600013FB700BF01BF0A05303F060319EA
:10044600432A3F08B100B201B135B20D0030310781
:1004560084009030323D8500003FB300013FB40078
:1004660034083702031D392A33083602031C432A8F
:100476000130B1003108BF0705303F06031D242AAD
:100486003D083E0403194F2A3C08033903194F2A35
:10049600FF30BD07FF30BE3D3F08B100B201B11BC2
:1004A600B2033208803AB3003E08803A3302031D95
:1004B6005E2A3D08310203186B2A20003F08B1006E
:1004C600B201B11BB2033108BD023208BE3B6E2A2F
:1004D6002000BD01BE013C1DCB2A3C08033903198F
:1004E6009A2A400A86008701160001040319882A01
:1004F6002D30B1003108A200400A86008701413F35
:100506008A00403F0A0082319A2A2D302000B1002D
:1005160040088600870101088600870131088100AE
:100526000130B100400886008701310881072000AC
:100536003D083E040319282B400A86008701160051
:1005460001040319B32A3030B1003108A200400A71
:1005560086008701413F8A00403F0A008231C52A52
:1005660030302000B100400886008701010886006F
:100576008701310881000130B100400886008701FB
:1005860031088107FF302000BD07FF30BE3D9B2AA2
:100596003D083E040319FE2A400A8600870116001C
:1005A60001040319E32A2030B1003108A200400AF1
:1005B60086008701413F8A00403F0A008231F52AC2
:1005C60020302000B100400886008701010886001F
:1005D6008701310881000130B1004008860087019B
:1005E60031088107FF302000BD07FF30BE3D3D08C2
:1005F6003E04031DCF2A3C0803390319282B400A61
:1006060086008701160001040319162B2D30B10050
:100616003108A200400A86008701413F8A00403F18
:100626000A008331282B2D302000B10040088600B7
:100636008701010886008701310881000130B10079
:100646004008860087013108810720003F08B10075
:100656003108B500FF302000B1003108B507350A72
:1006660003199C280A30A8000030A9003508B100FB
:10067600B201B135B20D0030310784009030323D01
:100686008500003FA000013FA1003708A3003608FF
:10069600A2009E310626803120002108AB002008EA
:1006A600AA009D31AA25803120002808303EB300DB
:1006B6003308BF00400A86008701160001040319AB
:1006C600712B3F08B1003108A200400A860087015D
:1006D600413F8A00403F0A0083312D2B20003F080E
:1006E600B1004008860087010108860087013108AD
:1006F60081000130B100400886008701310881077A
:100706002D2B2000AE01AF0108002100E601E70114
:10071600DE01DF010030D0000030D1000030D20011
:1007260022004B08031D1B2E8B302000C100913088
:10073600C2001030C3000030C400A03092311F2226
:100746008331A0302000D0000030D1008B318223CD
:100756008331BF302000C1009130C200A0309231F9
:100766001F228331A0302000D0000030D1008B3111
:1007760082238331E2302000C1009030C200A030D5
:1007860092311F228331A0302000D0000030D100EA
:100796008B31822383312200CB01CB0A1B2E013001
:1007A6002000DF005F082200CC0705304C02031C46
:1007B60008004D082000DF00E0015F08A000600887
:1007C600A1000C30A2000030A3009B318B238331A3
:1007D600200021082100DF00200020082100DE0083
:1007E60022004D089B313923833120002808B300AD
:1007F6002908B4002A08B5000B3084009030850023
:10080600003FB000013FB100023FB2009531C32561
:100816008331200030082100D30020003108210058
:10082600D400200032082100D50053082000B30070
:10083600210054082000B400210055082000B5000E
:100846000030B000E130B1004530B2009531C3252B
:10085600833120003008C0003108C1003208C200D0
:1008660095313C258331200041082100E700200016
:1008760040082100E6000A302000A0000030A10058
:10088600210067082000A300210066082000A200BE
:100896009E3106268331200021082100E900200030
:1008A60020082100E8000A302000A8000030A90036
:1008B600210067082000AB00210066082000AA007E
:1008C6009D31AA258331200029082100EB00200054
:1008D60028082100EA009F302000C1009030C200A5
:1008E600210069082000C400210068082000C30018
:1008F60021006B082000C60021006A082000C50000
:1009060021005F082000C80021005E082000C70003
:10091600A03092311F228331A0302000D000003059
:10092600D1008B3182238331BA302000C10091304F
:10093600C200A03092311F228331A0302000D000A7
:100946000030D1008B31822383310A302000A00091
:100956000030A100210061082000A30021006008EA
:100966002000A2009E3106268331200021082100A6
:10097600E900200020082100E8000A302000A80035
:100986000030A900210061082000AB0021006008AA
:100996002000AA009D31AA258331200029082100C4
:1009A600EB00200028082100EA000A302000A00001
:1009B6000030A100210063082000A3002100620886
:1009C6002000A2009E310626833120002108210046
:1009D600D700200020082100D6000A302000A800F9
:1009E6000030A900210063082000AB002100620846
:1009F6002000AA009D31AA25833120002908210064
:100A0600D900200028082100D8000A302000A000C4
:100A16000030A100210065082000A3002100640821
:100A26002000A2009E3106268331200021082100E5
:100A3600DB00200020082100DA000A302000A80090
:100A46000030A900210065082000AB0021006408E1
:100A56002000AA009D31AA25833120002908210003
:100A6600DD00200028082100DC0011302000C10034
:100A76009030C200210069082000C40021006808E7
:100A86002000C30021006B082000C60021006A0870
:100A96002000C500210057082000C8002100560884
:100AA6002000C700210059082000CA00210058086C
:100AB6002000C90021005B082000CC0021005A0854
:100AC6002000CB0021005D082000CE0021005C083C
:100AD6002000CD00A03092311F228331A0302000AB
:100AE600D0000030D1008B3182232200CC01CD0111
:100AF600080020005E0A86000130870001082200F7
:100B06004D072000DF005F082200CD0008000A30F4
:100B16002000AB000030AC005E0A86000130870082
:100B26000108DF00E0015E08860001308700010849
:100B3600E100E2016108E200E1015F086107A70048
:100B46006008623DA8009A318C2283312000280873
:100B5600AE002708AD009F31AE27833120002C0858
:100B66002100E10020002B082100E0000A302000CF
:100B7600AB000030AC005E08033E86000130870003
:100B86000108DF00E0015E08023E860001308700B2
:100B96000108E100E2016108E200E1015F08610786
:100BA600A7006008623DA8009A318C22833120009C
:100BB6002808AE002708AD009F31AE2783312000FC
:100BC6002C082100E30020002B082100E2000A3057
:100BD6002000AB000030AC005E08053E8600013008
:100BE60087000108DF00E0015E08043E8600013050
:100BF60087000108E100E2016108E200E1015F0807
:100C06006107A7006008623DA8009A318C228331F3
:100C160020002808AE002708AD009F31AE2720002F
:100C26002C082100E50020002B082100E400080024
:100C360020005B08013A0319D22B103A03197C2DC8
:100C4600023A03198A2D272E08009A31102286317E
:100C56002200EB006B08C300430803194E2E0B114C
:100C66002D082E0403194E2E0130EB006B08C40725
:100C760048084402031C4E2EC4010130EB006B08E9
:100C8600C50764084502031C4E2E530803194D2E52
:100C9600C601C60AC501460803195C2E2D082E0496
:100CA60003195C2E2E088A002D080A0086312200C0
:100CB600C60155080319282E9C311E2486312200B0
:100CC600EB006B08ED006D08EB004908203E86003E
:100CD600023087006B0881000130EB006B08C90702
:100CE6000A306D06031D282E0130C9024908203E30
:100CF6008600023087008101C901B5302000C1009D
:100D06009130C2002030C3000230C4009B3108235A
:100D160086312200680303199C2E20302000D00063
:100D26000230D100220030088A002F080A008631DE
:100D3600282EF8302000A0009130A1002030A2001B
:100D46000230A3000330A4000030A5008731BE277F
:100D56008631200020082104031DC12E3D30C1002C
:100D66009130C20022002C082000C40022002B086B
:100D76002000C3009B3108238631282E1430200022
:100D8600A0009230A1002030A2000230A300033060
:100D9600A4000030A5008731BE2786312000200838
:100DA6002104031DDA2E9A3134228631282EDC30B6
:100DB6002000A0009130A1002030A2000230A30044
:100DC6000330A4000030A5008731BE2786312000FD
:100DD60020082104031DF32E9A316F228631282E16
:100DE60000302000A0009230A1002030A200023086
:100DF600A3000330A4000030A5008731BE2786314A
:100E0600200020082104031D182F9A316222863102
:100E160047302000C1009130C200D430C300913069
:100E2600C4009B3108238631282E10302000A000F4
:100E36009230A1002030A2000230A3000330A400AB
:100E46000030A5008731BE27863120002008210406
:100E5600031D3A2F2430A6000230A70094315124F6
:100E66008631200026089A3123228631282E0C301E
:100E76002000A0009230A1002030A2000230A30082
:100E86000330A4000030A5008731BE27863120003C
:100E960020082104031D622F6F30C1009130C2006B
:100EA60022004808EB00EC016B082000C30022007A
:100EB6006C082000C4009B3108238631282ED030D0
:100EC6002000A0009130A1002030A2000230A30033
:100ED6000330A4000030A5008731BE2786312000EC
:100EE60020082104031D892F2430A6000230A70004
:100EF600943151248631200026082200EB006B082D
:100F0600EE006E089A319B228631282ECC302000C6
:100F1600A0009130A1002030A2000230A3000330CF
:100F2600A4000030A5008731BE27863120002008A6
:100F36002104031DB92F9A31092286312200EB00C4
:100F46006B08EE0029302000C1009130C20022005B
:100F56006E08EB00EC016B082000C30022006C0851
:100F66002000C4009B3108238631282E20309A3178
:100F7600E0228631282E01302000A4020030A53B55
:100F8600240A0319250A0319FD2F200020088400CE
:100F96002108850012000319DC2F22088600230889
:100FA600870020088400210885000008010603192F
:100FB600F42F22088600230887000108A600A7014F
:100FC600A609A709A60A0319A70A2008840021086A
:100FD600850000082607A00027080318270AA10095
:100FE60008000130A0070030A13D0130A207003003
:100FF600A33DBE2FA001A101080070302100990079
:1010060098011A1B0800042810302000BC003C0878
:10101600C00021304002031808004008BC00BD0192
:101026003C08B0003D08B100B201B20ABC30B300C2
:101036000130B400B501B50A92318F228831200003
:10104600BE003E08BF003F08031D342823003C08AD
:1010560020004006031D342840089F316027883150
:101066003928200040089F3113278831013020009D
:10107600BC003C08C0070C28200091112400951FD5
:10108600842995132200DE015B08023E86000130AA
:101096008700403FF300413FF40073088600740860
:1010A600870001308100DB010800A2180800210832
:1010B600F3007308DB002108860001308700010871
:1010C600F3007308DD002108860001308700013037
:1010D600413FDC000330F3007308A1072108623AA0
:1010E600031D79285F30F3007308A1002210210840
:1010F60020060319A214240016140230F300730804
:101106002200DE000800240096140230F300730863
:101116002200DE0008002400161F9A280130F30082
:1011260073082200A40704309B31E12308007D08E0
:10113600F4007C08F300F436F30C730824009100E5
:101146007C1CAB280B30F30073082200DE0008007D
:101156000330F30073082200DE0008002400161F87
:10116600BD280130F30073082200A40704309B3128
:10117600E123080096147D08F4007C08F300740847
:10118600F300F40106307305F50000307405F6002F
:10119600F0307504FC0000307604FD007C1422005B
:1011A600D901D90A0230F3007308DE00080059039A
:1011B6000319F5285C08860001308700403FFC00D3
:1011C600413FFD005C08033E860001308700403F3A
:1011D600BD00413FBE005C0886000130870001303B
:1011E600423FDA007C08240091007C1C002905306F
:1011F600F30073082200DE0008000330F3007308D2
:101206002200DE0008002400161F14290130F30016
:1012160073082200A4072400161305309B31E1232E
:10122600080001302200DA025A0A031D2E29053071
:10123600F3007308DC070130DD02031D26290030A8
:101246009B31E1230800240096140230F300730852
:101256002200DE0008003D0884003E0885000008E4
:101266002400910001302200BD070030BE3D080079
:101276002400161F49290130F30073082200A40731
:1012860004309B31E123240016130800961508301C
:10129600F30073082200DE0008000830F30073082C
:1012A600DE0024009615080022003D0886003E0850
:1012B600870024001108810001302200BD0700309C
:1012C600BE3D0130DA020319702924009612063059
:1012D600F30073082200DE007429240096169A3162
:1012E600AB2224001616080000309B31E1230800CB
:1012F6000130F30073082200A40706309B31E12376
:10130600080022005E0884000C30040203187B29C2
:1013160098310435003E820008002100D2005208B0
:101326002000CC00CD014C08A0004D08A1003030B3
:10133600A2000030A3009B318B238931303020007E
:10134600CE002330CF0020084E072100D700200012
:1013560021084F3D2100D80057088600580887000D
:10136600010803190800F8302000A0009130A10000
:10137600210058082000A300210057082000A200E1
:101386000330A4000030A5008731BE278931200034
:1013960020082104031DF529220068082000CC003E
:1013A600CD014C08B0004D08B100B201B20AD630EA
:1013B600B3000030B400B501B50A92318F228931ED
:1013C6002000CE004E082100D5005508031DF02947
:1013D60065302000C1009130092B1C302000C1006F
:1013E6009230782B14302000A0009230A10021000A
:1013F60058082000A300210057082000A20003304F
:10140600A4000030A5008731BE27893120002008BE
:101416002104031D192A220068082000CC00CD01F2
:101426004C08AE004D08AF0003303C2ADC302000EB
:10143600A0009130A100210058082000A30021003F
:1014460057082000A2000330A4000030A500873111
:10145600BE278931200020082104031D482A2200C6
:1014660068082000CC00CD014C08AE004D08AF0046
:101476000430CE004E08B0009D3128258931200069
:10148600CF004F082100D5007B2B00302000A000A4
:101496009230A100210058082000A300210057081F
:1014A6002000A2000330A4000030A5008731BE272B
:1014B6008931200020082104031D832A22006808A0
:1014C6002000CC00CD014C08AE004D08AF00053021
:1014D600CE004E08B0009D31282589312000CF006E
:1014E6004F082100D5005508031D7E2A1E30200016
:1014F600C1009130782B12302000C1009130782B3A
:1015060010302000A0009230A100210058082000D1
:10151600A300210057082000A2000330A4000030D9
:10152600A5008731BE278931200020082104031D2C
:10153600D62A21005708043E2000CC0000302100A6
:10154600583D2000CD004C08A6004D08A700943158
:101556005124893120002608CE004E082100D600ED
:10156600220068082000CC00CD014C08AE004D08D2
:10157600AF000830CE004E08B0009D3128258931D5
:10158600220068082000CC00CD014C08AE004D08B2
:10159600AF00210056082000CE004E08B0009D3155
:1015A600282589317B2B0C302000A0009230A10029
:1015B600210058082000A300210057082000A2009F
:1015C6000330A4000030A5008731BE2789312000F2
:1015D60020082104031D142B220068082000CC00DB
:1015E600CD014C08B0004D08B1000930CE004E08C0
:1015F600B200D630B3000030B400B501B50A92315E
:101606008F2289316F302000C1009130C200210045
:1016160056082000CC00CD014C08C3004D08C4007C
:10162600792B2100D40102302000CC004C08210087
:10163600D30054082000CC00CD014C0821005707E8
:10164600860020004D082100583D87000108200033
:10165600CE0021005308A03E8600870120004E08D8
:1016660081000130CC004C082100D3075408D40A6D
:101676002000CC00CD014C08210057078600200031
:101686004D082100583D87000108031D1C2B0A3018
:101696002000CC004C082100A00054082000CC00FB
:1016A6004C082100A100220068082000CC00CD01D2
:1016B6004C08AE004D08AF00A030CE004E08B0007A
:1016C600210053082000CF004F08B1009C31D624DA
:1016D60089312000D00050082100D5005508031993
:1016E6007B2B86302000C1009030C2009B3108233E
:1016F6002100570886005808870081010800E0305D
:101706002000A0009130A1005108A3005008A200BB
:101716000330A4000030A5008731BE278B3120009E
:1017260020082104031DAA2B5008043ED2000030D5
:10173600513DD3005208A6005308A7009431512406
:1017460020002608D40054082200E8000800FC30D7
:101756002000A0009130A1005108A3005008A2006B
:101766000330A4000030A5008731BE278B3120004E
:1017760020082104031DC22B9E3181260800F43067
:101786002000A0009130A1005108A3005008A2003B
:101796000330A4000030A5008731BE278B3120001E
:1017A60020082104031DDA2B9A31F32208000830A1
:1017B6002000A0009230A1005108A3005008A2000A
:1017C6000330A4000030A5008731BE278B312000EE
:1017D60020082104031D0C2C5008043ED2000030C2
:1017E600513DD3005208A6005308A7009431512456
:1017F6008B3120002608D4005408F9001C307902E9
:10180600031C08006C30C1009030C2009B310823D5
:101816000800EC302000A0009130A1005108A30080
:101826005008A2000330A4000030A5008731BE276F
:101836008B31200020082104031D6D2C1C307902F9
:101846000318662C5008043ED2000030513DD300E8
:101856005208A6005308A700943151248B3120006A
:101866002608D4005408D9005908D2005208A0000E
:101876007908023E9C3141248B3120005908D20060
:101886000430AB000030AC007908D300D401530813
:10189600AD005408AE009F31AE278B3120002B08D7
:1018A600D5000230D535890B552CA0305507D6000A
:1018B600790803395607D700570886000130870094
:1018C6005208810008005230C1009030C2009B319E
:1018D60008230800E8302000A0009130A10051083C
:1018E600A3005008A2000330A4000030A5008731F1
:1018F600BE278B31200020082104031DF62CA130C1
:10190600C1009130C2009B3108238B312000DA01DF
:101916001B305A020318E62C5A08013E0339031DF0
:10192600AE2C1830C1009230C2000430AB0000303B
:10193600AC005A08D200D3015208AD005308AE00DD
:101946009F31AE278B3120002B08D4000230D435CE
:10195600890BAA2CC82CD8302000C1009130C200B7
:101966000430AB000030AC005A08D200D301520854
:10197600AD005308AE009F31AE278B3120002B08F7
:10198600D4000230D435890BC52CA0305407D500BD
:101996005A0803395507D6005608860001308700D5
:1019A6000108D700D8015708C3005808C4009B3166
:1019B60008238B3101302000D2005208DA071B3091
:1019C6005A02031C8F2C2F30C1009130C200230015
:1019D6003B082000D200D3015208C3005308C400BC
:1019E6009B3108230800E4302000A0009130A100BC
:1019F6005108A3005008A2000330A4000030A5003F
:101A06008731BE278B31200020082104031D3D2D80
:101A1600DA011C305A0203180800A0015A08023ED7
:101A26009C3141248B3104302000AB000030AC00E7
:101A36005A08D200D3015208AD005308AE009F31B8
:101A4600AE278B3120002B08D4000230D435890B09
:101A5600292DA0305407D5005A0803395507D6005A
:101A6600560886000130870081010130D2005208F5
:101A7600DA070C2DF030A0009130A1005108A30028
:101A86005008A2000330A4000030A5008731BE270D
:101A96008B31200020082104031D792D0430A0007D
:101AA6009230A1005008043ED2000030513DD300D0
:101AB6005208A2005308A3000330A4000030A5007A
:101AC6008731BE278B31200020082104031D712D8C
:101AD60088302200BB000330BC00080034302000F0
:101AE600C1009030C2009B31082308002200680321
:101AF6000319080020005108AD005008AC009E31C3
:101B0600C92608002000D20052080319EA2FAF3078
:101B1600C1009130C2005208CF00D0014F08C30067
:101B26005008C4009B3108238D31EA2F0130200074
:101B3600CD028230C1009130C2009B3108238D3125
:101B4600F80120004D0878020318C52DC830200082
:101B5600C1009130C20078084E07CF004F088600BA
:101B6600013087000108D000D1015008C300510898
:101B7600C4009B3108238D3101302000CF004F086F
:101B8600F807A42DC430C1009130C20078084E0772
:101B9600CF004F088600013087000108D000D10130
:101BA6005008C3005108C4009B31082308000130C7
:101BB6002000CD028330C1009130C2009B31082342
:101BC6008D31F80120004D0878020318042ED83014
:101BD6002000C1009130C20078084E07CF004F08A0
:101BE6008600013087000108C300C401C31BC4037B
:101BF6009B3108238D3101302000CF004F08F807B4
:101C0600E52D2F30C1009130C20078084E07CF0075
:101C16004F088600013087000108C300C401C31BBA
:101C2600C4039B31082308005B302000C1009130BB
:101C3600C2009B3108238D3120004D08FE3ECF00A7
:101C46004F08CD00F8014D0878020318542EC8300D
:101C5600C1009130C2007808013E4E07CF004F0800
:101C66008600013087000108D0005008A0007808DF
:101C76004E07D100510886000130870001089A31CD
:101C8600BC228D3120002108C4002008C3009B31EE
:101C960008238D317808023E2000CF004F08F80057
:101CA600262EC430C1009130C2007808013E4E078E
:101CB600CF004F088600013087000108D000500889
:101CC600A00078084E07D100510886000130870031
:101CD60001089A31BC228D3120002108C400200859
:101CE600C3009B31082308005C302000C1009130FE
:101CF600C2009B3108238D3120004D08FE3ECF00E7
:101D06004F08CD00F8014D0878020318B42ED830DC
:101D1600C1009130C2007808013E4E07CF004F083F
:101D26008600013087000108D0005008A00078081E
:101D36004E07D100510886000130870001089A310C
:101D4600BC228D3120002108C4002008C3009B312D
:101D560008238D317808023E2000CF004F08F80096
:101D6600862E2F30C1009130C2007808013E4E0702
:101D7600CF004F088600013087000108D0005008C8
:101D8600A00078084E07D100510886000130870070
:101D960001089A31BC228D3120002108C400200898
:101DA600C3009B310823080093302000C100913006
:101DB600C2009B3108238D3120004D08FE3ECF0026
:101DC6004F08CD00F8014D0878020318502F780807
:101DD600013E4E07CF004F088600013087000108FC
:101DE600D0005008A00078084E07D10051088600A0
:101DF6000130870001089A31BC228D31200021086C
:101E0600D4002008D3005408803ACF007F304F0218
:101E1600031D0F2F9D305302031C142F2000D41BCB
:101E2600192F52302000C10091301D2F5130200053
:101E3600C1009130C2006430AB000030AC005408E1
:101E4600AE005308AD009F31AE278D3120002C081F
:101E5600C4002B08C3006430A0000030A100540861
:101E6600A3005308A2009E313B268D312000210895
:101E7600A8002008A7009A318C228D31200028085E
:101E8600C6002708C5009B3108238D317808023E1D
:101E96002000CF004F08F800E62E7808013E4E07D6
:101EA600CF004F088600013087000108D000500897
:101EB600A00078084E07D10051088600013087003F
:101EC60001089A31BC228D3120002108D400200857
:101ED600D3005408803ACF007F304F02031D752F80
:101EE6009D305302031C7A2F2000D41BAA2F3430B6
:101EF6002000C1009130C2006430AB000030AC005D
:101F06005408AE005308AD009F31AE278D31200036
:101F16002C08C4002B08C3006430A0000030A100C8
:101F26005408A3005308A2009E313B268D312000A1
:101F36002108A8002008A7009A318C228D312000A4
:101F46002808C6002708C5009B310823080033303F
:101F56002000C1009130C2006430AB000030AC00FC
:101F66005408AE005308AD009F31AE278D312000D6
:101F76002C08C4002B08C3006430A0000030A10068
:101F86005408A3005308A2009E313B268D31200041
:101F96002108A8002008A7009A318C228D31200044
:101FA6002808C6002708C5009B3108230800793099
:101FB6002000C1009130C2009B3108230800043084
:101FC6002000C1009130C2009B3108230800200088
:101FD6004C08013A0319992D033A0319DA2D013AEF
:101FE6000319172E073A0319772E013A0319D72E2C
:101FF600033A0319DA2FE22F0800013400340A34B9
:10200600003464340034E8340334103427340434A0
:10201600A734C5343934A9347B3438345334543472
:1020260052343A342534313464342E342534313440
:10203600643447342C3420342534313464342E341B
:1020460025343134643447342C3420342534313447
:1020560064342E3425343134643447342034003427
:10206600003421343A344534443447343A34553410
:102076004E345234453443344F3447344E34493465
:102086005A34453444342034453444344734453492
:102096002034463455344E3443340A340034213423
:1020A6003A345734533443343A3450344F34533437
:1020B60020344C344134523447344534523420347D
:1020C6005434483441344E342034323437340A34AC
:1020D600003421343A3450344F3453343A34503483
:1020E6004F34533420344C3441345234473445341D
:1020F600523420345434483441344E34203432344B
:1021060037340A34003421343A344E344F342034D0
:10211600413443344B342034463452344F344D34F6
:102126002034493432344334203453344C3441342B
:10213600563445340A3400344834533454343A342B
:102146002534323464342E34253464346B346D349F
:102156002F3468342C342534343464347234703477
:102166006D340034003421343A344D344134503423
:102176003A344E344F34203453344C34413456348C
:102186004534203446344F3455344E3444340A34BE
:10219600003421343A3425342534253464343A3431
:1021A6004E344534543457344F3452344B345F3400
:1021B6004534523452344F3452340A34003448349D
:1021C600533454343A3453345434413452345434FA
:1021D60049344E3447342E342E342E3400340034F1
:1021E6004234413443344B3450344C3441344E340D
:1021F60045342D344D3441345334543445345234FB
:10220600003449344C344C344534473441344C342E
:102216005F3454345934503445340A34003421344C
:102226003A345334543450343A344E3441344334CB
:102236004B340A3400342A343A3453345434503448
:102246003A34413443344B340A34003424343A3477
:102256005234443441343A34253464340A34003434
:102266002D34253464342E342534303432346434F9
:102276000A34003424343A34573448344F343A3428
:10228600253473340A3400342A343A3453345434FB
:1022960050343A34253473340A3400342D3425341A
:1022A60064342E3425343034323464342C340034DF
:1022B600553449344E345434313436345F3454341E
:1022C6003A34003424343A34573448344F343A34A8
:1022D600253464340A34003424343A3447344534DB
:1022E60054343A34253464340A3400344E344F348A
:1022F6005F3444344134543441340A340034553460
:1023060049344E34543438345F3454343A34003417
:102316004934323443343A34253464340034003496
:1023260046344C344F34413454343A34003428342F
:102336006E3475346C346C342934003424343A34B5
:102346005234533443343A34003424343A344D341A
:10235600413450343A340034253425342534643439
:102366003A3400342334253473340A3400344E347A
:1023760057344C340034003443344C345234003433
:102386000034253475340A340034253475342C343D
:1023960000345234443441340034573444344134E4
:1023A6000034413443344B340034253464342C3403
:1023B60000345334543441340034493432344334D1
:1023C60000344334533443340034523453344334A6
:1023D600003457345334433400344534443447349A
:1023E6000034533443344E340034573448344F3475
:1023F60000344D3441345034003453345434503462
:1024060000344D3454345234003450344F34533441
:10241600003447344534543400345334453454344A
:1024260000345334413456340034253464347C3417
:10243600003421340A3400342000D0005008CF0084
:102446004F08D200D301D4014330CF004F08D1004A
:102456004208AF004108AE005130CF004F08B0002F
:10246600523080319A20200052088600870181016F
:102476000800200022082200AC00200021082200CB
:10248600AB00200024082200B80020002308220008
:10249600B700200026082200B600200025082200EA
:1024A600B50020002708AB000030AC002B08220046
:1024B600B30020002C082200B400350836040319A6
:1024C600692A36088A0035080A00923101309A31A5
:1024D600552292312000AB002B082200C8000030A4
:1024E6009A3155222000AB002B082200CA00033087
:1024F6002000AB002B082300D00020002908220072
:10250600AE00200028082200AD0020002A08AB00FB
:102516002B082200E400080020003208B600360826
:10252600B900A0300032890B952A2000A701A70A1E
:102536003108A9003008A8003A30B6003608AA00CB
:1025460039309C31FE249231023020003A06031DB8
:10255600B12AA0300032890BAD2AA72A3A08031DFA
:10256600E02AA0300032890BB52A20003408A900E1
:102576003308A8003508B6003608AA003108AC00B2
:102586003008AB003A30B7003708AD009C31AE24B6
:102596009231023020003A06031DD62AA0300032BE
:1025A600890BD22ACC2A3A08031DDB2AB801E22A73
:1025B6000230B6003608B800E22AB801B80A380870
:1025C60008002000A30022002218262B023020003B
:1025D600A200210886008701220881002008A200A7
:1025E6002200200A86000130870020002208810090
:1025F6002308A20022002008860001308700200060
:10260600220881002108A20022002008023E86003E
:10261600013087002000220881000330A200220832
:102626002200A0072008623A031D1F2B5F302000FE
:10263600A20022082200A000A21021082006031DE5
:102646002C2B22142C2B20002108860087018101C7
:10265600810A200021088600870102300106031D39
:10266600080022005E08031D342B20009115080087
:102676002100ED00EE0104306E02031808006E081A
:102686006D072000ED006D08860001308700010807
:10269600EE006E082100EF006F08031908002130D4
:1026A6006F02031808006F089D31D7259331003A51
:1026B60003198B2B21006F0897312E2793312000A9
:1026C600ED006D082100EC006C0803198B2BCC3053
:1026D6002000C1009030C20021006F082000ED00EC
:1026E600EE016D08C3006E08C4009B3108239331C8
:1026F60021006F082000ED00EE016D08AE006E08A7
:10270600AF000C30EF006F08B0009D3128259331E3
:1027160001302000ED006D082100EE073E2B200061
:10272600A601220050080319E92B08304F02031CAA
:10273600A32BCF0101302000A00020082200CE07E5
:102746000A3084009030850000084E02031CAD2B31
:10275600CF01CE014E08253E8600013087000108D4
:102766002000A000A1010130A2000030A300220039
:102776004F0A2000C02BA235A30D890BBE2B2008C3
:102786002205A40021082305A50024082504031911
:10279600E22B22004E082000A0000230A035FF3EAA
:1027A600031DD12B203522004F072000A100210850
:1027B600A7000130A00020082200CF07E92B013036
:1027C6002000A00020082200CF07982B2000270811
:1027D6000800200023080319F52B220821042004F1
:1027E600031D062C0030A0000030A1000030A2001E
:1027F60008000130A5002508A3070130A236A10C68
:10280600A00C890B012CFE30220503191F2CFC2B72
:102816000130A5002508A3070130A00700300318E2
:102826000130A107003003180130A2070130A2369B
:10283600A10CA00C890B1A2CFF30220503192C2C95
:102846000B2C0130A3020130A035A10DA20D890B7E
:10285600272CA11B322C023023020318242C231808
:102866003A2CFF30A0057F30A105FF30A2050310EA
:10287600A30C2308A500A601A7011030A535A60DB7
:10288600A70D890B412C2508A0042608A1042708BA
:10289600A204240803190800A2170800200026082D
:1028A60086002708870020300106031D602C0130B2
:1028B6002000A6070030A73D512C260886002708D1
:1028C60087000930010603195A2CAB01AC01AA0195
:1028D60026088600270887002D300106031D782C60
:1028E6000130A8002808AA07802C26088600270899
:1028F60087002B300106031D842C0130A60700300B
:10290600A73D260886002708870001089A317D2200
:102916009431031CAD2C20002C08A1002B08A0002C
:102926000A30A2000030A3009B318B239431200093
:10293600260886002708870001082007A800210826
:102946000318210AA9002808D03EAB00FF30293D14
:10295600AC00802C20002A080319BD2C2B09A800E6
:102966002C09A900A80A0319A90A2808A6002908FB
:10297600A70008002C08A7002B08A60008002000C6
:10298600BB010A3084009030850000083B02031822
:10299600DE2C3B08253E8600013087008101013090
:1029A600B4003408BB070A30840090308500000864
:1029B6003B02031CCC2CBC0104303C020318052D41
:1029C6003C08B400B5013408A0003508A100303039
:1029D600A2000030A3009B318B23943130302000BD
:1029E600B6002330B7002008360786002108373D99
:1029F600870081010130B4003408BC0704303C0272
:102A0600031CE32CBC011C303C02031808003C08E4
:102A1600023E9A31552294312000B4003408BA009F
:102A26003A08B4000430AB000030AC003C08B500F6
:102A3600B6013508AD003608AE009F31AE27943199
:102A460020002B08B7000230B735890B272DA030A0
:102A56003707B8003C0803393807B900390886003B
:102A660001308700340881000130B4003408BC0707
:102A7600062D20004008C4004108C5004208C600D3
:102A86000310450D460DC7004708CD004D08031D30
:102A9600552D0030C3000030C2000030C1000030A8
:102AA600C00008004008C4004108C5004208C6002E
:102AB6001730C636C50CC40C890B5C2D4408C700FC
:102AC6004708C800C117FF30C005FF30C1050030F8
:102AD600C2054008C9004108CA004208CB00CC0123
:102AE6008E30CD02CD1F932D4D08803A8F3E0318B0
:102AF600852D0030C3000030C2000030C100003018
:102B0600C00008000130CC36CB0CCA0CC90C890BAE
:102B1600862D0130C4004408CD070319AC2D852D40
:102B260018304D02031CA92D0030C3000030C2002E
:102B36000030C1000030C00008000130C935CA0DA0
:102B4600CB0DCC0D890BA12D0130CD024D08031DF7
:102B5600A02D48080319BA2DC909CA09CB09CC0901
:102B6600C90A0319CA0A0319CB0A0319CC0A4C0865
:102B7600C3004B08C2004A08C1004908C00008004B
:102B860020003008B6003108B7003208B80003103C
:102B9600370D380DB9003908BA003A08031DDA2D89
:102BA6000030B0000030B1000030B2000800330839
:102BB600B6003408B7003508B8000310370D380DD5
:102BC600B9003908BF003F08031DF02D0030B000E2
:102BD6000030B1000030B20008003F087B3EB6006E
:102BE6003608BA073008B6003108B7003208B80010
:102BF6001030B836B70CB60C890BFC2D3608B90068
:102C06003908BF003308B6003408B7003508B800E5
:102C16001030B836B70CB60C890B0C2E3608B90036
:102C26003908BF068030B6003608BF05B117B4179D
:102C3600FF30B305FF30B4050030B5050030BB00EA
:102C46000030BC000030BD000730B6003608BE00BC
:102C5600301C332E3308BB073408BC3D3508BD3D58
:102C66000130B236B10CB00C890B342E0130B335BD
:102C7600B40DB50D890B3A2E0130BE02031D2B2E65
:102C86000930B6003608BE00301C4F2E3308BB078D
:102C96003408BC3D3508BD3D0130B236B10CB00C30
:102CA600890B502E0130BD36BC0CBB0C890B562E41
:102CB6000130BE02031D472E3B08A0003C08A100C0
:102CC6003D08A2003A08B6003608A3003F08B70040
:102CD6003708A4009331EC2320002008B000210817
:102CE600B1002208B2000800A03093313B23963190
:102CF60022003918822EA43093313B2396310630B8
:102D06002000A8000030A90022003A082000AB00ED
:102D1600220039082000AA009D31AA2596312000FC
:102D260028082904031D9B2EA83093313B23963196
:102D36000C302000A8000030A90022003A0820002C
:102D4600AB00220039082000AA009D31AA25963141
:102D5600200028082904031DC22EAC3093313B23E2
:102D6600963101302200EA006A08E6076608803AD2
:102D76007C3E0318E60166088931902196313C3085
:102D86002000A8000030A90022003A082000AB006D
:102D9600220039082000AA009D31AA25963120007C
:102DA60028082904031DDB2EB03093313B239631CE
:102DB60078302000A8000030A90022003A08200040
:102DC600AB00220039082000AA009D31AA259631C1
:102DD600200028082904031D082FB43093313B2313
:102DE60096319A31F322963122003B083C040319AE
:102DF600082F2000DB01DB0ADC01DD01DE012200F9
:102E06003C088A003B080A00973158302000A80089
:102E16000230A90022003A082000AB00220039083F
:102E26002000AA009D31AA259631200028082904F1
:102E3600031D282FB83093313B2396318831072064
:102E460001302200B9000030BA0001302200B90773
:102E56000030BA3D08002000EC0022000E0D0E0DD9
:102E660001392000E4000130E406E40CE40C220001
:102E76000E08200064067F39640622008E00A0300A
:102E86000032890B432F20006C08E400E50164083A
:102E9600AE006508AF000630E6006608B0009D315A
:102EA600282597310B302000E4006230890B592F1A
:102EB600E40B592F000020006C08E400E5016408CB
:102EC600B0006508B1000730E6006608B200693058
:102ED600B3000030B400B501B50A92318F229731A4
:102EE6002000E7006708EB00A0300032890B782F3E
:102EF60020006B08031DFD2F06306906031D8E2F6B
:102F06000630E4006408CC00CD01CE016C088D319A
:102F160085259731FD2F20006C08E400E501640843
:102F2600B0006508B1000730E6006608B2006A30F6
:102F3600B3000030B400B501B50A92318F22973143
:102F46002000E7006708EB00A0300032890BA82FAD
:102F560020006B08031DFD2F6C08E400E5016408E2
:102F6600B0006508B1000730E6006608B200BC3064
:102F7600B3000130B4006A08E7006708B500923173
:102F86008F2297312000E8006808EB00A03000325D
:102F9600890BCA2F20006B08031DFD2F6908E4006A
:102FA6006408CC006A08E5006508CD00BC30E60080
:102FB6006608CE006C088D318525973122003B08C6
:102FC6003C040319FD2F20006C08E4006408DB00B4
:102FD6006908E5006508DC006A08E6006608DD00A9
:102FE600BC30E7006708DE0022003C088A003B0888
:102FF6000A00973120006B0808008831582888316C
:1030060086288831DA288931062989317729893154
:103016003B298931502989317729893157298931C5
:0A3026007B2988318E288831B128FB
:10340C002200D301080022004A0808002200D30140
:10341C00D30A08000B0C890C013908001630210066
:10342C0097000800200022089C31872408000134F2
:10343C00FF34FF340134013406342000A10021088C
:10344C00A00020082200C80008002000210822004B
:10345C00B000200020082200AF000800220048081D
:10346C002000A3002308A00001309C314124080057
:10347C0021001508C039173895002000950122004D
:10348C00D4010B1108006400800101310130FE02EF
:10349C000030FF3B7F087E04031900344A2A2000C9
:1034AC00A00020082300910015139513151400009B
:1034BC000000230013080800220035083604031905
:1034CC006C2A36088A0035080A009A312200D3018A
:1034DC0008002200370838040319792A38088A00B2
:1034EC0037080A009A312200D301D30A08002000C1
:1034FC00A100A0013A30210203188A2A303021029F
:10350C00031C8A2AA001A00A200C08002000A81F76
:10351C0008002709A9002809AA00A90A0319AA0A60
:10352C002908A7002A08A80008002000A4002408E5
:10353C00A3002308A00000309C3141242000240863
:10354C00A30023082200CA0008000530F000700810
:10355C002200DC070130DD02031DB92A0430F00023
:10356C007008DE000800DE01DE0A08002000A7005B
:10357C002008A200A3012708A400A5012408A50087
:10358C00A40122082407A0002308253DA10008005F
:10359C009B31FF239A31883100209A319A311422C1
:1035AC009A319B31A7239A319A313E229A319B3121
:1035BC00542308002000DB0022002F0830040319DC
:1035CC00080020005B08D0000230D1002200300837
:1035DC008A002F080A009A31080000302000AE0043
:1035EC00AF000230C1004108B0009D3128259A314E
:1035FC002000C2004208C3004308031D08008831A4
:10360C00072008002000C9011830CA001A30CB006E
:10361C004330C7004708C8004208AF004108AE005D
:10362C004830C7004708B000493080319A20080064
:10363C0020002708AB002608AA002A0886002B08C1
:10364C00870028088400290885000008C03F8908E5
:10365C00031908000130AA070030AB3D0130A80760
:10366C000030A93D232B2000AF002F08AB00AC018C
:10367C00AD012B08A0002C08A1002D08A2008E3053
:10368C00AE002E08A300A4019331EC2320002008E7
:10369C00A8002108A9002208AA0008002100911204
:1036AC001112083023009F0090309D0024309E00A2
:1036BC0044309B009C01FB01FA0140302000A0002B
:1036CC0020082200D800D701D601D501210091167F
:1036DC00080023009D1C742B1D121D161908F000E8
:1036EC0022005708203E86000330870070088100B6
:1036FC000130F0007008D707403057020318D7018B
:10370C000130F0007008D50708002000A401A501C5
:10371C00201C942B2208A4072308A53D0130A235B8
:10372C00A30D890B952B0130A136A00C890B9A2B7C
:10373C0020082104031D8E2B2508A1002408A000BD
:10374C0008005F302000A00020082200A1005F309C
:10375C002000A00020082200A000A2142210A40126
:10376C008030240094002830950097014F3092004F
:10377C0020009111210091150800403022005802C0
:10378C000318DE2B7A08A03E860002308700010861
:10379C0023009A000130F0007008FA0740307A02DA
:1037AC000318FA010130F00070082200D807080055
:1037BC00210011120800F2002400161522005B08EB
:1037CC00023E860001308700160001040319FD2B10
:1037DC005B08023E860001308700403FF000413F0D
:1037EC00F100700886007108870072088100DE0104
:1037FC00080022008C018D018E013F3021008C00CD
:10380C00F0308D007F308E004F3023008E00203042
:10381C008D0017308C0024008D013F308C00BF30A0
:10382C008E002100951322009E0184309D0008001B
:10383C002000A101220055080319202C5608203E17
:10384C0086000330870001082000A0002008A1009A
:10385C000130A00020082200D60740305602031881
:10386C00D6012100911201302200D50221009116BF
:10387C002000210808002000A100A201210823003B
:10388C0091002000200823009300951315131515A3
:10389C0000308B1B01302000A2008B13553023000D
:1038AC009600AA309600951495185A2C15112000E4
:1038BC00220C031C8B1303188B1708002000A60086
:1038CC002308A5002208A400A435A50D260886000F
:1038DC00013087002408C03F2508C13F2108A400FF
:1038EC002608023E86000130870024088100260845
:1038FC00033E8600013087002008C03F0030C13FE6
:10390C0008002000A100220058080319892C21006E
:10391C00111A952C2000210823009A00AB2C1112AF
:10392C0020002108A0007B08A03E86000230870002
:10393C00200881000130A0002008FB0740307B02EA
:10394C000318FB0101302200D802210011160800D7
:10395C0022002218CF2C20002908A1002808A00042
:10396C002A08AE002E08A2002C08A4002B08A300E5
:10397C00D2309D317E259C31D2302000AE002E08F5
:10398C00A0002D08AF002F08A10001309231E422D5
:10399C00080020002D08860087018101810A08009B
:1039AC00A0300032890BD72C20003108B20032082D
:1039BC00A7002F08A9002E08A8003530B300330843
:1039CC00AA0030089C31FE249C31023020003506C0
:1039DC00031DF52CA0300032890BF12CEB2C350893
:1039EC00031DFA2CB401FC2CB401B40A34080800F1
:1039FC002000AD0022002218212D20002D08AB0044
:103A0C002B08A0002708AC002C08A1002908A30053
:103A1C002808A200D7309C3164249C31D730200078
:103A2C00AB002B08A0002A08AC002C08A100013028
:103A3C009231E422080020002A08860087018101C7
:103A4C00810A080020003008B1003108B300A03012
:103A5C000032890B2E2D2000A701A70A2F08A900E0
:103A6C002E08A8003430B1003108AA0033309C3144
:103A7C00FE249D31023020003406031D4A2DA03057
:103A8C000032890B462D402D3408031D4F2DB201F9
:103A9C00512DB201B20A320808009431C2249D3172
:103AAC009A31CE229D318B170B17F3302000A100D9
:103ABC009030A2000C30A3001A30A4000630A500F0
:103ACC001A30A600A7017730A8001630A900AA0169
:103ADC00AA0A92313C229D3182302000A0000B308A
:103AEC00A1009A312B229D318631282680313C2829
:103AFC002000A7002408A6002308A500A535A60DC4
:103B0C0027088600013087002508C03F2608C13FE2
:103B1C0027088600013087000130810441310030D4
:103B2C0081042208A5002708023E86000130870088
:103B3C00250881002708033E8600013087002008F5
:103B4C00C03F2108C13F08002000280829040319A0
:103B5C00D22DAD01AD0AA91BBD2D0130A835A90D83
:103B6C00890BB42D0130AC002C08AD07B12D290800
:103B7C002B02031DC32D28082A02031CC92D28085B
:103B8C00AA022908AB3B0130A936A80C890BCA2D17
:103B9C000130AD02031DBD2D2B08A9002A08A80079
:103BAC0008002000BA000830AB000030AC003A0826
:103BBC00B400B5013408AD003508AE009F31AE2716
:103BCC009D3120002B08B6003608B7003A0807399B
:103BDC00B4003408B800B9013708253E860001301E
:103BEC0087000130B400380AFC2DB435890BFB2D4D
:103BFC00340801050319042EB901B90A3908080063
:103C0C002000A501A601200821040319362EA701C6
:103C1C00A70AA11B1B2E0130A035A10D890B122E5A
:103C2C000130A4002408A7070F2E0130A535A60DDE
:103C3C00890B1C2E21082302031D262E200822028C
:103C4C00031C2D2E2008A2022108A33B25140130B1
:103C5C00A136A00C890B2E2E0130A702031D1B2EA2
:103C6C002608A1002508A00008002000A601A31F1B
:103C7C00462EA209A309A20A0319A30AA601A60AA1
:103C8C00A11F4D2EA009A109A00A0319A10A200801
:103C9C0021040319742EA501A50AA11B5F2E013066
:103CAC00A035A10D890B562E0130A4002408A507C0
:103CBC00532E21082302031D652E20082202031C0B
:103CCC006B2E2008A2022108A33B0130A136A00CC8
:103CDC00890B6C2E0130A502031D5F2E26080319DB
:103CEC007C2EA209A309A20A0319A30A2308A10086
:103CFC002208A0000800220050082000CC004C082C
:103D0C00CF004F080319C12E0130CF02A830C100DB
:103D1C009130C2009B3108239E312000CE014F0808
:103D2C004E020318B02ED830C1009130C20093312E
:103D3C0092239E312000CC00CD014C08C3004D08CD
:103D4C00C4009B3108239E3101302000CC004C086C
:103D5C00CE07952E2F30C1009130C20093319223A3
:103D6C009E312000CC00CD014C08C3004D08C4008E
:103D7C009B3108230800B6302000C1009030C200EF
:103D8C009B310823080001302000AE002E082200D1
:103D9C00E5076508803A7C3E0318E50165082000BC
:103DAC00AE00AF012E08A0002F08A1003030A200F9
:103DBC000030A3009B318B239E3130302000B000AB
:103DCC002330B1002008300786002108313D8700E0
:103DDC000108031D0800220065082000AE00AF0199
:103DEC002E08A0002F08A1003030A2000030A30044
:103DFC009B318B239E3130302000B0002330B1003A
:103E0C0020083007A6002108313DA7002D08A90085
:103E1C002C08A8009B311E2308002000BB003B0887
:103E2C000319080021303B02031808000830AB00CE
:103E3C000030AC003B08B400B5013408AD003508C7
:103E4C00AE009F31AE279F3120002B08B6003608FC
:103E5C00BA003B080739B4003408B7003A08253ECD
:103E6C008600013087000108B4003408B8003A0815
:103E7C00253E8600013087000130B400370A472FF9
:103E8C00B435890B462F3408FF3A0105B5003508C7
:103E9C00B90038083906031908003908B4003A0883
:103EAC00253E860001308700340881000130220055
:103EBC00D00208002000BB003B0803190800213089
:103ECC003B02031808000830AB000030AC003B0884
:103EDC00B400B5013408AD003508AE009F31AE27F3
:103EEC009F3120002B08B6003608BA003B08073972
:103EFC00B4003408B7003A08253E8600013087002C
:103F0C000108B4003408B8003A08253E8600013098
:103F1C0087000130B400370A942FB435890B932FE6
:103F2C0034080104B5003508B900380839060319FE
:103F3C0008003908B4003A08253E86000130870095
:103F4C00340881000130B40034082200D007080086
:103F5C002000B101AC1FB92FAB09AC09AB0A031996
:103F6C00AC0AB101B10AAE1FC42FAD09AE09AD0A3E
:103F7C000319AE0A0130AF002F08B106B201B3012C
:103F8C002B082C040319F32FB001B00AAC1BD82F4B
:103F9C000130AB35AC0D890BCF2F0130AF002F08A2
:103FAC00B007CC2F0130B235B30D890BD92F2C08AB
:103FBC002E02031DE32F2B082D02031CEA2F2B08C6
:103FCC00AD022C08AE3B32140130AC36AB0C890B75
:103FDC00EB2F0130B002031DD82F31080319FB2F32
:103FEC00B209B309B20A0319B30A3308AC00320898
:043FFC00AB0008000E
:020000040001F9
:04000E00E4FFFFFF0D
:00000001FF
