:1000000080313C28FF3401347E14803120007F0889
:10001000FD000B1F15282100111E15282000111EA0
:10002000152893313E23803137280B1F21282100CA
:10003000911E21282000911E2128933122238031F6
:1000400037280B1F2D282100921D2D282000921DDE
:100050002D2888310120803137280B1F37282100B7
:10006000911D37282000911D37288B3149237D08A9
:100070002000FF007E10090080313E2821008031E1
:1000800002208031ED00803103208031EE0022001B
:100090009131E8218031E2009131E9218031E300A2
:1000A0009131EA218031E400303084002330850032
:1000B000C030FE000030FF0092312F228031F0016D
:1000C000F101F201F301F401F501F6012000EB0169
:1000D000EC01ED01EE01D9308400003085001430D0
:1000E000FE000030FF0092312F228031203084004A
:1000F000013085004230FE000030FF0092312F2297
:100100008031A0308400013085002C30FE000030AA
:10011000FF0092312F228031203084000230850090
:100120004030FE000030FF0092312F228031A0309D
:100130008400023085004030FE000030FF00923124
:100140002F22803120308400033085004030FE00B3
:100150000030FF0092312F227E10200095313A2D81
:100160002000CA004A080319132B5230AE00913008
:10017000AF004A08C700C8014708B0004808B100EE
:10018000853119258031132B01302000C5022D3017
:10019000AE009130AF008531192580312000EB0190
:1001A00045086B020318EF286130AE009130AF00B4
:1001B0006B084607C7004708860001308700010822
:1001C000C800C9014808B0004908B10085311925A7
:1001D000803101302000C7004708EB07D0285D3090
:1001E000AE009130AF006B084607C7004708860095
:1001F000013087000108C800C9014808B00049085B
:10020000B10085311925080001302000C5022E30CB
:10021000AE009130AF008531192580312000EB010F
:1002200045086B0203182D297130AE009130AF00E4
:100230006B084607C70047088600013087000108A1
:10024000B000B101B01BB1038531192580310130F7
:100250002000C7004708EB071029DA30AE009030C5
:10026000AF006B084607C7004708860001308700CB
:100270000108B000B101B01BB10385311925080098
:1002800006302000AE009130AF0085311925803155
:1002900020004508FE3EC7004708C500EB014508A1
:1002A0006B0203187D296130AE009130AF006B08FE
:1002B000013E4607C7004708860001308700010855
:1002C000C8004808A0006B084607C9004908860016
:1002D00001308700010892318722803120002108F7
:1002E000B1002008B00085311925803120006B084D
:1002F000023EC7004708EB004F295D30AE00913049
:10030000AF006B08013E4607C70047088600013072
:1003100087000108C8004808A0006B084607C9000C
:100320004908860001308700010892318722803118
:1003300020002108B1002008B000853119250800EF
:1003400007302000AE009130AF0085311925803193
:1003500020004508FE3EC7004708C500EB014508E0
:100360006B020318DD297130AE009130AF006B08CD
:10037000013E4607C7004708860001308700010894
:10038000C8004808A0006B084607C9004908860055
:100390000130870001089231872280312000210836
:1003A000B1002008B00085311925803120006B088C
:1003B000023EC7004708EB00AF29DA30AE009030AC
:1003C000AF006B08013E4607C700470886000130B2
:1003D00087000108C8004808A0006B084607C9004C
:1003E0004908860001308700010892318722803158
:1003F00020002108B1002008B0008531192508002F
:1004000036302000AE009130AF00853119258031A3
:1004100020004508FE3EC7004708C500EB0145081F
:100420006B020318792A6B08013E4607C70047088C
:100430008600013087000108C8004808A0006B084A
:100440004607C9004908860001308700010892313B
:100450008722803120002108CC002008CB004C08E6
:10046000803AC7007F304702031D382A9D304B0277
:10047000031C3D2A2000CC1B422AFD302000AE0088
:100480009030462AFC302000AE009030AF0064303F
:10049000A0000030A1004C08A3004B08A200883146
:1004A000E520803120002108B1002008B000643030
:1004B000A0000030A1004C08A3004B08A200963118
:1004C0004426803120002108A8002008A70092318E
:1004D0005722803120002808B3002708B200853158
:1004E0001925803120006B08023EC7004708EB0049
:1004F0000F2A6B08013E4607C700470886000130F7
:1005000087000108C8004808A0006B084607C9001A
:100510004908860001308700010892318722803126
:1005200020002108CC002008CB004C08803AC700EE
:100530007F304702031D9E2A9D304B02031CA32AD5
:100540002000CC1BD32ADF302000AE009030AF005B
:100550006430A0000030A1004C08A3004B08A200AA
:100560008831E520803120002108B1002008B0004A
:100570006430A0000030A1004C08A3004B08A2008A
:1005800096314426803120002108A8002008A700C9
:1005900092315722803120002808B3002708B2008A
:1005A000853119250800DE302000AE009030AF0004
:1005B0006430A0000030A1004C08A3004B08A2004A
:1005C0008831E520803120002108B1002008B000EA
:1005D0006430A0000030A1004C08A3004B08A2002A
:1005E00096314426803120002108A8002008A70069
:1005F00092315722803120002808B3002708B2002A
:1006000085311925080024302000AE009130AF005C
:10061000853119250800AF302000AE009030AF00C2
:1006200085311925080020004408013A0319C4281F
:10063000033A03190429013A03194029073A031917
:10064000A029013A0319002A033A0319032B0B2BA3
:1006500008002100D20052082000C400C50144084F
:10066000A0004508A1003030A2000030A300933163
:100670005A23833130302000C6002330C7002008C1
:1006800046072100D70020002108473D2100D8005F
:1006900057088600580887000108031908008D30A4
:1006A0002000A0009130A100210058082000A300E4
:1006B000210057082000A2000330A4000030A5004C
:1006C000883102208331200020082104031D8E2B55
:1006D00021006E082000C400C5014408B000450890
:1006E000B100B201B20AD630B3000030B400B50197
:1006F000B50A8931372183312000C6004608210020
:10070000D5005508031D892B10302000AE00913014
:10071000A12CAD302000AE0091300F2DA53020006F
:10072000A0009130A100210058082000A300210062
:1007300057082000A2000330A4000030A500883133
:1007400002208331200020082104031DB22B210048
:100750006E082000C400C5014408AE004508AF0083
:100760000330D52B75302000A0009130A10021006E
:1007700058082000A300210057082000A2000330E1
:10078000A4000030A5008831022083312000200819
:100790002104031DE12B21006E082000C400C501C7
:1007A0004408AE004508AF000430C6004608B0005B
:1007B0009431B62483312000C70047082100D500BA
:1007C000122D95302000A0009130A1002100580882
:1007D0002000A300210057082000A2000330A4003D
:1007E0000030A50088310220833120002008210438
:1007F000031D1C2C21006E082000C400C501440804
:10080000AE004508AF000530C6004608B000943180
:10081000B62483312000C70047082100D5005508C1
:10082000031D172CC9302000AE0090300F2DBD30B5
:100830002000AE0090300F2DA1302000A00091309C
:10084000A100210058082000A30021005708200023
:10085000A2000330A4000030A500883102208331BB
:10086000200020082104031D6E2C21005708043E9F
:100870002000C40000302100583D2000C50044087D
:10088000A6004508A7008931E3218331200026080E
:10089000C60046082100D6006E082000C400C5012D
:1008A0004408AE004508AF000830C6004608B00056
:1008B0009431B624833121006E082000C400C501A4
:1008C0004408AE004508AF00210056082000C600CD
:1008D0004608B0009431B6248331122D9D3020009B
:1008E000A0009130A100210058082000A3002100A1
:1008F00057082000A2000330A4000030A500883172
:1009000002208331200020082104031DAC2C21008B
:100910006E082000C400C5014408B0004508B100BD
:100920000930C6004608B200D630B3000030B4002B
:10093000B501B50A8931372183311A302000AE0064
:100940009130AF00210056082000C400C5014408C2
:10095000B0004508B100102D2100D4010230200064
:10096000C40044082100D30054082000C400C5017D
:100970004408210057078600200045082100583D03
:10098000870001082000C60021005308A03E860011
:1009900087012000460881000130C400440821007E
:1009A000D3075408D40A2000C400C501440821001C
:1009B00057078600200045082100583D87000108A0
:1009C000031DB42C0A302000C40044082100A000FC
:1009D00054082000C40044082100A1006E08200033
:1009E000C400C5014408AE004508AF00A030C600F1
:1009F0004608B000210053082000C7004708B10096
:100A00009431642483312000C80048082100D500B7
:100A100055080319122D59302000AE009030AF0058
:100A20008531192521005708860058088700810163
:100A3000080030302000B4003408BB0020002F082C
:100A4000B5002E08B400AE0A0319AF0A34088400BA
:100A5000350885000008B6003608C30043080319AE
:100A600008002530430603193A2D43089131F3213C
:100A700085311E2D2000C101C201C001442D401549
:100A80000130AE070030AF3D2E0884002F088500EE
:100A90000008303A03193F2D4D2D2E0884002F08F1
:100AA00085000008923148228531031CEE2D20007C
:100AB000C101C2010A302000A0000030A10042089C
:100AC000A3004108A20093315A2385312000210858
:100AD000C2002008C1002E0884002F0885000008ED
:100AE000D03EB400FF3003180030B5003408C10711
:100AF0003508C23D0130AE070030AF3D2E088400FE
:100B00002F0885000008923148228531031CEE2D04
:100B10005A2D20003B0886008701403FB900413F25
:100B2000BA000230B4003408BB0739083A04031D88
:100B30009D2D3D30B9009130BA00BE01BF0139088A
:100B40003E0784003A083F3D850012000319AD2D91
:100B50000130BE070030BF3D9F2D42083F02031DFC
:100B6000B32D41083E020318BA2D3E08C1023F08CA
:100B7000C23BBC2DC101C201FF302000C107FF30C4
:100B8000C23D410A0319420A0319D82D2030913180
:100B9000F3218531BC2D390884003A08850000080E
:100BA0009131F321853101302000B9070030BA3D81
:100BB0000130BE020030BF3B3E0A031DCB2D3F0A71
:100BC00003191E2DCB2D4330B9000030BA0001307F
:100BD000BE000030BF00AD2D40170C2E20002F08A6
:100BE000B5002E08B400AE0A0319AF0A3408840019
:100BF000350885000008C300003A0319ED2E643A59
:100C000003190C2E0D3A03190C2E1A3A0319892DCB
:100C1000063A0319EC2DE32D2000401B262E3B083D
:100C200086008701403FBC00413FBD000230B40058
:100C30003408BB07BD1F312E0330B4003408C00494
:100C4000BC09BD09BC0A0319BD0A312E3B08860048
:100C50008701403FBC00413FBD000230B400340872
:100C6000BB07C301C30A053043060319562E4308C8
:100C7000B400B501B435B50D0030340784009030B0
:100C8000353D8500003FB600013FB70037083D0203
:100C9000031D4C2E36083C02031C562E0130B400B6
:100CA0003408C30705304306031D372E41084204AC
:100CB0000319622E400803390319622EFF30C10761
:100CC000FF30C23D4308B400B501B41BB50335087D
:100CD000803AB6004208803A3602031D712E410860
:100CE000340203187E2E20004308B400B501B41B63
:100CF000B5033408C1023508C23B812E2000C10172
:100D0000C201401D9A2E4008033903198B2E2D3045
:100D10009131F32185312000410842040319B32E9B
:100D200030309131F3218531FF302000C107FF3091
:100D3000C23D8C2E410842040319AB2E2030913164
:100D4000F3218531FF302000C107FF30C23D41084B
:100D50004204031D9E2E400803390319B32E2D3083
:100D60009131F321853120004308B4003408B800E4
:100D7000FF302000B4003408B807380A03191E2DCC
:100D80000A30A8000030A9003808B400B501B43515
:100D9000B50D0030340784009030353D8500003FAC
:100DA000A000013FA1003D08A3003C08A20095312E
:100DB0009625853120002108AB002008AA00953136
:100DC0000D25853120002808303EB6003608C300C6
:100DD00043089131F3218531B82E08002000D50059
:100DE00022000E0D0E0D01392000CD000130CD0680
:100DF000CD0CCD0C22000E0820004D067F394D068B
:100E000022008E00E43000320032890B032F0032C2
:100E1000003220005508CD00CE014D08AE004E082E
:100E2000AF000630CF004F08B0009431B6248631B1
:100E30000B302000CD006230890B1C2FCD0B1C2FF6
:100E4000000020005508CD00CE014D08B0004E082E
:100E5000B1000730CF004F08B2005230B30000306D
:100E6000B400B501B50A8931372186312000D000A0
:100E70005008D400A0300032890B3B2F20005408CA
:100E8000031D9F2F06305206031D4D2F0630CD0047
:100E90004D08C400C501C6019C2F20005508CD0097
:100EA000CE014D08B0004E08B1000730CF004F080A
:100EB000B2005330B3000030B400B501B50A893137
:100EC000372186312000D0005008D400A0300032F5
:100ED000890B672F20005408031D9F2F5508CD0054
:100EE000CE014D08B0004E08B1000730CF004F08CA
:100EF000B200BC30B3000130B4005308D000500839
:100F0000B5008931372186312000D1005108D40045
:100F1000A0300032890B892F20005408031D9F2F19
:100F20005208CD004D08C4005308CE004E08C5003D
:100F3000BC30CF004F08C60055088031B0202000DB
:100F4000540808002000A601210064080319F92FA5
:100F500008306302031CB32FE30101302000A0001E
:100F600020082100E2070A30840090308500000844
:100F70006202031CBD2FE301E2016208203E8600ED
:100F80000130870001082000A000A1010130A2006B
:100F90000030A3002100630A2000D02FA235A30D4A
:100FA000890BCE2F20082205A40021082305A500C7
:100FB000240825040319F22F210062082000A00054
:100FC0000230A035FF3E031DE12F203521006307CD
:100FD0002000A1002108A7000130A0002008210066
:100FE000E307F92F01302000A00020082100E307CB
:100FF000A82F2000270808001630210097000800BD
:10100200080001302000A4020030A53B240A031985
:10101200250A0319412820002008840021088500A0
:1010220012000319202822088600230887002008BE
:1010320084002108850000080106031938282208C7
:101042008600230887000108A600A701A609A709B0
:10105200A60A0319A70A20088400210885000008AF
:101062002607A00027080318270AA100080001305C
:10107200A0070030A13D0130A2070030A33D0228A5
:10108200A001A10108002000DA00DB0104305B02AC
:10109200031808005B085A07D6005608860001307C
:1010A20087000108D7005708DC005C080319080014
:1010B20021305C02031808005C08953167258831ED
:1010C200003A03198D2820005C088631EE2688310B
:1010D2002000D6005608D900590803198D288830F7
:1010E200AE009030AF005C08D600D7015608B000C1
:1010F2005708B10085311925883120005C08D600D7
:10110200D7015608AE005708AF000C30D800580877
:10111200B0009431B624883101302000D600560840
:10112200DB074728200022082200A7002000210810
:101132002200A60020002308A9000030AA002908E6
:101142002200B40020002A082200B5002000240852
:10115200A9000030AA0029082200B20020002A08B3
:101162002200B30020002508A9000030AA002908A7
:101172002200B00020002A082200B1000130923182
:101182003B2288312000A90029082100DE0000301E
:1011920092313B222000A90029082100E0000330FF
:1011A2002000A90029082200CA00200027082200E6
:1011B200AB00200026082200AA0020002808A9006F
:1011C20029082200E20008002000A601A11FF02841
:1011D200A009A109A00A0319A10AA601A60AA31F30
:1011E200FB28A209A309A20A0319A30A0130A40039
:1011F2002408A606A701A8012008210403192A2908
:10120200A501A50AA11B0F290130A035A10D890B4B
:1012120006290130A4002408A50703290130A735B7
:10122200A80D890B102921082302031D1A29200861
:101232002202031C21292008A2022108A33B271411
:101242000130A136A00C890B22290130A502031D11
:101252000F29260803193229A709A809A70A031981
:10126200A80A2808A1002708A000080020003208C8
:10127200B6003608B900A0300032890B3D292000A3
:10128200A701A70A3108A9003008A8003A30B60021
:101292003608AA00393094318C248931023020007A
:1012A2003A06031D5929A0300032890B55294F29CE
:1012B2003A08031D8829A0300032890B5D292000DD
:1012C2003408A9003308A8003508B6003608AA0079
:1012D2003108AC003008AB003A30B7003708AD0037
:1012E20094313C248931023020003A06031D7E29C4
:1012F200A0300032890B7A2974293A08031D832908
:10130200B8018A290230B6003608B8008A29B80125
:10131200B80A380808002000A30021005B18CE2973
:1013220002302000A20021088600870122088100E5
:101332002008A2002100590A8600013087002000FF
:10134200220881002308A2002100590886000130EA
:1013520087002000220881002108A20021005908EC
:10136200023E8600013087002000220881000330FF
:10137200A20022082100D90759085C3A031DC72997
:1013820059302000A20022082100D900DB105A089F
:101392005906031DD4295B14D42920002108860094
:1013A20087018101810A200021088600870102301D
:1013B2000106031D080021006C08031DDC29200022
:1013C2009115080020002608860027088700203093
:1013D2000106031DF22901302000A6070030A73DB7
:1013E200E329260886002708870009300106031929
:1013F200EC29AB01AC01AA01260886002708870068
:101402002D300106031D0A2A0130A8002808AA0768
:10141200122A26088600270887002B300106031DA2
:10142200162A0130A6070030A73D260886002708A5
:1014320087000108923148228931031C3F2A20008B
:101442002C08A1002B08A0000A30A2000030A30043
:1014520093315A2389312000260886002708870005
:1014620001082007A80021080318210AA90028085A
:10147200D03EAB00FF30293DAC00122A20002A08E2
:1014820003194F2A2B09A8002C09A900A80A03193D
:10149200A90A2808A6002908A70008002C08A70006
:1014A2002B08A60008002000B0010A30840090300A
:1014B2008500000830020318702A3008203E86009A
:1014C2000130870081010130A9002908B0070A30E4
:1014D20084009030850000083002031C5E2AB101AE
:1014E200043031020318972A3108A900AA012908F9
:1014F200A0002A08A1003030A2000030A3009331DE
:101502005A238A3130302000AB002330AC0020084F
:101512002B07860021082C3D870081010130A9009C
:101522002908B10704303102031C752AB1011C30AD
:101532003102031808003108023E92313B228A31FF
:101542002000A9002908AF002F08A9000430A0003C
:101552000030A1003108AA00AB012A08A2002B0822
:10156200A3008831E5208A3120002008AC00023037
:10157200AC35890BB92AA0302C07AD0031080339EC
:101582002D07AE002E088600013087002908810051
:101592000130A9002908B107982AA03088314420D7
:1015A2008A317018D82AA430883144208A31063012
:1015B2002000A8000030A9007108AB007008AA0042
:1015C20095310D258A31200028082904031DED2AB2
:1015D200A830883144208A310C302000A800003025
:1015E200A9007108AB007008AA0095310D258A3157
:1015F200200028082904031D022BAC308831442026
:101602008A313C302000A8000030A9007108AB00EC
:101612007008AA0095310D258A3120002808290476
:10162200031D172BB030883144208A3178302000D6
:10163200A8000030A9007108AB007008AA0095311B
:101642000D258A31200028082904031D2C2BB430D3
:10165200883144208A3158302000A8000230A90085
:101662007108AB007008AA0095310D258A3120005F
:1016720028082904031D442BB83088314420013046
:10168200F0000030F1000130F0070030F13D0800B9
:10169200200091112400951F942C95132100EC0138
:1016A2006908023E86000130870001088600870132
:1016B2008101810AE9010800DB1808005A08F900D3
:1016C2007908E9005A088600013087000108F9000C
:1016D2007908EB005A088600013087000130413F4B
:1016E200EA000330F9007908DA075A085C3A031D68
:1016F2007E2B5930F9007908DA005B105A08590636
:101702000319DB14240016140230F90079082100B1
:10171200EC000800240096140230F9007908210038
:10172200EC0008002400161F9F2B0130F9007908F5
:101732002100DD0704309231D322080020006E0818
:10174200FA006D08F900FA36F90C790824009100C4
:1017520020006D1CB22B0B30F90079082100EC003F
:1017620008000330F90079082100EC000800240089
:10177200161FC42B0130F90079082100DD0704305F
:101782009231D3220800961420006E08FA006D08E8
:10179200F9007A08F900FA0106307905FB000030F9
:1017A2007A05FC00F0307B04ED0000307C04EE0092
:1017B2006D142100E701E70A0230F9007908EC0014
:1017C200080067030319012C6A08860001308700AC
:1017D200403F2000ED00413FEE0021006A08033E39
:1017E200860001308700403F2200B800413FB90027
:1017F20021006A088600013087000130423FE8007C
:1018020020006D082400910020006D1C0E2C053074
:10181200F90079082100EC0008000330F90079088A
:101822002100EC0008002400161F222C0130F900D0
:1018320079082100DD072400161305309231D322E6
:10184200080001302100E802680A031D3C2C053023
:10185200F9007908EA070130EB02031D342C00304D
:101862009231D3220800240096140230F90079083C
:101872002100EC00080022003808860039088700A1
:1018820001082400910001302200B8070030B93D60
:1018920008002400161F582C0130F9007908210095
:1018A200DD0704309231D322240016130800961566
:1018B2000830F90079082100EC0008000830F9002E
:1018C2007908EC00240096150800220038088600EA
:1018D2003908870024001108810001302200B8076E
:1018E2000030B93D01302100E8020319802C2400A8
:1018F20096120630F90079082100EC00842C2400AD
:101902009616923176222400161608000030923183
:10191200D32208000130F90079082100DD070630E2
:101922009231D322080021006C0884000C3004029A
:1019320003188B2C91310435B03E8200080091319E
:10194200EF218C312000E70067082200BE003E082C
:101952000319D72C0B11280829040319B52C2908BF
:101962008A0028080A008C3122002A082B04031955
:10197200D72C01302000E70067082200BF072100B2
:101982005E0822003F02031CD72CBF010130200059
:10199200E70067082200C00762084002031CD72C38
:1019A20042080319D62CC101C10AC001410803191A
:1019B200E52C2A082B040319E52C2B088A002A0897
:1019C2000A008C312200C101210066080319A02CF3
:1019D2009331B1238C312000E7006708E9006908E0
:1019E200E70021005F08203E8600023087002000C9
:1019F200670881000130E70067082100DF070A302D
:101A020020006906031DA02C01302100DF025F08BF
:101A1200203E8600023087008101DF01583020001D
:101A2200AE009130AF002030B0000230B1008531FD
:101A320019258C3121006E030319242D2030923197
:101A4200AB228C31A02C8D302000A0009130A1005F
:101A52002030A2000230A3000330A4000030A50011
:101A6200883102208C31200020082104031D492DD9
:101A7200E830AE009030AF00220027082000B1000D
:101A8200220026082000B000853119258C31A02CB7
:101A9200A5302000A0009130A1002030A200023029
:101AA200A3000330A4000030A500883102208C314D
:101AB200200020082104031D622D92311A228C314C
:101AC200A02C75302000A0009130A1002030A2008F
:101AD2000230A3000330A4000030A50088310220A8
:101AE2008C31200020082104031D7B2D9131EB2134
:101AF2008C31A02C95302000A0009130A100203024
:101B0200A2000230A3000330A4000030A5008831F7
:101B120002208C31200020082104031DA02D9131C8
:101B2200E5218C31F2302000AE009030AF006D30F4
:101B3200B0009130B100853119258C31A02CA13033
:101B42002000A0009130A1002030A2000230A300AA
:101B52000330A4000030A500883102208C3120001F
:101B620020082104031DC22D2430A6000230A70044
:101B72008931E3218C3120002608923100228C31F8
:101B8200A02C9D302000A0009130A1002030A200A6
:101B92000230A3000330A4000030A50088310220E7
:101BA2008C31200020082104031DE82D1A30AE00DC
:101BB2009130AF0021005E082000E700E8016708CD
:101BC200B0006808B100853119258C31A02C69302C
:101BD2002000A0009130A1002030A2000230A3001A
:101BE2000330A4000030A500883102208C3120008F
:101BF20020082104031D0E2E2430A6000230A70067
:101C02008931E3218C3120002608E7006708EA00C9
:101C12006A08923166228C31A02C65302000A00027
:101C22009130A1002030A2000230A3000330A400B2
:101C32000030A500883102208C31200020082104C8
:101C4200031D392E9131E2218C312000E700670813
:101C5200EA00D430AE009030AF006A08E700E80135
:101C62006708B0006808B100853119258C31A02CB5
:101C720020309231AB228C31A02C79302000A00090
:101C82009130A1005B08A2000230A3000330A4003F
:101C92000030A500883102208E3120002008210466
:101CA200031D612E5B08043EA6000230A7008931A5
:101CB200E32120002608DC005C082100EE00080079
:101CC20091302000A0009130A1005B08A2000230F8
:101CD200A3000330A4000030A500883102208E3119
:101CE200200020082104031D792E96318A2608003F
:101CF20099302000A0009130A1005B08A2000230C0
:101D0200A3000330A4000030A500883102208E31E8
:101D1200200020082104031DA62E5B08043EA60015
:101D22000230A7008931E3218E3120002608DC0031
:101D32005C08EC001C306C02031C08002530AE006D
:101D42009030AF0085311925080085302000A000B1
:101D52009130A1005B08A2000230A3000330A4006E
:101D62000030A500883102208E3120002008210495
:101D7200031D022F1C306C020318FB2E5B08043E6D
:101D8200A6000230A7008931E3218E312000260807
:101D9200DC005C08E3006308DC005C08A0006C085F
:101DA200023E9331D1238E3120006308DC000430DF
:101DB200A0000030A1006C08DD00DE015D08A20079
:101DC2005E08A3008831E5208E3120002008DF0064
:101DD2000230DF35890BEA2EA0305F07E0006C0885
:101DE20003396007E10061088600013087005C0862
:101DF200810008000B30AE009030AF00853119250C
:101E0200080081302000A0009130A1005B08A200F0
:101E12000230A3000330A4000030A5008831022064
:101E22008E31200020082104031D8B2F4430AE0088
:101E32009130AF00853119258E312000E4011B302D
:101E4200640203187B2F6408013E0339031D432FEC
:101E5200A930AE009130AF000430A0000030A100E4
:101E62006408DC00DD015C08A2005D08A300883183
:101E7200E5208E3120002008DE000230DE35890B9D
:101E82003F2F5D2F71302000AE009130AF00043043
:101E9200A0000030A1006408DC00DD015C08A200A3
:101EA2005D08A3008831E5208E3120002008DE0085
:101EB2000230DE35890B5A2FA0305E07DF0064083E
:101EC20003395F07E00060088600013087000108DF
:101ED200E100E2016108B0006208B1008531192514
:101EE2008E3101302000DC005C08E4071B30640204
:101EF200031C242FDA30AE009030AF0023003B08E1
:101F02002000DC00DD015C08B0005D08B100853115
:101F1200192508007D302000A0009130A1005B0847
:101F2200A2000230A3000330A4000030A5008831D3
:101F320002208E31200020082104031DD22FE4014B
:101F42001C30640203180800A0016408023E9331A9
:101F5200D1238E3104302000A0000030A10064089B
:101F6200DC00DD015C08A2005D08A3008831E520E9
:101F72008E3120002008DE000230DE35890BBE2FB4
:101F8200A0305E07DF00640803395F07E0006008E5
:101F920086000130870081010130DC005C08E40723
:101FA200A12F8930A0009130A1005B08A20002306D
:101FB200A3000330A4000030A500883102208E3136
:101FC200200020082104031DF72F5B08043EA60011
:101FD2000230A7008931E3218E3120002608DC007F
:101FE2005C08E300630896310326080021006E03B3
:101FF2000319080020005B0897311A2708000134F2
:1020020000340A34003464340034E83403341034C5
:102012002734043421343A345734533443343A3471
:1020220050344F34533420344C34413452344734D6
:102032004534523420345434483441344E342034FC
:10204200323437340A34003421343A3450344F3481
:1020520053343A3450344F34533420344C344134B2
:1020620052344734453452342034543448344134A1
:102072004E342034323437340A34003421343A3482
:1020820025342534253464343A3455344E344434BA
:1020920045345434453443345434453444345F3441
:1020A2004434453456344934433445340A340034D4
:1020B20021343A344E344F342034413443344B3497
:1020C2002034463452344F344D342034493432347F
:1020D2004334203453344C344134563445340A3476
:1020E200003421343A344D34413450343A344E348D
:1020F2004F34203453344C34413456344534203434
:1021020046344F3455344E3444340A340034213486
:102112003A3425342534253464343A344E34453443
:10212200543457344F3452344B345F344534523480
:1021320052344F3452340A3400344234413443343A
:102142004B3450344C3441344E3445342D344D34B8
:1021520041345334543445345234003449344C34C9
:102162004C344534473441344C345F34543459345C
:10217200503445340A34003421343A34533454341C
:1021820050343A344E34413443344B340A340034FC
:102192002A343A345334543450343A344134433484
:1021A2004B340A34003424343A3452344434413403
:1021B2003A34253464340A3400342D3425346434FA
:1021C2002E3425343034323464340A340034243426
:1021D2003A34573448344F343A34253473340A3459
:1021E20000342A343A345334543450343A34253493
:1021F20073340A3400342D34253464342E342534B7
:102202003034323464342C340034553449344E344E
:102212005434313436345F3454343A340034243450
:102222003A34573448344F343A34253464340A3417
:10223200003424343A344734453454343A3425345F
:1022420064340A3400344E344F345F3444344134FD
:10225200543441340A340034553449344E345434FD
:1022620038345F3454343A34003446344C344F34C6
:10227200413454343A34003428346E3475346C3476
:102282006C342934003424343A34523453344334D1
:102292003A34003424343A344D34413450343A34EC
:1022A200003425342534253464343A34003423345C
:1022B200253473340A340034253475340A34003436
:1022C200253475342C3400345234443441340034CF
:1022D2005734443441340034413443344B340034B1
:1022E200253464342C3400345334543441340034AF
:1022F20049343234433400344334533443340034A5
:102302005234533443340034573453344334003456
:10231200533445344E340034573448344F34003447
:102322004D34413450340034533454345034003436
:1023320050344F3453340034473445345434003429
:102342005334453454340034533441345634003415
:10235200253464347C34003421340A3400348B3123
:102362005D2B8B318B2B8B31E22B8C31142C8C31EE
:10237200872C8C314A2C8C315F2C8C31872C8C3100
:0E238200662C8C318B2C8B31932B8B31B82B2E
:1023C4002100600808002200C20108000134013421
:1023D40006342200C201C20A08000B0C890C013920
:1023E40008002000A200220894311724080070304D
:1023F4002100990098011A1B0800FD292000A10062
:102404002108A00020082100DE0008002000210887
:102414002200AD00200020082200AC0008002000AB
:1024240021082200A900200020082200A80008009A
:1024340021005E082000A3002308A000013093318E
:10244400D123080021001508C03917389500200051
:1024540095012100E5010B110800640080010131A0
:102464000130FE020030FF3B7F087E040319003474
:10247400302A2000A0002008230091001513951392
:102484001514000000002300130808002000A10018
:10249400A0013A3021020318552A30302102031CCE
:1024A400552AA001A00A200C08002000A81F08003B
:1024B4002709A9002809AA00A90A0319AA0A2908B0
:1024C400A7002A08A80008002000A4002408A300EC
:1024D4002308A00000309331D12320002408A30056
:1024E40023082100E00008000530F70077082100E8
:1024F400EA070130EB02031D842A0430F700770851
:10250400EC000800EC01EC0A08002000A7002008F9
:10251400A200A3012708A400A5012408A500A40182
:1025240022082407A0002308253DA10008009331B8
:10253400922392319131F92192318731FC279231E2
:102544009331762392319231242292319231ED22C9
:1025540008002000E60022002C082D0403190800BE
:1025640020006608E5006508DB0022002D088A00CB
:102574002C080A009231080000302000AE00AF00A1
:102584000230C0004008B0009431B62492312000DB
:10259400C1004108C2004208031D08009531CB2543
:1025A4000800F8002400161521006908023E860080
:1025B4000130870001080319EB2A7808F70069083D
:1025C400023E8600013087000108860087017708F3
:1025D4008100EC010800210091121112083023003F
:1025E4009F0090309D0024309E0044309B009C014D
:1025F400F601F50140302000A0002008F400F301AA
:10260400F2012100E6019116080020002708AB0022
:102614002608AA002A0886002B08870028088400B8
:10262400023085000008C03F890803190800013002
:10263400AA070030AB3D0130A9002908A8070C2BDC
:1026440023009D1C272B1D121D161908F700730863
:10265400203E860003308700770881000130F700B0
:102664007708F307403073020318F3010130F700D1
:1026740077082100E6070800403074020318572B3E
:102684007508A03E860002308700010823009A00E6
:102694000130F7007708F507403075020318F5019B
:1026A4000130F7007708F407080021001112080030
:1026B4002000A401A501201C632B2208A4072308E1
:1026C400A53D0130A235A30D890B642B0130A13641
:1026D400A00C890B692B20082104031D5D2B250800
:1026E400A1002408A000080059302000A000200800
:1026F4002100DA0059302000A00020082100D90070
:10270400DB145B10DD018030240094002830950038
:1027140097014F309200200091112100911508007B
:1027240022008C018D018E013F3021008C00F0309D
:102734008D007F308E004F3023008E0020308D00BE
:1027440017308C0024008D013F308C00BF308E0088
:102754002100951322009E0184309D000800200072
:10276400A101210066080319B32B7208203E8600DC
:102774000330870001082000A0002008A1000130D8
:10278400A0002008F207403072020318F201210071
:1027940091120130E6029116200021080800200061
:1027A400A100A20121082300910020002008230099
:1027B400930095131513151500308B1B0130200061
:1027C400A2008B13553023009600AA30960095146E
:1027D4009518EA2B15112000220C031C8B130318E7
:1027E4008B1708002000A6002308A5002208A400D7
:1027F400A435A50D26088600013087002408C03FB3
:102804002508C13F2108A4002608023E86000130A5
:102814008700240881002608033E860001308700D3
:102824002008C03F0030C13F08002000A100740808
:102834000319192C2100111A242C2000210823002B
:102844009A00392C111220002108A0007608A03E1D
:10285400860002308700200881000130A000200893
:10286400F607403076020318F6010130F402210025
:102874001116080021005B185D2C20002908A10016
:102884002808A0002A08AE002E08A2002C08A400E4
:102894002B08A3004C309431E12494314C302000B7
:1028A400AE002E08A0002D08AF002F08A1000130B3
:1028B40089318C21080020002D08860087018101C0
:1028C400810A0800A0300032890B652C20003108F1
:1028D400B2003208A7002F08A9002E08A80035303E
:1028E400B3003308AA00300894318C2494310230A8
:1028F40020003506031D832CA0300032890B7F2C69
:10290400792C3508031D882CB4018A2CB401B40A2F
:10291400340808002000AD0021005B18AF2C200013
:102924002D08AB002B08A0002708AC002C08A10040
:102934002908A3002808A20051309331F4239431CC
:1029440051302000AB002B08A0002A08AC002C0852
:10295400A100013089318C21080020002A0886005A
:1029640087018101810A080020003008B100310884
:10297400B300A0300032890BBC2C2000A701A70AA9
:102984002F08A9002E08A8003430B1003108AA008D
:10299400333094318C249431023020003406031DEA
:1029A400D82CA0300032890BD42CCE2C3408031D33
:1029B400DD2CB201DF2CB201B20A3208080020007B
:1029C400A7002408A6002308A500A535A60D2708FE
:1029D4008600013087002508C03F2608C13F27082C
:1029E40086000130870001308104413100308104C8
:1029F4002208A5002708023E86000130870025082A
:102A040081002708033E8600013087002008C03F6C
:102A14002108C13F08002000280829040319352D86
:102A2400AD01AD0AA91B202D0130A835A90D890BD4
:102A3400172D0130AC002C08AD07142D29082B02EA
:102A4400031D262D28082A02031C2C2D2808AA025F
:102A54002908AB3B0130A936A80C890B2D2D013078
:102A6400AD02031D202D2B08A9002A08A800080088
:102A74008A31542295319231992295318B170B1753
:102A84009E302000A1009030A200A301A401A50162
:102A9400CE30A6000A30A700A801A80A88319320E6
:102AA40095313E302000A0000E30A1009231082262
:102AB4009531D2302000A0001630A10092311122AD
:102AC40095318C31A02480313C282000AF0008309F
:102AD400A0000030A1002F08A900AA012908A20023
:102AE4002A08A3008831E520953120002008AB0096
:102AF4002B08AC002F080739A9002908AD00AE0146
:102B04002C08203E8600013087000130A9002D0AE0
:102B14008C2DA935890B8B2D290801050319942DBA
:102B2400AE01AE0A2E0808002000A601A701200865
:102B340021040319C62DA501A50AA11BAB2D013043
:102B4400A035A10D890BA22D0130A4002408A507EE
:102B54009F2D0130A635A70D890BAC2D210823022A
:102B6400031DB62D20082202031CBD2D2008A2023D
:102B74002108A33B26140130A136A00C890BBE2DDD
:102B84000130A502031DAB2D2708A1002608A000D3
:102B9400080010302000BB003B08BF0021303F027A
:102BA400031808003F08BB00BC013B08B0003C0808
:102BB400B100B201B20ABC30B3000130B400B501B7
:102BC400B50A8931372195312000BD003D08BE008A
:102BD4003E08031DF82D23003C0820003F06031D7A
:102BE400F82D3F089731B2279531FD2D20003F087D
:102BF40097316527953101302000BB003B08BF07A2
:102C0400D02D2000DA005A08953167259631003A14
:102C1400031D1B2E3F302000AE009030AF005A0839
:102C2400D600D7015608B0005708B10085311925E0
:102C3400080020005A088631EE2696312000D6007E
:102C44005608D9005908031908008830AE0090309E
:102C5400AF005A08D600D7015608B0005708B10093
:102C640085311925963120005A08D600D701560817
:102C7400AE005708AF000C30D8005808B0009431AB
:102C8400B62408002000A601A31F4F2EA209A30901
:102C9400A20A0319A30AA601A60AA11F562EA00977
:102CA400A109A00A0319A10A2008210403197D2EF1
:102CB400A501A50AA11B682E0130A035A10D890B21
:102CC4005F2E0130A4002408A5075C2E21082302EE
:102CD400031D6E2E20082202031C742E2008A2025B
:102CE4002108A33B0130A136A00C890B752E0130BD
:102CF400A502031D682E26080319852EA209A3091F
:102D0400A20A0319A30A2308A1002208A0000800AC
:102D1400210064082000C4004408C70047080319C0
:102D2400CA2E0130C7024B30AE009130AF0085315E
:102D3400192596312000C601470846020318B92E0A
:102D44007130AE009130AF008731A2279631200058
:102D5400C400C5014408B0004508B10085311925F7
:102D6400963101302000C4004408C6079E2EDA3094
:102D7400AE009030AF008731A22796312000C40006
:102D8400C5014408B0004508B10085311925080083
:102D940072302000AE009030AF0085311925080054
:102DA40001302200B6070030B73D3C302000A800B7
:102DB4000030A900220037082000AB0022003608AA
:102DC4002000AA0095310D259631200028082904F9
:102DD400031DFF2E9231BE22963121006108803AF4
:102DE4007C3E0318E101610883312923013020006E
:102DF400C90049082100E107080058302000A80054
:102E04000230A900220037082000AB002200360857
:102E14002000AA0095310D259631200028082904A8
:102E2400031D08009531CB252200B601B701080027
:102E34002000B1000130AC002C082100ED076D0822
:102E4400803A7C3E0318ED016D082000AC00AD0112
:102E54002C08A0002D08A1003030A2000030A300EF
:102E640093315A23973130302000AE002330AF0025
:102E740020082E07860021082F3D87000108031D26
:102E8400080021006D082000AC00AD012C08A00052
:102E94002D08A1003030A2000030A30093315A2342
:102EA400973130302000AE002330AF0020082E07C9
:102EB400A60021082F3DA7003108B0003008A80063
:102EC4009331072308002000B000300803190800DC
:102ED40021303002031808000830A0000030A1009F
:102EE4003008A900AA012908A2002A08A3008831F1
:102EF400E520973120002008AB002B08AF003008F4
:102F04000739A9002908AC002F08203E86000130AB
:102F140087000108A9002908AD002F08203E86007B
:102F2400013087000130A9002C0A992FA935890B9B
:102F3400982F2908FF3A0105AA002A08AE002D0897
:102F44002E06031908002E08A9002F08203E86002B
:102F5400013087002908810001302100E4020800C3
:102F64002000B00030080319080021303002031893
:102F740008000830A0000030A1003008A900AA0110
:102F84002908A2002A08A3008831E52097312000EF
:102F94002008AB002B08AF0030080739A900290826
:102FA400AC002F08203E8600013087000108A900EC
:102FB4002908AD002F08203E86000130870001302B
:102FC400A9002C0AE62FA935890BE52F290801044D
:102FD400AA002A08AE002D082E06031908002E08A0
:102FE400A9002F08203E86000130870029088100AF
:0C2FF4000130A90029082100E4070800B2
:020000040001F9
:04000E00E4FFFFFF0D
:00000001FF
