:1000000080314828080055347E14803120007F0854
:10001000A0000B1F15282100111E15282000111EFD
:1000200015288B310323803143280B1F2128210001
:10003000911E21282000911E21288A31E82280313A
:1000400043280B1F2D282100911D2D282000911DD4
:100050002D288C313E24803143280B1F3928210064
:10006000941C39282000941C39288931F9218031C9
:1000700043280B1F43282100141C43282000141C74
:1000800043288331E92320002008FF007E10090067
:1000900080314A28803103208031FD0021008A31DF
:1000A0000C228031ED008A310D228031EE008A3140
:1000B0000E228031EF00FA01FB01FC016030840068
:1000C000003085000F308A3132228031A030840028
:1000D0000030850047308A31322280312030840060
:1000E0000130850040308A3132228031A0308400D6
:1000F0000130850030308A3132227E1020008D316F
:100100005D2D31302000B3003308BA0020003008E4
:10011000B4002F08B300AF0A0319B00A33088400F3
:10012000340885000008B5003508C20042080319EC
:100130000800253042060319A22842088A312C22E1
:10014000803186282000C001C101BF01AC283F15C5
:100150000130AF070030B03D2F0884003008850023
:100160000008303A0319A728B5282F088400300862
:10017000850000088A316F228031031C5629200037
:10018000C001C1010A302000A1000030A2004108D6
:10019000A4004008A3008B311E23803120002208D8
:1001A000C1002108C0002F08840030088500000825
:1001B000D03EB300FF3003180030B4003308C0074E
:1001C0003408C13D0130AF070030B03D2F08840036
:1001D0003008850000088A316F228031031C5629BF
:1001E000C22820003A0886008701403FB800413FFE
:1001F000B9000230B3003308BA0738083904031DC8
:1002000005294E30B8008730B900BD01BE0138085D
:100210003D07840039083E3D850012000319152969
:100220000130BD070030BE3D072941083E02031DD5
:100230001B2940083D02031822293D08C0023E0840
:10024000C13B2429C001C101FF302000C007FF309D
:10025000C13D400A0319410A0319402920308A315F
:100260002C228031242938088400390885000008B0
:100270008A312C22803101302000B8070030B93D8E
:100280000130BD020030BE3B3D0A031D33293E0A4A
:100290000319862833294230B8000030B9000130F4
:1002A000BD000030BE0015293F177429200030081A
:1002B000B4002F08B300AF0A0319B00A3308840052
:1002C000340885000008C200003A0319552A643A30
:1002D000031974290D3A031974291A3A0319F128DC
:1002E000063A031954294B2920003F1B8E293A084E
:1002F00086008701403FBB00413FBC000230B30095
:100300003308BA07BC1F99290330B3003308BF0470
:10031000BB09BC09BB0A0319BC0A99293A08860023
:100320008701403FBB00413FBC000230B3003308AF
:10033000BA07C201C20A053042060319BE294208A3
:10034000B300B401B335B40DCB303307840086302D
:10035000343D8500003FB500013FB60036083C0241
:10036000031DB42935083B02031CBE290130B3002C
:100370003308C20705304206031D9F294008410487
:100380000319CA293F0803390319CA29FF30C007D6
:10039000FF30C13D4208B300B401B31BB4033408BD
:1003A000803AB5004108803A3502031DD92940083A
:1003B00033020318E62920004208B300B401B31B3E
:1003C000B4033308C0023408C13BE9292000C0014E
:1003D000C1013F1D022A3F0803390319F3292D30BB
:1003E0008A312C22803120004008410403191B2A45
:1003F00030308A312C228031FF302000C007FF309E
:10040000C13DF429400841040319132A20308A31E0
:100410002C228031FF302000C007FF30C13D400852
:100420004104031D062A3F08033903191B2A2D30F6
:100430008A312C22803120004208B3003308B700F3
:10044000FF302000B3003308B707370A03198628A6
:100450000A30A9000030AA003708B300B401B33550
:10046000B40DCB30330784008630343D8500003F27
:10047000A100013FA2003C08A4003B08A3008D316D
:10048000BB25803120002208AC002108AB008D3153
:100490003025803120002908303EB5003508C200E3
:1004A00042088A312C228031202A08008A311F22FA
:1004B00082312000DD005D082100BC003C080319EA
:1004C000832A0B11320833040319832A01302000D8
:1004D000DD005D082100BD072000660821003D0207
:1004E000031C832ABD0101302000DD005D082100CE
:1004F000BE076D083E02031C832A40080319822AA6
:10050000BF01BF0ABE013F080319912A3208330414
:100510000319912A33088A0032080A008231210027
:10052000BF01200067080319562A8B3175238231D9
:100530002000DD005D082200E20062082000DD00EE
:1005400021004208203E86000130870020005D081F
:1005500081000130DD005D082100C2070A30220061
:100560006206031D562A01302100C2024208203EC5
:100570008600013087008101C2015B302000AF009E
:100580008730B0002030B1000130B20080318120CE
:10059000823121006E030319D22A203080310220DB
:1005A0008231562A7C302000A1008730A200203002
:1005B000DD005D08A3000330A4000030A5008D31EC
:1005C000F0258231200021082204031DF72A033080
:1005D000AF008730B000220061082000B200220086
:1005E00060082000B100803181208231562A8C3091
:1005F0002000A1008730A2002030DD005D08A300AC
:100600000330A4000030A5008D31F0258231200098
:1006100021082204031D102B8A314F228231562AD1
:1006200074302000A1008730A2002030DD005D087A
:10063000A3000330A4000030A5008D31F0258231E5
:10064000200021082204031D292B8A311B2282311C
:10065000562A80302000A1008730A2002030DD0023
:100660005D08A3000330A4000030A5008D31F02503
:100670008231200021082204031D4E2B8A310922D9
:1006800082310D302000AF008730B0007830B100EB
:100690008730B200803181208231562A8830200094
:1006A000A1008730A2002030DD005D08A3000330E8
:1006B000A4000030A5008D31F025823120002108F2
:1006C0002204031D6D2B24308F310D278231200031
:1006D00027088A313F228231562A84302000A10027
:1006E0008730A2002030DD005D08A3000330A400A5
:1006F0000030A5008D31F025823120002108220430
:10070000031D912BEF30AF008630B0006608DD008E
:10071000DE015D08B1005E08B200803181208231C7
:10072000562A70302000A1008730A2002030DD0062
:100730005D08A3000330A4000030A5008D31F02532
:100740008231200021082204031DB52B24308F3173
:100750000D27823120002708DD005D082200E3001C
:1007600063088A318D228231562A6C302000A10024
:100770008730A2002030DD005D08A3000330A40014
:100780000030A5008D31F02582312000210822049F
:10079000031DE42B8A31062282312000DD005D0832
:1007A0002200E300E5302000AF008630B0002200D8
:1007B00063082000DD00DE015D08B1005E08B200C4
:1007C000803181208231562A2030803102208231CE
:1007D000562A2000141024009D1F2C2D9D1321004B
:1007E000C90120006A08023E8600870101088600D0
:1007F00087018101810AEA0108002000E21808004F
:100800006108F2007208EA006108860087010108A9
:10081000F20072082100C8002000610886008701EC
:10082000413FEB000330F2007208E1076108E13A52
:10083000031D1E2CDE30F2007208E1006210610818
:1008400060060319E21424001E140230F20072083C
:100850002100C900080024009E140230F200720832
:100860002100C900080024001E1F3F2C0130F200A7
:1008700072082000E40704308A31B5220800200005
:100880006E08F3006D08F200F336F20C72082400D3
:10089000990020006D1C522C0B30F20072082100D0
:1008A000C90008000330F20072082100C9000800E6
:1008B00024001E1F642C0130F20072082000E4079F
:1008C00004308A31B52208009E1420006E08F3001F
:1008D0006D08F2007308F200F30106307205F400AF
:1008E00000307305F500F0307404ED00003075043D
:1008F000EE006D142100C501C50A0230F200720835
:10090000C9000800450303199A2C20006B088600D3
:100910008701403FED00413FEE006B0886008701F4
:10092000433F2100C70020006B0886008701423F3B
:100930002100C60020006D082400990020006D1CD5
:10094000A72C0530F20072082100C900080003300E
:10095000F20072082100C900080024001E1FBB2CF1
:100960000130F20072082000E40724001E13053055
:100970008A31B522080001302100C602460A031D53
:10098000D72C0430F20072082000EB070130210060
:10099000C802031DCF2C00308A31B5220800240084
:1009A0009E140230F20072082100C90008004708B6
:1009B000860087010108240099000130F2007208C6
:1009C0002100C707080024001E1FF12C0130F2008F
:1009D00072082000E40704308A31B52224001E1377
:1009E00008009E150830F20072082100C9000800B6
:1009F0000830F2007208C90024009E150800240087
:100A00001908F2002100470886008701720881005A
:100A10000130F2007208C7070130C6020319182D11
:100A200024009E120630F20072082100C9001C2D1D
:100A300024009E168731EE2724001E160800003081
:100A40008A31B52208000130F20072082000E40764
:100A500006308A31B52208002100490884000C3094
:100A600004020318232D88310435003E820008005B
:100A7000F700F82D2100CC01CC0A08000230F40068
:100A800074082100CC0008007D088A3138228531A5
:100A9000B82D8A3117228531D12D8A310322853133
:100AA000D12D8A3146228531D12D8A3113228531CB
:100AB000D12D8A3158228531D12DEC01EC0AD12D6E
:100AC0000230F40074089A2D7D08033A0319512D61
:100AD000073A0319492D013A03194D2D033A031919
:100AE000552D0E3A03195D2D023A0319602D063A71
:100AF0000319592DD12DD12D20006C08003A03196E
:100B0000642D013A0319442DD12DD12D02307D06DB
:100B1000031DD12D240096138A310F228531D12D4A
:100B20007D08F40074082100CB00CA010330F400F2
:100B300074082000EC00D12D7D08F40021004A0843
:100B4000A03E860001308700740881000130F40067
:100B50007408CA074B084A02031CD12D8A310022AF
:100B60008531003A031DB82DA0308931F821853137
:100B70002000EC01D12D20006C08023A0319902DC1
:100B8000013A03199C2DD12DD12D21004C08003A9A
:100B90000319BB2D013A03197C2D033A0319862D45
:100BA000D12D2100CC0108008931FD2124009100C4
:100BB00008008E3132267108F6007008F5007508BD
:100BC000860076088700010824009100080089311A
:100BD000FA212400910008007D08013A0319D42D60
:100BE000063A0319D92D0E3A0319E72D022E0800F3
:100BF00077088400053004020318080088310435A2
:100C0000183E8200080022000E0D0E0D0139200052
:100C1000C7000130C706C70CC70C22000E08200011
:100C200047067F39470622008E0045302000AF007E
:100C30000030B0002C30C7004708B1000630C800B3
:100C40004808B2008C31652486312000C90049086B
:100C5000CC004530AF000030B0004D30C700470831
:100C6000B1000630C8004808B2008D310425863135
:100C70002000C9004908CC004E08C700C8014D0833
:100C8000C900CA014908CA00C90147084907D30079
:100C900048084A3DD400D501D6015108C700C80113
:100CA0005008C900CA014908CA00C90147084907D4
:100CB000D70048084A3DD800D901DA01D530840070
:100CC00086308500003FC700013FC8004708AD00DF
:100CD0004808AE00AF01B0015608A4005508A300B3
:100CE0005408A2005308A1000030A8000030A7005B
:100CF0000030A600AF30A5008D318B258631200055
:100D00002408B4002308B3002208B2002108B1006F
:100D10008F317E27863120002D08D33EC900490837
:100D2000DB00D530840086308500003FC700013FDE
:100D3000C8004708AD004808AE00AF01B0015A082E
:100D4000A4005908A3005808A2005708A1000030C9
:100D5000A8000030A7000030A6006430A5008D3147
:100D60008B25863120002408B4002308B300220814
:100D7000B2002108B1008F317E27863120002D0876
:100D8000C9004908DC005B30C7004708C3000230D7
:100D9000873190270800013400340A340034643469
:100DA0000034E834033410342734FF34FF3449343A
:100DB0004C344C344534473441344C345F3454342F
:100DC0005934503445340A34003424343A345234DB
:100DD000443441343A34253464340A3400342434FD
:100DE0003A344734453454343A34253464340A347C
:100DF00000342D34253464342E34253430343234E8
:100E000064340A34003424343A34573448344F3488
:100E10003A34253473340A3400342A343A3453349F
:100E2000543450343A34253473340A3400342D3475
:100E3000253464342E3425343034323464342C3444
:100E40000034553449344E345434313436345F34FC
:100E500054343A3400345334483454343334313411
:100E60005F3444344934533400344E344F345F34A7
:100E700044344134543441340A3400345534493410
:100E80004E34543438345F3454343A3400344634B5
:100E90004C344F34413454343A34003428346E34B2
:100EA00075346C346C3429340034253425342534BD
:100EB00064343A3400342334253473340A3400342F
:100EC000253475340A340034253464342C34003429
:100ED000253475342C3400345234443441340034D5
:100EE000573444344134003453345434413400349E
:100EF000413443344B340034573448344F34003495
:100F0000533454345034003447344534543400346A
:100F1000533445345434003453344134563400345B
:100F20002000C60021003A080319BC2F2000E5016B
:100F3000460865020318B02F65084307C40044083B
:100F4000860087010108C5006508503E8600013013
:100F50008700450881000130C4004408E507982F48
:100F60004608C4004408A1005030A2000130A3008C
:100F700002308B31D523080001302000C602E50184
:100F8000460865020318DC2F6430AF008730B000DC
:100F900065084307C4004408860087010108B100C2
:100FA000B201B11BB20380318120873101302000B2
:100FB000C4004408E507C02FEB30AF008630B00016
:100FC00065084307C4004408860087010108B10092
:100FD000B201B11BB2038031812008000430F0005F
:100FE00070082000EB0701302100C802031DFD2F0F
:100FF0000430F0007008C9000800C901C90A0800DF
:101000008331FD2B84312B2C8431822C8431AD2C07
:1010100085311F2D8431E32C8431F82C85311F2D2F
:101020008431FF2C8531232D8431332C8431582C8D
:1010300085313A2D8531EC2D8531C52D8631022E35
:0410400085313E2D8B
:1013F00008000800200066080800210043080800D3
:101400002100410808002100C00108002100430814
:1014100008002100C0010800013401340634210015
:10142000BA01BA0A08002100BF01BF0A0800210062
:10143000C001C00A08002100C001C00A08000B0C4E
:10144000890C013908001630210097000800683027
:1014500021009900980108002000A30023088C3186
:101460001A240800640080010131890B332A0034FA
:10147000F1007108F00070082000E600080020006C
:10148000A2002208A1002108E6000800200066084A
:10149000F3007308F00001308B313A23080020007C
:1014A0006608A4002408A10001308B31F72308004E
:1014B0002100510803190800D2010330F000700820
:1014C000D10008002000A10021082300910015137D
:1014D00095131514000000002300130808002000D5
:1014E000A200A1013A30220203187C2A30302202E5
:1014F000031C7C2AA101A10A210C08002100150867
:10150000C039143895000630200095000630A1003F
:1015100021082100C4000B1108002000A5002508A7
:10152000A4002408A10000308B31F72320002508F7
:10153000A40024082100C3000800DE302000A10020
:101540002108E100DE30A1002108E000E214621071
:10155000E40124009C0128309D009F0109309A007D
:1015600020001410210014140800F10024001E159E
:1015700020006A08023E8600870101080319CB2A71
:101580007108F0006A08023E8600870101088600A3
:101590008701700881002100C90108002100911213
:1015A0001112083023009F0090309D0024309E00CF
:1015B00067309B009C01FC01FB0108302000A1006A
:1015C0002108FA00E901E801E7012100911608006D
:1015D00023009D1CED2A1D121D161908F000200085
:1015E0006908A03E86008701700881000130F00084
:1015F0007008E907083069020318E9010130F000BA
:101600007008E707080008307A0203181B2B7B08D4
:10161000A83E86008701010823009A000130F000EF
:101620007008FB0708307B020318FB010130F00053
:101630007008FA0708002100111208002000A50117
:10164000A601211C272B2308A5072408A63D01304D
:10165000A335A40D890B282B0130A236A10C890BD0
:101660002D2B21082204031D212B2608A20025086A
:10167000A1000800F100F201710823009100700838
:10168000930095131513151500308B1B0130F200D4
:101690008B1355309600AA309600951495184E2B52
:1016A0001511720C031C8B1303188B1708002200F2
:1016B0008C018D018E013F3021008C00F0308D00B7
:1016C0007F308E004F3023008E008D0117308C004C
:1016D00024008D013F308C007F308E002100951357
:1016E00022009E0184309D0008002000A2016708AE
:1016F0000319772B6808A03E860087010108A10026
:101700002108A2000130A1002108E8070830680282
:101710000318E8012100911201302000E7022100A6
:1017200091162000220808002000A7002408A60027
:101730002308A500A535A60D2708860087012508E2
:10174000C03F2608C13F2208A5002708023E8600A8
:101750008701250881002108A5002708033E86008F
:1017600087012508810008000B302000A2002630E8
:10177000A1005D30890BBA2BA10BBA2BA20BBA2B9F
:10178000003280302400940026309500813096008D
:101790009701FE3093008A31062209072400920047
:1017A000200091112100911508002000A5002100C2
:1017B00051082000A4002408A60003302606031DBB
:1017C00008002508A40024082100CD0020002108DD
:1017D000A40024082100CE00200023082100D0000E
:1017E000200022082100CF00D201D10108002000F2
:1017F000A200A30122082300910020002108230059
:10180000930095131513151500308B1B0130200024
:10181000A3008B13553023009600AA309600951430
:101820009518102C15112000230C031C8B13031882
:101830008B1708002000A2007A0803191C2C210035
:10184000111A272C2000220823009A003B2C111289
:1018500020002208A1007C08A83E860087012108FC
:1018600081000130A1002108FC0708307C02031828
:10187000FC010130FA022100111608005530F80071
:101880007808F9002000911124001108F800780868
:10189000F900141D522C941A161F502C0330602C82
:1018A0000130602C941A5B2C7908031D592C0430EC
:1018B000602C0030602C7908F8007808FD000230B8
:1018C0008531382524001516080020003108B300A2
:1018D0003308B5003208B3003308B6000230B30055
:1018E0003308A8003008AA002F08A9003830B40037
:1018F0003408AB0035308C31DC248C3102302000D0
:10190000380603197E2C3808031D882CB7018A2C51
:10191000B701B70A370808002000A7002408A6006E
:101920002308A500A535A60D2708860087012508F0
:10193000C03F2608C13F2708860087010130810487
:101940004131003081042208A5002708023E8600AC
:101950008701250881002108A5002708033E86008D
:1019600087012508810008002000AE006218D52CF0
:101970002E08AC002C08A1002808AD002D08A200FC
:101980002A08A4002908A300D3308C318C248C3180
:10199000D3302000AC002C08A1002B08AD002D088E
:1019A000A20001308E317526080020002B08860029
:1019B00087018101810A08002000AE006218FD2C19
:1019C0002E08AC002C08A1002808AD002D08A200AC
:1019D0002A08A4002908A300D7308B3194238C3126
:1019E000D7302000AC002C08A1002B08AD002D083A
:1019F000A20001308E317526080020002B088600D9
:101A000087018101810A080002302000B3003308F9
:101A1000B600B501B50A370303192E2D3208B300FD
:101A20003308A8003008AA002F08A9003730B400F6
:101A30003408AB0031088C31B4248D3102302000E1
:101A4000370603191E2D3708031D282DB6012E2D2C
:101A50000130B502031D0B2DB601B60A3608080089
:101A6000200029082A040319582DAE01AE0AAA1B2A
:101A7000432D0130A935AA0D890B3A2D0130AD0057
:101A80002D08AE07372D2A082C02031D492D2908E1
:101A90002B02031C4F2D2908AB022A08AC3B013056
:101AA000AA36A90C890B502D0130AE02031D432D1F
:101AB0002C08AA002B08A90008002B302000A20047
:101AC0008730A300A401A501A6010330A7000630BA
:101AD000A8007D30DF005F08A9008E31BC268D3163
:101AE0008B3157238D318A3127228D318A31232240
:101AF0008D318A317E228D318B170B178A31CE22A0
:101B00008D318A319D228D318B31B4238D318231DB
:101B100056228031482800302000AC000030AB0055
:101B20000030AA000030A900211C9E2D2508A9071D
:101B30002608AA3D2708AB3D2808AC3D0130A53555
:101B4000A60DA70DA80D890B9F2D0130A436A30C5F
:101B5000A20CA10C890BA62D240823042204210425
:101B6000031D942D2C08A4002B08A3002A08A20012
:101B70002908A10008002000A701A80121082204CB
:101B80000319EB2DA601A60AA21BD02D0130A13509
:101B9000A20D890BC72D0130A5002508A607C42D6D
:101BA0000130A735A80D890BD12D22082402031D71
:101BB000DB2D21082302031CE22D2108A3022208A9
:101BC000A43B27140130A236A10C890BE32D013070
:101BD000A602031DD02D2808A2002708A100080096
:101BE00001302000A4020030A53B240A0319250A75
:101BF00003192F2E200021088400220885001200DE
:101C000003190E2E23088600013087002108840066
:101C100022088500000801060319262E23088600E5
:101C2000013087000108A600A701A609A709A60A96
:101C30000319A70A21088400220885000008260746
:101C4000A10027080318270AA20008000130A107F5
:101C50000030A23D0130A6002608A307F02DA10107
:101C6000A2010800612ECD30F2000030F300210007
:101C7000D101D10A702ECE30F2000030F3000230D4
:101C8000582E4E0852020318522E5208F000F1014D
:101C900070084F07F2007108503DF3000130F0006A
:101CA0007008D20752084E06031D702ED201033071
:101CB000F0007008D100702EEF30F2000030F30019
:101CC000702E21005108003A0319332E013A0319EE
:101CD0003B2E033A0319412E013A03195C2E702E54
:101CE0007308F1007208F00008002000A4006218D8
:101CF000A92E0230A3002208860087012308810054
:101D00002108A300600A86008701230881002408B7
:101D1000A300600886008701230881002208A30031
:101D20006008023E86008701230881000330A3007B
:101D30002308E0076008E13A031DA22EDE30A3006D
:101D40002308E000E21061086006031DAE2E621455
:101D5000AE2E2208860087018101810A22088600B2
:101D6000870102300106031D080021004908031DF8
:101D7000B52E200014140800200023082200E100E2
:101D8000200022082200E00020002408AA000030E1
:101D9000AB002A082100EB0020002B082100EC00FA
:101DA00020002508AA000030AB002A082100E90025
:101DB00020002B082100EA0020002608AA0000309D
:101DC000AB002A082100E70020002B082100E800D2
:101DD00001308A3162228E312000AA002A08E600F2
:101DE00000308A3162222000AA002A082100C300A4
:101DF00003302000AA002A082100D1002000280872
:101E00002100B300200027082100B200200029088B
:101E1000AA002A082100ED0008002000AE002E08CC
:101E200086000130870020300106031D1C2F013081
:101E3000A9002908AE070F2F2E0886000130870061
:101E4000093001060319172FAC01AD01AB012E08B3
:101E50008600013087002D300106031D342F01302C
:101E6000A9002908AB073C2F2E0886000130870007
:101E70002B300106031D402F0130A9002908AE07B1
:101E80002E0886000130870001088A316F228F31C9
:101E9000031C692F20002D08A2002C08A1000A3085
:101EA000A3000030A4008B311E238F3120002E08A8
:101EB00086000130870001082107A90022080318C5
:101EC000220AAA002908D03EAC00FF302A3DAD000E
:101ED0003C2F20002B080319792F2C09A9002D096C
:101EE000AA00A90A0319AA0A2908A7002A08A80013
:101EF00008002D08A8002C08A70008002000B70142
:101F0000B01F8F2FAD09AE09AF09B009AD0A031993
:101F1000AE0A0319AF0A0319B00AB701B70AB41F12
:101F2000A02FB109B209B309B409B10A0319B20A61
:101F30000319B30A0319B40A0130B5003508B7060E
:101F40000030BB000030BA000030B9000030B800EB
:101F500030082F042E042D040319E92FB601B60A08
:101F6000B01BBE2F0130AD35AE0DAF0DB00D890BDE
:101F7000B32F0130B5003508B607B02F0130B835A2
:101F8000B90DBA0DBB0D890BBF2F30083402031DEC
:101F9000D32F2F083302031DD32F2E083202031D27
:101FA000D32F2D083102031CDE2F2D08B1022E087D
:101FB000B23B2F08B33B3008B43B38140130B03685
:101FC000AF0CAE0CAD0C890BDF2F0130B602031D38
:101FD000BE2F37080319F72FB809B909BA09BB0989
:101FE000B80A0319B90A0319BA0A0319BB0A3B084C
:101FF000B0003A08AF003908AE003808AD0008005C
:020000040001F9
:04000E00E4FFFFFF0D
:00000001FF
