:1000000080314828080008007E14803120007F08D5
:10001000A0000B1F15282100111E15282000111EFD
:1000200015288A31F922803143280B1F212821000D
:10003000911E21282000911E21288B31142380310C
:1000400043280B1F2D282100911D2D282000911DD4
:100050002D288C315124803143280B1F3928210051
:10006000941C39282000941C3928803102208031CA
:1000700043280B1F43282100141C43282000141C74
:1000800043288331E72320002008FF007E10090069
:1000900080314A288731FF278031FD0021008A31D5
:1000A0000B228031E9008A310C228031EA008A314A
:1000B0000D228031EB00FA01FB01FC01603084006D
:1000C000003085000F308A3131228031A030840029
:1000D0000030850041308A31312280312030840067
:1000E0000130850048308A3131228031A0308400CF
:1000F0000130850030308A3131227E1020008D3170
:10010000702D31302000B3003308BA0020003008D1
:10011000B4002F08B300AF0A0319B00A33088400F3
:10012000340885000008B5003508C20042080319EC
:100130000800253042060319A22842088A312B22E2
:10014000803186282000C001C101BF01AC283F15C5
:100150000130AF070030B03D2F0884003008850023
:100160000008303A0319A728B5282F088400300862
:10017000850000088A316E228031031C5629200038
:10018000C001C1010A302000A1000030A2004108D6
:10019000A4004008A3008B313023803120002208C6
:1001A000C1002108C0002F08840030088500000825
:1001B000D03EB300FF3003180030B4003308C0074E
:1001C0003408C13D0130AF070030B03D2F08840036
:1001D0003008850000088A316E228031031C5629C0
:1001E000C22820003A0886008701403FB800413FFE
:1001F000B9000230B3003308BA0738083904031DC8
:1002000005294C30B8008730B900BD01BE0138085F
:100210003D07840039083E3D850012000319152969
:100220000130BD070030BE3D072941083E02031DD5
:100230001B2940083D02031822293D08C0023E0840
:10024000C13B2429C001C101FF302000C007FF309D
:10025000C13D400A0319410A0319402920308A315F
:100260002B228031242938088400390885000008B1
:100270008A312B22803101302000B8070030B93D8F
:100280000130BD020030BE3B3D0A031D33293E0A4A
:100290000319862833294230B8000030B9000130F4
:1002A000BD000030BE0015293F177429200030081A
:1002B000B4002F08B300AF0A0319B00A3308840052
:1002C000340885000008C200003A0319552A643A30
:1002D000031974290D3A031974291A3A0319F128DC
:1002E000063A031954294B2920003F1B8E293A084E
:1002F00086008701403FBB00413FBC000230B30095
:100300003308BA07BC1F99290330B3003308BF0470
:10031000BB09BC09BB0A0319BC0A99293A08860023
:100320008701403FBB00413FBC000230B3003308AF
:10033000BA07C201C20A053042060319BE294208A3
:10034000B300B401B335B40DC9303307840086302F
:10035000343D8500003FB500013FB60036083C0241
:10036000031DB42935083B02031CBE290130B3002C
:100370003308C20705304206031D9F294008410487
:100380000319CA293F0803390319CA29FF30C007D6
:10039000FF30C13D4208B300B401B31BB4033408BD
:1003A000803AB5004108803A3502031DD92940083A
:1003B00033020318E62920004208B300B401B31B3E
:1003C000B4033308C0023408C13BE9292000C0014E
:1003D000C1013F1D022A3F0803390319F3292D30BB
:1003E0008A312B22803120004008410403191B2A46
:1003F00030308A312B228031FF302000C007FF309F
:10040000C13DF429400841040319132A20308A31E0
:100410002B228031FF302000C007FF30C13D400853
:100420004104031D062A3F08033903191B2A2D30F6
:100430008A312B22803120004208B3003308B700F4
:10044000FF302000B3003308B707370A03198628A6
:100450000A30A9000030AA003708B300B401B33550
:10046000B40DC930330784008630343D8500003F29
:10047000A100013FA2003C08A4003B08A3008D316D
:10048000CE25803120002208AC002108AB008D3140
:100490004325803120002908303EB5003508C200D0
:1004A00042088A312B228031202A08008A311E22FC
:1004B00082312000DD005D082100B60036080319F6
:1004C000832A0B112C082D040319832A01302000E4
:1004D000DD005D082100B707200066082100370213
:1004E000031C832AB70101302000DD005D082100D4
:1004F000B80769083802031C832A3A080319822ABC
:10050000B901B90AB80139080319912A2C082D0438
:100510000319912A2D088A002C080A008231210033
:10052000B901200067080319562A8B3187238231CD
:100530002000DD005D082100EC006C082000DD00DB
:1005400021003C08283E86000130870020005D081D
:1005500081000130DD005D082100BC070A306C0617
:10056000031D562A0130BC023C08283E860001309B
:1005700087008101BC0159302000AF008730B000F6
:100580002830B1000130B200803181208231210059
:100590006A030319D02A2830803103208231562A79
:1005A0007A302000A1008730A2002830DD005D08ED
:1005B000A3000330A4000030A5008E310326823151
:1005C000200021082204031DF52A0130AF008730E6
:1005D000B000210062082000B20021006108200064
:1005E000B100803181208231562A8A302000A1005A
:1005F0008730A2002830DD005D08A3000330A4008E
:100600000030A5008E31032682312000210822040B
:10061000031D0E2B8A314E228231562A7230200061
:10062000A1008730A2002830DD005D08A300033060
:10063000A4000030A5008E3103268231200021085D
:100640002204031D272B8A311A228231562A7E303A
:100650002000A1008730A2002830DD005D08A30043
:100660000330A4000030A5008E3103268231200023
:1006700021082204031D4C2B8A31082282310B30C1
:100680002000AF008730B0007630B1008730B20074
:10069000803181208231562A86302000A1008730A7
:1006A000A2002830DD005D08A3000330A400003064
:1006B000A5008E3103268231200021082204031D6B
:1006C0006B2B2C3087318E278231200027088A310E
:1006D0003E228231562A82302000A1008730A200BB
:1006E0002830DD005D08A3000330A4000030A50021
:1006F0008E3103268231200021082204031D8F2B16
:10070000ED30AF008630B0006608DD00DE015D0828
:10071000B1005E08B200803181208231562A6E30ED
:100720002000A1008730A2002830DD005D08A30072
:100730000330A4000030A5008E3103268231200052
:1007400021082204031DB32B2C3087318E278231E0
:1007500020002708DD005D082100ED006D088A31CA
:100760008C228231562A6A302000A1008730A200F4
:100770002830DD005D08A3000330A4000030A50090
:100780008E3103268231200021082204031DE22B32
:100790008A31052282312000DD005D082100ED0054
:1007A000E3302000AF008630B00021006D0820004B
:1007B000DD00DE015D08B1005E08B20080318120FD
:1007C0008231562A2830803103208231562A200077
:1007D000141024009D1F2A2D9D132100C301200009
:1007E0006A08023E860087010108860087018101B0
:1007F000810AEA0108002000E21808006108F200FE
:100800007208EA006108860087010108F200720898
:100810002100C2002000610886008701413FEB00F3
:100820000330F2007208E1076108DB3A031D1C2C5B
:10083000D830F2007208E100621061086006031906
:10084000E21424001E140230F20072082100C300DA
:10085000080024009E140230F20072082100C30038
:10086000080024001E1F3D2C0130F20072082000F9
:10087000E40704308A31C622080020006E08F30025
:100880006D08F200F336F20C720824009900200083
:100890006D1C502C0B30F20072082100C3000800C0
:1008A0000330F20072082100C300080024001E1F5C
:1008B000622C0130F20072082000E40704308A3113
:1008C000C62208009E1420006E08F3006D08F20096
:1008D0007308F200F30106307205F400003073056E
:1008E000F500F0307404ED0000307504EE006D1476
:1008F0002100BF01BF0A0230F2007208C3000800E5
:100900003F030319982C20006B0886008701403FA5
:10091000ED00413FEE006B0886008701433F210058
:10092000C10020006B0886008701423F2100C00003
:1009300020006D082400990020006D1CA52C0530B6
:10094000F20072082100C30008000330F2007208B0
:100950002100C300080024001E1FB92C0130F20042
:1009600072082000E40724001E1305308A31C622D5
:10097000080001302100C002400A031DD52C0430BC
:10098000F20072082000EB0701302100C202031DB3
:10099000CD2C00308A31C622080024009E1402307B
:1009A000F20072082100C300080041088600870198
:1009B0000108240099000130F20072082100C107EB
:1009C000080024001E1FEF2C0130F20072082000E6
:1009D000E40704308A31C62224001E1308009E1545
:1009E0000830F20072082100C30008000830F2004D
:1009F0007208C30024009E15080024001908F200A4
:100A00002100410886008701720881000130F20050
:100A10007208C1070130C0020319162D24009E126E
:100A20000630F20072082100C3001A2D24009E1621
:100A30008A319C2224001E16080000308A31C6220A
:100A400008000130F20072082000E40706308A3105
:100A5000C62208002100430884000C300402031859
:100A6000212D88310435003E82000800F700F62D64
:100A70002100C601C60A08000230F40074082100F3
:100A8000C60008007D088A3137228531B62D8A31AB
:100A900016228531CF2D8A3102228531CF2D8A3120
:100AA00045228531CF2D8A3112228531CF2D8A31D1
:100AB00057228531CF2DEC01EC0ACF2D0230F40006
:100AC0007408982D7D08033A03194F2D073A03192E
:100AD000472D013A03194B2D033A0319532D0E3AB2
:100AE00003195B2D023A03195E2D063A0319572D9F
:100AF000CF2DCF2D20006C08003A0319622D013A4A
:100B00000319422DCF2DCF2D02307D06031DCF2D91
:100B1000240096138A310E228531CF2D7D08F400F2
:100B200074082100C500C4010330F40074082000DB
:100B3000EC00CF2D7D08F40021004408A03E860083
:100B400001308700740881000130F4007408C40784
:100B500045084402031CCF2D8931FF218531003A1D
:100B6000031DB62DA0308931F82185312000EC011C
:100B7000CF2D20006C08023A03198E2D013A03197B
:100B80009A2DCF2DCF2D21004608003A0319B92DFB
:100B9000013A03197A2D033A0319842DCF2D210030
:100BA000C60108008931FC212400910008008E3123
:100BB00045267108F6007008F5007508860076086D
:100BC000870001082400910008008931F9212400E0
:100BD000910008007D08013A0319D22D063A031945
:100BE000D72D0E3A0319E52D002E08007708840052
:100BF000053004020318080088310435183E8200CD
:100C0000080022000E0D0E0D01392000C700013032
:100C1000C706C70CC70C22000E08200047067F3904
:100C2000470622008E0045302000AF000030B000A3
:100C30002C30C7004708B1000630C8004808B20091
:100C40008C31782486312000C9004908CC00453019
:100C5000AF000030B0004D30C7004708B10006308B
:100C6000C8004808B2008D31172586312000C90020
:100C70004908CC004E08C700C8014D08C900CA0188
:100C80004908CA00C90147084907D30048084A3D36
:100C9000D400D501D6015108C700C8015008C900C9
:100CA000CA014908CA00C90147084907D7004808CE
:100CB0004A3DD800D901DA01D3308400863085005E
:100CC000003FC700013FC8004708AD004808AE001C
:100CD000AF01B0015608A4005508A3005408A200B3
:100CE0005308A1000030A8000030A7000030A60083
:100CF000AF30A5008D319E25863120002408B40038
:100D00002308B3002208B2002108B1008F317E27EA
:100D1000863120002D08D33EC9004908DB00D330BE
:100D2000840086308500003FC700013FC8004708A7
:100D3000AD004808AE00AF01B0015A08A400590840
:100D4000A3005808A2005708A1000030A8000030F6
:100D5000A7000030A6006430A5008D319E258631A5
:100D600020002408B4002308B3002208B2002108A0
:100D7000B1008F317E27863120002D08C900490837
:100D8000DC005B30C7004708C30002308F312027EA
:100D90000800013400340A34003464340034E83488
:100DA000033410342734FF34FF3449344C344C348A
:100DB0004534473441344C345F345434593450341E
:100DC00045340A34003424343A34523444344134FF
:100DD0003A34253464340A34003424343A34473401
:100DE000453454343A34253464340A3400342D34D0
:100DF000253464342E3425343034323464340A34A7
:100E0000003424343A34573448344F343A34253497
:100E100073340A3400342A343A345334543450345A
:100E20003A34253473340A3400342D342534643490
:100E30002E3425343034323464342C340034553478
:100E400049344E345434313436345F3454343A34C3
:100E50000034533448345434333431345F344434FC
:100E60004934533400344E344F345F3444344134C5
:100E7000543441340A340034553449344E345434F3
:100E800038345F3454343A34003446344C344F34BC
:100E9000413454343A34003428346E3475346C346C
:100EA0006C342934003425342534253464343A3400
:100EB00000342334253473340A3400342534753433
:100EC0000A340034253464342C3400342534753429
:100ED0002C340034523444344134003457344434D4
:100EE00041340034533454344134003441344334B5
:100EF0004B340034573448344F3400345334543472
:100F00005034003447344534543400345334453479
:100F10005434003453344134563400342000AE008D
:100F20002E0886000130870020300106031D9D2F0A
:100F30000130A9002908AE07902F2E088600013045
:100F40008700093001060319982FAC01AD01AB01F0
:100F50002E088600013087002D300106031DB52FB5
:100F60000130A9002908AB07BD2F2E0886000130EB
:100F700087002B300106031DC12F0130A90029086D
:100F8000AE072E0886000130870001088A316E22E4
:100F90008731031CEA2F20002D08A2002C08A10095
:100FA0000A30A3000030A4008B31302387312000A9
:100FB0002E0886000130870001082107A9002208B9
:100FC0000318220AAA002908D03EAC00FF302A3DAF
:100FD000AD00BD2F20002B080319FA2F2C09A90002
:100FE0002D09AA00A90A0319AA0A2908A7002A0894
:100FF000A80008002D08A8002C08A70008005534F8
:101000008331FB2B8431292C8431802C8431AB2C0F
:1010100085311D2D8431E12C8431F62C85311D2D37
:101020008431FD2C8531212D8431312C8431562C95
:101030008531382D8531EA2D8531C32D8631002E3D
:0410400085313C2D8D
:1013F000080020006608080021003D0808002100C0
:101400003B0808002100BA01080021003D0808003F
:101410002100BA0108000134013406342100B4016E
:10142000B40A08002100B901B90A08002100BA0174
:10143000BA0A08002100BA01BA0A08000B0C890C8C
:10144000013908001630210097000800683021009B
:101450009900980108002000A30023088C312D2456
:101460000800640080010131890B322A0034F10048
:101470007108F00070082000E60008002000A200BB
:101480002208A1002108E600080020006608F300F9
:101490007308F00001308B314C23080020006608EF
:1014A000A4002408A10001308C310A240800210086
:1014B0004B0803190800CC010330F0007008CB0082
:1014C00008002000A10021082300910015139513A6
:1014D0001514000000002300130808002000A200DB
:1014E000A1013A30220203187B2A30302202031C69
:1014F0007B2AA101A10A210C080021001508C0398E
:10150000143895000630200095000630A10021080F
:101510002100BE000B1108002000A5002508A40032
:101520002408A10000308C310A2420002508A400E2
:1015300024082100BD0008000430F00070082000DD
:10154000EB0701302100C202031DAB2A0430F0007A
:101550007008C3000800C301C30A0800D830200087
:10156000A1002108E100D830A1002108E000E21428
:101570006210E40124009C0128309D009F01093085
:101580009A0020001410210014140800F100240017
:101590001E1520006A08023E860087010108031913
:1015A000DC2A7108F0006A08023E86008701010803
:1015B00086008701700881002100C3010800210016
:1015C00091121112083023009F0090309D002430AA
:1015D0009E0067309B009C01FC01FB01083020004D
:1015E000A1002108FA00E901E801E70121009116B4
:1015F000080008307A020318112B7B08A03E8600F1
:101600008701010823009A000130F0007008FB07F1
:1016100008307B020318FB010130F0007008FA0764
:10162000080021001112080023009D1C192B1D1217
:101630001D161908F00020006908203E86000130C0
:101640008700700881000130F0007008E907083059
:1016500069020318E9010130F0007008E70708008B
:101660002000A501A601211C392B2308A507240869
:10167000A63D0130A335A40D890B3A2B0130A236CB
:10168000A10C890B3F2B21082204031D332B2608B4
:10169000A2002508A1000800F100F2017108230052
:1016A00091007008930095131513151500308B1BCE
:1016B0000130F2008B1355309600AA309600951435
:1016C0009518602B1511720C031C8B1303188B17C4
:1016D000080022008C018D018E013F3021008C001A
:1016E000F0308D007F308E004F3023008E008D0152
:1016F00017308C0024008D013F308C007F308E002D
:101700002100951322009E0184309D0008002000D6
:10171000A20167080319892B6808203E8600013062
:1017200087000108A1002108A2000130A1002108C2
:10173000E807083068020318E8012100911201301F
:101740002000E70221009116200022080800200056
:10175000A7002408A6002308A500A535A60D270884
:10176000860087012508C03F2608C13F2208A50042
:101770002708023E86008701250881002108A50070
:101780002708033E860087012508810008000B30EA
:101790002000A2002630A1005D30890BCD2BA10BCB
:1017A000CD2BA20BCD2B00328030240094002630AC
:1017B0009500813096009701FE3093008A31052212
:1017C00009072400920020009111210091150800C2
:1017D0002000A50021004B082000A4002408A6003A
:1017E00003302606031D08002508A4002408210054
:1017F000C70020002108A40024082100C800200000
:1018000023082100CA00200022082100C900CC01C1
:10181000CB0108002000A200A301220823009100B0
:10182000200021082300930095131513151500308F
:101830008B1B01302000A3008B1355302300960032
:10184000AA30960095149518232C15112000230C0E
:10185000031C8B1303188B1708002000A2007A08C2
:1018600003192F2C2100111A3A2C200022082300E2
:101870009A004E2C111220002208A1007C08A03EE4
:1018800086008701210881000130A1002108FC07A2
:1018900008307C020318FC010130FA022100111605
:1018A00008005530F8007808F90020009111240054
:1018B0001108F8007808F900141D652C941A161FF9
:1018C000632C0330732C0130732C941A6E2C79081E
:1018D000031D6C2C0430732C0030732C7908F80035
:1018E0007808FD00023085313625240015160800E1
:1018F00020003108B3003308B5003208B3003308C4
:10190000B6000230B3003308A8003008AA002F0840
:10191000A9003830B4003408AB0035308C31EF24E6
:101920008C310230200038060319912C3808031D31
:101930009B2CB7019D2CB701B70A3708080020007F
:10194000A7002408A6002308A500A535A60D270892
:10195000860087012508C03F2608C13F270886006A
:101960008701013081044131003081042208A50043
:101970002708023E86008701250881002108A5006E
:101980002708033E86008701250881000800200003
:10199000AE006218E82C2E08AC002C08A100280824
:1019A000AD002D08A2002A08A4002908A300CD300C
:1019B0008C319F248C31CD302000AC002C08A1004C
:1019C0002B08AD002D08A20001308E3188260800BA
:1019D00020002B08860087018101810A0800200071
:1019E000AE006218102D2E08AC002C08A1002808AB
:1019F000AD002D08A2002A08A4002908A300D130B8
:101A00008B31A7238C31D1302000AC002C08A100F1
:101A10002B08AD002D08A20001308E318826080069
:101A200020002B08860087018101810A080002300E
:101A30002000B3003308B600B501B50A3703031917
:101A4000412D3208B3003308A8003008AA002F083F
:101A5000A9003730B4003408AB0031088C31C724FA
:101A60008D310230200037060319312D3708031D50
:101A70003B2DB601412D0130B502031D1E2DB601CF
:101A8000B60A36080800200029082A0403196B2D1D
:101A9000AE01AE0AAA1B562D0130A935AA0D890B3D
:101AA0004D2D0130AD002D08AE074A2D2A082C021D
:101AB000031D5C2D29082B02031C622D2908AB0293
:101AC0002A08AC3B0130AA36A90C890B632D0130E2
:101AD000AE02031D562D2C08AA002B08A9000800F1
:101AE00029302000A2008730A300A401A501A6018F
:101AF0000130A7000630A8007D30DF005F08A90094
:101B00008E31CF268D318B3169238D318A3126225A
:101B10008D318A3122228D318A317D228D318B1790
:101B20000B178A31DF228D318A31AE228D318B3114
:101B3000C7238D3182315622803148280030200061
:101B4000AC000030AB000030AA000030A900211C1E
:101B5000B12D2508A9072608AA3D2708AB3D28086E
:101B6000AC3D0130A535A60DA70DA80D890BB22DF2
:101B70000130A436A30CA20CA10C890BB92D2408AA
:101B8000230422042104031DA72D2C08A4002B08E4
:101B9000A3002A08A2002908A10008002000A7012C
:101BA000A801210822040319FE2DA601A60AA21BE2
:101BB000E32D0130A135A20D890BDA2D0130A500EE
:101BC0002508A607D72D0130A735A80D890BE42DD0
:101BD00022082402031DEE2D21082302031CF52DEB
:101BE0002108A3022208A43B27140130A236A10C2D
:101BF000890BF62D0130A602031DE32D2808A20053
:101C00002708A100080001302000A4020030A53BF5
:101C1000240A0319250A0319422E200021088400F2
:101C20002208850012000319212E230886000130A6
:101C30008700210884002208850000080106031996
:101C4000392E23088600013087000108A600A7016D
:101C5000A609A709A60A0319A70A210884002208D1
:101C6000850000082607A10027080318270AA200FC
:101C700008000130A1070030A23D0130A60026086F
:101C8000A307032EA101A2010800742EC730F200A1
:101C90000030F3002100CB01CB0A832EC830F200C4
:101CA0000030F30002306B2E48084C020318652EFA
:101CB0004C08F000F10170084907F20071084A3D34
:101CC000F3000130F0007008CC074C084806031DF3
:101CD000832ECC010330F0007008CB00832EEB3054
:101CE000F2000030F300832E21004B08003A031964
:101CF000462E013A03194E2E033A0319542E013A87
:101D000003196F2E832E7308F1007208F00008008B
:101D10002000A4006218BC2E0230A3002208860016
:101D20008701230881002108A300600A860087013B
:101D3000230881002408A300600886008701230887
:101D400081002208A3006008023E86008701230864
:101D500081000330A3002308E0076008DB3A031D7D
:101D6000B52ED830A3002308E000E2106108600619
:101D7000031DC12E6214C12E220886008701810135
:101D8000810A22088600870102300106031D08002F
:101D900021004308031DC82E200014140800200051
:101DA00023082100E200200022082100E100200099
:101DB0002408AA000030AB002A082100E700200018
:101DC0002B082100E80020002508AA000030AB0005
:101DD0002A082100E50020002B082100E600200051
:101DE0002608AA000030AB002A082100E3002000EA
:101DF0002B082100E40001308A3161228E3120005D
:101E0000AA002A08E60000308A3161222000AA00D8
:101E10002A082100BD0003302000AA002A08210062
:101E2000CB00200028082100AD0020002708210059
:101E3000AC0020002908AA002A082100E9000800B7
:101E40002000C6002100340803194C2F2000E501B2
:101E5000460865020318402F65084307C40044087C
:101E6000860087010108C5006508583E86000130DC
:101E70008700450881000130C4004408E507282F89
:101E80004608C4004408A1005830A2000130A30055
:101E900002308B31E823080001302000C602E50142
:101EA0004608650203186C2F6230AF008730B0001F
:101EB00065084307C4004408860087010108B10093
:101EC000B201B11BB203803181208F31013020007B
:101ED000C4004408E507502FE930AF008630B00059
:101EE00065084307C4004408860087010108B10063
:101EF000B201B11BB2038031812008002000B7017C
:101F0000B01F8F2FAD09AE09AF09B009AD0A031993
:101F1000AE0A0319AF0A0319B00AB701B70AB41F12
:101F2000A02FB109B209B309B409B10A0319B20A61
:101F30000319B30A0319B40A0130B5003508B7060E
:101F40000030BB000030BA000030B9000030B800EB
:101F500030082F042E042D040319E92FB601B60A08
:101F6000B01BBE2F0130AD35AE0DAF0DB00D890BDE
:101F7000B32F0130B5003508B607B02F0130B835A2
:101F8000B90DBA0DBB0D890BBF2F30083402031DEC
:101F9000D32F2F083302031DD32F2E083202031D27
:101FA000D32F2D083102031CDE2F2D08B1022E087D
:101FB000B23B2F08B33B3008B43B38140130B03685
:101FC000AF0CAE0CAD0C890BDF2F0130B602031D38
:101FD000BE2F37080319F72FB809B909BA09BB0989
:101FE000B80A0319B90A0319BA0A0319BB0A3B084C
:101FF000B0003A08AF003908AE003808AD0008005C
:020000040001F9
:04000E00E4FFFFFF0D
:00000001FF
