:1000000080314828080055347E14803120007F0854
:10001000A0000B1F15282100111E15282000111EFD
:1000200015288B31AF23803143280B1F2128210055
:10003000911E21282000911E21288B31E52380313B
:1000400043280B1F2D282100911D2D282000911DD4
:100050002D288D312225803143280B1F392821007E
:10006000941C39282000941C39288A31C8228031F8
:1000700043280B1F43282100141C43282000141C74
:1000800043288331E22320002008FF007E1009006E
:1000900080314A28803103208031FD0021008A31DF
:1000A000DB228031E9008A31DC228031EA008A31AA
:1000B000DD228031EB00FA01FB01FC01623084009B
:1000C000003085000D308B3101238031A030840059
:1000D0000030850041308B31012380312030840095
:1000E0000130850048308B3101238031A0308400FD
:1000F0000130850030308B3101237E1020008731A4
:10010000D22F37302000B9003908C000200036084F
:10011000BA003508B900B50A0319B60A39088400CF
:100120003A0885000008BB003B08C80048080319CE
:100130000800253048060319A22848088A31FB2206
:10014000803186282000C601C701C501AC284515AD
:100150000130B5070030B63D35088400360885000B
:100160000008303A0319A728B52835088400360856
:10017000850000088B313E238031031C5629200066
:10018000C601C7010A302000A1000030A2004708C4
:10019000A4004608A3008C310124803120002208ED
:1001A000C7002108C600350884003608850000080D
:1001B000D03EB900FF3003180030BA003908C60736
:1001C0003A08C73D0130B5070030B63D3508840018
:1001D0003608850000088B313E238031031C5629E8
:1001E000C2282000400886008701403FBE00413FF2
:1001F000BF000230B9003908C0073E083F04031DA4
:1002000005297F30BE008630BF00C301C4013E080F
:10021000430784003F08443D850012000319152957
:100220000130C3070030C43D072947084402031DBD
:100230001B2946084302031822294308C602440822
:10024000C73B2429C601C701FF302000C607FF3085
:10025000C73D460A0319470A0319402920308A314D
:10026000FB22803124293E0884003F0885000008D5
:100270008A31FB22803101302000BE070030BF3DB3
:100280000130C3020030C43B430A031D3329440A32
:100290000319862833294830BE000030BF000130E2
:1002A000C3000030C4001529451774292000360802
:1002B000BA003508B900B50A0319B60A390884002E
:1002C0003A0885000008C800003A0319552A643A24
:1002D000031974290D3A031974291A3A0319F128DC
:1002E000063A031954294B292000451B8E29400842
:1002F00086008701403FC100413FC2000230B90083
:100300003908C007C21F99290330B9003908C5044C
:10031000C109C209C10A0319C20A99294008860005
:100320008701403FC100413FC2000230B900390897
:10033000C007C801C80A053048060319BE29480885
:10034000B900BA01B935BA0DFC30390784008530DF
:100350003A3D8500003FBB00013FBC003C08420223
:10036000031DB4293B084102031CBE290130B9001A
:100370003908C80705304806031D9F294608470469
:100380000319CA29450803390319CA29FF30C607CA
:10039000FF30C73D4808B900BA01B91BBA033A0893
:1003A000803ABB004708803A3B02031DD929460822
:1003B00039020318E62920004808B900BA01B91B20
:1003C000BA033908C6023A08C73BE9292000C6012A
:1003D000C701451D022A450803390319F3292D30A9
:1003E0008A31FB22803120004608470403191B2A6A
:1003F00030308A31FB228031FF302000C607FF30C9
:10040000C73DF429460847040319132A20308A31CE
:10041000FB228031FF302000C607FF30C73D460871
:100420004704031D062A4508033903191B2A2D30EA
:100430008A31FB22803120004808B9003908BD000C
:10044000FF302000B9003908BD073D0A031986288E
:100450000A30AF000030B0003D08B900BA01B9352C
:10046000BA0DFC303907840085303A3D8500003FE5
:10047000A700013FA8004208AA004108A9008E3148
:100480004526803120002808B2002708B1008E31AF
:100490001826803120002F08303EBB003B08C800E2
:1004A00048088A31FB228031202A08008A31EE2256
:1004B00082312000DF005F082100B90039080319EC
:1004C000832A0B112F0830040319832A01302000DE
:1004D000DF005F082100BA072000630821003A020C
:1004E000031C832ABA0101302000DF005F082100CD
:1004F000BB0769083B02031C832A3D080319822AB3
:10050000BC01BC0ABB013C080319912A2F08300426
:100510000319912A30088A002F080A00823121002D
:10052000BC01200064080319562A8C3158248231FA
:100530002000DF005F082100EC006C082000DF00D5
:1005400021003F08283E86000130870020005F0818
:1005500081000130DF005F082100BF070A306C0610
:10056000031D562A0130BF023F08283E8600013095
:1005700087008101BF018C302000B5008630B600B5
:100580002830B7000130B80080318120823121004D
:100590006A03031D562AAD302000A1008630A20058
:1005A0002830DF005F08A3000330A4000030A5005E
:1005B0008E317A268231200021082204031DF02A80
:1005C0003430B5008630B600210062082000B80043
:1005D000210061082000B700803181208231562A35
:1005E000BD302000A1008630A2002830DF005F0867
:1005F000A3000330A4000030A5008E317A2682319A
:10060000200021082204031D092B8B311E23823177
:10061000562AA5302000A1008630A2002830DF0035
:100620005F08A3000330A4000030A5008E317A26B5
:100630008231200021082204031D222B8A31EA2264
:100640008231562AB1302000A1008630A200283025
:10065000DF005F08A3000330A4000030A5008E3146
:100660007A268231200021082204031D472B8A317B
:10067000D82282313E302000B5008630B600A93045
:10068000B7008630B800803181208231562AB930D7
:100690002000A1008630A2002830DF005F08A30000
:1006A0000330A4000030A5008E317A26823120006C
:1006B00021082204031D662B2C30873161278231EB
:1006C000200027088B310E238231562AB5302000B6
:1006D000A1008630A2002830DF005F08A3000330AD
:1006E000A4000030A5008E317A2682312000210836
:1006F0002204031D8A2B2030B5008630B600630823
:10070000DF00E0015F08B7006008B8008031812099
:100710008231562AA1302000A1008630A200283064
:10072000DF005F08A3000330A4000030A5008E3175
:100730007A268231200021082204031DAE2B2C30A2
:1007400087316127823120002708DF005F08210000
:10075000ED006D088B315C238231562A9D302000DC
:10076000A1008630A2002830DF005F08A30003301C
:10077000A4000030A5008E317A26823120002108A5
:100780002204031DDD2B8A31D52282312000DF00B7
:100790005F082100ED0016302000B5008630B6005D
:1007A00021006D082000DF00E0015F08B70060084D
:1007B000B800803181208231562A283080310220D1
:1007C0008231562A2000141024009D1F262D9D13CF
:1007D0002000EA016708023E8600870101088600C2
:1007E00087018101810AE70108002100AA18080099
:1007F0002908F20072082000E7002100290886007D
:1008000087010108F20072082000E9002100290890
:1008100086008701413F2000E8000330F2007208A3
:100820002100A9072908DB3A031D1A2CD830F20051
:100830007208A9002A10290828060319AA142400FE
:100840001E140230F20072082000EA0008002400A2
:100850009E140230F20072082000EA000800240012
:100860001E1F3B2C0130F20072082100AC0704303F
:100870008B317D23080020006E08F3006D08F20024
:10088000F336F20C72082400990020006D1C4D2CE8
:100890000B30F2007208EA0008000330F200720820
:1008A000EA00080024001E1F5E2C0130F2007208CE
:1008B0002100AC0704308B317D2308009E142000FA
:1008C0006E08F3006D08F2007308F200F3010630C1
:1008D0007205F40000307305F500F0307404ED008B
:1008E00000307504EE006D142100C201C20A02300E
:1008F000F20072082000EA000800210042030319F8
:10090000962C2000680886008701403FED00413F9B
:10091000EE00680886008701433F2100C4002000E4
:10092000680886008701423F2100C30020006D084F
:100930002400990020006D1CA22C0530F2007208E2
:10094000EA0008000330F2007208EA000800240000
:100950001E1FB52C0130F20072082100AC072400E4
:100960001E1305308B317D23080001302100C302A6
:10097000430A031DD02C0430F20072082000E8075F
:100980000130E902031DC82C00308B317D230800A3
:1009900024009E140230F20072082000EA000800D1
:1009A00021004408860087010108240099000130D5
:1009B000F20072082100C407080024001E1FEB2C5F
:1009C0000130F20072082100AC0704308B317D2326
:1009D00024001E1308009E150830F2007208200043
:1009E000EA0008000830F2007208EA0024009E15B0
:1009F000080024001908F20021004408860087013D
:100A0000720881000130F2007208C4070130C3028D
:100A10000319122D24009E120630F20072082000E5
:100A2000EA00162D24009E168B316C2324001E161E
:100A3000080000308B317D2308000130F20072087D
:100A40002100AC0706308B317D23080020006A08A6
:100A500084000C30040203181D2D88310435003E3B
:100A600082000800F700F12D2100C601C60A080027
:100A70000230F40074082100C60008007D088B31A4
:100A800007238531B12D8A31E6228531CA2D8A317D
:100A9000D2228531CA2D8B3115238531CA2D8A3159
:100AA000E2228531CA2D8B3127238531CA2DEC01F5
:100AB000EC0ACA2D0230902D7D08033A03194B2D04
:100AC000073A0319432D013A0319472D033A031935
:100AD0004F2D0E3A0319572D023A03195A2D063A93
:100AE0000319532DCA2DCA2D20006C08003A031992
:100AF0005C2D013A03193E2DCA2DCA2D02307D0608
:100B0000031DCA2D240096138A31DE228531CA2D99
:100B10007D08F40074082100C5002000EB010330BB
:100B2000F4007408EC00CA2D7D08F4006B08A03EA8
:100B3000860001308700740881000130F4007408D9
:100B4000EB072100450820006B02031CCA2D8A31E7
:100B5000CF228531003A031DB12DA0308A31C72242
:100B600085312000EC01CA2D20006C08023A0319DF
:100B7000882D013A0319942DCA2DCA2D210046084B
:100B8000003A0319B42D013A0319742D033A0319DD
:100B90007E2DCA2D2100C60108008A31CC222400F6
:100BA000910008008E31BC267108F6007008F5002F
:100BB0007508860076088700010824009100080067
:100BC0008A31C9222400910008007D08013A0319E6
:100BD000CD2D063A0319D22D0E3A0319E02DFB2D27
:100BE00008007708840005300402031808008831E3
:100BF0000435183E82000800013400340A34003401
:100C000064340034E834033410342734FF34FF34C0
:100C100049344C344C344534473441344C345F34DB
:100C200054345934503445340A34003424343A347A
:100C30005234443441343A34253464340A34003470
:100C400024343A344734453454343A342534643403
:100C50000A3400342D34253464342E3425343034B1
:100C6000323464340A34003424343A345734483447
:100C70004F343A34253473340A3400342A343A3445
:100C80005334543450343A34253473340A340034F1
:100C90002D34253464342E342534303432346434E5
:100CA0002C340034553449344E34543431343634D1
:100CB0005F3454343A340034533448345434333485
:100CC00031342D3444344934533400344E344F34A9
:100CD0005F3444344134543441340A34003455349C
:100CE00049344E34543438345F3454343A34003454
:100CF00046344C344F34413454343A34003428347C
:100D00006E3475346C346C34293400342534253415
:100D1000253464343A3400342334253473340A34AB
:100D20000034253475340A340034253464342C34CA
:100D30000034253475342C34003452344434413476
:100D4000003457344434413400345334543441343F
:100D50000034413443344B340034573448344F3436
:100D6000003453345434503400344734453454340C
:100D700000345334453454340034533441345634FD
:100D8000003422000E0D0E0D01392000CD0001307F
:100D9000CD06CD0CCD0C22000E0820004D067F396B
:100DA0004D0622008E0045302000AF000030B0001C
:100DB0002C30CD004D08B1000630CE004E08B200F8
:100DC0008D31492586312000CF004F08D2004530B3
:100DD000AF000030B0005330CD004D08B1000630F8
:100DE000CE004E08B2008D31EC2586312000CF00B8
:100DF0004F08D2005408CD00CE015308CF00D001D7
:100E00004F08D000CF014D084F07D9004E08503D84
:100E1000DA005708CD00CE015608CF00D0014F08A8
:100E2000D000CF014D084F07DB004E08503DDC00DD
:100E30000630840086308500003FA700013FA800EF
:100E40005A08A2005908A100AF30A3000030A40046
:100E50008C310124863120002208AA002108A90033
:100E60008E314526863120002708D33ECD004D081F
:100E7000DD000630840086308500003FA700013F7A
:100E8000A8005C08A2005B08A1006430A300003049
:100E9000A4008C310124863120002208AA002108F8
:100EA000A9008E314526863120002708CD004D0847
:100EB000DE005D30CD004D08C90002308F31A22721
:100EC00008002000AE002E08860001308700203088
:100ED0000106031D702F0130A9002908AE07632FFA
:100EE0002E088600013087000930010603196B2F98
:100EF000AC01AD01AB012E088600013087002D301A
:100F00000106031D882F0130A9002908AB07902F87
:100F10002E088600013087002B300106031D942F18
:100F20000130A9002908AE072E088600013087008D
:100F300001088B313E238731031CBD2F20002D0873
:100F4000A2002C08A1000A30A3000030A4008C31BC
:100F50000124873120002E08860001308700010817
:100F60002107A90022080318220AAA002908D03E56
:100F7000AC00FF302A3DAD00902F20002B08031954
:100F8000CD2F2C09A9002D09AA00A90A0319AA0A24
:100F90002908A7002A08A80008002D08A8002C0886
:100FA000A70008005C302000A2008630A300A40146
:100FB000A501A601C130A7000630A800FA30E10063
:100FC0006108A9008E31FF2687318C313A248731A0
:100FD0008A31F62287318A31F22287318B314D23D3
:100FE00087318B170B178B31952387318B31CA23B0
:100FF00087318C31982487318231562280314828BC
:101000008331F52B8431272C84317D2C8431A72C1E
:101010008531192D8431DD2C8431F22C8531192D47
:101020008431F92C85311D2D84312F2C8431522CA3
:101030008531342D8531E52D8531BE2D8531FB2D52
:041040008531382D91
:10158E000800080020006308080021004008080039
:10159E0021003E0808002100BD010800210040087E
:1015AE0008002100BD010800013401340634210079
:1015BE00B701B70A08002100BC01BC0A08002100CF
:1015CE00BD01BD0A08002100BD01BD0A08000B0CBB
:1015DE00890C013908001630210097000800683088
:1015EE0021009900980108002000A30023088C31E7
:1015FE00FE240800640080010131890B022B0034A7
:10160E00F1007108F00070082000E30008002000CF
:10161E00A2002208A1002108E300080020006308B0
:10162E00F3007308F00001308C311D2408002000F7
:10163E006308A4002408A10001308C31DB240800CB
:10164E0021004B0803190800CC010330F00070088C
:10165E00CB0008002000A1002108230091001513E3
:10166E009513151400000000230013080800200035
:10167E00A200A1013A30220203184B2B3030220275
:10168E00031C4B2BA101A10A210C080021001508F7
:10169E00C039143895000630200095000630A100A0
:1016AE0021082100C1000B1108002000A50025080B
:1016BE00A4002408A10000308C31DB242000250872
:1016CE00A40024082100C00008000430F0007008B7
:1016DE002000E8070130E902031D7A2B0430F000E8
:1016EE007008EA000800EA01EA0A0800F100240086
:1016FE001E1520006708023E8600870101080319A7
:10170E00932B7108F0006708023E860087010108DE
:10171E008600870170088100EA01080021009112FD
:10172E001112083023009F0090309D0024309E003F
:10173E0067309B009C01FC01FB0108302000A100DA
:10174E002108FA00E601E501E401210091160800E6
:10175E0008307A020318C72B7B08A03E860087014B
:10176E00010823009A000130F0007008FB070830D2
:10177E007B020318FB010130F0007008FA07080025
:10178E00210011120800D8302000A10021082100EC
:10179E00A900D8302000A10021082100A800AA1419
:1017AE002A10AC0124009C0128309D009F010930B5
:1017BE009A002000141021001414080023009D1C10
:1017CE00EA2B1D121D161908F00020006608203E97
:1017DE00860001308700700881000130F00070082B
:1017EE00E607083066020318E6010130F0007008C3
:1017FE00E40708002000A501A601211C0A2C2308DD
:10180E00A5072408A63D0130A335A40D890B0B2C8A
:10181E000130A236A10C890B102C21082204031DC5
:10182E00042C2608A2002508A1000800F100F201F0
:10183E007108230091007008930095131513151568
:10184E0000308B1B0130F2008B1355309600AA30FE
:10185E00960095149518312C1511720C031C8B13D0
:10186E0003188B17080022008C018D018E013F306A
:10187E0021008C00F0308D007F308E004F30230021
:10188E008E008D0117308C0024008D013F308C00AE
:10189E007F308E002100951322009E0184309D0022
:1018AE0008002000A201640803195A2C6508203E86
:1018BE008600013087000108A1002108A200013036
:1018CE00A1002108E507083065020318E501210093
:1018DE00911201302000E40221009116200022080E
:1018EE0008002000A7002408A6002308A500A5359F
:1018FE00A60D2708860087012508C03F2608C13F90
:10190E002208A5002708023E8600870125088100CF
:10191E002108A5002708033E8600870125088100BF
:10192E0008000B302000A2002630A1005D30890B8C
:10193E009E2CA10B9E2CA20B9E2C003280302400DC
:10194E00940026309500813096009701FE3093006A
:10195E008A31D5220907240092002000911121001E
:10196E00911508002000A50021004B082000A400BE
:10197E002408A60003302606031D08002508A4002F
:10198E0024082100C70020002108A40024082100FB
:10199E00C800200023082100CA00200022082100D0
:1019AE00C900CC01CB0108002000A200A30122082F
:1019BE002300910020002108230093009513151396
:1019CE00151500308B1B01302000A3008B135530F2
:1019DE0023009600AA30960095149518F42C151134
:1019EE002000230C031C8B1303188B1708002000F8
:1019FE00A2007A080319002D2100111A0B2D2000C8
:101A0E00220823009A001F2D111220002208A10087
:101A1E007C08A03E86008701210881000130A100CC
:101A2E002108FC0708307C020318FC010130FA0281
:101A3E002100111608005530F8007808F900200032
:101A4E00911124001108F8007808F900141D362DA4
:101A5E00941A161F342D0330442D0130442D941A40
:101A6E003F2D7908031D3D2D0430442D0030442DAB
:101A7E007908F8007808FD000230853132252400FF
:101A8E001516080020003108B3003308B5003208DF
:101A9E00B3003308B6000230B3003308A800300894
:101AAE00AA002F08A9003830B4003408AB00353036
:101ABE008D31C2258D310230200038060319622D7A
:101ACE003808031D6C2DB7016E2DB701B70A370804
:101ADE0008002000A7002408A6002308A500A535AD
:101AEE00A60D2708860087012508C03F2608C13F9E
:101AFE0027088600870101308104413100308104BE
:101B0E002208A5002708023E8600870125088100CD
:101B1E002108A5002708033E8600870125088100BD
:101B2E0008002000AE0021002A18BB2D20002E0830
:101B3E00AC002C08A1002808AD002D08A2002A0830
:101B4E00A4002908A300CD308D3170258D31CD3004
:101B5E002000AC002C08A1002B08AD002D08A2001F
:101B6E0001308F315027080020002B088600870196
:101B7E008101810A08002000AE0021002A18E52DFF
:101B8E0020002E08AC002C08A1002808AD002D085E
:101B9E00A2002A08A4002908A300D1308C31782491
:101BAE008D31D1302000AC002C08A1002B08AD00E7
:101BBE002D08A20001308F315027080020002B087D
:101BCE00860087018101810A080002302000B300DF
:101BDE003308B600B501B50A37030319162E3208BD
:101BEE00B3003308A8003008AA002F08A900373028
:101BFE00B4003408AB0031088D3198258D31023098
:101C0E00200037060319062E3708031D102EB601C5
:101C1E00162E0130B502031DF32DB601B60A360895
:101C2E00080020002F0830040319402EB401B40A16
:101C3E00B01B2B2E0130AF35B00D890B222E01308B
:101C4E00B3003308B4071F2E30083202031D312EA5
:101C5E002F083102031C372E2F08B1023008B23B79
:101C6E000130B036AF0C890B382E0130B402031D93
:101C7E002B2E3208B0003108AF0008002000AD0155
:101C8E00AE01270828040319752EAC01AC0AA81B57
:101C9E005A2E0130A735A80D890B512E0130AB00FD
:101CAE002B08AC074E2E0130AD35AE0D890B5B2ED9
:101CBE0028082A02031D652E27082902031C6C2EF4
:101CCE002708A9022808AA3B2D140130A836A70C14
:101CDE00890B6D2E0130AC02031D5A2E2E08A80062
:101CEE002D08A700080001302000A4020030A53BFB
:101CFE00240A0319250A0319B92E2000210884008D
:101D0E002208850012000319982E23088600013040
:101D1E0087002108840022088500000801060319A7
:101D2E00B02E23088600013087000108A600A70107
:101D3E00A609A709A60A0319A70A210884002208E2
:101D4E00850000082607A10027080318270AA2000D
:101D5E0008000130A1070030A23D0130A600260880
:101D6E00A3077A2EA101A2010800EB2EC730F200C4
:101D7E000030F3002100CB01CB0AFA2EC830F2005E
:101D8E000030F3000230E22E48084C020318DC2E1D
:101D9E004C08F000F10170084907F20071084A3D45
:101DAE00F3000130F0007008CC074C084806031D04
:101DBE00FA2ECC010330F0007008CB00FA2EEB3077
:101DCE00F2000030F300FA2E21004B08003A0319FE
:101DDE00BD2E013A0319C52E033A0319CB2E013A33
:101DEE000319E62EFA2E7308F1007208F0000800AF
:101DFE00200023082100E200200022082100E1003B
:101E0E0020002408AA000030AB002A082100E700B9
:101E1E0020002B082100E80020002508AA00003031
:101E2E00AB002A082100E50020002B082100E60067
:101E3E0020002608AA000030AB002A082100E3008B
:101E4E0020002B082100E40001308B3131238E312C
:101E5E002000AA002A08E30000308B313123200035
:101E6E00AA002A082100C00003302000AA002A0878
:101E7E002100CB00200028082100B00020002708F8
:101E8E002100AF0020002908AA002A082100E9003D
:101E9E0008002000A40021002A188F2F02302000F5
:101EAE00A300220886008701230881002108A300D1
:101EBE002100280A860087012000230881002408BB
:101ECE00A300210028088600870120002308810036
:101EDE002208A30021002808023E86008701200068
:101EEE00230881000330A30023082100A807280837
:101EFE00DB3A031D882FD8302000A30023082100D1
:101F0E00A800AA1029082806031D952F2A14952F1C
:101F1E0020002208860087018101810A2000220804
:101F2E008600870102300106031D08006A08031DA2
:101F3E009D2F141408002000CC002100370803192F
:101F4E00CE2F2000E2014C0862020318C22F620855
:101F5E004907CA004A08860087010108CB006208BB
:101F6E00583E8600013087004B0881000130CA00C0
:101F7E004A08E207AA2F4C08CA004A08A1005830A6
:101F8E00A2000130A30002308C31B92408000130C8
:101F9E002000CC02E2014C0862020318EE2F9530AD
:101FAE00B5008630B60062084907CA004A088600A6
:101FBE0087010108B700B801B71BB8038031812033
:101FCE008F3101302000CA004A08E207D22F1C30A0
:101FDE00B5008630B60062084907CA004A08860076
:101FEE0087010108B700B801B71BB8038031812003
:021FFE000800D9
:020000040001F9
:04000E00E4FFFFFF0D
:00000001FF
