:1000000080314828080055347E14803120007F0854
:10001000FB000B1F15282100111E15282000111EA2
:10002000152889313321803143280B1F21282100D5
:10003000911E21282000911E21288831FC2080312A
:1000400043280B1F2D282100911D2D282000911DD4
:100050002D288A315822803143280B1F392821004E
:10006000941C39282000941C3928803102208031CA
:1000700043280B1F43282100141C43282000141C74
:1000800043288531E8257B082000FF007E10090009
:1000900080314A28803103208031FD009731542778
:1000A0008031ED00973155278031EE00973156278A
:1000B0008031EF00FC01473084000030850026309D
:1000C000973180278031A030840000308500443093
:1000D0009731802780312030840001308500303016
:1000E000973180278031A030840001308500303086
:1000F000973180277E1020008B31B72B97314E2708
:100100008031003A03190800FD302000A00087303C
:10011000A1005908BC003C08A2000330A300003035
:10012000A4008B3175238031200020082104031D99
:100130009D288D3197258031852AF5302000A0003B
:100140008730A1005908BC003C08A2000330A3007E
:100150000030A4008B317523803120002008210459
:10016000031DCD285908043E8D31262580312000FD
:100170002608BC003C08BE003E30AE000030AF0098
:10018000B0013E08BC003C08B1008A313222803107
:10019000C8300032890BC928852A1D302000A000F4
:1001A0008830A1005908BC003C08A2000330A3001D
:1001B0000030A4008B3175238031200020082104F9
:1001C000031D00295908043E8D3126258031200069
:1001D0002608BC003C08BE003E30AE000030AF0038
:1001E0004030BC003C08B0003E08BD003D08B100F6
:1001F0008A3132228031C8300032890BFC28852AAE
:1002000011302000A0008830A1005908BC003C0833
:10021000A2000330A3000030A4008B31752380318D
:10022000200020082104031D192988317E208031F7
:10023000852A15302000A0008830A1005908BC0094
:100240003C08A2000330A3000030A4008B317523CA
:100250008031200020082104031D32298A31D42254
:100260008031852A25302000A0008830A10059085F
:10027000BC003C08A2000330A3000030A4008B3176
:1002800075238031200020082104031D5B293E30A6
:10029000AE000030AF00B0010230BC003C08B1003D
:1002A0008A3132228031C8300032890B54298A3198
:1002B000D4228031852A0D302000A0008830A10092
:1002C0005908BC003C08A2000330A3000030A40081
:1002D0008B3175238031200020082104031D8429DF
:1002E0003E30AE000030AF00B0010230BC003C0830
:1002F000B1008A3132228031C8300032890B7D2929
:100300008C313F248031852A01302000A0008830C4
:10031000A1005908BC003C08A2000330A300003033
:10032000A4008B3175238031200020082104031D97
:10033000AA293E30AE000030AF00B0011030BC0042
:100340003C08B1008A3132228031C8300032890B3A
:10035000A629852A19302000A0008830A10059085C
:10036000BC003C08A2000330A3000030A4008B3185
:1003700075238031200020082104031DD0293E3040
:10038000AE000030AF00B0011430BC003C08B1003A
:100390008A3132228031C8300032890BCC29852A3B
:1003A00005302000A0008830A1005908BC003C089E
:1003B000A2000330A3000030A4008B3175238031EC
:1003C000200020082104031DF6293E30AE00003035
:1003D000AF00B001C030BC003C08B1008A3132220D
:1003E0008031C8300032890BF229852A093020007B
:1003F000A0008830A1005908BC003C08A2000330CE
:10040000A3000030A4008B31752380312000200828
:100410002104031D1C2A3E30AE000030AF00B001A5
:100420000230BC003C08B1008A3132228031C83031
:100430000032890B182A852A21302000A00088303C
:10044000A1005908BC003C08A2000330A300003002
:10045000A4008B3175238031200020082104031D66
:10046000402A5908043E8D31262580312000260877
:10047000BC003C08BE003E088C3184248031852AB3
:10048000F1302000A0008730A1005908BC003C08D2
:10049000A2000330A3000030A4008B31752380310B
:1004A000200020082104031D852A2930A00088305F
:1004B000A1005908043EBC003C08A2000230A30081
:1004C0000030A4008B3175238031200020082104E6
:1004D000031D6D2A22008E13852AF9302000A0000A
:1004E0008730A1005908043EBC003C08A20003303C
:1004F000A3000030A4008B31752380312000200838
:100500002104031D852A22008E172000D901003006
:1005100097319427080030302000B2003208B9002B
:1005200020002F08B3002E08B200AE0A0319AF0A4C
:1005300032088400330885000008B4003408C10084
:10054000410803190800253041060319AC2A410867
:10055000973174278231902A2000BF01C001BE016B
:10056000B62A3E150130AE070030AF3D2E0884009C
:100570002F0885000008303A0319B12ABF2A2E0837
:1005800084002F088500000888314F208231031C29
:10059000602B2000BF01C0010A302000A000003005
:1005A000A1004008A3003F08A20089311721823131
:1005B00020002108C0002008BF002E0884002F085A
:1005C00085000008D03EB200FF3003180030B300B1
:1005D0003208BF073308C03D0130AE070030AF3DE1
:1005E0002E0884002F088500000888314F208231B2
:1005F000031C602BCC2A2000390886008701403F6D
:10060000B700413FB8000230B2003208B9073708DE
:100610003804031D0F2BAF30B7008730B800BC0182
:10062000BD0137083C07840038083D3D85001200B5
:1006300003191F2B0130BC070030BD3D112B4008B2
:100640003D02031D252B3F083C0203182C2B3C08C0
:10065000BF023D08C03B2E2BBF01C001FF30200070
:10066000BF07FF30C03D3F0A0319400A03194A2B58
:1006700020309731742782312E2B370884003808B8
:100680008500000897317427823101302000B707B8
:100690000030B83D0130BC020030BD3B3C0A031DB8
:1006A0003D2B3D0A0319902A3D2B4130B700003005
:1006B000B8000130BC000030BD001F2B3E177E2B60
:1006C00020002F08B3002E08B200AE0A0319AF0AAB
:1006D00032088400330885000008C100003A03197D
:1006E0005F2C643A03197E2B0D3A03197E2B1A3ABC
:1006F0000319FB2A063A03195E2B552B20003E1BDB
:10070000982B390886008701403FBA00413FBB0063
:100710000230B2003208B907BB1FA32B0330B2006E
:100720003208BE04BA09BB09BA0A0319BB0AA32BD3
:10073000390886008701403FBA00413FBB000230C4
:10074000B2003208B907C101C10A053041060319D8
:10075000C82B4108B200B301B235B30D27303207C0
:1007600084008730333D8500003FB400013FB50071
:1007700035083B02031DBE2B34083A02031CC82B6C
:100780000130B2003208C10705304106031DA92B14
:100790003F0840040319D42B3E0803390319D42B16
:1007A000FF30BF07FF30C03D4108B200B301B21BAC
:1007B000B3033308803AB4004008803A3402031D82
:1007C000E32B3F0832020318F02B20004108B2004F
:1007D000B301B21BB3033208BF023308C03BF32B93
:1007E0002000BF01C0013E1D0C2C3E080339031937
:1007F000FD2B2D3097317427823120003F084004B3
:100800000319252C3030973174278231FF302000B6
:10081000BF07FF30C03DFE2B3F08400403191D2CCD
:100820002030973174278231FF302000BF07FF301E
:10083000C03D3F084004031D102C3E080339031936
:10084000252C2D3097317427823120004108B200C9
:100850003208B600FF302000B2003208B607360A70
:100860000319902A0A30A8000030A9003608B20007
:10087000B301B235B30D2730320784008730333DE2
:100880008500003FA000013FA1003B08A3003A08FB
:10089000A2008B310423823120002108AB00200804
:1008A000AA008A31A722823120002808303EB400F5
:1008B0003408C10041089731742782312A2C08007E
:1008C0009731672784312000C2004208D0005008C9
:1008D0000319882C0B112100340835040319882CC6
:1008E00001302000C2004208D10756085102031C03
:1008F000882CD1010130C2004208D2076D08520293
:10090000031C882C54080319872CD301D30AD20165
:10091000200053080319932C2100340835040319CF
:10092000932C2000D30121003608370403199D2C95
:1009300037088A0036080A00843120005B08031952
:10094000602C89318B2184312000C2004208C40010
:100950004408C2005708203E860001308700420844
:1009600081000130C2004208D7070A304406031D47
:10097000602C0130D7025708203E860001308700E6
:100980008101D701BC30AE008730AF002030B0000D
:100990000130B10082318B22843120006E030319B3
:1009A000D62C203088316E208431602CDD30200040
:1009B000A0008730A1002030C2004208A20003300E
:1009C000A3000030A4008B3175238431200020085F
:1009D0002104031DFB2C6E30AE008730AF002100D8
:1009E00065082000B100210064082000B0008231B9
:1009F0008B228431602CED302000A0008730A100D4
:100A00002030C2004208A2000330A3000030A4003E
:100A10008B3175238431200020082104031D142DFF
:100A20009731AB278431602CD5302000A00087306F
:100A3000A1002030C2004208A2000330A300003011
:100A4000A4008B3175238431200020082104031D6C
:100A50002D2D973163278431602CE1302000A000D8
:100A60008730A1002030C2004208A2000330A3005A
:100A70000030A4008B31752384312000200821042C
:100A8000031D522D97315127843178302000AE005C
:100A90008730AF00D930B0008730B10082318B226F
:100AA0008431602CE9302000A0008730A100203084
:100AB000C2004208A2000330A3000030A4008B3122
:100AC00075238431200020082104031D712D24305A
:100AD0008D31262584312000260897319B278431CB
:100AE000602CE5302000A0008730A1002030C2003B
:100AF0004208A2000330A3000030A4008B3175230C
:100B00008431200020082104031D952D5A30AE00A9
:100B10008730AF005608C200C3014208B000430846
:100B2000B10082318B228431602CD1302000A000B2
:100B30008730A1002030C2004208A2000330A30089
:100B40000030A4008B31752384312000200821045B
:100B5000031DB82D24308D31262584312000260830
:100B6000C2004208C50045089731F1278431602C46
:100B7000CD302000A0008730A1002030C200420804
:100B8000A2000330A3000030A4008B317523843110
:100B9000200020082104031DE32D97314B278431C9
:100BA0002000C2004208C5005030AE008730AF00C0
:100BB0004508C200C3014208B0004308B1008231B9
:100BC0008B228431602C203088316E208431602C5F
:100BD0002000141024009D1F1B2F9D132000E601F0
:100BE0006308023E860087010108860087018101B3
:100BF000810AE3010800C91808004808F2007208D9
:100C0000E3004808860087010108F2007208E50049
:100C1000480886008701413FE4000330F200720873
:100C2000C8074808DE3A031D192EDB30F2007208AF
:100C3000C8004910480847060319C91424001E14A7
:100C40000230F20072082000E600080024009E1422
:100C50000230F20072082000E600080024001E1F87
:100C60003A2E0130F20072082000CB0704308831A0
:100C7000B220080020006C08F3006B08F200F33685
:100C8000F20C72082400990020006B1C4C2E0B30D3
:100C9000F2007208E60008000330F2007208E60075
:100CA000080024001E1F5D2E0130F2007208200093
:100CB000CB0704308831B22008009E1420006C0855
:100CC000F3006B08F2007308F200F30106307205BE
:100CD000F40000307305F500F0307404EB000030D0
:100CE0007504EC006B14E001E00A0230F2007208B7
:100CF000E6000800600303198E2E64088600870151
:100D0000403FEB00413FEC00640886008701433F11
:100D1000E200640886008701423FE1006B0824007E
:100D2000990020006B1C992E0530F2007208E60035
:100D300008000330F2007208E600080024001E1FBD
:100D4000AC2E0130F20072082000CB0724001E13E5
:100D500005308831B220080001302000E102610A2C
:100D6000031DC62E0430F2007208E4070130E502CC
:100D7000031DBE2E00308831B220080024009E14CE
:100D80000230F20072082000E600080062088600C7
:100D900087010108240099000130F2007208200048
:100DA000E207080024001E1FE02E0130F200720846
:100DB0002000CB0704308831B22024001E13080025
:100DC0009E150830F20072082000E6000800083086
:100DD000F2007208E60024009E150800240019089D
:100DE000F20020006208860087017208810001304D
:100DF000F2007208E2070130E1020319072F240014
:100E00009E120630F20072082000E6000B2F24002C
:100E10009E1688318E2024001E160800003088316E
:100E2000B22008000130F20072082000CB07063023
:100E30008831B22008002000660884000C300402CB
:100E40000318122F883104352C3E8200080001342B
:100E500000340A34003464340034E8340334103489
:100E60002734413451344D34313436343034323413
:100E7000583441342D3452344E342D3447344234B6
:100E80005734003449344C344C34453447344134BD
:100E90004C345F3454345934503445340A340034BB
:100EA00024343A345234443441343A3425346434AA
:100EB0000A34003424343A344734453454343A3410
:100EC000253464340A3400342D34253464342E340B
:100ED00025343034323464340A34003424343A341F
:100EE000573448344F343A34253473340A34003498
:100EF0002A343A345334543450343A342534733425
:100F00000A3400342D34253464342E3425343034FE
:100F1000323464342C340034553449344E3454342F
:100F2000313436345F3454343A3400344E344F3430
:100F30005F3444344134543441340A340034553439
:100F400049344E34543438345F3454343A340034F1
:100F500046344C344F34413454343A340034283419
:100F60006E3475346C346C342934003425342534B3
:100F7000253464343A3400342334253473340A3449
:100F80000034253475340A340034253464342C3468
:100F90000034253475342C34003452344434413414
:100FA00000345734443441340034533454344134DD
:100FB0000034413443344B340034573448344F34D4
:100FC00000345334543450340034473445345434AA
:100FD000003453344534543400345334413456349B
:100FE00000344C3445344434003443344D344434B8
:100FF00000344F3446344634003449344E34493496
:101000000034433455344C3400344E3457344C346B
:10101000003448344F344D34003444345334503465
:10102000003443344C345234003453345434523446
:10103000003443345534523400344434413454344D
:10104000003443344E34543400344834533454342C
:1010500000344F344E3400348531FB2D8631262E3A
:1010600086317A2E86319E2E87310E2F8631D22EF2
:101070008631E72E87310E2F8631EE2E8731122FE3
:1010800086312E2E8631512E8E31502E8E31FB2EF2
:0C1090008E31D62E8F31112F8E31542E50
:10109E002000A100A0013A30210203185C28303054
:1010AE002102031C5C28A001A00A200C0800F500F8
:1010BE0020004C084D04031908007508F40074084C
:1010CE00F2004D088A004C080A0088310800200002
:1010DE00A5004C084D04031908002508A400240897
:1010EE00A2004D088A004C080A00883108003E30E4
:1010FE002000AE000030AF00B001B101B10A8A315C
:10110E0032228831C8300032890B8A280800043018
:10111E00F00070082000E4070130E502031D9C2852
:10112E000430F0007008E6000800E601E60A080048
:10113E007E1CA3289731E22F97314E278831003A33
:10114E00031D080020002208A3002308D900013047
:10115E00973194270800F10024001E152000630823
:10116E00023E8600870101080319C8287108F000A5
:10117E006308023E86008701010886008701700819
:10118E008100E6010800DB302000A0002008C80026
:10119E00DB30A0002008C700C9144910CB01240081
:1011AE009C0128309D009F0109309A0020001410E8
:1011BE00210014140800210091121112083023008E
:1011CE009F0090309D0024309E0067309B009C0154
:1011DE00FC012000DF010830A0002008DE00DD0148
:1011EE00DC01DB0121009116080023009D1C012962
:1011FE001D121D161908F00020005D08A03E860085
:10120E008701700881000130F0007008DD0708309A
:10121E005D020318DD010130F0007008DB070800E5
:10122E002000A401A501201C20292208A4072308C0
:10123E00A53D0130A235A30D890B21290130A13620
:10124E00A00C890B262920082104031D1A29250824
:10125E00A1002408A0000800083020005E02031838
:10126E004D295F08A83E86008701010823009A00D9
:10127E000130F00070082000DF0708305F0203180D
:10128E00DF010130F0007008DE07080021001112A6
:10129E000800F100F201710823009100700893001C
:1012AE0095131513151500308B1B0130F2008B139F
:1012BE0055309600AA30960095149518642915118C
:1012CE00720C031C8B1303188B17080022008C0161
:1012DE008D018E013F3021008C00F0308D007F306B
:1012EE008E004F3023008E008D0117308C002400AD
:1012FE008D013F308C003F308E002100951322006F
:10130E009E0184309D0008002000A1015B08031996
:10131E008D295C08A03E860087010108A0002008E8
:10132E00A1000130A0002008DC0708305C02031881
:10133E00DC012100911201302000DB022100911608
:10134E002000210808002000A6002308A50022087E
:10135E00A400A435A50D2608860087012408C03FE9
:10136E002508C13F2108A4002608023E86008701F9
:10137E00240881002008A4002608033E8600870169
:10138E002408810008000B302000A1002630A000A8
:10139E005D30890BD029A00BD029A10BD0290032AA
:1013AE0080302400940026309500813096009701FD
:1013BE00FE30930097314B2709072400920020003E
:1013CE0091112100911508002000A100A201210811
:1013DE00230091002000200823009300951315137D
:1013EE00151500308B1B01302000A2008B135530D9
:1013FE0023009600AA30960095149518042A15110C
:10140E002000220C031C8B1303188B1708002000DE
:10141E00A1005E080319102A2100111A1B2A2000B0
:10142E00210823009A002F2A111220002108A00063
:10143E007C08A83E86008701200881000130A000AC
:10144E002008FC0708307C020318FC010130DE0284
:10145E0021001116080020003008B2003208B50035
:10146E003108B2003208B6000230B2003208A700CE
:10147E002F08A9002E08A8003730B3003308AA00A1
:10148E0035308A317F228A31023020003706031927
:10149E004B2A3708031D552AB4010800B401B40ABB
:1014AE0008005530F9007908FA0020009111240047
:1014BE001108F9007908FA00141D6C2A941A161FE7
:1014CE006A2A03307A2A01307A2A941A752A7A08FF
:1014DE00031D732A04307A2A00307A2A7A08F9001A
:1014EE007908FD0002308E314E26240015160800B4
:1014FE002000AD004918A02A2D08AB002B08A00033
:10150E002708AC002C08A1002908A3002808A20077
:10151E00D4308931AA218A31D4302000AB002B0877
:10152E00A0002A08AC002C08A10001308B31FA2350
:10153E00080020002A08860087018101810A080020
:10154E002000280829040319CF2AAD01AD0AA91BD2
:10155E00BA2A0130A835A90D890BB12A0130AC0089
:10156E002C08AD07AE2A29082B02031DC02A280815
:10157E002A02031CC62A2808AA022908AB3B0130FE
:10158E00A936A80C890BC72A0130AD02031DBA2A51
:10159E002B08A9002A08A800080004302000B80073
:1015AE003808BB0020003B085907B80038088600F1
:1015BE00013087000108031908003E30AE000030EC
:1015CE00AF004030B8003808B0003B085907B900EA
:1015DE0039088600013087000108BA003A08B100C8
:1015EE008A3132228A3101302000B8003808BB0718
:1015FE00C8300032890B002BD92A2000A501A60184
:10160E00200821040319342BA701A70AA11B192BAB
:10161E000130A035A10D890B102B0130A400240838
:10162E00A7070D2B0130A535A60D890B1A2B210806
:10163E002302031D242B20082202031C2B2B20081F
:10164E00A2022108A33B25140130A136A00C890B60
:10165E002C2B0130A702031D192B2608A1002508EB
:10166E00A0000800642BCB30F0007008F1002100C0
:10167E00CE01CE0A732BCC30F0007008F100023090
:10168E005B2B4C084F020318552B4D084F07F000EB
:10169E007008F1000130F0007008CF074F084C06BB
:1016AE00031D732BCF010330F0007008CE00732B97
:1016BE006F30F0007008F100732B21004E08003AD5
:1016CE0003193A2B013A0319422B033A0319482BFB
:1016DE00013A03195F2B732B7108080001302000AB
:1016EE00A3020030A43B230A0319240A0319B42BC6
:1016FE002000200884002108850012000319932B76
:10170E002208860001308700200884002108850009
:10171E00000801060319AB2B220886000130870052
:10172E000108A500A601A509A609A50A0319A60A7E
:10173E00200884002108850000082507A00026083F
:10174E000318260AA10008000130A0070030A13DB1
:10175E000130A5002508A207752BA001A1010800E4
:10176E0031302000A1008730A200A301A401A50101
:10177E00A601FA30C6004608A7008C31D4248B315E
:10178E009F302000A0000830A10097317A278B31BE
:10179E007E302000A0000030A1009731B4278B319D
:1017AE0089316D218B3197316F278B3197316B27B3
:1017BE008B319731D4278B318B170B178831CA2079
:1017CE008B318D3197258B318F3112278B31220042
:1017DE008E178831E2208B318931CA218B318431C9
:1017EE006024803148282000A30049182E2C023096
:1017FE00A200210886008701220881002008A2008D
:10180E00470A86008701220881002308A2004708A4
:10181E0086008701220881002108A2004708023EA7
:10182E0086008701220881000330A2002208C70724
:10183E004708DE3A031D272CDB30A2002208C70022
:10184E00C91048084706031D332C4914332C2108B0
:10185E00860087018101810A2108860087010230F6
:10186E000106031D08006608031D3A2C1414080017
:10187E0004302000B8003808BB0020003B08590790
:10188E00B8003808860001308700010803190800E7
:10189E003E30AE000030AF004030B8003808B00027
:1018AE003B085907B9003908860001308700010846
:1018BE00BA003A08B1008A3132228C310130200050
:1018CE00B8003808BB07C8300032890B6B2C1430B7
:1018DE0020003B06031D7F2C3E30AE000030AF00D3
:1018EE00B001C030B8003808B1008A3132228C31D4
:1018FE00C8300032890B802C442C2000BA003E30B8
:10190E00AE000030AF00B0013930B8003808B10079
:10191E008A3132228C31C8300032890B932C3E3002
:10192E002000AE000030AF00B0013A080F39703819
:10193E00B8003808B1008A3132228C31C8300032FA
:10194E00890BA62C3E302000AE000030AF00B00157
:10195E003A08B8000430B836890BB22C380807396B
:10196E005038B9003908B1008A3132228C31C83072
:10197E000032890BBF2C3E302000AE000030AF008D
:10198E00B0013830B8003808B1008A3132228C31BB
:10199E00C8300032890BD02C08002000220821000C
:1019AE00E500200021082100E40020002308A80003
:1019BE000030A90028082100EA0020002908210093
:1019CE00EB0020002408A8000030A9002808210000
:1019DE00E800200029082100E90020002508A800C1
:1019EE000030A90028082100E60020002908210067
:1019FE00E70001309731C7278C312000A800280856
:101A0E00D60000309731C7272000A8002808D8003C
:101A1E000330A80028082100CE0020002608A800C8
:101A2E000030A90028082100B40020002908210058
:101A3E00B50020002708A8002808ED0008002000A7
:101A4E00AD002D0886000130870020300106031DF1
:101A5E00352D0130A8002808AD07282D2D08860049
:101A6E0001308700093001060319302DAB01AC019E
:101A7E00AA012D088600013087002D300106031DB6
:101A8E004D2D0130A8002808AA07552D2D088600D7
:101A9E00013087002B300106031D592D0130A8009F
:101AAE002808AD072D08860001308700010888310F
:101ABE004F208D31031C822D20002C08A1002B08F5
:101ACE00A0000A30A2000030A300893117218D3109
:101ADE0020002D0886000130870001082007A8008D
:101AEE0021080318210AA9002808D03EAB00FF30B8
:101AFE00293DAC00552D20002A080319922D2B09E3
:101B0E00A8002C09A900A80A0319A90A2808A600EA
:101B1E002908A70008002C08A7002B08A60008001B
:101B2E0041302000B800EE30890B9B2DB80B9B2D59
:101B3E0000003E302000AE000030AF00B001383063
:101B4E00B8003808B1008A3132228D31C8300032E7
:101B5E00890BAE2D3E302000AE000030AF00B0013C
:101B6E003930B8003808B1008A3132228D31C83090
:101B7E000032890BBF2D3E302000AE000030AF008A
:101B8E00B0011430B8003808B1008A3132228D31DC
:101B9E00C8300032890BD02D3E302000AE00003010
:101BAE00AF00B0017330B8003808B1008A3132226C
:101BBE008D31C8300032890BE12D3E302000AE0051
:101BCE000030AF00B0015230B8003808B1008A3191
:101BDE0032228D31C8300032890BF22D3E3020007A
:101BEE00AE000030AF00B0016C30B8003808B10064
:101BFE008A3132228D31C8300032890B032E0230E9
:101C0E002000B9004530B800A930890B0C2EB80B56
:101C1E000C2EB90B0C2E00323E302000AE000030E0
:101C2E00AF00B0013830B8003808B1008A31322226
:101C3E008D31C8300032890B212E3E302000AE008F
:101C4E000030AF00B001B101B10A8A3132228D31BC
:101C5E00C8300032890B302E3E302000AE000030EE
:101C6E00AF00B0010C30B8003808B1008A31322212
:101C7E008D31C8300032890B412E41302000B80022
:101C8E00EE30890B482EB80B482E00000800F700E6
:101C9E00072F2000EA01EA0A08000230F600760853
:101CAE002000EA0008007D0897318D278E31C92E5D
:101CBE0097315F278E31E22E973148278E31E22EF3
:101CCE009731A2278E31E22E97315B278E31E22E8D
:101CDE009731BD278E31E22EE901E90AE22E02305C
:101CEE00AA2E7D08033A0319672E073A03195F2EB1
:101CFE00013A0319632E033A03196B2E0E3A031998
:101D0E00732E023A0319762E063A03196F2EE22E1F
:101D1E00E22E6908003A0319782E013A03195A2E59
:101D2E00E22EE22E02307D06031DE22E24009613D3
:101D3E00973157278E31E22E7D08F6007608200067
:101D4E00E800E7010330F6007608E900E22E7D0890
:101D5E00F6006708A03E86000130870076088100F5
:101D6E000130F6007608E70768086702031CE22ECA
:101D7E00973145278E31003A031DC92EA030883188
:101D8E005E208E312000E901E22E20006908023A21
:101D9E000319A32E013A0319AE2EE22EE22E2000D5
:101DAE006A08003A0319CC2E013A0319902E033A11
:101DBE000319992EE22E2000EA01080097314227DE
:101DCE002400910008008B313923F6007608F800C4
:101DDE0078088600870101082400910008009731D9
:101DEE003F272400910008007D08013A0319E52ED3
:101DFE00063A0319EA2E0E3A0319F62E112F080091
:101E0E007708840005300402031808008831043571
:101E1E00443E820008003E302000AE000030AF008D
:101E2E004030B8003808B0003330B9003908B1007E
:101E3E008A3132228F31C8300032890B232F3E3047
:101E4E002000AE000030AF004030B8003808B000BF
:101E5E003730B9003908B1008A3132228F31C8309B
:101E6E000032890B372F3E302000AE000030AF001D
:101E7E004030B8003808B0002E30B9003908B10033
:101E8E008A3132228F31C8300032890B4B2F3E30CF
:101E9E002000AE000030AF004030B8003808B0006F
:101EAE003030B9003908B1008A3132228F31C83052
:101EBE000032890B5F2F3E302000AE000030AF00A5
:101ECE004030B8003808B000F230B9003908B1001F
:101EDE008A3132228F31C8300032890B732F3E3057
:101EEE002000AE000030AF004030B8003808B0001F
:101EFE004330B9003908B1008A3132228F31C830EF
:101F0E000032890B872F3E302000AE000030AF002C
:101F1E00B001C030B8003808B1008A3132228F319A
:101F2E00C8300032890B982F3E302000AE000030B2
:101F3E00AF004030B8003808B0002830B90039087A
:101F4E00B1008A3132228F31C8300032890BAC2F6A
:101F5E003E302000AE000030AF004030B8003808F0
:101F6E00B0005E30B9003908B1008A3132228F31AB
:101F7E00C8300032890BC02F3E302000AE0000303A
:101F8E00AF004030B8003808B0002D30B900390825
:101F9E00B1008A3132228F31C8300032890BD42FF2
:101FAE003E302000AE000030AF004030B8003808A0
:101FBE00B0005E30B9003908B1008A3132228F315B
:101FCE00C8300032890BE82F3E302000AE000030C2
:101FDE00AF004030B8003808B0002930B9003908D9
:101FEE00B1008A3132228F31C8300032890BFC2F7A
:021FFE000800D9
:102E7E0020005608080020005808080020005508B9
:102E8E0008002000D4010800200058080800200087
:102E9E00550808002000D40108000134013406341E
:102EAE002000CE01CE0A08002000D301D30A08006C
:102EBE002000D401D40A08002000D401D40A08004E
:102ECE000B0C890C01390800163021009700080000
:102EDE00683021009900980108002000A200220805
:102EEE008A310E22080020002108CD002008CC00D7
:102EFE000800640080010131890B812F0034F1003C
:102F0E007108F00070082000D5000800F10071086B
:102F1E00F00070082000D60008002000A100210853
:102F2E00A0002008D50008002000A1002108A00064
:102F3E002008D600080020005608F3007308F000A1
:102F4E00013089315021080020005608A3002308C3
:102F5E00A00001308931EB2108002000210821005A
:102F6E00B700200020082100B600080021004E08FE
:102F7E0003190800CF010330F0007008CE000800DE
:102F8E002000A0002008230091001513951315149E
:102F9E000000000023001308080021001508C039A6
:102FAE00153895008330200095008330A00020084E
:102FBE00DA000B110800973145279731003A031DAF
:102FCE0008007208F30073082000D9000130973111
:102FDE00862708002000A4002408A3002308A000D0
:102FEE0000308931EB2120002408A3002308D800EB
:022FFE000800C9
:020000040001F9
:04000E00E4FFFFFF0D
:00000001FF
