:1000000080313C28FF3401347E14803120007F0889
:10001000FD000B1F15282100111E15282000111EA0
:1000200015289231FE22803137280B1F212821000C
:10003000911E21282000911E21289231E222803138
:1000400037280B1F2D282100921D2D282000921DDE
:100050002D2888310020803137280B1F37282100B8
:10006000911D37282000911D37288B3136237D08BC
:100070002000FF007E10090080313E2821008031E1
:1000800002208031ED00803103208031EE0022001B
:100090009F31D2278031E2009F31D3278031E300A6
:1000A0009F31D4278031E400303084002330850034
:1000B000C030FE000030FF009131EF218031F001AF
:1000C000F101F201F301F401F501F6012000EB0169
:1000D000EC01ED01EE01D9308400003085001430D0
:1000E000FE000030FF009131EF218031203084008C
:1000F000013085004230FE000030FF009131EF21D9
:100100008031A0308400013085002C30FE000030AA
:10011000FF009131EF2180312030840002308500D2
:100120004030FE000030FF009131EF218031A030DF
:100130008400023085004030FE000030FF00913125
:10014000EF21803120308400033085004030FE00F4
:100150000030FF009131EF217E1020009431D52C2A
:100160002000CA004A080319132B5E30AE009130FC
:10017000AF004A08C700C8014708B0004808B100EE
:100180008E312B268031132B01302000C5023930EF
:10019000AE009130AF008E312B2680312000EB0174
:1001A00045086B020318EF286D30AE009130AF00A8
:1001B0006B084607C7004708860001308700010822
:1001C000C800C9014808B0004908B1008E312B268B
:1001D000803101302000C7004708EB07D028693084
:1001E000AE009130AF006B084607C7004708860095
:1001F000013087000108C800C9014808B00049085B
:10020000B1008E312B26080001302000C5023A30A3
:10021000AE009130AF008E312B2680312000EB01F3
:1002200045086B0203182D297D30AE009130AF00D8
:100230006B084607C70047088600013087000108A1
:10024000B000B101B01BB1038E312B2680310130DB
:100250002000C7004708EB071029E630AE009030B9
:10026000AF006B084607C7004708860001308700CB
:100270000108B000B101B01BB1038E312B2608007C
:1002800012302000AE009130AF008E312B2680312D
:1002900020004508FE3EC7004708C500EB014508A1
:1002A0006B0203187D296D30AE009130AF006B08F2
:1002B000013E4607C7004708860001308700010855
:1002C000C8004808A0006B084607C9004908860016
:1002D0000130870001089231472280312000210837
:1002E000B1002008B0008E312B26803120006B0831
:1002F000023EC7004708EB004F296930AE0091303D
:10030000AF006B08013E4607C70047088600013072
:1003100087000108C8004808A0006B084607C9000C
:100320004908860001308700010892314722803158
:1003300020002108B1002008B0008E312B260800D3
:1003400013302000AE009130AF008E312B2680316B
:1003500020004508FE3EC7004708C500EB014508E0
:100360006B020318DD297D30AE009130AF006B08C1
:10037000013E4607C7004708860001308700010894
:10038000C8004808A0006B084607C9004908860055
:100390000130870001089231472280312000210876
:1003A000B1002008B0008E312B26803120006B0870
:1003B000023EC7004708EB00AF29E630AE009030A0
:1003C000AF006B08013E4607C700470886000130B2
:1003D00087000108C8004808A0006B084607C9004C
:1003E0004908860001308700010892314722803198
:1003F00020002108B1002008B0008E312B26080013
:1004000042302000AE009130AF008E312B2680317B
:1004100020004508FE3EC7004708C500EB0145081F
:100420006B020318792A6B08013E4607C70047088C
:100430008600013087000108C8004808A0006B084A
:100440004607C9004908860001308700010892313B
:100450004722803120002108CC002008CB004C0826
:10046000803AC7007F304702031D382A9D304B0277
:10047000031C3D2A2000CC1B422A09302000AE007C
:100480009130462A08302000AE009130AF00643031
:10049000A0000030A1004C08A3004B08A200883146
:1004A0007820803120002108B1002008B00064309D
:1004B000A0000030A1004C08A3004B08A200953119
:1004C000F225803120002108A8002008A7009231E1
:1004D0001722803120002808B3002708B2008E318F
:1004E0002B26803120006B08023EC7004708EB0036
:1004F0000F2A6B08013E4607C700470886000130F7
:1005000087000108C8004808A0006B084607C9001A
:100510004908860001308700010892314722803166
:1005200020002108CC002008CB004C08803AC700EE
:100530007F304702031D9E2A9D304B02031CA32AD5
:100540002000CC1BD32AEB302000AE009030AF004F
:100550006430A0000030A1004C08A3004B08A200AA
:1005600088317820803120002108B1002008B000B7
:100570006430A0000030A1004C08A3004B08A2008A
:100580009531F225803120002108A8002008A7001D
:1005900092311722803120002808B3002708B200CA
:1005A0008E312B260800EA302000AE009030AF00DC
:1005B0006430A0000030A1004C08A3004B08A2004A
:1005C00088317820803120002108B1002008B00057
:1005D0006430A0000030A1004C08A3004B08A2002A
:1005E0009531F225803120002108A8002008A700BD
:1005F00092311722803120002808B3002708B2006A
:100600008E312B26080030302000AE009130AF0034
:100610008E312B260800AF302000AE009030AF00A6
:100620008E312B26080020004408013A0319C42803
:10063000033A03190429013A03194029073A031917
:10064000A029013A0319002A033A0319032B0B2BA3
:10065000080085302000A0009130A1005B08A200B6
:100660000230A3000330A4000030A5009531B0256E
:100670008331200020082104031D4C2B5B08043E1D
:10068000A6000230A7008931D02120002608DC0016
:100690005C082100EE000800A1302000A00091308D
:1006A000A1005B08A2000230A3000330A4000030C8
:1006B000A5009531B0258331200020082104031DB9
:1006C000642B963138260800A9302000A000913014
:1006D000A1005B08A2000230A3000330A400003098
:1006E000A5009531B0258331200020082104031D89
:1006F000912B5B08043EA6000230A7008931D0216F
:10070000833120002608DC005C08F2001C307202F5
:10071000031C08002530AE009030AF008E312B2630
:10072000080095302000A0009130A1005B08A200D5
:100730000230A3000330A4000030A5009531B0259D
:100740008331200020082104031DE32B1C3072029A
:100750000318DC2B5B08043EA6000230A700893199
:10076000D021833120002608DC005C08E300630808
:10077000DC000430A0000030A1007208DD00DE01C2
:100780005D08A2005E08A300883178208331200034
:100790002008DF000230DF35890BCB2BA0305F074C
:1007A000E000720803396007E1006108860001304B
:1007B00087005C08810008000B30AE009030AF006D
:1007C0008E312B26080091302000A0009130A1002E
:1007D0005B08A2000230A3000330A4000030A50093
:1007E0009531B0258331200020082104031D302CD1
:1007F000E4011C306402031808000430A00000303B
:10080000A1006408DC00DD015C08A2005D08A30013
:1008100088317820833120002008DE000230DE3568
:10082000890B0F2CA0305E07DF00640803395F07D7
:10083000E00060088600013087000108E1006108DF
:10084000E3006308DC005C08A0006408023E93310A
:100850009123833101302000DC005C08E407F92B90
:100860008D30A0009130A1005B08A2000230A300EF
:100870000330A4000030A5009531B025833120005D
:1008800020082104031DB82C5030AE009130AF0079
:100890008E312B2683312000E4011B3064020318C3
:1008A000A82C6408013E0339031D702CB930AE003A
:1008B0009130AF000430A0000030A1006408DC00DB
:1008C000DD015C08A2005D08A30088317820833137
:1008D00020002008DE000230DE35890B6C2C8A2CCB
:1008E0007D302000AE009130AF000430A000003019
:1008F000A1006408DC00DD015C08A2005D08A30023
:1009000088317820833120002008DE000230DE3577
:10091000890B872CA0305E07DF00640803395F076E
:10092000E00060088600013087000108E100E20174
:100930006108B0006208B1008E312B26833101308E
:100940002000DC005C08E4071B306402031C512C0F
:10095000E630AE009030AF0023003B082000DC0002
:10096000DD015C08B0005D08B1008E312B26080067
:1009700089302000A0009130A1005B08A200023065
:10098000A3000330A4000030A5009531B0258331C9
:10099000200020082104031DF82CE4011C3064020F
:1009A000031808000430A0000030A1006408DC0037
:1009B000DD015C08A2005D08A30088317820833146
:1009C00020002008DE000230DE35890BE42CA03048
:1009D0005E07DF00640803395F07E00060088600F7
:1009E0000130870081010130DC005C08E407CE2C77
:1009F0009930A0009130A1005B08A2000230A30052
:100A00000330A4000030A5009531B02583312000CB
:100A100020082104031D1D2D5B08043EA6000230A2
:100A2000A7008931D021833120002608DC005C0832
:100A3000E300630895316F25080021006E03031958
:100A4000080020005B089631802608002100D200B3
:100A500052082000C400C5014408A0004508A100B8
:100A60003030A2000030A30093311A23853130309A
:100A70002000C6002330C700200846072100D70009
:100A800020002108473D2100D8005708860058085B
:100A900087000108031D4E2D003008009D30200006
:100AA000A0009130A100210058082000A3002100DF
:100AB00057082000A2000330A4000030A5009531A3
:100AC000B0258531200020082104031D8D2D210033
:100AD0006E082000C400C5014408B0004508B100FC
:100AE000B201B20AD630B3000030B400B501B50A85
:100AF0008831CA2085312000C60046082100D50073
:100B00005508031D882D1C302000AE009130A02E0A
:100B1000BD302000AE0090300E2FB5302000A00078
:100B20009130A100210058082000A300210057089F
:100B30002000A2000330A4000030A5009531B025AC
:100B40008531200020082104031DB12D21006E08ED
:100B50002000C400C5014408AE004508AF000330C2
:100B6000D42D81302000A0009130A1002100580830
:100B70002000A300210057082000A2000330A40099
:100B80000030A5009531B0258531200020082104D2
:100B9000031DE02D21006E082000C400C50144089B
:100BA000AE004508AF000430C6004608B0009431DE
:100BB000512485312000C70047082100D500112F9E
:100BC000A5302000A0009130A1002100580820008D
:100BD000A300210057082000A2000330A400003029
:100BE000A5009531B0258531200020082104031D82
:100BF0001B2E21006E082000C400C5014408AE0071
:100C00004508AF000530C6004608B00094315124B5
:100C100085312000C70047082100D5005508031D75
:100C2000162ED5302000AE0090300E2FC930200097
:100C3000AE0090300E2FB1302000A0009130A10006
:100C4000210058082000A300210057082000A2001E
:100C50000330A4000030A5009531B0258531200077
:100C600020082104031D6D2E21005708043E20009A
:100C7000C40000302100583D2000C5004408A600F3
:100C80004508A7008931D021853120002608C600FB
:100C900046082100D6006E082000C400C5014408A3
:100CA000AE004508AF000830C6004608B0009431D9
:100CB0005124853121006E082000C400C50144087C
:100CC000AE004508AF00210056082000C6004608C7
:100CD000B000943151248531112FAD302000A00097
:100CE0009130A100210058082000A30021005708DE
:100CF0002000A2000330A4000030A5009531B025EB
:100D00008531200020082104031DAB2E21006E0830
:100D10002000C400C5014408B0004508B1000930F6
:100D2000C6004608B200D630B3000030B400B501AA
:100D3000B50A8831CA20853126302000AE009130B6
:100D4000AF00210056082000C400C5014408B000CF
:100D50004508B1000F2F2100D40102302000C4004B
:100D600044082100D30054082000C400C5014408F1
:100D7000210057078600200045082100583D8700C4
:100D800001082000C60021005308A03E860087010C
:100D90002000460881000130C40044082100D30728
:100DA0005408D40A2000C400C50144082100570794
:100DB0008600200045082100583D87000108031DDA
:100DC000B32E0A302000C40044082100A0005408BB
:100DD0002000C40044082100A1006E082000C400C7
:100DE000C5014408AE004508AF00A030C600460863
:100DF000B000210053082000C7004708B10093311C
:100E0000FF2385312000C80048082100D50055087F
:100E10000319112F59302000AE009030AF008E31F1
:100E20002B262100570886005808870081010130D1
:100E300008002000D50022000E0D0E0D0139200003
:100E4000CD000130CD06CD0CCD0C22000E082000C7
:100E50004D067F394D0622008E00E430003200320C
:100E6000890B2E2F0032003220005508CD00CE0114
:100E70004D08AE004E08AF000630CF004F08B0005E
:100E80009431512487310B302000CD006230890B22
:100E9000472FCD0B472F000020005508CD00CE0175
:100EA0004D08B0004E08B1000730CF004F08B20027
:100EB0005230B3000030B400B501B50A8831CA2001
:100EC00087312000D0005008D400A0300032890BB8
:100ED000662F20005408031DCA2F06305206031D3A
:100EE000782F0630CD004D08C400C501C601C72FBC
:100EF00020005508CD00CE014D08B0004E08B100CD
:100F00000730CF004F08B2005330B3000030B400B8
:100F1000B501B50A8831CA2087312000D0005008B9
:100F2000D400A0300032890B922F20005408031DFA
:100F3000CA2F5508CD00CE014D08B0004E08B100B3
:100F40000730CF004F08B200BC30B3000130B4000E
:100F50005308D0005008B5008831CA2087312000DE
:100F6000D1005108D400A0300032890BB42F2000EA
:100F70005408031DCA2F5208CD004D08C400530861
:100F8000CE004E08C500BC30CF004F08C600550843
:100F90008031B0202000540808002000AF00083045
:100FA000A0000030A1002F08A900AA012908A20072
:100FB0002A08A30088317820873120002008AB0060
:100FC0002B08AC002F080739A9002908AD00AE0195
:100FD0002C08203E8600013087000130A9002D0A30
:100FE000F22FA935890BF12F290801050319FA2FD2
:100FF000AE01AE0A2E080800163021009700080046
:1010000008002000A1007408031903282100111A08
:101010000E282000210823009A0023281112200006
:101020002108A0007608A03E860002308700200834
:1010300081000130A0002008F60740307602031836
:10104000F6010130F40221001116080020002208E8
:101050002200A700200021082200A600200023086B
:10106000A9000030AA0029082200B40020002A08A4
:101070002200B50020002408A9000030AA00290899
:101080002200B20020002A082200B3002000250818
:10109000A9000030AA0029082200B00020002A0878
:1010A0002200B10001309131FB2188312000A900DC
:1010B00029082100DE0000309131FB212000A90029
:1010C00029082100E00003302000A900290822009F
:1010D000CA00200027082200AB00200026082200BA
:1010E000AA0020002808A90029082200E200080020
:1010F0002000A601A11F8328A009A109A00A0319A5
:10110000A10AA601A60AA31F8E28A209A309A20A62
:101110000319A30A0130A4002408A606A701A80108
:10112000200821040319BD28A501A50AA11BA22896
:101130000130A035A10D890B99280130A4002408A5
:10114000A50796280130A735A80D890BA3282108EB
:101150002302031DAD2820082202031CB428200806
:10116000A2022108A33B27140130A136A00C890B51
:10117000B5280130A502031DA22826080319C52899
:10118000A709A809A70A0319A80A2808A10027087F
:10119000A000080020003208B6003608B900A030D0
:1011A0000032890BD0282000A701A70A3108A90026
:1011B0003008A8003A30B6003608AA003930943119
:1011C00027248831023020003A06031DEC28A03085
:1011D0000032890BE828E2283A08031D1B29A030B9
:1011E0000032890BF02820003408A9003308A80039
:1011F0003508B6003608AA003108AC003008AB004C
:101200003A30B7003708AD009331D7238831023028
:1012100020003A06031D1129A0300032890B0D2948
:1012200007293A08031D1629B8011D290230B60006
:101230003608B8001D29B801B80A3808080020008F
:10124000A30021005B18612902302000A2002108C0
:1012500086008701220881002008A2002100590A87
:101260008600013087002000220881002308A200A8
:1012700021005908860001308700200022088100E3
:101280002108A20021005908023E86000130870093
:101290002000220881000330A20022082100D90783
:1012A00059085C3A031D5A2959302000A20022082F
:1012B0002100D900DB105A085906031D67295B1469
:1012C000672920002108860087018101810A20000A
:1012D00021088600870102300106031D0800210055
:1012E0006C08031D6F292000911508002000A6013D
:1012F000210064080319CD2908306302031C8729E3
:10130000E30101302000A00020082100E2070A309C
:1013100084009030850000086202031C9129E301DB
:10132000E2016208203E86000130870001082000AB
:10133000A000A1010130A2000030A3002100630A37
:101340002000A429A235A30D890BA229200822057B
:10135000A40021082305A500240825040319C62993
:10136000210062082000A0000230A035FF3E031DCE
:10137000B5292035210063072000A1002108A7001E
:101380000130A00020082100E307CD290130200012
:10139000A00020082100E3077C292000270808007E
:1013A0002000260886002708870020300106031D3C
:1013B000DF2901302000A6070030A73DD0292608EC
:1013C000860027088700093001060319D929AB01D7
:1013D000AC01AA0126088600270887002D300106E7
:1013E000031DF7290130A8002808AA07FF292608AD
:1013F0008600270887002B300106031D032A0130D1
:10140000A6070030A73D26088600270887000108A8
:10141000923108228931031C2C2A20002C08A100BB
:101420002B08A0000A30A2000030A30093311A2339
:101430008931200026088600270887000108200738
:10144000A80021080318210AA9002808D03EAB00F3
:10145000FF30293DAC00FF2920002A0803193C2A4F
:101460002B09A8002C09A900A80A0319A90A280811
:10147000A6002908A70008002C08A7002B08A60032
:1014800008002000B0010A30840090308500000878
:10149000300203185D2A3008203E860001308700A4
:1014A00081010130A9002908B0070A30840090307A
:1014B000850000083002031C4B2AB10104303102C0
:1014C0000318842A3108A900AA012908A0002A08C3
:1014D000A1003030A2000030A30093311A238A31DA
:1014E00030302000AB002330AC0020082B078600F2
:1014F00021082C3D870081010130A9002908B1078E
:1015000004303102031C622AB1011C30310203187D
:1015100008003108023E9131FB218A312000A900E8
:101520002908AF002F08A9000430A0000030A10056
:101530003108AA00AB012A08A2002B08A3008831B9
:1015400078208A3120002008AC000230AC35890BAD
:10155000A62AA0302C07AD00310803392D07AE00B4
:101560002E08860001308700290881000130A9007B
:101570002908B107852AA0309731B1278A31701820
:10158000C52AA4309731B1278A3106302000A8003F
:101590000030A9007108AB007008AA009431A8249B
:1015A0008A31200028082904031DDA2AA83097313F
:1015B000B1278A310C302000A8000030A900710842
:1015C000AB007008AA009431A8248A3120002808B2
:1015D0002904031DEF2AAC309731B1278A313C3002
:1015E0002000A8000030A9007108AB007008AA0014
:1015F0009431A8248A31200028082904031D042BD3
:10160000B0309731B1278A3178302000A8000030FF
:10161000A9007108AB007008AA009431A8248A318F
:10162000200028082904031D192BB4309731B12755
:101630008A3158302000A8000230A9007108AB00A0
:101640007008AA009431A8248A31200028082904AF
:10165000031D312BB8309731B1270130F000003035
:10166000F1000130F0070030F13D08002000911139
:101670002400951F812C95132100EC016908023E7E
:101680008600013087000108860087018101810AF8
:10169000E9010800DB1808005A08F9007908E90098
:1016A0005A088600013087000108F9007908EB002C
:1016B0005A088600013087000130413FEA000330BC
:1016C000F9007908DA075A085C3A031D6B2B593088
:1016D000F9007908DA005B105A0859060319DB147F
:1016E000240016140230F90079082100EC000800EB
:1016F000240096140230F90079082100EC0008005B
:101700002400161F8C2B0130F90079082100DD0719
:10171000043092319322080020006E08FA006D0810
:10172000F900FA36F90C79082400910020006D1CAC
:101730009F2B0B30F90079082100EC0008000330E2
:10174000F90079082100EC0008002400161FB12BD5
:101750000130F90079082100DD070430923193222D
:101760000800961420006E08FA006D08F9007A0847
:10177000F900FA0106307905FB0000307A05FC001B
:10178000F0307B04ED0000307C04EE006D1421008D
:10179000E701E70A0230F9007908EC000800670366
:1017A0000319EE2B6A08860001308700403F2000B5
:1017B000ED00413FEE0021006A08033E8600013043
:1017C0008700403F2200B800413FB90021006A086D
:1017D0008600013087000130423FE80020006D089C
:1017E0002400910020006D1CFB2B0530F9007908C6
:1017F0002100EC0008000330F90079082100EC001A
:1018000008002400161F0F2C0130F9007908210070
:10181000DD072400161305309231932208000130B1
:101820002100E802680A031D292C0530F900790817
:10183000EA070130EB02031D212C00309231932284
:101840000800240096140230F90079082100EC0009
:1018500008002200380886003908870001082400A3
:10186000910001302200B8070030B93D0800240083
:10187000161F452C0130F90079082100DD070430DE
:101880009231932224001613080096150830F900AF
:1018900079082100EC0008000830F9007908EC0014
:1018A00024009615080022003808860039088700B1
:1018B00024001108810001302200B8070030B93D32
:1018C00001302100E80203196D2C24009612063025
:1018D000F90079082100EC00712C24009616923151
:1018E0003622240016160800003092319322080098
:1018F0000130F90079082100DD070630923193228A
:10190000080021006C0884000C3004020318782CB5
:1019100091310435BD3E820008009131D6218C31D1
:101920002000E70067082200BE003E080319C42C0F
:101930000B11280829040319A22C29088A00280859
:101940000A008C3122002A082B040319C42C013010
:101950002000E70067082200BF0721005E08220080
:101960003F02031CC42CBF0101302000E7006708C0
:101970002200C00762084002031CC42C420803195D
:10198000C32CC101C10AC00141080319D22C2A0885
:101990002B040319D22C2B088A002A080A008C3148
:1019A0002200C1012100660803198D2C9331712397
:1019B0008C312000E7006708E9006908E700210092
:1019C0005F08203E86000230870020006708810003
:1019D0000130E70067082100DF070A3020006906B0
:1019E000031D8D2C01302100DF025F08203E8600A0
:1019F000023087008101DF0164302000AE009130A9
:101A0000AF002030B0000230B1008E312B268C3177
:101A100021006E030319112D203092316B228C317D
:101A20008D2C9D302000A0009130A1002030A2001C
:101A30000230A3000330A4000030A5009531B0258A
:101A40008C31200020082104031D362DF430AE0017
:101A50009030AF00220027082000B10022002608A5
:101A60002000B0008E312B268C318D2CB53020001B
:101A7000A0009130A1002030A2000230A30003306A
:101A8000A4000030A5009531B0258C31200020083D
:101A90002104031D4F2D9131DA218C318D2C8130A1
:101AA0002000A0009130A1002030A2000230A3004D
:101AB0000330A4000030A5009531B0258C31200002
:101AC00020082104031D682D9F31D5278C318D2CD2
:101AD000A5302000A0009130A1002030A2000230EB
:101AE000A3000330A4000030A5009531B0258C314F
:101AF000200020082104031D8D2D9F31CF278C311C
:101B0000FE302000AE009030AF007930B000913050
:101B1000B1008E312B268C318D2CB1302000A000ED
:101B20009130A1002030A2000230A3000330A400B5
:101B30000030A5009531B0258C312000200821040B
:101B4000031DAF2D2430A6000230A7008931D0211B
:101B50008C31200026089F31E6278C318D2CAD304A
:101B60002000A0009130A1002030A2000230A3008C
:101B70000330A4000030A5009531B0258C31200041
:101B800020082104031DD52D2630AE009130AF0072
:101B900021005E082000E700E8016708B00068083F
:101BA000B1008E312B268C318D2C75302000A00099
:101BB0009130A1002030A2000230A3000330A40025
:101BC0000030A5009531B0258C312000200821047B
:101BD000031DFB2D2430A6000230A7008931D0213F
:101BE0008C3120002608E7006708EA006A08923175
:101BF00026228C318D2C71302000A0009130A10064
:101C00002030A2000230A3000330A4000030A50061
:101C10009531B0258C31200020082104031D262E8B
:101C20009F31CC278C312000E7006708EA00E030C4
:101C3000AE009030AF006A08E700E8016708B00026
:101C40006808B1008E312B268C318D2C20309231DA
:101C50006B228C318D2C30302000B4003408BB0056
:101C600020002F08B5002E08B400AE0A0319AF0AF1
:101C700034088400350885000008B6003608C30023
:101C80004308031908002530430603194C2E430866
:101C90009F31D9278E31302E2000C101C201C001F1
:101CA000562E40150130AE070030AF3D2E0884009F
:101CB0002F0885000008303A0319512E5F2E2E0898
:101CC00084002F0885000008923108228E31031C01
:101CD000002F2000C101C2010A302000A000003006
:101CE000A1004208A3004108A20093311A238E31BB
:101CF00020002108C2002008C1002E0884002F08FF
:101D000085000008D03EB400FF3003180030B50055
:101D10003408C1073508C23D0130AE070030AF3D81
:101D20002E0884002F0885000008923108228E3189
:101D3000031C002F6C2E20003B0886008701403FCB
:101D4000B900413FBA000230B4003408BB0739087B
:101D50003A04031DAF2E4930B9009130BA00BE01DC
:101D6000BF0139083E0784003A083F3D8500120054
:101D70000319BF2E0130BE070030BF3DB12E42080F
:101D80003F02031DC52E41083E020318CC2E3E081B
:101D9000C1023F08C23BCE2EC101C201FF3020006C
:101DA000C107FF30C23D410A0319420A0319EA2E56
:101DB00020309F31D9278E31CE2E390884003A0841
:101DC000850000089F31D9278E3101302000B907E6
:101DD0000030BA3D0130BE020030BF3B3E0A031D59
:101DE000DD2E3F0A0319302EDD2E4330B9000030BE
:101DF000BA000130BE000030BF00BF2E40171E2FBA
:101E000020002F08B5002E08B400AE0A0319AF0A4F
:101E100034088400350885000008C300003A03191F
:101E2000FF2F643A03191E2F0D3A03191E2F1A3A79
:101E300003199B2E063A0319FE2EF52E2000401B97
:101E4000382F3B0886008701403FBC00413FBD0062
:101E50000230B4003408BB07BD1F432F0330B40069
:101E60003408C004BC09BD09BC0A0319BD0A432FCC
:101E70003B0886008701403FBC00413FBD00023067
:101E8000B4003408BB07C301C30A05304306031975
:101E9000682F4308B400B501B435B50D00303407E0
:101EA00084009030353D8500003FB600013FB7000B
:101EB00037083D02031D5E2F36083C02031C682FC5
:101EC0000130B4003408C30705304306031D492F11
:101ED000410842040319742F400803390319742F71
:101EE000FF30C107FF30C23D4308B400B501B41B49
:101EF000B5033508803AB6004208803A3602031D21
:101F0000832F410834020318902F20004308B400A7
:101F1000B501B41BB5033408C1023508C23B932F89
:101F20002000C101C201401DAC2F40080339031934
:101F30009D2F2D309F31D9278E312000410842043A
:101F40000319C52F30309F31D9278E31FF30200043
:101F5000C107FF30C23D9E2F410842040319BD2F27
:101F600020309F31D9278E31FF302000C107FF304C
:101F7000C23D41084204031DB02F40080339031934
:101F8000C52F2D309F31D9278E3120004308B40052
:101F90003408B800FF302000B4003408B807380A0D
:101FA0000319302E0A30A8000030A9003808B40008
:101FB000B501B435B50D0030340784009030353D9F
:101FC0008500003FA000013FA1003D08A3003C08A0
:101FD000A200953102258E3120002108AB00200897
:101FE000AA009431A8248E3120002808303EB60083
:101FF0003608C30043089F31D9278E31CA2F080005
:10200000013400340A34003464340034E8340334D6
:1020100010342734043421343A345734533443349D
:102020003A3450344F34533420344C3441345234E5
:1020300047344534523420345434483441344E34D7
:102040002034323437340A34003421343A345034B2
:102050004F3453343A3450344F34533420344C34A6
:1020600041345234473445345234203454344834A3
:1020700041344E342034323437340A34003421347D
:102080003A3425342534253464343A3455344E34C6
:10209000443445345434453443345434453444345E
:1020A00020344434453456344934433445340A34B6
:1020B000003421343A344E344F34203441344334E4
:1020C0004B342034463452344F344D342034493468
:1020D00032344334203453344C3441345634453450
:1020E0000A34003421343A344D34413450343A34D3
:1020F0004E344F34203453344C3441345634453408
:10210000203446344F3455344E3444340A34003489
:1021100021343A3425342534253464343A344E3469
:102120004534543457344F3452344B3420344534CE
:10213000523452344F3452340A340034423441342D
:1021400043344B3450344C3441344E3445342D34C4
:102150004D344134533454344534523400344934CA
:102160004C344C344534473441344C345F3454346B
:102170005934503445340A34003421343A34573415
:1021800048344F343A344E34413443344B340A34B7
:10219000003421343A345334543450343A344E34C5
:1021A000413443344B340A3400342A343A345334FF
:1021B000543450343A34413443344B340A340034C8
:1021C00024343A345234443441343A342534643477
:1021D0000A3400342D34253464342E34253430341C
:1021E000323464340A34003424343A3457344834B2
:1021F0004F343A34253473340A3400342A343A34B0
:102200005334543450343A34253473340A3400345B
:102210002D34253464342E3425343034323464344F
:102220002C340034553449344E345434313436343B
:102230005F3454343A34003424343A345734483414
:102240004F343A34253464340A34003424343A3474
:102250004734453454343A34253464340A34003431
:102260004E344F345F3444344134543441340A34AE
:102270000034553449344E34543438345F34543493
:102280003A34003446344C344F34413454343A34C4
:10229000003428346E3475346C346C342934003492
:1022A00024343A345234533443343A3400342434EA
:1022B0003A344D34413450343A34003425342534E2
:1022C000253464343A3400342334253473340A34E6
:1022D0000034253475340A340034253475342C34F4
:1022E000003452344434413400345734443441349B
:1022F0000034413443344B340034253464342C34BA
:102300000034533454344134003449343234433487
:10231000003443345334433400345234533443345C
:102320000034533453344334003457345334433437
:102330000034533445344E340034573448344F3429
:1023400000344D3441345034003453345434503418
:10235000003450344F34533400344734453454340B
:1023600000345334453454340034533441345634F7
:102370000034253464347C3400348B314A2B8B3167
:10238000782B8B31CF2B8C31012C8C31742C8C31F0
:10239000372C8C314C2C8C31742C8C31532C8C314F
:0A23A000782C8B31802B8B31A52B9C
:1023AC000B0C890C0139080021005E082000A300E9
:1023BC002308A00001309331912308002100150857
:1023CC00C03917389500200095012100E5010B114B
:1023DC0008006400800101310130FE020030FF3B37
:1023EC007F087E0403190034F0292000A000200887
:1023FC002300910015139513151400000000230001
:10240C00130808002000A100A0013A302102031893
:10241C00152A30302102031C152AA001A00A200C19
:10242C0008002000A81F08002709A9002809AA00F5
:10243C00A90A0319AA0A2908A7002A08A800080053
:10244C002000A4002408A3002308A000003093312E
:10245C00912320002408A30023082100E000080099
:10246C000530F70077082100EA070130EB02031D65
:10247C00442A0430F7007708EC000800EC01EC0A61
:10248C0008002000A7002008A200A3012708A40030
:10249C00A5012408A500A40122082407A0002308F4
:1024AC00253DA10008009331522392319F31DF2743
:1024BC0092318731FC27923193313623923191310D
:1024CC00E42192319231AD2208002000E600220076
:1024DC002C082D040319080020006608E500650887
:1024EC00DB0022002D088A002C080A00923108001B
:1024FC0000302000AE00AF000230C0004008B00039
:10250C009431512492312000C1004108C20042088C
:10251C00031D0800953137250800F8002400161516
:10252C0021006908023E860001308700010803196A
:10253C00AB2A7808F7006908023E86000130870054
:10254C0001088600870177088100EC010800210052
:10255C0091121112083023009F0090309D002430FE
:10256C009E0044309B009C01F601F5014030200098
:10257C00A0002008F400F301EC012100E601911603
:10258C00080020002708AB002608AA002A088600AD
:10259C002B08870028088400023085000008C03F03
:1025AC008908031908000130AA070030AB3D01303F
:1025BC00A9002908A807CC2A23009D1CE72A1D1274
:1025CC001D161908F7007308203E8600033087009B
:1025DC00770881000130F7007708F3074030730269
:1025EC000318F3010130F70077082100E607080013
:1025FC00403074020318172B7508A03E8600023079
:10260C008700010823009A000130F7007708F507CE
:10261C00403075020318F5010130F7007708F40714
:10262C0008002100111208002000A401A501201CA3
:10263C00232B2208A4072308A53D0130A235A30DA6
:10264C00890B242B0130A136A00C890B292B2008D7
:10265C002104031D1D2B2508A1002408A00008003F
:10266C0059302000A00020082100DA005930200049
:10267C00A00020082100D900DB145B10DD018030A4
:10268C00240094002830950097014F3092002000D0
:10269C00911121009115080022008C018D018E01F1
:1026AC003F3021008C00F0308D007F308E004F3099
:1026BC0023008E0020308D0017308C0024008D01FB
:1026CC003F308C00BF308E002100951322009E01FC
:1026DC0084309D0008002000A10121006608031928
:1026EC00732B20006C08203E860003308700010805
:1026FC00A0002008A1000130A0002008EC07403009
:10270C006C020318EC01210091120130E6029116C3
:10271C002000210808002000A100A20121082300AC
:10272C009100200020082300930095131513151514
:10273C0000308B1B01302000A2008B13553023007E
:10274C009600AA30960095149518AA2B1511200006
:10275C00220C031C8B1303188B1708002000A600F7
:10276C002308A5002208A400A435A50D2608860080
:10277C00013087002408C03F2508C13F2108A40070
:10278C002608023E860001308700240881002608B6
:10279C00033E8600013087002008C03F0030C13F57
:1027AC00080021005B18F82B20002908A10028083C
:1027BC00A0002A08AE002E08A2002C08A4002B08AA
:1027CC00A3004C3094317C2493314C302000AE006B
:1027DC002E08A0002D08AF002F08A1000130893170
:1027EC001F21080020002D08860087018101810A25
:1027FC000800A0300032890B002C20003108B200F8
:10280C003208A7002F08A9002E08A8003530B30005
:10281C003308AA0030089431272493310230200069
:10282C003506031D1E2CA0300032890B1A2C142CDB
:10283C003508031D232CB401252CB401B40A34082B
:10284C0008002000AD0021005B184A2C20002D0848
:10285C00AB002B08A0002708AC002C08A10029080D
:10286C00A3002808A20051309331B4239431513085
:10287C002000AB002B08A0002A08AC002C08A100FB
:10288C00013089311F21080020002A0886008701A9
:10289C008101810A080020003008B1003108B30022
:1028AC00A0300032890B572C2000A701A70A2F0853
:1028BC00A9002E08A8003430B1003108AA0033302A
:1028CC00943127249431023020003406031D732CDC
:1028DC00A0300032890B6F2C692C3408031D782C26
:1028EC00B2017A2CB201B20A320808002000A7000B
:1028FC002408A6002308A500A535A60D27088600E8
:10290C00013087002508C03F2608C13F27088600F4
:10291C0001308700013081044131003081042208EC
:10292C00A5002708023E860001308700250881009B
:10293C002708033E8600013087002008C03F21088D
:10294C00C13F08002000280829040319D02CAD0130
:10295C00AD0AA91BBB2C0130A835A90D890BB22CD3
:10296C000130AC002C08AD07AF2C29082B02031D3D
:10297C00C12C28082A02031CC72C2808AA022908E3
:10298C00AB3B0130A936A80C890BC82C0130AD0229
:10299C00031DBB2C2B08A9002A08A80008008A31AB
:1029AC00412294319231592294318B170B179E305E
:1029BC002000A1009030A200A301A401A501BB300E
:1029CC00A6000A30A700A801A80A88312620943155
:1029DC0029302000A0000330A1009F31EE27943154
:1029EC00CB302000A0001630A1009F31F727943186
:1029FC008C318D2480313C282000A601A7012008B1
:102A0C0021040319322DA501A50AA11B172D013094
:102A1C00A035A10D890B0E2D0130A4002408A507AB
:102A2C000B2D0130A635A70D890B182D210823027B
:102A3C00031D222D20082202031C292D2008A2028E
:102A4C002108A33B26140130A136A00C890B2A2D9A
:102A5C000130A502031D172D2708A1002608A00090
:102A6C00080010302000BB003B08BF0021303F02A3
:102A7C00031808003F08BB00BC013B08B0003C0831
:102A8C00B100B201B20ABC30B3000130B400B501E0
:102A9C00B50A8831CA2095312000BD003D08BE0022
:102AAC003E08031D642D23003C0820003F06031D37
:102ABC00642D3F08973163279531692D20003F081D
:102ACC0097311627953101302000BB003B08BF071A
:102ADC003C2D2000DA005A088731CD279531003A79
:102AEC00031D872D3F302000AE009030AF005A08F8
:102AFC00D600D7015608B0005708B1008E312B26EE
:102B0C00080020005A088731192795312000D6007B
:102B1C005608D9005908031908008830AE009030C7
:102B2C00AF005A08D600D7015608B0005708B100BC
:102B3C008E312B26953120005A08D600D701560825
:102B4C00AE005708AF000C30D8005808B0009431D4
:102B5C005124080001302000A4020030A53B240AB7
:102B6C000319250A0319EF2D2000200884002108E1
:102B7C00850012000319CE2D220886002308870039
:102B8C002008840021088500000801060319E62DA1
:102B9C0022088600230887000108A600A701A609C1
:102BAC00A709A60A0319A70A200884002108850092
:102BBC0000082607A00027080318270AA100080010
:102BCC000130A0070030A13D0130A2070030A33D29
:102BDC00B02DA001A10108002000A601A31FFD2D0E
:102BEC00A209A309A20A0319A30AA601A60AA11FF6
:102BFC00042EA009A109A00A0319A10A2008210486
:102C0C0003192B2EA501A50AA11B162E0130A035E8
:102C1C00A10D890B0D2E0130A4002408A5070A2E46
:102C2C0021082302031D1C2E20082202031C222E25
:102C3C002008A2022108A33B0130A136A00C890B6D
:102C4C00232E0130A502031D162E26080319332E40
:102C5C00A209A309A20A0319A30A2308A1002208A6
:102C6C00A0000800210064082000C4004408C7002C
:102C7C0047080319782E0130C7025730AE00913047
:102C8C00AF008E312B2696312000C6014708460234
:102C9C000318672E7D30AE009130AF00893176215C
:102CAC0096312000C400C5014408B0004508B100AD
:102CBC008E312B26963101302000C4004408C60703
:102CCC004C2EE630AE009030AF0089317621963133
:102CDC002000C400C5014408B0004508B1008E3185
:102CEC002B26080072302000AE009030AF008E31E1
:102CFC002B2608002000B1000130AC002C0821006C
:102D0C00ED076D08803A7C3E0318ED016D0820003C
:102D1C00AC00AD012C08A0002D08A1003030A200A1
:102D2C000030A30093311A23963130302000AE00CE
:102D3C002330AF0020082E07860021082F3D870086
:102D4C000108031D080021006D082000AC00AD0136
:102D5C002C08A0002D08A1003030A2000030A300E8
:102D6C0093311A23963130302000AE002330AF005F
:102D7C0020082E07A60021082F3DA7003108B0001F
:102D8C003008A8009231C722080001302200B60793
:102D9C000030B73D21006108853126259631003A77
:102DAC000319E32E01302000C90049082100E10776
:102DBC006108803A7C3E0318E1013C302000A800F9
:102DCC000030A900220037082000AB002200360892
:102DDC002000AA009431A824963120002808290448
:102DEC00031DFB2E92317E22080058302000A800D3
:102DFC000230A900220037082000AB002200360860
:102E0C002000AA009431A824963120002808290417
:102E1C00031D0800953137252200B601B7010800C3
:102E2C002000B000300803190800213030020318CC
:102E3C0008000830A0000030A1003008A900AA0149
:102E4C002908A2002A08A300883178209731200095
:102E5C002008AB002B08AF0030080739A90029085F
:102E6C00AC002F08203E8600013087000108A90025
:102E7C002908AD002F08203E860001308700013064
:102E8C00A9002C0A4A2FA935890B492F2908FF3A8A
:102E9C000105AA002A08AE002D082E060319080009
:102EAC002E08A9002F08203E860001308700290833
:102EBC00810001302100E40208002000B00030083D
:102ECC000319080021303002031808000830A00054
:102EDC000030A1003008A900AA012908A2002A0884
:102EEC00A30088317820973120002008AB002B08F4
:102EFC00AF0030080739A9002908AC002F08203E84
:102F0C008600013087000108A9002908AD002F08B0
:102F1C00203E8600013087000130A9002C0A972F33
:102F2C00A935890B962F29080104AA002A08AE009E
:102F3C002D082E06031908002E08A9002F08203E84
:102F4C00860001308700290881000130A90029087A
:102F5C002100E40708002000DA00DB0104305B02EA
:102F6C00031808005B085A07D60056088600013083
:102F7C0087000108D7005708DC005C08031908001B
:102F8C0021305C02031808005C088731CD2797318B
:102F9C00003A0319FA2F20005C0887311927973162
:102FAC002000D6005608D90059080319FA2F88308A
:102FBC00AE009030AF005C08D600D7015608B000C8
:102FCC005708B1008E312B26973120005C08D600B3
:102FDC00D7015608AE005708AF000C30D80058087F
:102FEC00B00094315124973101302000D60056089E
:042FFC00DB07B42F0C
:103F98002100600808002200C20108000134013431
:103FA80006342200C201C20A08002000A20022082A
:103FB80088310120080070302100990098011A1BEF
:103FC8000800E32F2000A1002108A00020082100FC
:103FD800DE000800200021082200AD002000200893
:103FE8002200AC000800200021082200A9002000BF
:083FF80020082200A8000800C7
:020000040001F9
:04000E00E4FFFFFF0D
:00000001FF
