:0400000080313C28E7
:100008007E14803120007F08FD000B1F1528210079
:10001800111E15282000111E15289231C522803185
:1000280037280B1F21282100911E21282000911E0E
:1000380021289231A922803137280B1F2D28210031
:10004800921D2D282000921D2D288731FE278031F2
:1000580037280B1F37282100911D37282000911DB4
:1000680037288B3136237D082000FF007E100900D9
:1000780080313E2821009F318D278031EC009F314F
:100088008E278031ED009F318F278031EE002200CE
:100098009F318A278031E2009F318B278031E3002E
:1000A8009F318C278031E400303084002330850074
:1000B800C030FE000030FF009F31D8278031F001AA
:1000C800F101F201F301F401F501F6012000EB0161
:1000D800EC01ED01EE01D9308400003085001330C9
:1000E800FE000030FF009F31D82780312030840087
:1000F800013085004230FE000030FF009F31D827D4
:100108008031A0308400013085003C30FE00003092
:10011800FF009F31D82780312030840002308500CD
:100128003030FE000030FF009F31D8278031A030EA
:100138008400023085004030FE000030FF009F310F
:10014800D827803120308400033085004030FE00FD
:100158000030FF009F31D8277E1020009431C12C39
:100168002000CA004A080319172B5E30AE009130F0
:10017800AF004A08C700C8014708B0004808B100E6
:100188008E312B268031172B01302000C5023930E3
:10019800AE009130AF008E312B2680312000EB016C
:1001A80045086B020318F3286D30AE009130AF009C
:1001B8006B084607C700470886000130870001081A
:1001C800C800C9014808B0004908B1008E312B2683
:1001D800803101302000C7004708EB07D428693078
:1001E800AE009130AF006B084607C700470886008D
:1001F800013087000108C800C9014808B000490853
:10020800B1008E312B26080001302000C5023A309B
:10021800AE009130AF008E312B2680312000EB01EB
:1002280045086B02031831297D30AE009130AF00CC
:100238006B084607C7004708860001308700010899
:10024800B000B101B01BB1038E312B2680310130D3
:100258002000C7004708EB071429E630AE009030AD
:10026800AF006B084607C7004708860001308700C3
:100278000108B000B101B01BB1038E312B26080074
:1002880012302000AE009130AF008E312B26803125
:1002980020004508FE3EC7004708C500EB01450899
:1002A8006B02031881296D30AE009130AF006B08E6
:1002B800013E4607C700470886000130870001084D
:1002C800C8004808A0006B084607C900490886000E
:1002D80001308700010892310E2280312000210868
:1002E800B1002008B0008E312B26803120006B0829
:1002F800023EC7004708EB0053296930AE00913031
:10030800AF006B08013E4607C7004708860001306A
:1003180087000108C8004808A0006B084607C90004
:100328004908860001308700010892310E22803189
:1003380020002108B1002008B0008E312B260800CB
:1003480013302000AE009130AF008E312B26803163
:1003580020004508FE3EC7004708C500EB014508D8
:100368006B020318E1297D30AE009130AF006B08B5
:10037800013E4607C700470886000130870001088C
:10038800C8004808A0006B084607C900490886004D
:1003980001308700010892310E22803120002108A7
:1003A800B1002008B0008E312B26803120006B0868
:1003B800023EC7004708EB00B329E630AE00903094
:1003C800AF006B08013E4607C700470886000130AA
:1003D80087000108C8004808A0006B084607C90044
:1003E8004908860001308700010892310E228031C9
:1003F80020002108B1002008B0008E312B2608000B
:1004080042302000AE009130AF008E312B26803173
:1004180020004508FE3EC7004708C500EB01450817
:100428006B0203187D2A6B08013E4607C700470880
:100438008600013087000108C8004808A0006B0842
:100448004607C90049088600013087000108923133
:100458000E22803120002108CC002008CB004C0857
:10046800803AC7007F304702031D3C2A9D304B026B
:10047800031C412A2000CC1B462A09302000AE006C
:1004880091304A2A08302000AE009130AF00643025
:10049800A0000030A1004C08A3004B08A20088313E
:1004A8003A20803120002108B1002008B0006430D3
:1004B800A0000030A1004C08A3004B08A200953111
:1004C800A025803120002108A8002008A70091312C
:1004D800DE21803120002808B3002708B2008E31C1
:1004E8002B26803120006B08023EC7004708EB002E
:1004F800132A6B08013E4607C700470886000130EB
:1005080087000108C8004808A0006B084607C90012
:100518004908860001308700010892310E22803197
:1005280020002108CC002008CB004C08803AC700E6
:100538007F304702031DA22A9D304B02031CA72AC5
:100548002000CC1BD72AEB302000AE009030AF0043
:100558006430A0000030A1004C08A3004B08A200A2
:1005680088313A20803120002108B1002008B000ED
:100578006430A0000030A1004C08A3004B08A20082
:100588009531A025803120002108A8002008A70067
:100598009131DE21803120002808B3002708B200FD
:1005A8008E312B260800EA302000AE009030AF00D4
:1005B8006430A0000030A1004C08A3004B08A20042
:1005C80088313A20803120002108B1002008B0008D
:1005D8006430A0000030A1004C08A3004B08A20022
:1005E8009531A025803120002108A8002008A70007
:1005F8009131DE21803120002808B3002708B2009D
:100608008E312B26080030302000AE009130AF002C
:100618008E312B260800AF302000AE009030AF009E
:100628008E312B26080020004408013A0319C828F7
:10063800033A03190829013A03194429073A031907
:10064800A429013A0319042A033A0319072B0F2B8B
:10065800080085302000A0009130A1005B08A200AE
:100668000230A3000330A4000030A50095315E25B8
:100678008331200020082104031D502B5B08043E11
:10068800A6000230A7008931922120002608DC004C
:100698005C082100EE000800A1302000A000913085
:1006A800A1005B08A2000230A3000330A4000030C0
:1006B800A50095315E258331200020082104031D03
:1006C800682B9531E6250800A9302000A00091305C
:1006D800A1005B08A2000230A3000330A400003090
:1006E800A50095315E258331200020082104031DD3
:1006F800952B5B08043EA6000230A70089319221A1
:10070800833120002608DC005C08F2001C307202ED
:10071800031C08002530AE009030AF008E312B2628
:10072800080095302000A0009130A1005B08A200CD
:100738000230A3000330A4000030A50095315E25E7
:100748008331200020082104031DE72B1C3072028E
:100758000318E02B5B08043EA6000230A70089318D
:100768009221833120002608DC005C08E30063083E
:10077800DC000430A0000030A1007208DD00DE01BA
:100788005D08A2005E08A30088313A20833120006A
:100798002008DF000230DF35890BCF2BA0305F0740
:1007A800E000720803396007E10061088600013043
:1007B80087005C08810008000B30AE009030AF0065
:1007C8008E312B26080091302000A0009130A10026
:1007D8005B08A2000230A3000330A4000030A5008B
:1007E80095315E258331200020082104031D342C17
:1007F800E4011C306402031808000430A000003033
:10080800A1006408DC00DD015C08A2005D08A3000B
:1008180088313A20833120002008DE000230DE359E
:10082800890B132CA0305E07DF00640803395F07CB
:10083800E00060088600013087000108E1006108D7
:10084800E3006308DC005C08A0006408023E933102
:100858005823833101302000DC005C08E407FD2BBD
:100868008D30A0009130A1005B08A2000230A300E7
:100878000330A4000030A50095315E2583312000A7
:1008880020082104031DBC2C5030AE009130AF006D
:100898008E312B2683312000E4011B3064020318BB
:1008A800AC2C6408013E0339031D742CC130AE0022
:1008B8009130AF000430A0000030A1006408DC00D3
:1008C800DD015C08A2005D08A30088313A2083316D
:1008D80020002008DE000230DE35890B702C8E2CBB
:1008E8007D302000AE009130AF000430A000003011
:1008F800A1006408DC00DD015C08A2005D08A3001B
:1009080088313A20833120002008DE000230DE35AD
:10091800890B8B2CA0305E07DF00640803395F0762
:10092800E00060088600013087000108E100E2016C
:100938006108B0006208B1008E312B268331013086
:100948002000DC005C08E4071B306402031C552C03
:10095800E630AE009030AF0023003B082000DC00FA
:10096800DD015C08B0005D08B1008E312B2608005F
:1009780089302000A0009130A1005B08A20002305D
:10098800A3000330A4000030A50095315E25833113
:10099800200020082104031DFC2CE4011C30640203
:1009A800031808000430A0000030A1006408DC002F
:1009B800DD015C08A2005D08A30088313A2083317C
:1009C80020002008DE000230DE35890BE82CA0303C
:1009D8005E07DF00640803395F07E00060088600EF
:1009E8000130870081010130DC005C08E407D22C6B
:1009F8009930A0009130A1005B08A2000230A3004A
:100A08000330A4000030A50095315E258331200015
:100A180020082104031D212D5B08043EA600023096
:100A2800A70089319221833120002608DC005C0868
:100A3800E300630895311D250800B5302000A000AB
:100A48009130A1005B08A2000230A3000330A4008B
:100A58000030A50095315E2583312000200821044F
:100A6800031D3A2D2100ED01ED0A0800B9302000E0
:100A7800A0009130A1005B08A2000230A30003305F
:100A8800A4000030A50095315E25833120002008A0
:100A98002104031D522D2100ED01080021006E03E1
:100AA8000319080020005B0896312E260800210053
:100AB800D20052082000C400C5014408A00045081F
:100AC800A1003030A2000030A3009231E12285312C
:100AD80030302000C6002330C70020084607210018
:100AE800D70020002108473D2100D800570886007C
:100AF800580887000108031D832D003008009D3029
:100B08002000A0009130A100210058082000A30077
:100B1800210057082000A2000330A4000030A500DF
:100B280095315E258531200020082104031DC22D42
:100B380021006E082000C400C5014408B000450823
:100B4800B100B201B20AD630B3000030B400B5012A
:100B5800B50A88318C2085312000C600460821005E
:100B6800D5005508031DBD2D1C302000AE00913066
:100B7800D52EBD302000AE009030432FBD30200070
:100B8800A0009130A100210058082000A3002100F6
:100B980057082000A2000330A4000030A5009531BA
:100BA8005E258531200020082104031DE62D210043
:100BB8006E082000C400C5014408AE004508AF0017
:100BC8000330092E81302000A0009130A1002100BF
:100BD80058082000A300210057082000A200033075
:100BE800A4000030A50095315E258531200020083D
:100BF8002104031D152E21006E082000C400C50124
:100C08004408AE004508AF000430C6004608B000EE
:100C180094313D2485312000C70047082100D500C4
:100C2800462FA5302000A0009130A10021005808CF
:100C38002000A300210057082000A2000330A400D0
:100C48000030A50095315E2585312000200821045B
:100C5800031D502E21006E082000C400C501440861
:100C6800AE004508AF000530C6004608B000943114
:100C78003D2485312000C70047082100D5005508CC
:100C8800031D4B2ED5302000AE009030432FC930C5
:100C98002000AE009030432FB1302000A0009130EA
:100CA800A100210058082000A300210057082000B7
:100CB800A2000330A4000030A50095315E258531DF
:100CC800200020082104031DA22E21005708043EFD
:100CD8002000C40000302100583D2000C500440811
:100CE800A6004508A70089319221853120002608F1
:100CF800C60046082100D6006E082000C400C501C1
:100D08004408AE004508AF000830C6004608B000E9
:100D180094313D24853121006E082000C400C501AE
:100D28004408AE004508AF00210056082000C60060
:100D38004608B00094313D248531462FAD3020005F
:100D4800A0009130A100210058082000A300210034
:100D580057082000A2000330A4000030A5009531F8
:100D68005E258531200020082104031DE02E210086
:100D78006E082000C400C5014408B0004508B10051
:100D88000930C6004608B200D630B3000030B400BF
:100D9800B501B50A88318C20853126302000AE0097
:100DA8009130AF00210056082000C400C501440856
:100DB800B0004508B100442F2100D40102302000C2
:100DC800C40044082100D30054082000C400C50111
:100DD8004408210057078600200045082100583D97
:100DE800870001082000C60021005308A03E8600A5
:100DF80087012000460881000130C4004408210012
:100E0800D3075408D40A2000C400C50144082100AF
:100E180057078600200045082100583D8700010833
:100E2800031DE82E0A302000C40044082100A00059
:100E380054082000C40044082100A1006E082000C6
:100E4800C400C5014408AE004508AF00A030C60084
:100E58004608B000210053082000C7004708B10029
:100E68009331EB2385312000C80048082100D500C4
:100E780055080319462F59302000AE009030AF00B6
:100E88008E312B26210057088600580887008101DB
:100E980001300800A03097315F2787317018582F2C
:100EA800A43097315F27873106302000A800003032
:100EB800A9007108AB007008AA0094319424873106
:100EC800200028082904031D6D2FA83097315F27BB
:100ED80087310C302000A8000030A9007108AB0051
:100EE8007008AA0094319424873120002808290426
:100EF800031D822FAC3097315F2787313C302000AB
:100F0800A8000030A9007108AB007008AA0094314D
:100F180094248731200028082904031D972FB03016
:100F280097315F27873178302000A8000030A9006A
:100F38007108AB007008AA0094319424873120000E
:100F480028082904031DAC2FB43097315F27873157
:100F580058302000A8000230A9007108AB007008C2
:100F6800AA00943194248731200028082904031DFD
:100F7800C42FB83097315F270130F0000030F100FE
:100F88000130F0070030F13D08002000A501A6015E
:100F9800200821040319F92FA701A70AA11BDE2F96
:100FA8000130A035A10D890BD52F0130A4002408EC
:100FB800A707D22F0130A535A60D890BDF2F2108F1
:100FC8002302031DE92F20082202031CF02F20080A
:100FD800A2022108A33B25140130A136A00C890BDD
:100FE800F12F0130A702031DDE2F2608A1002508D6
:060FF800A0000800080043
:1010040010302000BB003B08BF0021303F02031812
:1010140008003F08BB00BC013B08B0003C08B1001D
:10102400B201B20ACC30B3000130B400B501B50A44
:1010340088318C2088312000BD003D08BE003E0868
:10104400031D2F2823004C0820003F06031D2F28D2
:101054003F08973111278831342820003F08963102
:10106400C426883101302000BB003B08BF07072895
:101074002000A601A11F4528A009A109A00A03195F
:10108400A10AA601A60AA31F5028A209A309A20A1D
:101094000319A30A0130A4002408A606A701A80185
:1010A4002008210403197F28A501A50AA11B64288F
:1010B4000130A035A10D890B5B280130A400240860
:1010C400A50758280130A735A80D890B65282108E4
:1010D4002302031D6F2820082202031C76282008FF
:1010E400A2022108A33B27140130A136A00C890BCE
:1010F40077280130A502031D6428260803198728D0
:10110400A709A809A70A0319A80A2808A1002708FB
:10111400A000080020003208B6003608B900A0304C
:101124000032890B92282000A701A70A3108A900E0
:101134003008A8003A30B6003608AA003930943195
:1011440013248831023020003A06031DAE28A03053
:101154000032890BAA28A4283A08031DDD28A030F0
:101164000032890BB22820003408A9003308A800F3
:101174003508B6003608AA003108AC003008AB00C8
:101184003A30B7003708AD009331C32388310230B9
:1011940020003A06031DD328A0300032890BCF2843
:1011A400C9283A08031DD828B801DF280230B60040
:1011B4003608B800DF28B801B80A3808080020004B
:1011C400A30021005B18232902302000A20021087B
:1011D40086008701220881002008A2002100590A04
:1011E4008600013087002000220881002308A20025
:1011F4002100590886000130870020002208810060
:101204002108A20021005908023E8600013087000F
:101214002000220881000330A20022082100D907FF
:1012240059085C3A031D1C2959302000A2002208E9
:101234002100D900DB105A085906031D29295B1423
:10124400292920002108860087018101810A2000C4
:1012540021088600870102300106031D08002100D1
:101264006B08031D31292000911508002000A601F8
:101274002100630803198F2908306202031C4929DD
:10128400E20101302000A00020082100E1070A301B
:1012940084009030850000086102031C5329E20198
:1012A400E1016108203E860001308700010820002A
:1012B400A000A1010130A2000030A3002100620AB5
:1012C40020006629A235A30D890B64292008220574
:1012D400A40021082305A50024082504031988294E
:1012E400210061082000A0000230A035FF3E031D4C
:1012F40077292035210062072000A1002108A700DA
:101304000130A00020082100E2078F2901302000CD
:10131400A00020082100E2073E2920002708080039
:101324002000260886002708870020300106031DB8
:10133400A12901302000A6070030A73D92292608E4
:101344008600270887000930010603199B29AB0191
:10135400AC01AA0126088600270887002D30010663
:10136400031DB9290130A8002808AA07C1292608A5
:101374008600270887002B300106031DC52901308C
:10138400A6070030A73D2608860027088700010825
:101394009F31F1278931031CEE2920002C08A1007C
:1013A4002B08A0000A30A2000030A3009231E122F1
:1013B40089312000260886002708870001082007B5
:1013C400A80021080318210AA9002808D03EAB0070
:1013D400FF30293DAC00C12920002A080319FE2949
:1013E4002B09A8002C09A900A80A0319A90A28088E
:1013F400A6002908A70008002C08A7002B08A600AF
:1014040008002000B0010A308400903085000008F4
:10141400300203181F2A3008203E8600013087005E
:1014240081010130A9002908B0070A3084009030F6
:10143400850000083002031C0D2AB101043031027A
:101444000318462A3108A900AA012908A0002A087D
:10145400A1003030A2000030A3009231E1228A3191
:1014640030302000AB002330AC0020082B0786006E
:1014740021082C3D870081010130A9002908B1070A
:1014840004303102031C242AB1011C303102031838
:1014940008003108023E9F31E4278A312000A90068
:1014A4002908AF002F08A9000430A0000030A100D3
:1014B4003108AA00AB012A08A2002B08A300883136
:1014C4003A208A3120002008AC000230AC35890B68
:1014D400682AA0302C07AD00310803392D07AE006F
:1014E4002E08860001308700290881000130A900F8
:1014F4002908B107472A2000D50022000E0D0E0D41
:1015040001392000CD000130CD06CD0CCD0C2200D8
:101514000E0820004D067F394D0622008E00E4306F
:1015240000320032890B922A003200322000550822
:10153400CD00CE014D08AE004E08AF000630CF00FE
:101544004F08B00094313D248A310B302000CD0087
:101554006230890BAB2ACD0BAB2A00002000550862
:10156400CD00CE014D08B0004E08B1000730CF00C9
:101574004F08B2005230B3000030B400B501B50AD0
:1015840088318C208A312000D0005008D400A0304B
:101594000032890BCA2A20005408031D332B06305D
:1015A4005206031DE12A21006D08031D332B06306A
:1015B4002000CD004D08C400C501C601302B200019
:1015C4005508CD00CE014D08B0004E08B1000730DB
:1015D400CF004F08B2005330B3000030B400B5015F
:1015E400B50A88318C208A312000D0005008D400FC
:1015F400A0300032890BFB2A20005408031D332B32
:101604005508CD00CE014D08B0004E08B10007309A
:10161400CF004F08B200CC30B3000130B4005308FF
:10162400D0005008B50088318C208A312000D100C8
:101634005108D400A0300032890B1D2B200054081F
:10164400031D332B5208CD004D08C4005308CE00AF
:101654004E08C500CC30CF004F08C6005508803175
:10166400B420200054080800200091112400951F84
:10167400812C95132100EB016808023E860001309D
:1016840087000108860087018101810AE8010800BA
:10169400DB1808005A08F9007908E8005A0886009F
:1016A400013087000108F9007908EA005A08860029
:1016B400013087000130413FE9000330F900790827
:1016C400DA075A085C3A031D6B2B5930F900790884
:1016D400DA005B105A0859060319DB1424001614A7
:1016E4000230F90079082100EB0008002400961468
:1016F4000230F90079082100EB0008002400161FCD
:101704008C2B0130F90079082100DD070430923177
:101714005A22080020006E08FA006D08F900FA3613
:10172400F90C79082400910020006D1C9F2B0B30CC
:10173400F90079082100EB0008000330F90079086A
:101744002100EB0008002400161FB12B0130F90022
:1017540079082100DD07043092315A2208009614DA
:1017640020006E08FA006D08F9007A08F900FA0101
:1017740006307905FB0000307A05FC00F0307B046C
:10178400ED0000307C04EE006D142100E601E60A51
:101794000230F9007908EB00080066030319EE2B08
:1017A4006908860001308700403F2000ED00413F7A
:1017B400EE0021006908033E860001308700403FA7
:1017C4002200B800413FB9002100690886000130B9
:1017D40087000130423FE70020006D08240091009B
:1017E40020006D1CFB2B0530F90079082100EB006B
:1017F40008000330F90079082100EB0008002400F8
:10180400161F0F2C0130F90079082100DD07240090
:101814001613053092315A22080001302100E702E4
:10182400670A031D292C0530F9007908E9070130FE
:10183400EA02031D212C003092315A2208002400B0
:1018440096140230F90079082100EB000800220008
:101854003808860039088700010824009100013007
:101864002200B8070030B93D08002400161F452C9B
:101874000130F90079082100DD07043092315A2241
:1018840024001613080096150830F9007908210081
:10189400EB0008000830F9007908EB0024009615E5
:1018A400080022003808860039088700240011083F
:1018B400810001302200B8070030B93D0130210019
:1018C400E70203196D2C240096120630F9007908FA
:1018D4002100EB00712C240096169131FD21240087
:1018E40016160800003092315A2208000130F9001F
:1018F40079082100DD07063092315A2208002100C0
:101904006B0884000C3004020318782C91310435E0
:10191400C53E820008009F3194278C312000E700E7
:1019240067082200BE003E080319C42C0B112808C6
:1019340029040319A22C29088A0028080A008C31DA
:1019440022002A082B040319C42C01302000E700CC
:1019540067082200BF0721005E0822003F02031C23
:10196400C42CBF0101302000E70067082200C00733
:1019740062084002031CC42C42080319C32CC10191
:10198400C10AC00141080319D22C2A082B040319E7
:10199400D22C2B088A002A080A008C312200C101AB
:1019A4002100650803198D2C933138238C312000D4
:1019B400E7006708E9006908E70021005F08203EA6
:1019C4008600023087002000670881000130E700AC
:1019D40067082100DF070A3020006906031D8D2CEB
:1019E40001302100DF025F08203E860002308700BC
:1019F4008101DF0164302000AE009130AF0020305F
:101A0400B0000230B1008E312B268C3121006E03E0
:101A14000319112D2030923132228C318D2C9D30BE
:101A24002000A0009130A1002030A2000230A300C9
:101A34000330A4000030A50095315E258C312000D0
:101A440020082104031D362DF430AE009030AF0081
:101A5400220027082000B100220026082000B00040
:101A64008E312B268C318D2CBD302000A00091307E
:101A7400A1002030A2000230A3000330A4000030F3
:101A8400A50095315E258C31200020082104031D1A
:101A94004F2D9F31C3278C318D2C81302000A00025
:101AA4009130A1002030A2000230A3000330A40032
:101AB4000030A50095315E258C31200020082104DA
:101AC400031D682D9F3190278C318D2CA53020006B
:101AD400A0009130A1002030A2000230A300033006
:101AE400A4000030A50095315E258C31200020082B
:101AF4002104031D8D2D9F3187278C31FE3020005A
:101B0400AE009030AF007930B0009130B1008E312A
:101B14002B268C318D2CB1302000A0009130A100F7
:101B24002030A2000230A3000330A4000030A5003E
:101B340095315E258C31200020082104031DAF2D32
:101B44002430A6000230A700893192218C31200074
:101B540026089F31A9278C318D2CAD302000A000A0
:101B64009130A1002030A2000230A3000330A40071
:101B74000030A50095315E258C3120002008210419
:101B8400031DD52D2630AE009130AF0021005E0834
:101B94002000E700E8016708B0006808B1008E3152
:101BA4002B268C318D2C75302000A0009130A100A3
:101BB4002030A2000230A3000330A4000030A500AE
:101BC40095315E258C31200020082104031DFB2D56
:101BD4002430A6000230A700893192218C312000E4
:101BE4002608E7006708EA006A089131ED218C3184
:101BF4008D2C71302000A0009130A1002030A20073
:101C04000230A3000330A4000030A50095315E2506
:101C14008C31200020082104031D262E9F318427A7
:101C24008C312000E7006708EA00E030AE00903015
:101C3400AF006A08E700E8016708B0006808B1006F
:101C44008E312B268C318D2C2030923132228C31E6
:101C54008D2C30302000B4003408BB0020002F0845
:101C6400B5002E08B400AE0A0319AF0A3408840084
:101C7400350885000008B6003608C3004308031978
:101C840008002530430603194C2E43089F319C2736
:101C94008E31302E2000C101C201C001562E4015E4
:101CA4000130AE070030AF3D2E0884002F088500B8
:101CB4000008303A0319512E5F2E2E0884002F0895
:101CC400850000089F31F1278E31031C002F20006E
:101CD400C101C2010A302000A0000030A100420866
:101CE400A3004108A2009231E1228E312000210894
:101CF400C2002008C1002E0884002F0885000008B7
:101D0400D03EB400FF3003180030B5003408C107DA
:101D14003508C23D0130AE070030AF3D2E088400C7
:101D24002F08850000089F31F1278E31031C002FF6
:101D34006C2E20003B0886008701403FB900413FDC
:101D4400BA000230B4003408BB0739083A04031D52
:101D5400AF2E4930B9009130BA00BE01BF01390835
:101D64003E0784003A083F3D850012000319BF2E48
:101D74000130BE070030BF3DB12E42083F02031DB3
:101D8400C52E41083E020318CC2E3E08C1023F086E
:101D9400C23BCE2EC101C201FF302000C107FF307B
:101DA400C23D410A0319420A0319EA2E20309F3129
:101DB4009C278E31CE2E390884003A08850000080D
:101DC4009F319C278E3101302000B9070030BA3D85
:101DD4000130BE020030BF3B3E0A031DDD2E3F0A28
:101DE4000319302EDD2E4330B9000030BA00013023
:101DF400BE000030BF00BF2E40171E2F20002F084A
:101E0400B5002E08B400AE0A0319AF0A34088400E2
:101E1400350885000008C300003A0319FF2F643A0F
:101E240003191E2F0D3A03191E2F1A3A03199B2E5C
:101E3400063A0319FE2EF52E2000401B382F3B08CE
:101E440086008701403FBC00413FBD000230B40022
:101E54003408BB07BD1F432F0330B4003408C0044B
:101E6400BC09BD09BC0A0319BD0A432F3B088600FF
:101E74008701403FBC00413FBD000230B40034083C
:101E8400BB07C301C30A053043060319682F43087F
:101E9400B400B501B435B50D00303407840090307A
:101EA400353D8500003FB600013FB70037083D02CD
:101EB400031D5E2F36083C02031C682F0130B4005A
:101EC4003408C30705304306031D492F4108420463
:101ED4000319742F400803390319742FFF30C10705
:101EE400FF30C23D4308B400B501B41BB503350847
:101EF400803AB6004208803A3602031D832F410817
:101F040034020318902F20004308B400B501B41B19
:101F1400B5033408C1023508C23B932F2000C10128
:101F2400C201401DAC2F4008033903199D2F2D30E9
:101F34009F319C278E312000410842040319C52F8C
:101F440030309F319C278E31FF302000C107FF3095
:101F5400C23D9E2F410842040319BD2F20309F31FA
:101F64009C278E31FF302000C107FF30C23D41085D
:101F74004204031DB02F400803390319C52F2D3027
:101F84009F319C278E3120004308B4003408B800E8
:101F9400FF302000B4003408B807380A0319302E83
:101FA4000A30A8000030A9003808B400B501B435DF
:101FB400B50D0030340784009030353D8500003F76
:101FC400A000013FA1003D08A3003C08A200873106
:101FD400C9278E3120002108AB002008AA009431C3
:101FE40094248E3120002808303EB6003608C30001
:101FF40043089F319C278E31CA2F080001340034D6
:102004000A34003464340034E8340334103427349C
:10201400043421343A345734533443343A34503446
:102024004F34533420344C344134523447344534DF
:10203400523420345434483441344E34203432340D
:1020440037340A34003421343A3450344F3453345E
:102054003A3450344F34533420344C3441345234B1
:1020640047344534523420345434483441344E34A3
:102074002034323437340A34003421343A342534A9
:102084002534253464343A3455344E344434453498
:10209400543445344334543445344434203444347F
:1020A400453456344934433445340A3400342134F5
:1020B4003A344E344F342034413443344B34203496
:1020C400463452344F344D3420344934323443345A
:1020D400203453344C344134563445340A340034B7
:1020E40021343A344D34413450343A344E344F343C
:1020F400203453344C34413456344534203446343B
:102104004F3455344E3444340A34003421343A3490
:1021140025342534253464343A344E344534543427
:1021240057344F3452344B342034453452345234BF
:102134004F3452340A3400344234413443344B343F
:1021440050344C3441344E3445342D344D344134C0
:102154005334543445345234003449344C344C34BC
:102164004534473441344C345F3454345934503456
:1021740045340A34003421343A34573448344F3423
:102184003A344E34413443344B340A340034213429
:102194003A345334543450343A344E34413443345E
:1021A4004B340A3400342A343A34533454345034DB
:1021B4003A34413443344B340A34003424343A340A
:1021C4005234443441343A34253464340A340034C7
:1021D4002D34253464342E3425343034323464348C
:1021E4000A34003424343A34573448344F343A34BB
:1021F400253473340A3400342A343A34533454348E
:1022040050343A34253473340A3400342D342534AC
:1022140064342E3425343034323464342C34003471
:10222400553449344E345434313436345F345434B0
:102234003A34003424343A34573448344F343A343A
:10224400253464340A34003424343A34473445346D
:1022540054343A34253464340A3400344E344F341C
:102264005F3444344134543441340A3400345534F2
:1022740049344E34543438345F3454343A340034AA
:1022840046344C344F34413454343A3400342834D2
:102294006E3475346C346C342934003424343A3458
:1022A4005234533443343A34003424343A344D34BD
:1022B400413450343A3400342534253425346434DC
:1022C4003A3400342334253473340A340034253446
:1022D40075340A340034253475342C3400345234C3
:1022E40044344134003457344434413400344134A8
:1022F40043344B340034253464342C3400345334A4
:102304005434413400344934323443340034433493
:102314005334433400345234533443340034533448
:102324005334433400345734533443340034533433
:1023340045344E340034573448344F3400344D342B
:102344004134503400345334543450340034503411
:102354004F34533400344734453454340034533404
:1023640045345434003453344634543400345534EE
:102374004634543400345334413456340034253410
:1023840064347C3400348B314A2B8B31782B8B3181
:10239400CF2B8C31012C8C31742C8C31372C8C311B
:1023A4004C2C8C31742C8C31532C8C31782C8B31FB
:0623B400802B8B31A52BEC
:1023BC002000A81F08002709A9002809AA00A90ABB
:1023CC000319AA0A2908A7002A08A8000800200057
:1023DC00A4002408A3002308A00000309331582344
:1023EC0020002408A30023082200C40008000530A4
:1023FC00F70077082100E9070130EA02031D0B2AD8
:10240C000430F7007708EB000800EB01EB0A08003A
:10241C002000A7002008A200A3012708A400A50102
:10242C002408A500A40122082407A0002308253DA8
:10243C00A10008009331192392319F31A2279231C8
:10244C009F31982792319231FD2292319F31CD27C5
:10245C0092319231742208002000E60022002C08F0
:10246C002D040319080020006608E5006508DB0050
:10247C0022002D088A002C080A0092310800003036
:10248C002000AE00AF000230C0004008B000943114
:10249C003D2492312000C1004108C2004208031DB6
:1024AC000800883102200800F800240016152100CD
:1024BC006808023E86000130870001080319722A61
:1024CC007808F7006808023E860001308700010892
:1024DC008600870177088100EB010800210091122A
:1024EC001112083023009F0090309D0024309E0074
:1024FC0044309B009C01F601F50140302000A00007
:10250C002008F400F301EC012100E501911608000C
:10251C0020002708AB002608AA002A0886002B08F2
:10252C00870028088400023085000008C03F890815
:10253C00031908000130AA070030AB3D0130A90097
:10254C002908A807932A23009D1CAE2A1D121D16CC
:10255C001908F7007308203E8600033087007708BF
:10256C0081000130F7007708F3074030730203183D
:10257C00F3010130F70077082100E507080040302F
:10258C0074020318DE2A7508A03E8600023087000C
:10259C00010823009A000130F7007708F507403056
:1025AC0075020318F5010130F7007708F4070800ED
:1025BC002100111208002000A401A501201CEA2A08
:1025CC002208A4072308A53D0130A235A30D890BD1
:1025DC00EB2A0130A136A00C890BF02A200821042B
:1025EC00031DE42A2508A1002408A0000800593086
:1025FC002000A00020082100DA0059302000A000A3
:10260C0020082100D900DB145B10DD018030240090
:10261C0094002830950097014F30920020009111C2
:10262C0021009115080022008C018D018E013F3094
:10263C0021008C00F0308D007F308E004F30230055
:10264C008E0020308D0017308C0024008D013F301F
:10265C008C00BF308E002100951322009E01843027
:10266C009D0008002000A1012100650803193A2BE8
:10267C0020006C08203E8600033087000108A00073
:10268C002008A1000130A0002008EC0740306C02AB
:10269C000318EC01210091120130E5029116200083
:1026AC00210808002000A100A201210823009100AC
:1026BC0020002008230093009513151315150030E6
:1026CC008B1B01302000A2008B1355302300960089
:1026DC00AA30960095149518712B15112000220C18
:1026EC00031C8B1303188B1708002000A60023086B
:1026FC00A5002208A400A435A50D260886000130EB
:10270C0087002408C03F2508C13F2108A4002608E3
:10271C00023E860001308700240881002608033E13
:10272C008600013087002008C03F0030C13F080000
:10273C002000A10074080319A02B2100111AAB2B47
:10274C002000210823009A00C02B11122000210820
:10275C00A0007608A03E8600023087002008810089
:10276C000130A0002008F607403076020318F6016D
:10277C000130F40221001116080021005B18E42B33
:10278C0020002908A1002808A0002A08AE002E0865
:10279C00A2002C08A4002B08A3004C309431682410
:1027AC0093314C302000AE002E08A0002D08AF0055
:1027BC002F08A10001308831E120080020002D08ED
:1027CC00860087018101810A0800A0300032890B44
:1027DC00EC2B20003108B2003208A7002F08A9000A
:1027EC002E08A8003530B3003308AA003008943105
:1027FC0013249331023020003506031D0A2CA0301F
:10280C000032890B062C002C3508031D0F2CB4014B
:10281C00112CB401B40A340808002000AD002100CA
:10282C005B18362C20002D08AB002B08A0002708C5
:10283C00AC002C08A1002908A3002808A2005130E4
:10284C0093317B23943151302000AB002B08A00036
:10285C002A08AC002C08A10001308831E1200800C6
:10286C0020002A08860087018101810A08002000C7
:10287C003008B1003108B300A0300032890B432C72
:10288C002000A701A70A2F08A9002E08A8003430A1
:10289C00B1003108AA003330943113249431023042
:1028AC0020003406031D5F2CA0300032890B5B2CFA
:1028BC00552C3408031D642CB201662CB201B20AEB
:1028CC00320808002000A7002408A6002308A50051
:1028DC00A535A60D27088600013087002508C03FC6
:1028EC002608C13F2708860001308700013081048B
:1028FC004131003081042208A5002708023E8600E1
:10290C0001308700250881002708033E860001302E
:10291C0087002008C03F2108C13F0800200028087C
:10292C0029040319BC2CAD01AD0AA91BA72C01303D
:10293C00A835A90D890B9E2C0130AC002C08AD07D5
:10294C009B2C29082B02031DAD2C28082A02031CE2
:10295C00B32C2808AA022908AB3B0130A936A80CD5
:10296C00890BB42C0130AD02031DA72C2B08A90038
:10297C002A08A80008008A310322943192312022BF
:10298C0094318B170B179E302000A1009030A200C1
:10299C00A301A401A5014E30A6000730A700A80191
:1029AC00A80A9731AE2794312D302000A0000330B7
:1029BC00A1009F31B127943179302000A00016304E
:1029CC00A1009F31BA2794318C318D2480313C2861
:1029DC002000AF000830A0000030A1002F08A90093
:1029EC00AA012908A2002A08A30088313A209431B0
:1029FC0020002008AB002B08AC002F080739A900D9
:102A0C002908AD00AE012C08203E8600013087005D
:102A1C000130A9002D0A132DA935890B122D290877
:102A2C00010503191B2DAE01AE0A2E08080020006B
:102A3C00DA005A089431EE249531003A031D352DF5
:102A4C003F302000AE009030AF005A08D600D701BE
:102A5C005608B0005708B1008E312B260800200014
:102A6C005A088A317D2295312000D6005608D900AB
:102A7C005908031908008830AE009030AF005A088E
:102A8C00D600D7015608B0005708B1008E312B265E
:102A9C00953120005A08D600D7015608AE005708C9
:102AAC00AF000C30D8005808B00094313D24080019
:102ABC0001302000A4020030A53B240A0319250A8A
:102ACC0003199D2D20002008840021088500120088
:102ADC0003197C2D22088600230887002008840017
:102AEC0021088500000801060319942D2208860090
:102AFC00230887000108A600A701A609A709A60AB2
:102B0C000319A70A2008840021088500000826075D
:102B1C00A00027080318270AA10008000130A0070D
:102B2C000030A13D0130A2070030A33D5E2DA00175
:102B3C00A10108002000A601A31FAB2DA209A30927
:102B4C00A20A0319A30AA601A60AA11FB22DA00965
:102B5C00A109A00A0319A10A200821040319D92DDF
:102B6C00A501A50AA11BC42D0130A035A10D890B0F
:102B7C00BB2D0130A4002408A507B82D2108230281
:102B8C00031DCA2D20082202031CD02D2008A202EE
:102B9C002108A33B0130A136A00C890BD12D0130AB
:102BAC00A502031DC42D26080319E12DA209A309B2
:102BBC00A20A0319A30A2308A1002208A0000800F6
:102BCC00210063082000C4004408C700470803190B
:102BDC00262E0130C7025730AE009130AF008E3137
:102BEC002B2695312000C601470846020318152EE6
:102BFC007D30AE009130AF00893138219531200005
:102C0C00C400C5014408B0004508B1008E312B2624
:102C1C00953101302000C4004408C607FA2DE63077
:102C2C00AE009030AF008931382195312000C400BE
:102C3C00C5014408B0004508B1008E312B260800B0
:102C4C0072302000AE009030AF008E312B26080081
:102C5C002000B1000130AC002C082100EC076C08FE
:102C6C00803A7C3E0318EC016C082000AC00AD01EE
:102C7C002C08A0002D08A1003030A2000030A300C9
:102C8C009231E122963130302000AE002330AF007B
:102C9C0020082E07860021082F3D87000108031D00
:102CAC00080021006C082000AC00AD012C08A0002D
:102CBC002D08A1003030A2000030A3009231E12297
:102CCC00963130302000AE002330AF0020082E07A4
:102CDC00A60021082F3DA7003108B0003008A8003D
:102CEC0092318E22080001302200B6070030B73D29
:102CFC002100600885315B259631003A0319912E2D
:102D0C0001302000C90049082100E0076008803A22
:102D1C007C3E0318E0013C302000A8000030A900E4
:102D2C00220037082000AB00220036082000AA0041
:102D3C00943194249631200028082904031DA92ECF
:102D4C0092314522080058302000A8000230A9001A
:102D5C00220037082000AB00220036082000AA0011
:102D6C00943194249631200028082904031D08006E
:102D7C00883102202200B601B70108002000B00003
:102D8C0030080319080021303002031808000830FD
:102D9C00A0000030A1003008A900AA012908A20057
:102DAC002A08A30088313A20963120002008AB0075
:102DBC002B08AF0030080739A9002908AC002F08F0
:102DCC00203E8600013087000108A9002908AD00CB
:102DDC002F08203E8600013087000130A9002C0A04
:102DEC00F82EA935890BF72E2908FF3A0105AA0000
:102DFC002A08AE002D082E06031908002E08A9007B
:102E0C002F08203E86000130870029088100013000
:102E1C002100E30208002000B0003008031908006C
:102E2C0021303002031808000830A0000030A10047
:102E3C003008A900AA012908A2002A08A300883199
:102E4C003A20973120002008AB002B08AF00300847
:102E5C000739A9002908AC002F08203E8600013054
:102E6C0087000108A9002908AD002F08203E860024
:102E7C00013087000130A9002C0A452FA935890B98
:102E8C00442F29080104AA002A08AE002D082E069A
:102E9C00031908002E08A9002F08203E86000130D7
:102EAC008700290881000130A90029082100E307C7
:102EBC0008002000DA00DB0104305B020318080074
:102ECC005B085A07D60056088600013087000108B7
:102EDC00D7005708DC005C080319080021305C029D
:102EEC00031808005C089431EE249731003A03195A
:102EFC00A82F20005C088A317D2297312000D60053
:102F0C005608D90059080319A82F8830AE00903004
:102F1C00AF005C08D600D7015608B0005708B100C6
:102F2C008E312B26973120005C08D600D70156082D
:102F3C00AE005708AF000C30D8005808B0009431E0
:102F4C003D24973101302000D6005608DB07622F54
:102F5C00200022082200A700200021082200A60041
:102F6C0020002308A9000030AA0029082200B40080
:102F7C0020002A082200B50020002408A9000030F7
:102F8C00AA0029082200B20020002A082200B3005F
:102F9C0020002508A9000030AA0029082200B00052
:102FAC0020002A082200B10001309F31E42797311C
:102FBC002000A90029082100DE0000309F31E42701
:102FCC002000A90029082200C40003302000A90019
:102FDC0029082200CA00200027082200AB0020008C
:102FEC0026082200AA0020002808A900290822008F
:042FFC00E2000800E7
:103F08002200440808002200C201080001340134DC
:103F18000634FF34013401342200C201C20A080009
:103F28000B0C890C01390800163021009700080095
:103F38002000A200220893319E230800703021003F
:103F4800990098011A1B0800A62F2000A10021083B
:103F5800A00020082100DE0008002000210822001F
:103F6800AD00200020082200AC0008002000210835
:103F78002200A900200020082200A8000800210033
:103F88005E082000A3002308A000013093315823C5
:103F9800080021001508C039173895002000950140
:103FA8002100E4010B110800640080010131013097
:103FB800FE020030FF3B7F087E0403190034D92F2E
:103FC8002000A00020082300910015139513151454
:103FD800000000002300130808002000A100A00131
:103FE8003A3021020318FE2F30302102031CFE2F25
:083FF800A001A00A200C080042
:020000040001F9
:04000E00E4FFFFFF0D
:00000001FF
